{"contracts/HackerCoinPlatform.sol":{"HackerCoinPlatform":{"abi":[{"inputs":[],"stateMutability":"nonpayable","type":"constructor"},{"anonymous":false,"inputs":[{"indexed":true,"internalType":"uint256","name":"hackathonId","type":"uint256"},{"indexed":true,"internalType":"address","name":"organizer","type":"address"},{"indexed":false,"internalType":"string","name":"name","type":"string"},{"indexed":false,"internalType":"uint256","name":"prizePoolWei","type":"uint256"},{"indexed":false,"internalType":"uint256","name":"creationFeeWei","type":"uint256"},{"indexed":false,"internalType":"uint256","name":"judgeCount","type":"uint256"}],"name":"HackathonCreated","type":"event"},{"anonymous":false,"inputs":[{"indexed":true,"internalType":"uint256","name":"hackathonId","type":"uint256"},{"indexed":true,"internalType":"address","name":"judge","type":"address"},{"indexed":false,"internalType":"uint256","name":"baseFeeWei","type":"uint256"}],"name":"JudgeAdded","type":"event"},{"anonymous":false,"inputs":[{"indexed":true,"internalType":"uint256","name":"hackathonId","type":"uint256"},{"indexed":false,"internalType":"uint256","name":"totalAmount","type":"uint256"},{"indexed":false,"internalType":"uint256","name":"judgeCount","type":"uint256"}],"name":"JudgesPaid","type":"event"},{"anonymous":false,"inputs":[{"indexed":true,"internalType":"uint256","name":"hackathonId","type":"uint256"},{"indexed":true,"internalType":"address","name":"organizer","type":"address"},{"indexed":false,"internalType":"uint256","name":"amount","type":"uint256"}],"name":"OrganizerPaid","type":"event"},{"anonymous":false,"inputs":[{"indexed":true,"internalType":"uint256","name":"hackathonId","type":"uint256"},{"indexed":false,"internalType":"address[]","name":"winners","type":"address[]"},{"indexed":false,"internalType":"uint256[]","name":"amounts","type":"uint256[]"}],"name":"PrizesDistributed","type":"event"},{"anonymous":false,"inputs":[{"indexed":true,"internalType":"uint256","name":"hackathonId","type":"uint256"},{"indexed":true,"internalType":"uint256","name":"projectId","type":"uint256"},{"indexed":true,"internalType":"address","name":"participant","type":"address"},{"indexed":false,"internalType":"string","name":"projectName","type":"string"},{"indexed":false,"internalType":"uint256","name":"submissionFeeWei","type":"uint256"}],"name":"ProjectSubmitted","type":"event"},{"inputs":[],"name":"HACKATHON_CREATION_FEE","outputs":[{"internalType":"uint256","name":"","type":"uint256"}],"stateMutability":"view","type":"function"},{"inputs":[],"name":"HACKERCOIN","outputs":[{"internalType":"uint256","name":"","type":"uint256"}],"stateMutability":"view","type":"function"},{"inputs":[],"name":"JUDGE_BASE_FEE","outputs":[{"internalType":"uint256","name":"","type":"uint256"}],"stateMutability":"view","type":"function"},{"inputs":[],"name":"JUDGE_SHARE_PERCENT","outputs":[{"internalType":"uint256","name":"","type":"uint256"}],"stateMutability":"view","type":"function"},{"inputs":[],"name":"ORGANIZER_SHARE_PERCENT","outputs":[{"internalType":"uint256","name":"","type":"uint256"}],"stateMutability":"view","type":"function"},{"inputs":[],"name":"SUBMISSION_FEE","outputs":[{"internalType":"uint256","name":"","type":"uint256"}],"stateMutability":"view","type":"function"},{"inputs":[{"internalType":"uint256","name":"hackathonId","type":"uint256"},{"internalType":"address","name":"judgeAddress","type":"address"}],"name":"addJudge","outputs":[],"stateMutability":"payable","type":"function"},{"inputs":[{"internalType":"string","name":"name","type":"string"},{"internalType":"string","name":"description","type":"string"},{"internalType":"address[]","name":"judgeAddresses","type":"address[]"},{"components":[{"internalType":"string","name":"title","type":"string"},{"internalType":"uint256","name":"amount","type":"uint256"},{"internalType":"uint256","name":"position","type":"uint256"}],"internalType":"struct HackerCoinPlatform.Prize[]","name":"prizes","type":"tuple[]"},{"internalType":"uint256","name":"registrationDeadline","type":"uint256"},{"internalType":"uint256","name":"startDate","type":"uint256"},{"internalType":"uint256","name":"endDate","type":"uint256"}],"name":"createHackathon","outputs":[],"stateMutability":"payable","type":"function"},{"inputs":[{"internalType":"uint256","name":"hackathonId","type":"uint256"},{"internalType":"address[]","name":"winners","type":"address[]"},{"internalType":"uint256[]","name":"prizeAmountsHC","type":"uint256[]"}],"name":"distributePrizes","outputs":[],"stateMutability":"nonpayable","type":"function"},{"inputs":[{"internalType":"uint256","name":"hackathonId","type":"uint256"}],"name":"getHackathon","outputs":[{"internalType":"string","name":"name","type":"string"},{"internalType":"string","name":"description","type":"string"},{"internalType":"address","name":"organizer","type":"address"},{"internalType":"uint256","name":"prizePoolWei","type":"uint256"},{"internalType":"uint256","name":"projectCount","type":"uint256"},{"internalType":"uint256","name":"judgeCount","type":"uint256"},{"internalType":"bool","name":"active","type":"bool"},{"internalType":"uint256","name":"registrationDeadline","type":"uint256"},{"internalType":"uint256","name":"startDate","type":"uint256"},{"internalType":"uint256","name":"endDate","type":"uint256"}],"stateMutability":"view","type":"function"},{"inputs":[{"internalType":"address","name":"judgeAddress","type":"address"}],"name":"getHackathonsForJudge","outputs":[{"internalType":"uint256[]","name":"hackathonIds","type":"uint256[]"}],"stateMutability":"view","type":"function"},{"inputs":[{"internalType":"uint256","name":"hackathonId","type":"uint256"}],"name":"getJudges","outputs":[{"internalType":"address[]","name":"","type":"address[]"}],"stateMutability":"view","type":"function"},{"inputs":[],"name":"getPlatformBalance","outputs":[{"internalType":"uint256","name":"","type":"uint256"}],"stateMutability":"view","type":"function"},{"inputs":[{"internalType":"uint256","name":"hackathonId","type":"uint256"}],"name":"getPrizes","outputs":[{"components":[{"internalType":"string","name":"title","type":"string"},{"internalType":"uint256","name":"amount","type":"uint256"},{"internalType":"uint256","name":"position","type":"uint256"}],"internalType":"struct HackerCoinPlatform.Prize[]","name":"","type":"tuple[]"}],"stateMutability":"view","type":"function"},{"inputs":[{"internalType":"uint256","name":"hackathonId","type":"uint256"},{"internalType":"uint256","name":"projectId","type":"uint256"}],"name":"getProject","outputs":[{"internalType":"string","name":"name","type":"string"},{"internalType":"string","name":"description","type":"string"},{"internalType":"string","name":"githubUrl","type":"string"},{"internalType":"string","name":"demoUrl","type":"string"},{"internalType":"address","name":"participant","type":"address"},{"internalType":"uint256","name":"submissionTimestamp","type":"uint256"}],"stateMutability":"view","type":"function"},{"inputs":[],"name":"hackathonCount","outputs":[{"internalType":"uint256","name":"","type":"uint256"}],"stateMutability":"view","type":"function"},{"inputs":[{"internalType":"uint256","name":"","type":"uint256"}],"name":"hackathons","outputs":[{"internalType":"uint256","name":"id","type":"uint256"},{"internalType":"string","name":"name","type":"string"},{"internalType":"string","name":"description","type":"string"},{"internalType":"address","name":"organizer","type":"address"},{"internalType":"uint256","name":"prizePoolWei","type":"uint256"},{"internalType":"uint256","name":"creationTimestamp","type":"uint256"},{"internalType":"uint256","name":"registrationDeadline","type":"uint256"},{"internalType":"uint256","name":"startDate","type":"uint256"},{"internalType":"uint256","name":"endDate","type":"uint256"},{"internalType":"uint256","name":"judgePoolBalance","type":"uint256"},{"internalType":"uint256","name":"organizerBalance","type":"uint256"},{"internalType":"bool","name":"active","type":"bool"},{"internalType":"uint256","name":"projectCount","type":"uint256"}],"stateMutability":"view","type":"function"},{"inputs":[{"internalType":"uint256","name":"hackerCoins","type":"uint256"}],"name":"hackerCoinsToWei","outputs":[{"internalType":"uint256","name":"","type":"uint256"}],"stateMutability":"pure","type":"function"},{"inputs":[{"internalType":"uint256","name":"hackathonId","type":"uint256"},{"internalType":"address","name":"addr","type":"address"}],"name":"isHackathonJudge","outputs":[{"internalType":"bool","name":"","type":"bool"}],"stateMutability":"view","type":"function"},{"inputs":[{"internalType":"uint256","name":"","type":"uint256"},{"internalType":"address","name":"","type":"address"}],"name":"isJudge","outputs":[{"internalType":"bool","name":"","type":"bool"}],"stateMutability":"view","type":"function"},{"inputs":[],"name":"platformBalance","outputs":[{"internalType":"uint256","name":"","type":"uint256"}],"stateMutability":"view","type":"function"},{"inputs":[],"name":"platformOwner","outputs":[{"internalType":"address","name":"","type":"address"}],"stateMutability":"view","type":"function"},{"inputs":[{"internalType":"uint256","name":"","type":"uint256"},{"internalType":"uint256","name":"","type":"uint256"}],"name":"projects","outputs":[{"internalType":"uint256","name":"id","type":"uint256"},{"internalType":"uint256","name":"hackathonId","type":"uint256"},{"internalType":"string","name":"name","type":"string"},{"internalType":"string","name":"description","type":"string"},{"internalType":"string","name":"githubUrl","type":"string"},{"internalType":"string","name":"demoUrl","type":"string"},{"internalType":"address","name":"participant","type":"address"},{"internalType":"uint256","name":"submissionTimestamp","type":"uint256"}],"stateMutability":"view","type":"function"},{"inputs":[{"internalType":"uint256","name":"hackathonId","type":"uint256"},{"internalType":"string","name":"projectName","type":"string"},{"internalType":"string","name":"projectDescription","type":"string"},{"internalType":"string","name":"githubUrl","type":"string"},{"internalType":"string","name":"demoUrl","type":"string"}],"name":"submitProject","outputs":[],"stateMutability":"payable","type":"function"},{"inputs":[{"internalType":"uint256","name":"weiAmount","type":"uint256"}],"name":"weiToHackerCoins","outputs":[{"internalType":"uint256","name":"","type":"uint256"}],"stateMutability":"pure","type":"function"},{"inputs":[],"name":"withdrawPlatformFees","outputs":[],"stateMutability":"nonpayable","type":"function"}],"evm":{"bytecode":{"linkReferences":{},"object":"608060405234801561001057600080fd5b50600580546001600160a01b03191633179055612d23806100326000396000f3fe6080604052600436106101815760003560e01c8063a3966006116100d1578063cc3077951161008a578063d62e08aa11610064578063d62e08aa1461045a578063da3c0aa4146104a0578063dd9b0d80146104cd578063dfbac869146104fa57600080fd5b8063cc30779514610401578063cf2904271461042e578063d0b7830b1461044557600080fd5b8063a396600614610363578063aab18c1614610376578063adcf5b3d14610389578063ba9bf7571461039e578063c1077194146103b3578063cb29bb72146103ec57600080fd5b80634df8ccb11161013e5780637d48536d116101185780637d48536d1461018657806385818e72146102ce57806396ab773914610302578063a25232f51461031857600080fd5b80634df8ccb11461026d57806362a5dbbc146102a557806366e1006e146102bb57600080fd5b80631b77ed241461018657806323fcd3e4146101ae5780632ca34d93146101d05780634657fc6a1461020657806348d0cb571461022657806349df94641461023b575b600080fd5b34801561019257600080fd5b5061019b61051a565b6040519081526020015b60405180910390f35b3480156101ba57600080fd5b506101ce6101c93660046122d4565b61052b565b005b3480156101dc57600080fd5b506101f06101eb366004612397565b610ac8565b6040516101a59a999897969594939291906123f6565b34801561021257600080fd5b5061019b610221366004612397565b610c9f565b34801561023257600080fd5b5061019b601481565b34801561024757600080fd5b5061025b610256366004612469565b610cb4565b6040516101a59695949392919061248b565b34801561027957600080fd5b5060055461028d906001600160a01b031681565b6040516001600160a01b0390911681526020016101a5565b3480156102b157600080fd5b5061019b60045481565b6101ce6102c93660046124f7565b610fa5565b3480156102da57600080fd5b506102ee6102e9366004612469565b611268565b6040516101a5989796959493929190612523565b34801561030e57600080fd5b5061019b60015481565b34801561032457600080fd5b506103536103333660046124f7565b600360209081526000928352604080842090915290825290205460ff1681565b60405190151581526020016101a5565b6101ce610371366004612610565b6114dd565b6101ce610384366004612792565b611768565b34801561039557600080fd5b5061019b605081565b3480156103aa57600080fd5b5060045461019b565b3480156103bf57600080fd5b506103d36103ce366004612397565b611c44565b6040516101a59d9c9b9a9998979695949392919061285a565b3480156103f857600080fd5b5061019b600081565b34801561040d57600080fd5b5061042161041c366004612397565b611dc5565b6040516101a591906128e5565b34801561043a57600080fd5b5061019b620f424081565b34801561045157600080fd5b506101ce611f05565b34801561046657600080fd5b506103536104753660046124f7565b60009182526003602090815260408084206001600160a01b0393909316845291905290205460ff1690565b3480156104ac57600080fd5b506104c06104bb366004612397565b611fe6565b6040516101a591906129aa565b3480156104d957600080fd5b506104ed6104e83660046129c4565b612083565b6040516101a59190612a0f565b34801561050657600080fd5b5061019b610515366004612397565b6121a3565b610528620f42406001612a38565b81565b8260008111801561053e57506001548111155b6105635760405162461bcd60e51b815260040161055a90612a4f565b60405180910390fd5b6000848152602081905260409020600d0154849060ff166105965760405162461bcd60e51b815260040161055a90612a86565b60008581526020819052604090206003015485906001600160a01b031633146105f15760405162461bcd60e51b815260206004820152600d60248201526c2737ba1037b933b0b734bd32b960991b604482015260640161055a565b835185511461063a5760405162461bcd60e51b8152602060048201526015602482015274082e4e4c2f240d8cadccee8d040dad2e6dac2e8c6d605b1b604482015260640161055a565b600085511161068b5760405162461bcd60e51b815260206004820152601c60248201527f4174206c65617374206f6e652077696e6e657220726571756972656400000000604482015260640161055a565b6000868152602081905260408120855190919067ffffffffffffffff8111156106b6576106b66121b2565b6040519080825280602002602001820160405280156106df578160200160208202803683370190505b5090506000805b875181101561076e57620f424088828151811061070557610705612ab4565b60200260200101516107179190612a38565b83828151811061072957610729612ab4565b60200260200101818152505082818151811061074757610747612ab4565b60200260200101518261075a9190612aca565b91508061076681612add565b9150506106e6565b5082600401548111156107c35760405162461bcd60e51b815260206004820152601860248201527f5072697a657320657863656564207072697a6520706f6f6c0000000000000000604482015260640161055a565b60005b88518110156108c15760006001600160a01b03168982815181106107ec576107ec612ab4565b60200260200101516001600160a01b0316036108435760405162461bcd60e51b8152602060048201526016602482015275496e76616c69642077696e6e6572206164647265737360501b604482015260640161055a565b88818151811061085557610855612ab4565b60200260200101516001600160a01b03166108fc84838151811061087b5761087b612ab4565b60200260200101519081150290604051600060405180830381858888f193505050501580156108ae573d6000803e3d6000fd5b50806108b981612add565b9150506107c6565b50808360040160008282546108d69190612af6565b92505081905550887fec92dccf4a03653bc1a3d85019574bf62a659c47575779a889806684783b9e5c898460405161090f929190612b09565b60405180910390a2600083600b015411801561092e5750600983015415155b15610a17576009830154600b84015460009161094991612b37565b905060005b60098501548110156109c25784600901818154811061096f5761096f612ab4565b60009182526020822001546040516001600160a01b039091169184156108fc02918591818181858888f193505050501580156109af573d6000803e3d6000fd5b50806109ba81612add565b91505061094e565b50600b84015460098501546040518c927fd7a5ed460dbf7886fdeb07e60e3ba47bda207ef714efd849b50d0d740d1aa5a492610a0692918252602082015260400190565b60405180910390a2506000600b8401555b600c83015415610ab357600c83018054600091829055600385015460405191926001600160a01b039091169183156108fc0291849190818181858888f19350505050158015610a6a573d6000803e3d6000fd5b5060038401546040518281526001600160a01b03909116908b907f2341587e69938509c4731d6ce2058ff14e7313743097d35b00c03894c37e6f569060200160405180910390a3505b5050600d01805460ff19169055505050505050565b6060806000806000806000806000808a600081118015610aea57506001548111155b610b065760405162461bcd60e51b815260040161055a90612a4f565b60008c815260208190526040902060038101546004820154600e8301546009840154600d850154600686015460078701546008880154600189018054909860028b01986001600160a01b039091169790969095909460ff90911693909290918a90610b7090612b59565b80601f0160208091040260200160405190810160405280929190818152602001828054610b9c90612b59565b8015610be95780601f10610bbe57610100808354040283529160200191610be9565b820191906000526020600020905b815481529060010190602001808311610bcc57829003601f168201915b50505050509950888054610bfc90612b59565b80601f0160208091040260200160405190810160405280929190818152602001828054610c2890612b59565b8015610c755780601f10610c4a57610100808354040283529160200191610c75565b820191906000526020600020905b815481529060010190602001808311610c5857829003601f168201915b505050505098509b509b509b509b509b509b509b509b509b509b5050509193959799509193959799565b6000610cae620f424083612b37565b92915050565b6000828152600260208181526040808420858552909152822090810180546060938493849384938392918391610ce990612b59565b905011610d315760405162461bcd60e51b8152602060048201526016602482015275141c9bda9958dd08191bd95cc81b9bdd08195e1a5cdd60521b604482015260640161055a565b806002018160030182600401836005018460060160009054906101000a90046001600160a01b03168560070154858054610d6a90612b59565b80601f0160208091040260200160405190810160405280929190818152602001828054610d9690612b59565b8015610de35780601f10610db857610100808354040283529160200191610de3565b820191906000526020600020905b815481529060010190602001808311610dc657829003601f168201915b50505050509550848054610df690612b59565b80601f0160208091040260200160405190810160405280929190818152602001828054610e2290612b59565b8015610e6f5780601f10610e4457610100808354040283529160200191610e6f565b820191906000526020600020905b815481529060010190602001808311610e5257829003601f168201915b50505050509450838054610e8290612b59565b80601f0160208091040260200160405190810160405280929190818152602001828054610eae90612b59565b8015610efb5780601f10610ed057610100808354040283529160200191610efb565b820191906000526020600020905b815481529060010190602001808311610ede57829003601f168201915b50505050509350828054610f0e90612b59565b80601f0160208091040260200160405190810160405280929190818152602001828054610f3a90612b59565b8015610f875780601f10610f5c57610100808354040283529160200191610f87565b820191906000526020600020905b815481529060010190602001808311610f6a57829003601f168201915b50505050509250965096509650965096509650509295509295509295565b81600081118015610fb857506001548111155b610fd45760405162461bcd60e51b815260040161055a90612a4f565b6000838152602081905260409020600d0154839060ff166110075760405162461bcd60e51b815260040161055a90612a86565b60008481526020819052604090206003015484906001600160a01b031633146110625760405162461bcd60e51b815260206004820152600d60248201526c2737ba1037b933b0b734bd32b960991b604482015260640161055a565b6001600160a01b0384166110b05760405162461bcd60e51b8152602060048201526015602482015274496e76616c6964206a75646765206164647265737360581b604482015260640161055a565b60008581526003602090815260408083206001600160a01b038816845290915290205460ff16156111155760405162461bcd60e51b815260206004820152600f60248201526e416c72656164792061206a7564676560881b604482015260640161055a565b611123620f42406001612a38565b34101561117d5760405162461bcd60e51b815260206004820152602260248201527f496e73756666696369656e74207061796d656e7420666f72206a756467652066604482015261656560f01b606482015260840161055a565b600085815260208181526040808320600981018054600180820183559186528486200180546001600160a01b0319166001600160a01b038b169081179091558a86526003855283862081875290945291909320805460ff1916821790556108fc906111ec90620f424090612a38565b6040518115909202916000818181858888f19350505050158015611214573d6000803e3d6000fd5b506001600160a01b038516867f2e52a072f9c8b68344176c3c5ab5eb12950f749471dcebaa8b0fdc692857a0c961124f620f42406001612a38565b60405190815260200160405180910390a3505050505050565b600260208181526000938452604080852090915291835291208054600182015492820180549193929161129a90612b59565b80601f01602080910402602001604051908101604052809291908181526020018280546112c690612b59565b80156113135780601f106112e857610100808354040283529160200191611313565b820191906000526020600020905b8154815290600101906020018083116112f657829003601f168201915b50505050509080600301805461132890612b59565b80601f016020809104026020016040519081016040528092919081815260200182805461135490612b59565b80156113a15780601f10611376576101008083540402835291602001916113a1565b820191906000526020600020905b81548152906001019060200180831161138457829003601f168201915b5050505050908060040180546113b690612b59565b80601f01602080910402602001604051908101604052809291908181526020018280546113e290612b59565b801561142f5780601f106114045761010080835404028352916020019161142f565b820191906000526020600020905b81548152906001019060200180831161141257829003601f168201915b50505050509080600501805461144490612b59565b80601f016020809104026020016040519081016040528092919081815260200182805461147090612b59565b80156114bd5780601f10611492576101008083540402835291602001916114bd565b820191906000526020600020905b8154815290600101906020018083116114a057829003601f168201915b50505050600683015460079093015491926001600160a01b031691905088565b846000811180156114f057506001548111155b61150c5760405162461bcd60e51b815260040161055a90612a4f565b6000868152602081905260409020600d0154869060ff1661153f5760405162461bcd60e51b815260040161055a90612a86565b61154d620f42406001612a38565b34101561159c5760405162461bcd60e51b815260206004820152601b60248201527f496e73756666696369656e74207375626d697373696f6e206665650000000000604482015260640161055a565b60008651116115e55760405162461bcd60e51b8152602060048201526015602482015274141c9bda9958dd081b985b59481c995c5d5a5c9959605a1b604482015260640161055a565b6000878152602081905260408120600e81018054919261160483612add565b90915550506000888152600260208181526040808420600e8601548086529252909220918255600182018a9055810161163d8982612bdc565b506003810161164c8882612bdc565b506004810161165b8782612bdc565b506005810161166a8682612bdc565b506006810180546001600160a01b03191633179055426007820155600060646014611699620f42406001612a38565b6116a39190612a38565b6116ad9190612b37565b90506000606460506116c3620f42406001612a38565b6116cd9190612a38565b6116d79190612b37565b90508184600c0160008282546116ed9190612aca565b925050819055508084600b0160008282546117089190612aca565b9091555050600e84015433908c7f86ef949d57e272497938a9a14dffa96f0273668710ef813d2bc69c1587b28bfe8d611745620f42406001612a38565b604051611753929190612c9c565b60405180910390a45050505050505050505050565b60008751116117a95760405162461bcd60e51b815260206004820152600d60248201526c13985b59481c995c5d5a5c9959609a1b604482015260640161055a565b60008551116117fa5760405162461bcd60e51b815260206004820152601b60248201527f4174206c65617374206f6e65206a756467652072657175697265640000000000604482015260640161055a565b6000805b855181101561185157620f424086828151811061181d5761181d612ab4565b6020026020010151602001516118339190612a38565b61183d9083612aca565b91508061184981612add565b9150506117fe565b506000611862620f42406001612a38565b875161186e9190612a38565b905060008161187d8483612aca565b6118879190612aca565b9050803410156118d05760405162461bcd60e51b8152602060048201526014602482015273125b9cdd59999a58da595b9d081c185e5b595b9d60621b604482015260640161055a565b600180549060006118e083612add565b90915550506001805460008181526020819052604090209081559081016119078c82612bdc565b50600281016119168b82612bdc565b506003810180546001600160a01b0319163317905560048101849055426005820155600681018790556007810186905560088101859055600d8101805460ff191660011790556000600b8201819055600c8201819055600e82018190555b88518110156119ee5781600a0189828151811061199357611993612ab4565b602090810291909101810151825460018101845560009384529190922082516003909202019081906119c59082612bdc565b5060208201516001820155604090910151600290910155806119e681612add565b915050611974565b5060005b8951811015611bd05760008a8281518110611a0f57611a0f612ab4565b6020026020010151905060006001600160a01b0316816001600160a01b031603611a735760405162461bcd60e51b8152602060048201526015602482015274496e76616c6964206a75646765206164647265737360581b604482015260640161055a565b60015460009081526003602090815260408083206001600160a01b038516845290915290205460ff1615611adb5760405162461bcd60e51b815260206004820152600f60248201526e4475706c6963617465206a7564676560881b604482015260640161055a565b600983018054600180820183556000928352602080842090920180546001600160a01b0319166001600160a01b0386169081179091558154845260038352604080852082865290935291909220805460ff191683179055906108fc90611b4590620f424090612a38565b6040518115909202916000818181858888f19350505050158015611b6d573d6000803e3d6000fd5b50806001600160a01b03166001547f2e52a072f9c8b68344176c3c5ab5eb12950f749471dcebaa8b0fdc692857a0c9620f42406001611bac9190612a38565b60405190815260200160405180910390a35080611bc881612add565b9150506119f2565b50600060046000828254611be49190612aca565b92505081905550336001600160a01b03166001547fa47aa39d6ac62056016efa5af31b5ed4625d9b3bc0b2421ab17322373d65756b8d8760008e51604051611c2f9493929190612cbe565b60405180910390a35050505050505050505050565b60006020819052908152604090208054600182018054919291611c6690612b59565b80601f0160208091040260200160405190810160405280929190818152602001828054611c9290612b59565b8015611cdf5780601f10611cb457610100808354040283529160200191611cdf565b820191906000526020600020905b815481529060010190602001808311611cc257829003601f168201915b505050505090806002018054611cf490612b59565b80601f0160208091040260200160405190810160405280929190818152602001828054611d2090612b59565b8015611d6d5780601f10611d4257610100808354040283529160200191611d6d565b820191906000526020600020905b815481529060010190602001808311611d5057829003601f168201915b505050600384015460048501546005860154600687015460078801546008890154600b8a0154600c8b0154600d8c0154600e909c01549a9b6001600160a01b039098169a9699509497509295919490939160ff16908d565b606081600081118015611dda57506001548111155b611df65760405162461bcd60e51b815260040161055a90612a4f565b600083815260208181526040808320600a0180548251818502810185019093528083529193909284015b82821015611ef85783829060005260206000209060030201604051806060016040529081600082018054611e5390612b59565b80601f0160208091040260200160405190810160405280929190818152602001828054611e7f90612b59565b8015611ecc5780601f10611ea157610100808354040283529160200191611ecc565b820191906000526020600020905b815481529060010190602001808311611eaf57829003601f168201915b505050505081526020016001820154815260200160028201548152505081526020019060010190611e20565b5050505091505b50919050565b6005546001600160a01b03163314611f555760405162461bcd60e51b815260206004820152601360248201527227b7363c90383630ba3337b9369037bbb732b960691b604482015260640161055a565b600060045411611f9d5760405162461bcd60e51b81526020600482015260136024820152724e6f206665657320746f20776974686472617760681b604482015260640161055a565b6004805460009182905560055460405191926001600160a01b039091169183156108fc0291849190818181858888f19350505050158015611fe2573d6000803e3d6000fd5b5050565b606081600081118015611ffb57506001548111155b6120175760405162461bcd60e51b815260040161055a90612a4f565b600083815260208181526040918290206009018054835181840281018401909452808452909183018282801561207657602002820191906000526020600020905b81546001600160a01b03168152600190910190602001808311612058575b5050505050915050919050565b6060600060015b60015481116120de5760008181526003602090815260408083206001600160a01b038816845290915290205460ff16156120cc57816120c881612add565b9250505b806120d681612add565b91505061208a565b508067ffffffffffffffff8111156120f8576120f86121b2565b604051908082528060200260200182016040528015612121578160200160208202803683370190505b509150600060015b600154811161219b5760008181526003602090815260408083206001600160a01b038916845290915290205460ff1615612189578084838151811061217057612170612ab4565b60209081029190910101528161218581612add565b9250505b8061219381612add565b915050612129565b505050919050565b6000610cae620f424083612a38565b634e487b7160e01b600052604160045260246000fd5b6040516060810167ffffffffffffffff811182821017156121eb576121eb6121b2565b60405290565b604051601f8201601f1916810167ffffffffffffffff8111828210171561221a5761221a6121b2565b604052919050565b600067ffffffffffffffff82111561223c5761223c6121b2565b5060051b60200190565b80356001600160a01b038116811461225d57600080fd5b919050565b600082601f83011261227357600080fd5b8135602061228861228383612222565b6121f1565b82815260059290921b840181019181810190868411156122a757600080fd5b8286015b848110156122c9576122bc81612246565b83529183019183016122ab565b509695505050505050565b6000806000606084860312156122e957600080fd5b8335925060208085013567ffffffffffffffff8082111561230957600080fd5b61231588838901612262565b9450604087013591508082111561232b57600080fd5b508501601f8101871361233d57600080fd5b803561234b61228382612222565b81815260059190911b8201830190838101908983111561236a57600080fd5b928401925b828410156123885783358252928401929084019061236f565b80955050505050509250925092565b6000602082840312156123a957600080fd5b5035919050565b6000815180845260005b818110156123d6576020818501810151868301820152016123ba565b506000602082860101526020601f19601f83011685010191505092915050565b600061014080835261240a8184018e6123b0565b9050828103602084015261241e818d6123b0565b6001600160a01b039b909b16604084015250506060810197909752608087019590955260a086019390935290151560c085015260e08401526101008301526101209091015292915050565b6000806040838503121561247c57600080fd5b50508035926020909101359150565b60c08152600061249e60c08301896123b0565b82810360208401526124b081896123b0565b905082810360408401526124c481886123b0565b905082810360608401526124d881876123b0565b6001600160a01b03959095166080840152505060a00152949350505050565b6000806040838503121561250a57600080fd5b8235915061251a60208401612246565b90509250929050565b60006101008a83528960208401528060408401526125438184018a6123b0565b9050828103606084015261255781896123b0565b9050828103608084015261256b81886123b0565b905082810360a084015261257f81876123b0565b6001600160a01b039590951660c0840152505060e001529695505050505050565b600082601f8301126125b157600080fd5b813567ffffffffffffffff8111156125cb576125cb6121b2565b6125de601f8201601f19166020016121f1565b8181528460208386010111156125f357600080fd5b816020850160208301376000918101602001919091529392505050565b600080600080600060a0868803121561262857600080fd5b85359450602086013567ffffffffffffffff8082111561264757600080fd5b61265389838a016125a0565b9550604088013591508082111561266957600080fd5b61267589838a016125a0565b9450606088013591508082111561268b57600080fd5b61269789838a016125a0565b935060808801359150808211156126ad57600080fd5b506126ba888289016125a0565b9150509295509295909350565b600082601f8301126126d857600080fd5b813560206126e861228383612222565b82815260059290921b8401810191818101908684111561270757600080fd5b8286015b848110156122c957803567ffffffffffffffff8082111561272c5760008081fd5b908801906060828b03601f19018113156127465760008081fd5b61274e6121c8565b87840135838111156127605760008081fd5b61276e8d8a838801016125a0565b8252506040848101358983015291909301359083015250835291830191830161270b565b600080600080600080600060e0888a0312156127ad57600080fd5b873567ffffffffffffffff808211156127c557600080fd5b6127d18b838c016125a0565b985060208a01359150808211156127e757600080fd5b6127f38b838c016125a0565b975060408a013591508082111561280957600080fd5b6128158b838c01612262565b965060608a013591508082111561282b57600080fd5b506128388a828b016126c7565b979a969950949760808101359660a0820135965060c090910135945092505050565b8d81526101a0602082015260006128756101a083018f6123b0565b8281036040840152612887818f6123b0565b6001600160a01b039d909d1660608401525050608081019990995260a089019790975260c088019590955260e08701939093526101008601919091526101208501526101408401521515610160830152610180909101529392505050565b60006020808301818452808551808352604092508286019150828160051b87010184880160005b8381101561295857603f19898403018552815160608151818652612932828701826123b0565b838b0151878c01529289015195890195909552509487019492509086019060010161290c565b509098975050505050505050565b600081518084526020808501945080840160005b8381101561299f5781516001600160a01b03168752958201959082019060010161297a565b509495945050505050565b6020815260006129bd6020830184612966565b9392505050565b6000602082840312156129d657600080fd5b6129bd82612246565b600081518084526020808501945080840160005b8381101561299f578151875295820195908201906001016129f3565b6020815260006129bd60208301846129df565b634e487b7160e01b600052601160045260246000fd5b8082028115828204841417610cae57610cae612a22565b60208082526018908201527f4861636b6174686f6e20646f6573206e6f742065786973740000000000000000604082015260600190565b6020808252601490820152734861636b6174686f6e206e6f742061637469766560601b604082015260600190565b634e487b7160e01b600052603260045260246000fd5b80820180821115610cae57610cae612a22565b600060018201612aef57612aef612a22565b5060010190565b81810381811115610cae57610cae612a22565b604081526000612b1c6040830185612966565b8281036020840152612b2e81856129df565b95945050505050565b600082612b5457634e487b7160e01b600052601260045260246000fd5b500490565b600181811c90821680612b6d57607f821691505b602082108103611eff57634e487b7160e01b600052602260045260246000fd5b601f821115612bd757600081815260208120601f850160051c81016020861015612bb45750805b601f850160051c820191505b81811015612bd357828155600101612bc0565b5050505b505050565b815167ffffffffffffffff811115612bf657612bf66121b2565b612c0a81612c048454612b59565b84612b8d565b602080601f831160018114612c3f5760008415612c275750858301515b600019600386901b1c1916600185901b178555612bd3565b600085815260208120601f198616915b82811015612c6e57888601518255948401946001909101908401612c4f565b5085821015612c8c5787850151600019600388901b60f8161c191681555b5050505050600190811b01905550565b604081526000612caf60408301856123b0565b90508260208301529392505050565b608081526000612cd160808301876123b0565b602083019590955250604081019290925260609091015291905056fea26469706673582212201a0769ba0abce7188bb4c6d94c332bc05bebf125f88b0078e3030649f50afcdb64736f6c63430008140033","opcodes":"PUSH1 0x80 PUSH1 0x40 MSTORE CALLVALUE DUP1 ISZERO PUSH2 0x10 JUMPI PUSH1 0x0 DUP1 REVERT JUMPDEST POP PUSH1 0x5 DUP1 SLOAD PUSH1 0x1 PUSH1 0x1 PUSH1 0xA0 SHL SUB NOT AND CALLER OR SWAP1 SSTORE PUSH2 0x2D23 DUP1 PUSH2 0x32 PUSH1 0x0 CODECOPY PUSH1 0x0 RETURN INVALID PUSH1 0x80 PUSH1 0x40 MSTORE PUSH1 0x4 CALLDATASIZE LT PUSH2 0x181 JUMPI PUSH1 0x0 CALLDATALOAD PUSH1 0xE0 SHR DUP1 PUSH4 0xA3966006 GT PUSH2 0xD1 JUMPI DUP1 PUSH4 0xCC307795 GT PUSH2 0x8A JUMPI DUP1 PUSH4 0xD62E08AA GT PUSH2 0x64 JUMPI DUP1 PUSH4 0xD62E08AA EQ PUSH2 0x45A JUMPI DUP1 PUSH4 0xDA3C0AA4 EQ PUSH2 0x4A0 JUMPI DUP1 PUSH4 0xDD9B0D80 EQ PUSH2 0x4CD JUMPI DUP1 PUSH4 0xDFBAC869 EQ PUSH2 0x4FA JUMPI PUSH1 0x0 DUP1 REVERT JUMPDEST DUP1 PUSH4 0xCC307795 EQ PUSH2 0x401 JUMPI DUP1 PUSH4 0xCF290427 EQ PUSH2 0x42E JUMPI DUP1 PUSH4 0xD0B7830B EQ PUSH2 0x445 JUMPI PUSH1 0x0 DUP1 REVERT JUMPDEST DUP1 PUSH4 0xA3966006 EQ PUSH2 0x363 JUMPI DUP1 PUSH4 0xAAB18C16 EQ PUSH2 0x376 JUMPI DUP1 PUSH4 0xADCF5B3D EQ PUSH2 0x389 JUMPI DUP1 PUSH4 0xBA9BF757 EQ PUSH2 0x39E JUMPI DUP1 PUSH4 0xC1077194 EQ PUSH2 0x3B3 JUMPI DUP1 PUSH4 0xCB29BB72 EQ PUSH2 0x3EC JUMPI PUSH1 0x0 DUP1 REVERT JUMPDEST DUP1 PUSH4 0x4DF8CCB1 GT PUSH2 0x13E JUMPI DUP1 PUSH4 0x7D48536D GT PUSH2 0x118 JUMPI DUP1 PUSH4 0x7D48536D EQ PUSH2 0x186 JUMPI DUP1 PUSH4 0x85818E72 EQ PUSH2 0x2CE JUMPI DUP1 PUSH4 0x96AB7739 EQ PUSH2 0x302 JUMPI DUP1 PUSH4 0xA25232F5 EQ PUSH2 0x318 JUMPI PUSH1 0x0 DUP1 REVERT JUMPDEST DUP1 PUSH4 0x4DF8CCB1 EQ PUSH2 0x26D JUMPI DUP1 PUSH4 0x62A5DBBC EQ PUSH2 0x2A5 JUMPI DUP1 PUSH4 0x66E1006E EQ PUSH2 0x2BB JUMPI PUSH1 0x0 DUP1 REVERT JUMPDEST DUP1 PUSH4 0x1B77ED24 EQ PUSH2 0x186 JUMPI DUP1 PUSH4 0x23FCD3E4 EQ PUSH2 0x1AE JUMPI DUP1 PUSH4 0x2CA34D93 EQ PUSH2 0x1D0 JUMPI DUP1 PUSH4 0x4657FC6A EQ PUSH2 0x206 JUMPI DUP1 PUSH4 0x48D0CB57 EQ PUSH2 0x226 JUMPI DUP1 PUSH4 0x49DF9464 EQ PUSH2 0x23B JUMPI JUMPDEST PUSH1 0x0 DUP1 REVERT JUMPDEST CALLVALUE DUP1 ISZERO PUSH2 0x192 JUMPI PUSH1 0x0 DUP1 REVERT JUMPDEST POP PUSH2 0x19B PUSH2 0x51A JUMP JUMPDEST PUSH1 0x40 MLOAD SWAP1 DUP2 MSTORE PUSH1 0x20 ADD JUMPDEST PUSH1 0x40 MLOAD DUP1 SWAP2 SUB SWAP1 RETURN JUMPDEST CALLVALUE DUP1 ISZERO PUSH2 0x1BA JUMPI PUSH1 0x0 DUP1 REVERT JUMPDEST POP PUSH2 0x1CE PUSH2 0x1C9 CALLDATASIZE PUSH1 0x4 PUSH2 0x22D4 JUMP JUMPDEST PUSH2 0x52B JUMP JUMPDEST STOP JUMPDEST CALLVALUE DUP1 ISZERO PUSH2 0x1DC JUMPI PUSH1 0x0 DUP1 REVERT JUMPDEST POP PUSH2 0x1F0 PUSH2 0x1EB CALLDATASIZE PUSH1 0x4 PUSH2 0x2397 JUMP JUMPDEST PUSH2 0xAC8 JUMP JUMPDEST PUSH1 0x40 MLOAD PUSH2 0x1A5 SWAP11 SWAP10 SWAP9 SWAP8 SWAP7 SWAP6 SWAP5 SWAP4 SWAP3 SWAP2 SWAP1 PUSH2 0x23F6 JUMP JUMPDEST CALLVALUE DUP1 ISZERO PUSH2 0x212 JUMPI PUSH1 0x0 DUP1 REVERT JUMPDEST POP PUSH2 0x19B PUSH2 0x221 CALLDATASIZE PUSH1 0x4 PUSH2 0x2397 JUMP JUMPDEST PUSH2 0xC9F JUMP JUMPDEST CALLVALUE DUP1 ISZERO PUSH2 0x232 JUMPI PUSH1 0x0 DUP1 REVERT JUMPDEST POP PUSH2 0x19B PUSH1 0x14 DUP2 JUMP JUMPDEST CALLVALUE DUP1 ISZERO PUSH2 0x247 JUMPI PUSH1 0x0 DUP1 REVERT JUMPDEST POP PUSH2 0x25B PUSH2 0x256 CALLDATASIZE PUSH1 0x4 PUSH2 0x2469 JUMP JUMPDEST PUSH2 0xCB4 JUMP JUMPDEST PUSH1 0x40 MLOAD PUSH2 0x1A5 SWAP7 SWAP6 SWAP5 SWAP4 SWAP3 SWAP2 SWAP1 PUSH2 0x248B JUMP JUMPDEST CALLVALUE DUP1 ISZERO PUSH2 0x279 JUMPI PUSH1 0x0 DUP1 REVERT JUMPDEST POP PUSH1 0x5 SLOAD PUSH2 0x28D SWAP1 PUSH1 0x1 PUSH1 0x1 PUSH1 0xA0 SHL SUB AND DUP2 JUMP JUMPDEST PUSH1 0x40 MLOAD PUSH1 0x1 PUSH1 0x1 PUSH1 0xA0 SHL SUB SWAP1 SWAP2 AND DUP2 MSTORE PUSH1 0x20 ADD PUSH2 0x1A5 JUMP JUMPDEST CALLVALUE DUP1 ISZERO PUSH2 0x2B1 JUMPI PUSH1 0x0 DUP1 REVERT JUMPDEST POP PUSH2 0x19B PUSH1 0x4 SLOAD DUP2 JUMP JUMPDEST PUSH2 0x1CE PUSH2 0x2C9 CALLDATASIZE PUSH1 0x4 PUSH2 0x24F7 JUMP JUMPDEST PUSH2 0xFA5 JUMP JUMPDEST CALLVALUE DUP1 ISZERO PUSH2 0x2DA JUMPI PUSH1 0x0 DUP1 REVERT JUMPDEST POP PUSH2 0x2EE PUSH2 0x2E9 CALLDATASIZE PUSH1 0x4 PUSH2 0x2469 JUMP JUMPDEST PUSH2 0x1268 JUMP JUMPDEST PUSH1 0x40 MLOAD PUSH2 0x1A5 SWAP9 SWAP8 SWAP7 SWAP6 SWAP5 SWAP4 SWAP3 SWAP2 SWAP1 PUSH2 0x2523 JUMP JUMPDEST CALLVALUE DUP1 ISZERO PUSH2 0x30E JUMPI PUSH1 0x0 DUP1 REVERT JUMPDEST POP PUSH2 0x19B PUSH1 0x1 SLOAD DUP2 JUMP JUMPDEST CALLVALUE DUP1 ISZERO PUSH2 0x324 JUMPI PUSH1 0x0 DUP1 REVERT JUMPDEST POP PUSH2 0x353 PUSH2 0x333 CALLDATASIZE PUSH1 0x4 PUSH2 0x24F7 JUMP JUMPDEST PUSH1 0x3 PUSH1 0x20 SWAP1 DUP2 MSTORE PUSH1 0x0 SWAP3 DUP4 MSTORE PUSH1 0x40 DUP1 DUP5 KECCAK256 SWAP1 SWAP2 MSTORE SWAP1 DUP3 MSTORE SWAP1 KECCAK256 SLOAD PUSH1 0xFF AND DUP2 JUMP JUMPDEST PUSH1 0x40 MLOAD SWAP1 ISZERO ISZERO DUP2 MSTORE PUSH1 0x20 ADD PUSH2 0x1A5 JUMP JUMPDEST PUSH2 0x1CE PUSH2 0x371 CALLDATASIZE PUSH1 0x4 PUSH2 0x2610 JUMP JUMPDEST PUSH2 0x14DD JUMP JUMPDEST PUSH2 0x1CE PUSH2 0x384 CALLDATASIZE PUSH1 0x4 PUSH2 0x2792 JUMP JUMPDEST PUSH2 0x1768 JUMP JUMPDEST CALLVALUE DUP1 ISZERO PUSH2 0x395 JUMPI PUSH1 0x0 DUP1 REVERT JUMPDEST POP PUSH2 0x19B PUSH1 0x50 DUP2 JUMP JUMPDEST CALLVALUE DUP1 ISZERO PUSH2 0x3AA JUMPI PUSH1 0x0 DUP1 REVERT JUMPDEST POP PUSH1 0x4 SLOAD PUSH2 0x19B JUMP JUMPDEST CALLVALUE DUP1 ISZERO PUSH2 0x3BF JUMPI PUSH1 0x0 DUP1 REVERT JUMPDEST POP PUSH2 0x3D3 PUSH2 0x3CE CALLDATASIZE PUSH1 0x4 PUSH2 0x2397 JUMP JUMPDEST PUSH2 0x1C44 JUMP JUMPDEST PUSH1 0x40 MLOAD PUSH2 0x1A5 SWAP14 SWAP13 SWAP12 SWAP11 SWAP10 SWAP9 SWAP8 SWAP7 SWAP6 SWAP5 SWAP4 SWAP3 SWAP2 SWAP1 PUSH2 0x285A JUMP JUMPDEST CALLVALUE DUP1 ISZERO PUSH2 0x3F8 JUMPI PUSH1 0x0 DUP1 REVERT JUMPDEST POP PUSH2 0x19B PUSH1 0x0 DUP2 JUMP JUMPDEST CALLVALUE DUP1 ISZERO PUSH2 0x40D JUMPI PUSH1 0x0 DUP1 REVERT JUMPDEST POP PUSH2 0x421 PUSH2 0x41C CALLDATASIZE PUSH1 0x4 PUSH2 0x2397 JUMP JUMPDEST PUSH2 0x1DC5 JUMP JUMPDEST PUSH1 0x40 MLOAD PUSH2 0x1A5 SWAP2 SWAP1 PUSH2 0x28E5 JUMP JUMPDEST CALLVALUE DUP1 ISZERO PUSH2 0x43A JUMPI PUSH1 0x0 DUP1 REVERT JUMPDEST POP PUSH2 0x19B PUSH3 0xF4240 DUP2 JUMP JUMPDEST CALLVALUE DUP1 ISZERO PUSH2 0x451 JUMPI PUSH1 0x0 DUP1 REVERT JUMPDEST POP PUSH2 0x1CE PUSH2 0x1F05 JUMP JUMPDEST CALLVALUE DUP1 ISZERO PUSH2 0x466 JUMPI PUSH1 0x0 DUP1 REVERT JUMPDEST POP PUSH2 0x353 PUSH2 0x475 CALLDATASIZE PUSH1 0x4 PUSH2 0x24F7 JUMP JUMPDEST PUSH1 0x0 SWAP2 DUP3 MSTORE PUSH1 0x3 PUSH1 0x20 SWAP1 DUP2 MSTORE PUSH1 0x40 DUP1 DUP5 KECCAK256 PUSH1 0x1 PUSH1 0x1 PUSH1 0xA0 SHL SUB SWAP4 SWAP1 SWAP4 AND DUP5 MSTORE SWAP2 SWAP1 MSTORE SWAP1 KECCAK256 SLOAD PUSH1 0xFF AND SWAP1 JUMP JUMPDEST CALLVALUE DUP1 ISZERO PUSH2 0x4AC JUMPI PUSH1 0x0 DUP1 REVERT JUMPDEST POP PUSH2 0x4C0 PUSH2 0x4BB CALLDATASIZE PUSH1 0x4 PUSH2 0x2397 JUMP JUMPDEST PUSH2 0x1FE6 JUMP JUMPDEST PUSH1 0x40 MLOAD PUSH2 0x1A5 SWAP2 SWAP1 PUSH2 0x29AA JUMP JUMPDEST CALLVALUE DUP1 ISZERO PUSH2 0x4D9 JUMPI PUSH1 0x0 DUP1 REVERT JUMPDEST POP PUSH2 0x4ED PUSH2 0x4E8 CALLDATASIZE PUSH1 0x4 PUSH2 0x29C4 JUMP JUMPDEST PUSH2 0x2083 JUMP JUMPDEST PUSH1 0x40 MLOAD PUSH2 0x1A5 SWAP2 SWAP1 PUSH2 0x2A0F JUMP JUMPDEST CALLVALUE DUP1 ISZERO PUSH2 0x506 JUMPI PUSH1 0x0 DUP1 REVERT JUMPDEST POP PUSH2 0x19B PUSH2 0x515 CALLDATASIZE PUSH1 0x4 PUSH2 0x2397 JUMP JUMPDEST PUSH2 0x21A3 JUMP JUMPDEST PUSH2 0x528 PUSH3 0xF4240 PUSH1 0x1 PUSH2 0x2A38 JUMP JUMPDEST DUP2 JUMP JUMPDEST DUP3 PUSH1 0x0 DUP2 GT DUP1 ISZERO PUSH2 0x53E JUMPI POP PUSH1 0x1 SLOAD DUP2 GT ISZERO JUMPDEST PUSH2 0x563 JUMPI PUSH1 0x40 MLOAD PUSH3 0x461BCD PUSH1 0xE5 SHL DUP2 MSTORE PUSH1 0x4 ADD PUSH2 0x55A SWAP1 PUSH2 0x2A4F JUMP JUMPDEST PUSH1 0x40 MLOAD DUP1 SWAP2 SUB SWAP1 REVERT JUMPDEST PUSH1 0x0 DUP5 DUP2 MSTORE PUSH1 0x20 DUP2 SWAP1 MSTORE PUSH1 0x40 SWAP1 KECCAK256 PUSH1 0xD ADD SLOAD DUP5 SWAP1 PUSH1 0xFF AND PUSH2 0x596 JUMPI PUSH1 0x40 MLOAD PUSH3 0x461BCD PUSH1 0xE5 SHL DUP2 MSTORE PUSH1 0x4 ADD PUSH2 0x55A SWAP1 PUSH2 0x2A86 JUMP JUMPDEST PUSH1 0x0 DUP6 DUP2 MSTORE PUSH1 0x20 DUP2 SWAP1 MSTORE PUSH1 0x40 SWAP1 KECCAK256 PUSH1 0x3 ADD SLOAD DUP6 SWAP1 PUSH1 0x1 PUSH1 0x1 PUSH1 0xA0 SHL SUB AND CALLER EQ PUSH2 0x5F1 JUMPI PUSH1 0x40 MLOAD PUSH3 0x461BCD PUSH1 0xE5 SHL DUP2 MSTORE PUSH1 0x20 PUSH1 0x4 DUP3 ADD MSTORE PUSH1 0xD PUSH1 0x24 DUP3 ADD MSTORE PUSH13 0x2737BA1037B933B0B734BD32B9 PUSH1 0x99 SHL PUSH1 0x44 DUP3 ADD MSTORE PUSH1 0x64 ADD PUSH2 0x55A JUMP JUMPDEST DUP4 MLOAD DUP6 MLOAD EQ PUSH2 0x63A JUMPI PUSH1 0x40 MLOAD PUSH3 0x461BCD PUSH1 0xE5 SHL DUP2 MSTORE PUSH1 0x20 PUSH1 0x4 DUP3 ADD MSTORE PUSH1 0x15 PUSH1 0x24 DUP3 ADD MSTORE PUSH21 0x82E4E4C2F240D8CADCCEE8D040DAD2E6DAC2E8C6D PUSH1 0x5B SHL PUSH1 0x44 DUP3 ADD MSTORE PUSH1 0x64 ADD PUSH2 0x55A JUMP JUMPDEST PUSH1 0x0 DUP6 MLOAD GT PUSH2 0x68B JUMPI PUSH1 0x40 MLOAD PUSH3 0x461BCD PUSH1 0xE5 SHL DUP2 MSTORE PUSH1 0x20 PUSH1 0x4 DUP3 ADD MSTORE PUSH1 0x1C PUSH1 0x24 DUP3 ADD MSTORE PUSH32 0x4174206C65617374206F6E652077696E6E657220726571756972656400000000 PUSH1 0x44 DUP3 ADD MSTORE PUSH1 0x64 ADD PUSH2 0x55A JUMP JUMPDEST PUSH1 0x0 DUP7 DUP2 MSTORE PUSH1 0x20 DUP2 SWAP1 MSTORE PUSH1 0x40 DUP2 KECCAK256 DUP6 MLOAD SWAP1 SWAP2 SWAP1 PUSH8 0xFFFFFFFFFFFFFFFF DUP2 GT ISZERO PUSH2 0x6B6 JUMPI PUSH2 0x6B6 PUSH2 0x21B2 JUMP JUMPDEST PUSH1 0x40 MLOAD SWAP1 DUP1 DUP3 MSTORE DUP1 PUSH1 0x20 MUL PUSH1 0x20 ADD DUP3 ADD PUSH1 0x40 MSTORE DUP1 ISZERO PUSH2 0x6DF JUMPI DUP2 PUSH1 0x20 ADD PUSH1 0x20 DUP3 MUL DUP1 CALLDATASIZE DUP4 CALLDATACOPY ADD SWAP1 POP JUMPDEST POP SWAP1 POP PUSH1 0x0 DUP1 JUMPDEST DUP8 MLOAD DUP2 LT ISZERO PUSH2 0x76E JUMPI PUSH3 0xF4240 DUP9 DUP3 DUP2 MLOAD DUP2 LT PUSH2 0x705 JUMPI PUSH2 0x705 PUSH2 0x2AB4 JUMP JUMPDEST PUSH1 0x20 MUL PUSH1 0x20 ADD ADD MLOAD PUSH2 0x717 SWAP2 SWAP1 PUSH2 0x2A38 JUMP JUMPDEST DUP4 DUP3 DUP2 MLOAD DUP2 LT PUSH2 0x729 JUMPI PUSH2 0x729 PUSH2 0x2AB4 JUMP JUMPDEST PUSH1 0x20 MUL PUSH1 0x20 ADD ADD DUP2 DUP2 MSTORE POP POP DUP3 DUP2 DUP2 MLOAD DUP2 LT PUSH2 0x747 JUMPI PUSH2 0x747 PUSH2 0x2AB4 JUMP JUMPDEST PUSH1 0x20 MUL PUSH1 0x20 ADD ADD MLOAD DUP3 PUSH2 0x75A SWAP2 SWAP1 PUSH2 0x2ACA JUMP JUMPDEST SWAP2 POP DUP1 PUSH2 0x766 DUP2 PUSH2 0x2ADD JUMP JUMPDEST SWAP2 POP POP PUSH2 0x6E6 JUMP JUMPDEST POP DUP3 PUSH1 0x4 ADD SLOAD DUP2 GT ISZERO PUSH2 0x7C3 JUMPI PUSH1 0x40 MLOAD PUSH3 0x461BCD PUSH1 0xE5 SHL DUP2 MSTORE PUSH1 0x20 PUSH1 0x4 DUP3 ADD MSTORE PUSH1 0x18 PUSH1 0x24 DUP3 ADD MSTORE PUSH32 0x5072697A657320657863656564207072697A6520706F6F6C0000000000000000 PUSH1 0x44 DUP3 ADD MSTORE PUSH1 0x64 ADD PUSH2 0x55A JUMP JUMPDEST PUSH1 0x0 JUMPDEST DUP9 MLOAD DUP2 LT ISZERO PUSH2 0x8C1 JUMPI PUSH1 0x0 PUSH1 0x1 PUSH1 0x1 PUSH1 0xA0 SHL SUB AND DUP10 DUP3 DUP2 MLOAD DUP2 LT PUSH2 0x7EC JUMPI PUSH2 0x7EC PUSH2 0x2AB4 JUMP JUMPDEST PUSH1 0x20 MUL PUSH1 0x20 ADD ADD MLOAD PUSH1 0x1 PUSH1 0x1 PUSH1 0xA0 SHL SUB AND SUB PUSH2 0x843 JUMPI PUSH1 0x40 MLOAD PUSH3 0x461BCD PUSH1 0xE5 SHL DUP2 MSTORE PUSH1 0x20 PUSH1 0x4 DUP3 ADD MSTORE PUSH1 0x16 PUSH1 0x24 DUP3 ADD MSTORE PUSH22 0x496E76616C69642077696E6E65722061646472657373 PUSH1 0x50 SHL PUSH1 0x44 DUP3 ADD MSTORE PUSH1 0x64 ADD PUSH2 0x55A JUMP JUMPDEST DUP9 DUP2 DUP2 MLOAD DUP2 LT PUSH2 0x855 JUMPI PUSH2 0x855 PUSH2 0x2AB4 JUMP JUMPDEST PUSH1 0x20 MUL PUSH1 0x20 ADD ADD MLOAD PUSH1 0x1 PUSH1 0x1 PUSH1 0xA0 SHL SUB AND PUSH2 0x8FC DUP5 DUP4 DUP2 MLOAD DUP2 LT PUSH2 0x87B JUMPI PUSH2 0x87B PUSH2 0x2AB4 JUMP JUMPDEST PUSH1 0x20 MUL PUSH1 0x20 ADD ADD MLOAD SWAP1 DUP2 ISZERO MUL SWAP1 PUSH1 0x40 MLOAD PUSH1 0x0 PUSH1 0x40 MLOAD DUP1 DUP4 SUB DUP2 DUP6 DUP9 DUP9 CALL SWAP4 POP POP POP POP ISZERO DUP1 ISZERO PUSH2 0x8AE JUMPI RETURNDATASIZE PUSH1 0x0 DUP1 RETURNDATACOPY RETURNDATASIZE PUSH1 0x0 REVERT JUMPDEST POP DUP1 PUSH2 0x8B9 DUP2 PUSH2 0x2ADD JUMP JUMPDEST SWAP2 POP POP PUSH2 0x7C6 JUMP JUMPDEST POP DUP1 DUP4 PUSH1 0x4 ADD PUSH1 0x0 DUP3 DUP3 SLOAD PUSH2 0x8D6 SWAP2 SWAP1 PUSH2 0x2AF6 JUMP JUMPDEST SWAP3 POP POP DUP2 SWAP1 SSTORE POP DUP9 PUSH32 0xEC92DCCF4A03653BC1A3D85019574BF62A659C47575779A889806684783B9E5C DUP10 DUP5 PUSH1 0x40 MLOAD PUSH2 0x90F SWAP3 SWAP2 SWAP1 PUSH2 0x2B09 JUMP JUMPDEST PUSH1 0x40 MLOAD DUP1 SWAP2 SUB SWAP1 LOG2 PUSH1 0x0 DUP4 PUSH1 0xB ADD SLOAD GT DUP1 ISZERO PUSH2 0x92E JUMPI POP PUSH1 0x9 DUP4 ADD SLOAD ISZERO ISZERO JUMPDEST ISZERO PUSH2 0xA17 JUMPI PUSH1 0x9 DUP4 ADD SLOAD PUSH1 0xB DUP5 ADD SLOAD PUSH1 0x0 SWAP2 PUSH2 0x949 SWAP2 PUSH2 0x2B37 JUMP JUMPDEST SWAP1 POP PUSH1 0x0 JUMPDEST PUSH1 0x9 DUP6 ADD SLOAD DUP2 LT ISZERO PUSH2 0x9C2 JUMPI DUP5 PUSH1 0x9 ADD DUP2 DUP2 SLOAD DUP2 LT PUSH2 0x96F JUMPI PUSH2 0x96F PUSH2 0x2AB4 JUMP JUMPDEST PUSH1 0x0 SWAP2 DUP3 MSTORE PUSH1 0x20 DUP3 KECCAK256 ADD SLOAD PUSH1 0x40 MLOAD PUSH1 0x1 PUSH1 0x1 PUSH1 0xA0 SHL SUB SWAP1 SWAP2 AND SWAP2 DUP5 ISZERO PUSH2 0x8FC MUL SWAP2 DUP6 SWAP2 DUP2 DUP2 DUP2 DUP6 DUP9 DUP9 CALL SWAP4 POP POP POP POP ISZERO DUP1 ISZERO PUSH2 0x9AF JUMPI RETURNDATASIZE PUSH1 0x0 DUP1 RETURNDATACOPY RETURNDATASIZE PUSH1 0x0 REVERT JUMPDEST POP DUP1 PUSH2 0x9BA DUP2 PUSH2 0x2ADD JUMP JUMPDEST SWAP2 POP POP PUSH2 0x94E JUMP JUMPDEST POP PUSH1 0xB DUP5 ADD SLOAD PUSH1 0x9 DUP6 ADD SLOAD PUSH1 0x40 MLOAD DUP13 SWAP3 PUSH32 0xD7A5ED460DBF7886FDEB07E60E3BA47BDA207EF714EFD849B50D0D740D1AA5A4 SWAP3 PUSH2 0xA06 SWAP3 SWAP2 DUP3 MSTORE PUSH1 0x20 DUP3 ADD MSTORE PUSH1 0x40 ADD SWAP1 JUMP JUMPDEST PUSH1 0x40 MLOAD DUP1 SWAP2 SUB SWAP1 LOG2 POP PUSH1 0x0 PUSH1 0xB DUP5 ADD SSTORE JUMPDEST PUSH1 0xC DUP4 ADD SLOAD ISZERO PUSH2 0xAB3 JUMPI PUSH1 0xC DUP4 ADD DUP1 SLOAD PUSH1 0x0 SWAP2 DUP3 SWAP1 SSTORE PUSH1 0x3 DUP6 ADD SLOAD PUSH1 0x40 MLOAD SWAP2 SWAP3 PUSH1 0x1 PUSH1 0x1 PUSH1 0xA0 SHL SUB SWAP1 SWAP2 AND SWAP2 DUP4 ISZERO PUSH2 0x8FC MUL SWAP2 DUP5 SWAP2 SWAP1 DUP2 DUP2 DUP2 DUP6 DUP9 DUP9 CALL SWAP4 POP POP POP POP ISZERO DUP1 ISZERO PUSH2 0xA6A JUMPI RETURNDATASIZE PUSH1 0x0 DUP1 RETURNDATACOPY RETURNDATASIZE PUSH1 0x0 REVERT JUMPDEST POP PUSH1 0x3 DUP5 ADD SLOAD PUSH1 0x40 MLOAD DUP3 DUP2 MSTORE PUSH1 0x1 PUSH1 0x1 PUSH1 0xA0 SHL SUB SWAP1 SWAP2 AND SWAP1 DUP12 SWAP1 PUSH32 0x2341587E69938509C4731D6CE2058FF14E7313743097D35B00C03894C37E6F56 SWAP1 PUSH1 0x20 ADD PUSH1 0x40 MLOAD DUP1 SWAP2 SUB SWAP1 LOG3 POP JUMPDEST POP POP PUSH1 0xD ADD DUP1 SLOAD PUSH1 0xFF NOT AND SWAP1 SSTORE POP POP POP POP POP POP JUMP JUMPDEST PUSH1 0x60 DUP1 PUSH1 0x0 DUP1 PUSH1 0x0 DUP1 PUSH1 0x0 DUP1 PUSH1 0x0 DUP1 DUP11 PUSH1 0x0 DUP2 GT DUP1 ISZERO PUSH2 0xAEA JUMPI POP PUSH1 0x1 SLOAD DUP2 GT ISZERO JUMPDEST PUSH2 0xB06 JUMPI PUSH1 0x40 MLOAD PUSH3 0x461BCD PUSH1 0xE5 SHL DUP2 MSTORE PUSH1 0x4 ADD PUSH2 0x55A SWAP1 PUSH2 0x2A4F JUMP JUMPDEST PUSH1 0x0 DUP13 DUP2 MSTORE PUSH1 0x20 DUP2 SWAP1 MSTORE PUSH1 0x40 SWAP1 KECCAK256 PUSH1 0x3 DUP2 ADD SLOAD PUSH1 0x4 DUP3 ADD SLOAD PUSH1 0xE DUP4 ADD SLOAD PUSH1 0x9 DUP5 ADD SLOAD PUSH1 0xD DUP6 ADD SLOAD PUSH1 0x6 DUP7 ADD SLOAD PUSH1 0x7 DUP8 ADD SLOAD PUSH1 0x8 DUP9 ADD SLOAD PUSH1 0x1 DUP10 ADD DUP1 SLOAD SWAP1 SWAP9 PUSH1 0x2 DUP12 ADD SWAP9 PUSH1 0x1 PUSH1 0x1 PUSH1 0xA0 SHL SUB SWAP1 SWAP2 AND SWAP8 SWAP1 SWAP7 SWAP1 SWAP6 SWAP1 SWAP5 PUSH1 0xFF SWAP1 SWAP2 AND SWAP4 SWAP1 SWAP3 SWAP1 SWAP2 DUP11 SWAP1 PUSH2 0xB70 SWAP1 PUSH2 0x2B59 JUMP JUMPDEST DUP1 PUSH1 0x1F ADD PUSH1 0x20 DUP1 SWAP2 DIV MUL PUSH1 0x20 ADD PUSH1 0x40 MLOAD SWAP1 DUP2 ADD PUSH1 0x40 MSTORE DUP1 SWAP3 SWAP2 SWAP1 DUP2 DUP2 MSTORE PUSH1 0x20 ADD DUP3 DUP1 SLOAD PUSH2 0xB9C SWAP1 PUSH2 0x2B59 JUMP JUMPDEST DUP1 ISZERO PUSH2 0xBE9 JUMPI DUP1 PUSH1 0x1F LT PUSH2 0xBBE JUMPI PUSH2 0x100 DUP1 DUP4 SLOAD DIV MUL DUP4 MSTORE SWAP2 PUSH1 0x20 ADD SWAP2 PUSH2 0xBE9 JUMP JUMPDEST DUP3 ADD SWAP2 SWAP1 PUSH1 0x0 MSTORE PUSH1 0x20 PUSH1 0x0 KECCAK256 SWAP1 JUMPDEST DUP2 SLOAD DUP2 MSTORE SWAP1 PUSH1 0x1 ADD SWAP1 PUSH1 0x20 ADD DUP1 DUP4 GT PUSH2 0xBCC JUMPI DUP3 SWAP1 SUB PUSH1 0x1F AND DUP3 ADD SWAP2 JUMPDEST POP POP POP POP POP SWAP10 POP DUP9 DUP1 SLOAD PUSH2 0xBFC SWAP1 PUSH2 0x2B59 JUMP JUMPDEST DUP1 PUSH1 0x1F ADD PUSH1 0x20 DUP1 SWAP2 DIV MUL PUSH1 0x20 ADD PUSH1 0x40 MLOAD SWAP1 DUP2 ADD PUSH1 0x40 MSTORE DUP1 SWAP3 SWAP2 SWAP1 DUP2 DUP2 MSTORE PUSH1 0x20 ADD DUP3 DUP1 SLOAD PUSH2 0xC28 SWAP1 PUSH2 0x2B59 JUMP JUMPDEST DUP1 ISZERO PUSH2 0xC75 JUMPI DUP1 PUSH1 0x1F LT PUSH2 0xC4A JUMPI PUSH2 0x100 DUP1 DUP4 SLOAD DIV MUL DUP4 MSTORE SWAP2 PUSH1 0x20 ADD SWAP2 PUSH2 0xC75 JUMP JUMPDEST DUP3 ADD SWAP2 SWAP1 PUSH1 0x0 MSTORE PUSH1 0x20 PUSH1 0x0 KECCAK256 SWAP1 JUMPDEST DUP2 SLOAD DUP2 MSTORE SWAP1 PUSH1 0x1 ADD SWAP1 PUSH1 0x20 ADD DUP1 DUP4 GT PUSH2 0xC58 JUMPI DUP3 SWAP1 SUB PUSH1 0x1F AND DUP3 ADD SWAP2 JUMPDEST POP POP POP POP POP SWAP9 POP SWAP12 POP SWAP12 POP SWAP12 POP SWAP12 POP SWAP12 POP SWAP12 POP SWAP12 POP SWAP12 POP SWAP12 POP SWAP12 POP POP POP SWAP2 SWAP4 SWAP6 SWAP8 SWAP10 POP SWAP2 SWAP4 SWAP6 SWAP8 SWAP10 JUMP JUMPDEST PUSH1 0x0 PUSH2 0xCAE PUSH3 0xF4240 DUP4 PUSH2 0x2B37 JUMP JUMPDEST SWAP3 SWAP2 POP POP JUMP JUMPDEST PUSH1 0x0 DUP3 DUP2 MSTORE PUSH1 0x2 PUSH1 0x20 DUP2 DUP2 MSTORE PUSH1 0x40 DUP1 DUP5 KECCAK256 DUP6 DUP6 MSTORE SWAP1 SWAP2 MSTORE DUP3 KECCAK256 SWAP1 DUP2 ADD DUP1 SLOAD PUSH1 0x60 SWAP4 DUP5 SWAP4 DUP5 SWAP4 DUP5 SWAP4 DUP4 SWAP3 SWAP2 DUP4 SWAP2 PUSH2 0xCE9 SWAP1 PUSH2 0x2B59 JUMP JUMPDEST SWAP1 POP GT PUSH2 0xD31 JUMPI PUSH1 0x40 MLOAD PUSH3 0x461BCD PUSH1 0xE5 SHL DUP2 MSTORE PUSH1 0x20 PUSH1 0x4 DUP3 ADD MSTORE PUSH1 0x16 PUSH1 0x24 DUP3 ADD MSTORE PUSH22 0x141C9BDA9958DD08191BD95CC81B9BDD08195E1A5CDD PUSH1 0x52 SHL PUSH1 0x44 DUP3 ADD MSTORE PUSH1 0x64 ADD PUSH2 0x55A JUMP JUMPDEST DUP1 PUSH1 0x2 ADD DUP2 PUSH1 0x3 ADD DUP3 PUSH1 0x4 ADD DUP4 PUSH1 0x5 ADD DUP5 PUSH1 0x6 ADD PUSH1 0x0 SWAP1 SLOAD SWAP1 PUSH2 0x100 EXP SWAP1 DIV PUSH1 0x1 PUSH1 0x1 PUSH1 0xA0 SHL SUB AND DUP6 PUSH1 0x7 ADD SLOAD DUP6 DUP1 SLOAD PUSH2 0xD6A SWAP1 PUSH2 0x2B59 JUMP JUMPDEST DUP1 PUSH1 0x1F ADD PUSH1 0x20 DUP1 SWAP2 DIV MUL PUSH1 0x20 ADD PUSH1 0x40 MLOAD SWAP1 DUP2 ADD PUSH1 0x40 MSTORE DUP1 SWAP3 SWAP2 SWAP1 DUP2 DUP2 MSTORE PUSH1 0x20 ADD DUP3 DUP1 SLOAD PUSH2 0xD96 SWAP1 PUSH2 0x2B59 JUMP JUMPDEST DUP1 ISZERO PUSH2 0xDE3 JUMPI DUP1 PUSH1 0x1F LT PUSH2 0xDB8 JUMPI PUSH2 0x100 DUP1 DUP4 SLOAD DIV MUL DUP4 MSTORE SWAP2 PUSH1 0x20 ADD SWAP2 PUSH2 0xDE3 JUMP JUMPDEST DUP3 ADD SWAP2 SWAP1 PUSH1 0x0 MSTORE PUSH1 0x20 PUSH1 0x0 KECCAK256 SWAP1 JUMPDEST DUP2 SLOAD DUP2 MSTORE SWAP1 PUSH1 0x1 ADD SWAP1 PUSH1 0x20 ADD DUP1 DUP4 GT PUSH2 0xDC6 JUMPI DUP3 SWAP1 SUB PUSH1 0x1F AND DUP3 ADD SWAP2 JUMPDEST POP POP POP POP POP SWAP6 POP DUP5 DUP1 SLOAD PUSH2 0xDF6 SWAP1 PUSH2 0x2B59 JUMP JUMPDEST DUP1 PUSH1 0x1F ADD PUSH1 0x20 DUP1 SWAP2 DIV MUL PUSH1 0x20 ADD PUSH1 0x40 MLOAD SWAP1 DUP2 ADD PUSH1 0x40 MSTORE DUP1 SWAP3 SWAP2 SWAP1 DUP2 DUP2 MSTORE PUSH1 0x20 ADD DUP3 DUP1 SLOAD PUSH2 0xE22 SWAP1 PUSH2 0x2B59 JUMP JUMPDEST DUP1 ISZERO PUSH2 0xE6F JUMPI DUP1 PUSH1 0x1F LT PUSH2 0xE44 JUMPI PUSH2 0x100 DUP1 DUP4 SLOAD DIV MUL DUP4 MSTORE SWAP2 PUSH1 0x20 ADD SWAP2 PUSH2 0xE6F JUMP JUMPDEST DUP3 ADD SWAP2 SWAP1 PUSH1 0x0 MSTORE PUSH1 0x20 PUSH1 0x0 KECCAK256 SWAP1 JUMPDEST DUP2 SLOAD DUP2 MSTORE SWAP1 PUSH1 0x1 ADD SWAP1 PUSH1 0x20 ADD DUP1 DUP4 GT PUSH2 0xE52 JUMPI DUP3 SWAP1 SUB PUSH1 0x1F AND DUP3 ADD SWAP2 JUMPDEST POP POP POP POP POP SWAP5 POP DUP4 DUP1 SLOAD PUSH2 0xE82 SWAP1 PUSH2 0x2B59 JUMP JUMPDEST DUP1 PUSH1 0x1F ADD PUSH1 0x20 DUP1 SWAP2 DIV MUL PUSH1 0x20 ADD PUSH1 0x40 MLOAD SWAP1 DUP2 ADD PUSH1 0x40 MSTORE DUP1 SWAP3 SWAP2 SWAP1 DUP2 DUP2 MSTORE PUSH1 0x20 ADD DUP3 DUP1 SLOAD PUSH2 0xEAE SWAP1 PUSH2 0x2B59 JUMP JUMPDEST DUP1 ISZERO PUSH2 0xEFB JUMPI DUP1 PUSH1 0x1F LT PUSH2 0xED0 JUMPI PUSH2 0x100 DUP1 DUP4 SLOAD DIV MUL DUP4 MSTORE SWAP2 PUSH1 0x20 ADD SWAP2 PUSH2 0xEFB JUMP JUMPDEST DUP3 ADD SWAP2 SWAP1 PUSH1 0x0 MSTORE PUSH1 0x20 PUSH1 0x0 KECCAK256 SWAP1 JUMPDEST DUP2 SLOAD DUP2 MSTORE SWAP1 PUSH1 0x1 ADD SWAP1 PUSH1 0x20 ADD DUP1 DUP4 GT PUSH2 0xEDE JUMPI DUP3 SWAP1 SUB PUSH1 0x1F AND DUP3 ADD SWAP2 JUMPDEST POP POP POP POP POP SWAP4 POP DUP3 DUP1 SLOAD PUSH2 0xF0E SWAP1 PUSH2 0x2B59 JUMP JUMPDEST DUP1 PUSH1 0x1F ADD PUSH1 0x20 DUP1 SWAP2 DIV MUL PUSH1 0x20 ADD PUSH1 0x40 MLOAD SWAP1 DUP2 ADD PUSH1 0x40 MSTORE DUP1 SWAP3 SWAP2 SWAP1 DUP2 DUP2 MSTORE PUSH1 0x20 ADD DUP3 DUP1 SLOAD PUSH2 0xF3A SWAP1 PUSH2 0x2B59 JUMP JUMPDEST DUP1 ISZERO PUSH2 0xF87 JUMPI DUP1 PUSH1 0x1F LT PUSH2 0xF5C JUMPI PUSH2 0x100 DUP1 DUP4 SLOAD DIV MUL DUP4 MSTORE SWAP2 PUSH1 0x20 ADD SWAP2 PUSH2 0xF87 JUMP JUMPDEST DUP3 ADD SWAP2 SWAP1 PUSH1 0x0 MSTORE PUSH1 0x20 PUSH1 0x0 KECCAK256 SWAP1 JUMPDEST DUP2 SLOAD DUP2 MSTORE SWAP1 PUSH1 0x1 ADD SWAP1 PUSH1 0x20 ADD DUP1 DUP4 GT PUSH2 0xF6A JUMPI DUP3 SWAP1 SUB PUSH1 0x1F AND DUP3 ADD SWAP2 JUMPDEST POP POP POP POP POP SWAP3 POP SWAP7 POP SWAP7 POP SWAP7 POP SWAP7 POP SWAP7 POP SWAP7 POP POP SWAP3 SWAP6 POP SWAP3 SWAP6 POP SWAP3 SWAP6 JUMP JUMPDEST DUP2 PUSH1 0x0 DUP2 GT DUP1 ISZERO PUSH2 0xFB8 JUMPI POP PUSH1 0x1 SLOAD DUP2 GT ISZERO JUMPDEST PUSH2 0xFD4 JUMPI PUSH1 0x40 MLOAD PUSH3 0x461BCD PUSH1 0xE5 SHL DUP2 MSTORE PUSH1 0x4 ADD PUSH2 0x55A SWAP1 PUSH2 0x2A4F JUMP JUMPDEST PUSH1 0x0 DUP4 DUP2 MSTORE PUSH1 0x20 DUP2 SWAP1 MSTORE PUSH1 0x40 SWAP1 KECCAK256 PUSH1 0xD ADD SLOAD DUP4 SWAP1 PUSH1 0xFF AND PUSH2 0x1007 JUMPI PUSH1 0x40 MLOAD PUSH3 0x461BCD PUSH1 0xE5 SHL DUP2 MSTORE PUSH1 0x4 ADD PUSH2 0x55A SWAP1 PUSH2 0x2A86 JUMP JUMPDEST PUSH1 0x0 DUP5 DUP2 MSTORE PUSH1 0x20 DUP2 SWAP1 MSTORE PUSH1 0x40 SWAP1 KECCAK256 PUSH1 0x3 ADD SLOAD DUP5 SWAP1 PUSH1 0x1 PUSH1 0x1 PUSH1 0xA0 SHL SUB AND CALLER EQ PUSH2 0x1062 JUMPI PUSH1 0x40 MLOAD PUSH3 0x461BCD PUSH1 0xE5 SHL DUP2 MSTORE PUSH1 0x20 PUSH1 0x4 DUP3 ADD MSTORE PUSH1 0xD PUSH1 0x24 DUP3 ADD MSTORE PUSH13 0x2737BA1037B933B0B734BD32B9 PUSH1 0x99 SHL PUSH1 0x44 DUP3 ADD MSTORE PUSH1 0x64 ADD PUSH2 0x55A JUMP JUMPDEST PUSH1 0x1 PUSH1 0x1 PUSH1 0xA0 SHL SUB DUP5 AND PUSH2 0x10B0 JUMPI PUSH1 0x40 MLOAD PUSH3 0x461BCD PUSH1 0xE5 SHL DUP2 MSTORE PUSH1 0x20 PUSH1 0x4 DUP3 ADD MSTORE PUSH1 0x15 PUSH1 0x24 DUP3 ADD MSTORE PUSH21 0x496E76616C6964206A756467652061646472657373 PUSH1 0x58 SHL PUSH1 0x44 DUP3 ADD MSTORE PUSH1 0x64 ADD PUSH2 0x55A JUMP JUMPDEST PUSH1 0x0 DUP6 DUP2 MSTORE PUSH1 0x3 PUSH1 0x20 SWAP1 DUP2 MSTORE PUSH1 0x40 DUP1 DUP4 KECCAK256 PUSH1 0x1 PUSH1 0x1 PUSH1 0xA0 SHL SUB DUP9 AND DUP5 MSTORE SWAP1 SWAP2 MSTORE SWAP1 KECCAK256 SLOAD PUSH1 0xFF AND ISZERO PUSH2 0x1115 JUMPI PUSH1 0x40 MLOAD PUSH3 0x461BCD PUSH1 0xE5 SHL DUP2 MSTORE PUSH1 0x20 PUSH1 0x4 DUP3 ADD MSTORE PUSH1 0xF PUSH1 0x24 DUP3 ADD MSTORE PUSH15 0x416C72656164792061206A75646765 PUSH1 0x88 SHL PUSH1 0x44 DUP3 ADD MSTORE PUSH1 0x64 ADD PUSH2 0x55A JUMP JUMPDEST PUSH2 0x1123 PUSH3 0xF4240 PUSH1 0x1 PUSH2 0x2A38 JUMP JUMPDEST CALLVALUE LT ISZERO PUSH2 0x117D JUMPI PUSH1 0x40 MLOAD PUSH3 0x461BCD PUSH1 0xE5 SHL DUP2 MSTORE PUSH1 0x20 PUSH1 0x4 DUP3 ADD MSTORE PUSH1 0x22 PUSH1 0x24 DUP3 ADD MSTORE PUSH32 0x496E73756666696369656E74207061796D656E7420666F72206A756467652066 PUSH1 0x44 DUP3 ADD MSTORE PUSH2 0x6565 PUSH1 0xF0 SHL PUSH1 0x64 DUP3 ADD MSTORE PUSH1 0x84 ADD PUSH2 0x55A JUMP JUMPDEST PUSH1 0x0 DUP6 DUP2 MSTORE PUSH1 0x20 DUP2 DUP2 MSTORE PUSH1 0x40 DUP1 DUP4 KECCAK256 PUSH1 0x9 DUP2 ADD DUP1 SLOAD PUSH1 0x1 DUP1 DUP3 ADD DUP4 SSTORE SWAP2 DUP7 MSTORE DUP5 DUP7 KECCAK256 ADD DUP1 SLOAD PUSH1 0x1 PUSH1 0x1 PUSH1 0xA0 SHL SUB NOT AND PUSH1 0x1 PUSH1 0x1 PUSH1 0xA0 SHL SUB DUP12 AND SWAP1 DUP2 OR SWAP1 SWAP2 SSTORE DUP11 DUP7 MSTORE PUSH1 0x3 DUP6 MSTORE DUP4 DUP7 KECCAK256 DUP2 DUP8 MSTORE SWAP1 SWAP5 MSTORE SWAP2 SWAP1 SWAP4 KECCAK256 DUP1 SLOAD PUSH1 0xFF NOT AND DUP3 OR SWAP1 SSTORE PUSH2 0x8FC SWAP1 PUSH2 0x11EC SWAP1 PUSH3 0xF4240 SWAP1 PUSH2 0x2A38 JUMP JUMPDEST PUSH1 0x40 MLOAD DUP2 ISZERO SWAP1 SWAP3 MUL SWAP2 PUSH1 0x0 DUP2 DUP2 DUP2 DUP6 DUP9 DUP9 CALL SWAP4 POP POP POP POP ISZERO DUP1 ISZERO PUSH2 0x1214 JUMPI RETURNDATASIZE PUSH1 0x0 DUP1 RETURNDATACOPY RETURNDATASIZE PUSH1 0x0 REVERT JUMPDEST POP PUSH1 0x1 PUSH1 0x1 PUSH1 0xA0 SHL SUB DUP6 AND DUP7 PUSH32 0x2E52A072F9C8B68344176C3C5AB5EB12950F749471DCEBAA8B0FDC692857A0C9 PUSH2 0x124F PUSH3 0xF4240 PUSH1 0x1 PUSH2 0x2A38 JUMP JUMPDEST PUSH1 0x40 MLOAD SWAP1 DUP2 MSTORE PUSH1 0x20 ADD PUSH1 0x40 MLOAD DUP1 SWAP2 SUB SWAP1 LOG3 POP POP POP POP POP POP JUMP JUMPDEST PUSH1 0x2 PUSH1 0x20 DUP2 DUP2 MSTORE PUSH1 0x0 SWAP4 DUP5 MSTORE PUSH1 0x40 DUP1 DUP6 KECCAK256 SWAP1 SWAP2 MSTORE SWAP2 DUP4 MSTORE SWAP2 KECCAK256 DUP1 SLOAD PUSH1 0x1 DUP3 ADD SLOAD SWAP3 DUP3 ADD DUP1 SLOAD SWAP2 SWAP4 SWAP3 SWAP2 PUSH2 0x129A SWAP1 PUSH2 0x2B59 JUMP JUMPDEST DUP1 PUSH1 0x1F ADD PUSH1 0x20 DUP1 SWAP2 DIV MUL PUSH1 0x20 ADD PUSH1 0x40 MLOAD SWAP1 DUP2 ADD PUSH1 0x40 MSTORE DUP1 SWAP3 SWAP2 SWAP1 DUP2 DUP2 MSTORE PUSH1 0x20 ADD DUP3 DUP1 SLOAD PUSH2 0x12C6 SWAP1 PUSH2 0x2B59 JUMP JUMPDEST DUP1 ISZERO PUSH2 0x1313 JUMPI DUP1 PUSH1 0x1F LT PUSH2 0x12E8 JUMPI PUSH2 0x100 DUP1 DUP4 SLOAD DIV MUL DUP4 MSTORE SWAP2 PUSH1 0x20 ADD SWAP2 PUSH2 0x1313 JUMP JUMPDEST DUP3 ADD SWAP2 SWAP1 PUSH1 0x0 MSTORE PUSH1 0x20 PUSH1 0x0 KECCAK256 SWAP1 JUMPDEST DUP2 SLOAD DUP2 MSTORE SWAP1 PUSH1 0x1 ADD SWAP1 PUSH1 0x20 ADD DUP1 DUP4 GT PUSH2 0x12F6 JUMPI DUP3 SWAP1 SUB PUSH1 0x1F AND DUP3 ADD SWAP2 JUMPDEST POP POP POP POP POP SWAP1 DUP1 PUSH1 0x3 ADD DUP1 SLOAD PUSH2 0x1328 SWAP1 PUSH2 0x2B59 JUMP JUMPDEST DUP1 PUSH1 0x1F ADD PUSH1 0x20 DUP1 SWAP2 DIV MUL PUSH1 0x20 ADD PUSH1 0x40 MLOAD SWAP1 DUP2 ADD PUSH1 0x40 MSTORE DUP1 SWAP3 SWAP2 SWAP1 DUP2 DUP2 MSTORE PUSH1 0x20 ADD DUP3 DUP1 SLOAD PUSH2 0x1354 SWAP1 PUSH2 0x2B59 JUMP JUMPDEST DUP1 ISZERO PUSH2 0x13A1 JUMPI DUP1 PUSH1 0x1F LT PUSH2 0x1376 JUMPI PUSH2 0x100 DUP1 DUP4 SLOAD DIV MUL DUP4 MSTORE SWAP2 PUSH1 0x20 ADD SWAP2 PUSH2 0x13A1 JUMP JUMPDEST DUP3 ADD SWAP2 SWAP1 PUSH1 0x0 MSTORE PUSH1 0x20 PUSH1 0x0 KECCAK256 SWAP1 JUMPDEST DUP2 SLOAD DUP2 MSTORE SWAP1 PUSH1 0x1 ADD SWAP1 PUSH1 0x20 ADD DUP1 DUP4 GT PUSH2 0x1384 JUMPI DUP3 SWAP1 SUB PUSH1 0x1F AND DUP3 ADD SWAP2 JUMPDEST POP POP POP POP POP SWAP1 DUP1 PUSH1 0x4 ADD DUP1 SLOAD PUSH2 0x13B6 SWAP1 PUSH2 0x2B59 JUMP JUMPDEST DUP1 PUSH1 0x1F ADD PUSH1 0x20 DUP1 SWAP2 DIV MUL PUSH1 0x20 ADD PUSH1 0x40 MLOAD SWAP1 DUP2 ADD PUSH1 0x40 MSTORE DUP1 SWAP3 SWAP2 SWAP1 DUP2 DUP2 MSTORE PUSH1 0x20 ADD DUP3 DUP1 SLOAD PUSH2 0x13E2 SWAP1 PUSH2 0x2B59 JUMP JUMPDEST DUP1 ISZERO PUSH2 0x142F JUMPI DUP1 PUSH1 0x1F LT PUSH2 0x1404 JUMPI PUSH2 0x100 DUP1 DUP4 SLOAD DIV MUL DUP4 MSTORE SWAP2 PUSH1 0x20 ADD SWAP2 PUSH2 0x142F JUMP JUMPDEST DUP3 ADD SWAP2 SWAP1 PUSH1 0x0 MSTORE PUSH1 0x20 PUSH1 0x0 KECCAK256 SWAP1 JUMPDEST DUP2 SLOAD DUP2 MSTORE SWAP1 PUSH1 0x1 ADD SWAP1 PUSH1 0x20 ADD DUP1 DUP4 GT PUSH2 0x1412 JUMPI DUP3 SWAP1 SUB PUSH1 0x1F AND DUP3 ADD SWAP2 JUMPDEST POP POP POP POP POP SWAP1 DUP1 PUSH1 0x5 ADD DUP1 SLOAD PUSH2 0x1444 SWAP1 PUSH2 0x2B59 JUMP JUMPDEST DUP1 PUSH1 0x1F ADD PUSH1 0x20 DUP1 SWAP2 DIV MUL PUSH1 0x20 ADD PUSH1 0x40 MLOAD SWAP1 DUP2 ADD PUSH1 0x40 MSTORE DUP1 SWAP3 SWAP2 SWAP1 DUP2 DUP2 MSTORE PUSH1 0x20 ADD DUP3 DUP1 SLOAD PUSH2 0x1470 SWAP1 PUSH2 0x2B59 JUMP JUMPDEST DUP1 ISZERO PUSH2 0x14BD JUMPI DUP1 PUSH1 0x1F LT PUSH2 0x1492 JUMPI PUSH2 0x100 DUP1 DUP4 SLOAD DIV MUL DUP4 MSTORE SWAP2 PUSH1 0x20 ADD SWAP2 PUSH2 0x14BD JUMP JUMPDEST DUP3 ADD SWAP2 SWAP1 PUSH1 0x0 MSTORE PUSH1 0x20 PUSH1 0x0 KECCAK256 SWAP1 JUMPDEST DUP2 SLOAD DUP2 MSTORE SWAP1 PUSH1 0x1 ADD SWAP1 PUSH1 0x20 ADD DUP1 DUP4 GT PUSH2 0x14A0 JUMPI DUP3 SWAP1 SUB PUSH1 0x1F AND DUP3 ADD SWAP2 JUMPDEST POP POP POP POP PUSH1 0x6 DUP4 ADD SLOAD PUSH1 0x7 SWAP1 SWAP4 ADD SLOAD SWAP2 SWAP3 PUSH1 0x1 PUSH1 0x1 PUSH1 0xA0 SHL SUB AND SWAP2 SWAP1 POP DUP9 JUMP JUMPDEST DUP5 PUSH1 0x0 DUP2 GT DUP1 ISZERO PUSH2 0x14F0 JUMPI POP PUSH1 0x1 SLOAD DUP2 GT ISZERO JUMPDEST PUSH2 0x150C JUMPI PUSH1 0x40 MLOAD PUSH3 0x461BCD PUSH1 0xE5 SHL DUP2 MSTORE PUSH1 0x4 ADD PUSH2 0x55A SWAP1 PUSH2 0x2A4F JUMP JUMPDEST PUSH1 0x0 DUP7 DUP2 MSTORE PUSH1 0x20 DUP2 SWAP1 MSTORE PUSH1 0x40 SWAP1 KECCAK256 PUSH1 0xD ADD SLOAD DUP7 SWAP1 PUSH1 0xFF AND PUSH2 0x153F JUMPI PUSH1 0x40 MLOAD PUSH3 0x461BCD PUSH1 0xE5 SHL DUP2 MSTORE PUSH1 0x4 ADD PUSH2 0x55A SWAP1 PUSH2 0x2A86 JUMP JUMPDEST PUSH2 0x154D PUSH3 0xF4240 PUSH1 0x1 PUSH2 0x2A38 JUMP JUMPDEST CALLVALUE LT ISZERO PUSH2 0x159C JUMPI PUSH1 0x40 MLOAD PUSH3 0x461BCD PUSH1 0xE5 SHL DUP2 MSTORE PUSH1 0x20 PUSH1 0x4 DUP3 ADD MSTORE PUSH1 0x1B PUSH1 0x24 DUP3 ADD MSTORE PUSH32 0x496E73756666696369656E74207375626D697373696F6E206665650000000000 PUSH1 0x44 DUP3 ADD MSTORE PUSH1 0x64 ADD PUSH2 0x55A JUMP JUMPDEST PUSH1 0x0 DUP7 MLOAD GT PUSH2 0x15E5 JUMPI PUSH1 0x40 MLOAD PUSH3 0x461BCD PUSH1 0xE5 SHL DUP2 MSTORE PUSH1 0x20 PUSH1 0x4 DUP3 ADD MSTORE PUSH1 0x15 PUSH1 0x24 DUP3 ADD MSTORE PUSH21 0x141C9BDA9958DD081B985B59481C995C5D5A5C9959 PUSH1 0x5A SHL PUSH1 0x44 DUP3 ADD MSTORE PUSH1 0x64 ADD PUSH2 0x55A JUMP JUMPDEST PUSH1 0x0 DUP8 DUP2 MSTORE PUSH1 0x20 DUP2 SWAP1 MSTORE PUSH1 0x40 DUP2 KECCAK256 PUSH1 0xE DUP2 ADD DUP1 SLOAD SWAP2 SWAP3 PUSH2 0x1604 DUP4 PUSH2 0x2ADD JUMP JUMPDEST SWAP1 SWAP2 SSTORE POP POP PUSH1 0x0 DUP9 DUP2 MSTORE PUSH1 0x2 PUSH1 0x20 DUP2 DUP2 MSTORE PUSH1 0x40 DUP1 DUP5 KECCAK256 PUSH1 0xE DUP7 ADD SLOAD DUP1 DUP7 MSTORE SWAP3 MSTORE SWAP1 SWAP3 KECCAK256 SWAP2 DUP3 SSTORE PUSH1 0x1 DUP3 ADD DUP11 SWAP1 SSTORE DUP2 ADD PUSH2 0x163D DUP10 DUP3 PUSH2 0x2BDC JUMP JUMPDEST POP PUSH1 0x3 DUP2 ADD PUSH2 0x164C DUP9 DUP3 PUSH2 0x2BDC JUMP JUMPDEST POP PUSH1 0x4 DUP2 ADD PUSH2 0x165B DUP8 DUP3 PUSH2 0x2BDC JUMP JUMPDEST POP PUSH1 0x5 DUP2 ADD PUSH2 0x166A DUP7 DUP3 PUSH2 0x2BDC JUMP JUMPDEST POP PUSH1 0x6 DUP2 ADD DUP1 SLOAD PUSH1 0x1 PUSH1 0x1 PUSH1 0xA0 SHL SUB NOT AND CALLER OR SWAP1 SSTORE TIMESTAMP PUSH1 0x7 DUP3 ADD SSTORE PUSH1 0x0 PUSH1 0x64 PUSH1 0x14 PUSH2 0x1699 PUSH3 0xF4240 PUSH1 0x1 PUSH2 0x2A38 JUMP JUMPDEST PUSH2 0x16A3 SWAP2 SWAP1 PUSH2 0x2A38 JUMP JUMPDEST PUSH2 0x16AD SWAP2 SWAP1 PUSH2 0x2B37 JUMP JUMPDEST SWAP1 POP PUSH1 0x0 PUSH1 0x64 PUSH1 0x50 PUSH2 0x16C3 PUSH3 0xF4240 PUSH1 0x1 PUSH2 0x2A38 JUMP JUMPDEST PUSH2 0x16CD SWAP2 SWAP1 PUSH2 0x2A38 JUMP JUMPDEST PUSH2 0x16D7 SWAP2 SWAP1 PUSH2 0x2B37 JUMP JUMPDEST SWAP1 POP DUP2 DUP5 PUSH1 0xC ADD PUSH1 0x0 DUP3 DUP3 SLOAD PUSH2 0x16ED SWAP2 SWAP1 PUSH2 0x2ACA JUMP JUMPDEST SWAP3 POP POP DUP2 SWAP1 SSTORE POP DUP1 DUP5 PUSH1 0xB ADD PUSH1 0x0 DUP3 DUP3 SLOAD PUSH2 0x1708 SWAP2 SWAP1 PUSH2 0x2ACA JUMP JUMPDEST SWAP1 SWAP2 SSTORE POP POP PUSH1 0xE DUP5 ADD SLOAD CALLER SWAP1 DUP13 PUSH32 0x86EF949D57E272497938A9A14DFFA96F0273668710EF813D2BC69C1587B28BFE DUP14 PUSH2 0x1745 PUSH3 0xF4240 PUSH1 0x1 PUSH2 0x2A38 JUMP JUMPDEST PUSH1 0x40 MLOAD PUSH2 0x1753 SWAP3 SWAP2 SWAP1 PUSH2 0x2C9C JUMP JUMPDEST PUSH1 0x40 MLOAD DUP1 SWAP2 SUB SWAP1 LOG4 POP POP POP POP POP POP POP POP POP POP POP JUMP JUMPDEST PUSH1 0x0 DUP8 MLOAD GT PUSH2 0x17A9 JUMPI PUSH1 0x40 MLOAD PUSH3 0x461BCD PUSH1 0xE5 SHL DUP2 MSTORE PUSH1 0x20 PUSH1 0x4 DUP3 ADD MSTORE PUSH1 0xD PUSH1 0x24 DUP3 ADD MSTORE PUSH13 0x13985B59481C995C5D5A5C9959 PUSH1 0x9A SHL PUSH1 0x44 DUP3 ADD MSTORE PUSH1 0x64 ADD PUSH2 0x55A JUMP JUMPDEST PUSH1 0x0 DUP6 MLOAD GT PUSH2 0x17FA JUMPI PUSH1 0x40 MLOAD PUSH3 0x461BCD PUSH1 0xE5 SHL DUP2 MSTORE PUSH1 0x20 PUSH1 0x4 DUP3 ADD MSTORE PUSH1 0x1B PUSH1 0x24 DUP3 ADD MSTORE PUSH32 0x4174206C65617374206F6E65206A756467652072657175697265640000000000 PUSH1 0x44 DUP3 ADD MSTORE PUSH1 0x64 ADD PUSH2 0x55A JUMP JUMPDEST PUSH1 0x0 DUP1 JUMPDEST DUP6 MLOAD DUP2 LT ISZERO PUSH2 0x1851 JUMPI PUSH3 0xF4240 DUP7 DUP3 DUP2 MLOAD DUP2 LT PUSH2 0x181D JUMPI PUSH2 0x181D PUSH2 0x2AB4 JUMP JUMPDEST PUSH1 0x20 MUL PUSH1 0x20 ADD ADD MLOAD PUSH1 0x20 ADD MLOAD PUSH2 0x1833 SWAP2 SWAP1 PUSH2 0x2A38 JUMP JUMPDEST PUSH2 0x183D SWAP1 DUP4 PUSH2 0x2ACA JUMP JUMPDEST SWAP2 POP DUP1 PUSH2 0x1849 DUP2 PUSH2 0x2ADD JUMP JUMPDEST SWAP2 POP POP PUSH2 0x17FE JUMP JUMPDEST POP PUSH1 0x0 PUSH2 0x1862 PUSH3 0xF4240 PUSH1 0x1 PUSH2 0x2A38 JUMP JUMPDEST DUP8 MLOAD PUSH2 0x186E SWAP2 SWAP1 PUSH2 0x2A38 JUMP JUMPDEST SWAP1 POP PUSH1 0x0 DUP2 PUSH2 0x187D DUP5 DUP4 PUSH2 0x2ACA JUMP JUMPDEST PUSH2 0x1887 SWAP2 SWAP1 PUSH2 0x2ACA JUMP JUMPDEST SWAP1 POP DUP1 CALLVALUE LT ISZERO PUSH2 0x18D0 JUMPI PUSH1 0x40 MLOAD PUSH3 0x461BCD PUSH1 0xE5 SHL DUP2 MSTORE PUSH1 0x20 PUSH1 0x4 DUP3 ADD MSTORE PUSH1 0x14 PUSH1 0x24 DUP3 ADD MSTORE PUSH20 0x125B9CDD59999A58DA595B9D081C185E5B595B9D PUSH1 0x62 SHL PUSH1 0x44 DUP3 ADD MSTORE PUSH1 0x64 ADD PUSH2 0x55A JUMP JUMPDEST PUSH1 0x1 DUP1 SLOAD SWAP1 PUSH1 0x0 PUSH2 0x18E0 DUP4 PUSH2 0x2ADD JUMP JUMPDEST SWAP1 SWAP2 SSTORE POP POP PUSH1 0x1 DUP1 SLOAD PUSH1 0x0 DUP2 DUP2 MSTORE PUSH1 0x20 DUP2 SWAP1 MSTORE PUSH1 0x40 SWAP1 KECCAK256 SWAP1 DUP2 SSTORE SWAP1 DUP2 ADD PUSH2 0x1907 DUP13 DUP3 PUSH2 0x2BDC JUMP JUMPDEST POP PUSH1 0x2 DUP2 ADD PUSH2 0x1916 DUP12 DUP3 PUSH2 0x2BDC JUMP JUMPDEST POP PUSH1 0x3 DUP2 ADD DUP1 SLOAD PUSH1 0x1 PUSH1 0x1 PUSH1 0xA0 SHL SUB NOT AND CALLER OR SWAP1 SSTORE PUSH1 0x4 DUP2 ADD DUP5 SWAP1 SSTORE TIMESTAMP PUSH1 0x5 DUP3 ADD SSTORE PUSH1 0x6 DUP2 ADD DUP8 SWAP1 SSTORE PUSH1 0x7 DUP2 ADD DUP7 SWAP1 SSTORE PUSH1 0x8 DUP2 ADD DUP6 SWAP1 SSTORE PUSH1 0xD DUP2 ADD DUP1 SLOAD PUSH1 0xFF NOT AND PUSH1 0x1 OR SWAP1 SSTORE PUSH1 0x0 PUSH1 0xB DUP3 ADD DUP2 SWAP1 SSTORE PUSH1 0xC DUP3 ADD DUP2 SWAP1 SSTORE PUSH1 0xE DUP3 ADD DUP2 SWAP1 SSTORE JUMPDEST DUP9 MLOAD DUP2 LT ISZERO PUSH2 0x19EE JUMPI DUP2 PUSH1 0xA ADD DUP10 DUP3 DUP2 MLOAD DUP2 LT PUSH2 0x1993 JUMPI PUSH2 0x1993 PUSH2 0x2AB4 JUMP JUMPDEST PUSH1 0x20 SWAP1 DUP2 MUL SWAP2 SWAP1 SWAP2 ADD DUP2 ADD MLOAD DUP3 SLOAD PUSH1 0x1 DUP2 ADD DUP5 SSTORE PUSH1 0x0 SWAP4 DUP5 MSTORE SWAP2 SWAP1 SWAP3 KECCAK256 DUP3 MLOAD PUSH1 0x3 SWAP1 SWAP3 MUL ADD SWAP1 DUP2 SWAP1 PUSH2 0x19C5 SWAP1 DUP3 PUSH2 0x2BDC JUMP JUMPDEST POP PUSH1 0x20 DUP3 ADD MLOAD PUSH1 0x1 DUP3 ADD SSTORE PUSH1 0x40 SWAP1 SWAP2 ADD MLOAD PUSH1 0x2 SWAP1 SWAP2 ADD SSTORE DUP1 PUSH2 0x19E6 DUP2 PUSH2 0x2ADD JUMP JUMPDEST SWAP2 POP POP PUSH2 0x1974 JUMP JUMPDEST POP PUSH1 0x0 JUMPDEST DUP10 MLOAD DUP2 LT ISZERO PUSH2 0x1BD0 JUMPI PUSH1 0x0 DUP11 DUP3 DUP2 MLOAD DUP2 LT PUSH2 0x1A0F JUMPI PUSH2 0x1A0F PUSH2 0x2AB4 JUMP JUMPDEST PUSH1 0x20 MUL PUSH1 0x20 ADD ADD MLOAD SWAP1 POP PUSH1 0x0 PUSH1 0x1 PUSH1 0x1 PUSH1 0xA0 SHL SUB AND DUP2 PUSH1 0x1 PUSH1 0x1 PUSH1 0xA0 SHL SUB AND SUB PUSH2 0x1A73 JUMPI PUSH1 0x40 MLOAD PUSH3 0x461BCD PUSH1 0xE5 SHL DUP2 MSTORE PUSH1 0x20 PUSH1 0x4 DUP3 ADD MSTORE PUSH1 0x15 PUSH1 0x24 DUP3 ADD MSTORE PUSH21 0x496E76616C6964206A756467652061646472657373 PUSH1 0x58 SHL PUSH1 0x44 DUP3 ADD MSTORE PUSH1 0x64 ADD PUSH2 0x55A JUMP JUMPDEST PUSH1 0x1 SLOAD PUSH1 0x0 SWAP1 DUP2 MSTORE PUSH1 0x3 PUSH1 0x20 SWAP1 DUP2 MSTORE PUSH1 0x40 DUP1 DUP4 KECCAK256 PUSH1 0x1 PUSH1 0x1 PUSH1 0xA0 SHL SUB DUP6 AND DUP5 MSTORE SWAP1 SWAP2 MSTORE SWAP1 KECCAK256 SLOAD PUSH1 0xFF AND ISZERO PUSH2 0x1ADB JUMPI PUSH1 0x40 MLOAD PUSH3 0x461BCD PUSH1 0xE5 SHL DUP2 MSTORE PUSH1 0x20 PUSH1 0x4 DUP3 ADD MSTORE PUSH1 0xF PUSH1 0x24 DUP3 ADD MSTORE PUSH15 0x4475706C6963617465206A75646765 PUSH1 0x88 SHL PUSH1 0x44 DUP3 ADD MSTORE PUSH1 0x64 ADD PUSH2 0x55A JUMP JUMPDEST PUSH1 0x9 DUP4 ADD DUP1 SLOAD PUSH1 0x1 DUP1 DUP3 ADD DUP4 SSTORE PUSH1 0x0 SWAP3 DUP4 MSTORE PUSH1 0x20 DUP1 DUP5 KECCAK256 SWAP1 SWAP3 ADD DUP1 SLOAD PUSH1 0x1 PUSH1 0x1 PUSH1 0xA0 SHL SUB NOT AND PUSH1 0x1 PUSH1 0x1 PUSH1 0xA0 SHL SUB DUP7 AND SWAP1 DUP2 OR SWAP1 SWAP2 SSTORE DUP2 SLOAD DUP5 MSTORE PUSH1 0x3 DUP4 MSTORE PUSH1 0x40 DUP1 DUP6 KECCAK256 DUP3 DUP7 MSTORE SWAP1 SWAP4 MSTORE SWAP2 SWAP1 SWAP3 KECCAK256 DUP1 SLOAD PUSH1 0xFF NOT AND DUP4 OR SWAP1 SSTORE SWAP1 PUSH2 0x8FC SWAP1 PUSH2 0x1B45 SWAP1 PUSH3 0xF4240 SWAP1 PUSH2 0x2A38 JUMP JUMPDEST PUSH1 0x40 MLOAD DUP2 ISZERO SWAP1 SWAP3 MUL SWAP2 PUSH1 0x0 DUP2 DUP2 DUP2 DUP6 DUP9 DUP9 CALL SWAP4 POP POP POP POP ISZERO DUP1 ISZERO PUSH2 0x1B6D JUMPI RETURNDATASIZE PUSH1 0x0 DUP1 RETURNDATACOPY RETURNDATASIZE PUSH1 0x0 REVERT JUMPDEST POP DUP1 PUSH1 0x1 PUSH1 0x1 PUSH1 0xA0 SHL SUB AND PUSH1 0x1 SLOAD PUSH32 0x2E52A072F9C8B68344176C3C5AB5EB12950F749471DCEBAA8B0FDC692857A0C9 PUSH3 0xF4240 PUSH1 0x1 PUSH2 0x1BAC SWAP2 SWAP1 PUSH2 0x2A38 JUMP JUMPDEST PUSH1 0x40 MLOAD SWAP1 DUP2 MSTORE PUSH1 0x20 ADD PUSH1 0x40 MLOAD DUP1 SWAP2 SUB SWAP1 LOG3 POP DUP1 PUSH2 0x1BC8 DUP2 PUSH2 0x2ADD JUMP JUMPDEST SWAP2 POP POP PUSH2 0x19F2 JUMP JUMPDEST POP PUSH1 0x0 PUSH1 0x4 PUSH1 0x0 DUP3 DUP3 SLOAD PUSH2 0x1BE4 SWAP2 SWAP1 PUSH2 0x2ACA JUMP JUMPDEST SWAP3 POP POP DUP2 SWAP1 SSTORE POP CALLER PUSH1 0x1 PUSH1 0x1 PUSH1 0xA0 SHL SUB AND PUSH1 0x1 SLOAD PUSH32 0xA47AA39D6AC62056016EFA5AF31B5ED4625D9B3BC0B2421AB17322373D65756B DUP14 DUP8 PUSH1 0x0 DUP15 MLOAD PUSH1 0x40 MLOAD PUSH2 0x1C2F SWAP5 SWAP4 SWAP3 SWAP2 SWAP1 PUSH2 0x2CBE JUMP JUMPDEST PUSH1 0x40 MLOAD DUP1 SWAP2 SUB SWAP1 LOG3 POP POP POP POP POP POP POP POP POP POP POP JUMP JUMPDEST PUSH1 0x0 PUSH1 0x20 DUP2 SWAP1 MSTORE SWAP1 DUP2 MSTORE PUSH1 0x40 SWAP1 KECCAK256 DUP1 SLOAD PUSH1 0x1 DUP3 ADD DUP1 SLOAD SWAP2 SWAP3 SWAP2 PUSH2 0x1C66 SWAP1 PUSH2 0x2B59 JUMP JUMPDEST DUP1 PUSH1 0x1F ADD PUSH1 0x20 DUP1 SWAP2 DIV MUL PUSH1 0x20 ADD PUSH1 0x40 MLOAD SWAP1 DUP2 ADD PUSH1 0x40 MSTORE DUP1 SWAP3 SWAP2 SWAP1 DUP2 DUP2 MSTORE PUSH1 0x20 ADD DUP3 DUP1 SLOAD PUSH2 0x1C92 SWAP1 PUSH2 0x2B59 JUMP JUMPDEST DUP1 ISZERO PUSH2 0x1CDF JUMPI DUP1 PUSH1 0x1F LT PUSH2 0x1CB4 JUMPI PUSH2 0x100 DUP1 DUP4 SLOAD DIV MUL DUP4 MSTORE SWAP2 PUSH1 0x20 ADD SWAP2 PUSH2 0x1CDF JUMP JUMPDEST DUP3 ADD SWAP2 SWAP1 PUSH1 0x0 MSTORE PUSH1 0x20 PUSH1 0x0 KECCAK256 SWAP1 JUMPDEST DUP2 SLOAD DUP2 MSTORE SWAP1 PUSH1 0x1 ADD SWAP1 PUSH1 0x20 ADD DUP1 DUP4 GT PUSH2 0x1CC2 JUMPI DUP3 SWAP1 SUB PUSH1 0x1F AND DUP3 ADD SWAP2 JUMPDEST POP POP POP POP POP SWAP1 DUP1 PUSH1 0x2 ADD DUP1 SLOAD PUSH2 0x1CF4 SWAP1 PUSH2 0x2B59 JUMP JUMPDEST DUP1 PUSH1 0x1F ADD PUSH1 0x20 DUP1 SWAP2 DIV MUL PUSH1 0x20 ADD PUSH1 0x40 MLOAD SWAP1 DUP2 ADD PUSH1 0x40 MSTORE DUP1 SWAP3 SWAP2 SWAP1 DUP2 DUP2 MSTORE PUSH1 0x20 ADD DUP3 DUP1 SLOAD PUSH2 0x1D20 SWAP1 PUSH2 0x2B59 JUMP JUMPDEST DUP1 ISZERO PUSH2 0x1D6D JUMPI DUP1 PUSH1 0x1F LT PUSH2 0x1D42 JUMPI PUSH2 0x100 DUP1 DUP4 SLOAD DIV MUL DUP4 MSTORE SWAP2 PUSH1 0x20 ADD SWAP2 PUSH2 0x1D6D JUMP JUMPDEST DUP3 ADD SWAP2 SWAP1 PUSH1 0x0 MSTORE PUSH1 0x20 PUSH1 0x0 KECCAK256 SWAP1 JUMPDEST DUP2 SLOAD DUP2 MSTORE SWAP1 PUSH1 0x1 ADD SWAP1 PUSH1 0x20 ADD DUP1 DUP4 GT PUSH2 0x1D50 JUMPI DUP3 SWAP1 SUB PUSH1 0x1F AND DUP3 ADD SWAP2 JUMPDEST POP POP POP PUSH1 0x3 DUP5 ADD SLOAD PUSH1 0x4 DUP6 ADD SLOAD PUSH1 0x5 DUP7 ADD SLOAD PUSH1 0x6 DUP8 ADD SLOAD PUSH1 0x7 DUP9 ADD SLOAD PUSH1 0x8 DUP10 ADD SLOAD PUSH1 0xB DUP11 ADD SLOAD PUSH1 0xC DUP12 ADD SLOAD PUSH1 0xD DUP13 ADD SLOAD PUSH1 0xE SWAP1 SWAP13 ADD SLOAD SWAP11 SWAP12 PUSH1 0x1 PUSH1 0x1 PUSH1 0xA0 SHL SUB SWAP1 SWAP9 AND SWAP11 SWAP7 SWAP10 POP SWAP5 SWAP8 POP SWAP3 SWAP6 SWAP2 SWAP5 SWAP1 SWAP4 SWAP2 PUSH1 0xFF AND SWAP1 DUP14 JUMP JUMPDEST PUSH1 0x60 DUP2 PUSH1 0x0 DUP2 GT DUP1 ISZERO PUSH2 0x1DDA JUMPI POP PUSH1 0x1 SLOAD DUP2 GT ISZERO JUMPDEST PUSH2 0x1DF6 JUMPI PUSH1 0x40 MLOAD PUSH3 0x461BCD PUSH1 0xE5 SHL DUP2 MSTORE PUSH1 0x4 ADD PUSH2 0x55A SWAP1 PUSH2 0x2A4F JUMP JUMPDEST PUSH1 0x0 DUP4 DUP2 MSTORE PUSH1 0x20 DUP2 DUP2 MSTORE PUSH1 0x40 DUP1 DUP4 KECCAK256 PUSH1 0xA ADD DUP1 SLOAD DUP3 MLOAD DUP2 DUP6 MUL DUP2 ADD DUP6 ADD SWAP1 SWAP4 MSTORE DUP1 DUP4 MSTORE SWAP2 SWAP4 SWAP1 SWAP3 DUP5 ADD JUMPDEST DUP3 DUP3 LT ISZERO PUSH2 0x1EF8 JUMPI DUP4 DUP3 SWAP1 PUSH1 0x0 MSTORE PUSH1 0x20 PUSH1 0x0 KECCAK256 SWAP1 PUSH1 0x3 MUL ADD PUSH1 0x40 MLOAD DUP1 PUSH1 0x60 ADD PUSH1 0x40 MSTORE SWAP1 DUP2 PUSH1 0x0 DUP3 ADD DUP1 SLOAD PUSH2 0x1E53 SWAP1 PUSH2 0x2B59 JUMP JUMPDEST DUP1 PUSH1 0x1F ADD PUSH1 0x20 DUP1 SWAP2 DIV MUL PUSH1 0x20 ADD PUSH1 0x40 MLOAD SWAP1 DUP2 ADD PUSH1 0x40 MSTORE DUP1 SWAP3 SWAP2 SWAP1 DUP2 DUP2 MSTORE PUSH1 0x20 ADD DUP3 DUP1 SLOAD PUSH2 0x1E7F SWAP1 PUSH2 0x2B59 JUMP JUMPDEST DUP1 ISZERO PUSH2 0x1ECC JUMPI DUP1 PUSH1 0x1F LT PUSH2 0x1EA1 JUMPI PUSH2 0x100 DUP1 DUP4 SLOAD DIV MUL DUP4 MSTORE SWAP2 PUSH1 0x20 ADD SWAP2 PUSH2 0x1ECC JUMP JUMPDEST DUP3 ADD SWAP2 SWAP1 PUSH1 0x0 MSTORE PUSH1 0x20 PUSH1 0x0 KECCAK256 SWAP1 JUMPDEST DUP2 SLOAD DUP2 MSTORE SWAP1 PUSH1 0x1 ADD SWAP1 PUSH1 0x20 ADD DUP1 DUP4 GT PUSH2 0x1EAF JUMPI DUP3 SWAP1 SUB PUSH1 0x1F AND DUP3 ADD SWAP2 JUMPDEST POP POP POP POP POP DUP2 MSTORE PUSH1 0x20 ADD PUSH1 0x1 DUP3 ADD SLOAD DUP2 MSTORE PUSH1 0x20 ADD PUSH1 0x2 DUP3 ADD SLOAD DUP2 MSTORE POP POP DUP2 MSTORE PUSH1 0x20 ADD SWAP1 PUSH1 0x1 ADD SWAP1 PUSH2 0x1E20 JUMP JUMPDEST POP POP POP POP SWAP2 POP JUMPDEST POP SWAP2 SWAP1 POP JUMP JUMPDEST PUSH1 0x5 SLOAD PUSH1 0x1 PUSH1 0x1 PUSH1 0xA0 SHL SUB AND CALLER EQ PUSH2 0x1F55 JUMPI PUSH1 0x40 MLOAD PUSH3 0x461BCD PUSH1 0xE5 SHL DUP2 MSTORE PUSH1 0x20 PUSH1 0x4 DUP3 ADD MSTORE PUSH1 0x13 PUSH1 0x24 DUP3 ADD MSTORE PUSH19 0x27B7363C90383630BA3337B9369037BBB732B9 PUSH1 0x69 SHL PUSH1 0x44 DUP3 ADD MSTORE PUSH1 0x64 ADD PUSH2 0x55A JUMP JUMPDEST PUSH1 0x0 PUSH1 0x4 SLOAD GT PUSH2 0x1F9D JUMPI PUSH1 0x40 MLOAD PUSH3 0x461BCD PUSH1 0xE5 SHL DUP2 MSTORE PUSH1 0x20 PUSH1 0x4 DUP3 ADD MSTORE PUSH1 0x13 PUSH1 0x24 DUP3 ADD MSTORE PUSH19 0x4E6F206665657320746F207769746864726177 PUSH1 0x68 SHL PUSH1 0x44 DUP3 ADD MSTORE PUSH1 0x64 ADD PUSH2 0x55A JUMP JUMPDEST PUSH1 0x4 DUP1 SLOAD PUSH1 0x0 SWAP2 DUP3 SWAP1 SSTORE PUSH1 0x5 SLOAD PUSH1 0x40 MLOAD SWAP2 SWAP3 PUSH1 0x1 PUSH1 0x1 PUSH1 0xA0 SHL SUB SWAP1 SWAP2 AND SWAP2 DUP4 ISZERO PUSH2 0x8FC MUL SWAP2 DUP5 SWAP2 SWAP1 DUP2 DUP2 DUP2 DUP6 DUP9 DUP9 CALL SWAP4 POP POP POP POP ISZERO DUP1 ISZERO PUSH2 0x1FE2 JUMPI RETURNDATASIZE PUSH1 0x0 DUP1 RETURNDATACOPY RETURNDATASIZE PUSH1 0x0 REVERT JUMPDEST POP POP JUMP JUMPDEST PUSH1 0x60 DUP2 PUSH1 0x0 DUP2 GT DUP1 ISZERO PUSH2 0x1FFB JUMPI POP PUSH1 0x1 SLOAD DUP2 GT ISZERO JUMPDEST PUSH2 0x2017 JUMPI PUSH1 0x40 MLOAD PUSH3 0x461BCD PUSH1 0xE5 SHL DUP2 MSTORE PUSH1 0x4 ADD PUSH2 0x55A SWAP1 PUSH2 0x2A4F JUMP JUMPDEST PUSH1 0x0 DUP4 DUP2 MSTORE PUSH1 0x20 DUP2 DUP2 MSTORE PUSH1 0x40 SWAP2 DUP3 SWAP1 KECCAK256 PUSH1 0x9 ADD DUP1 SLOAD DUP4 MLOAD DUP2 DUP5 MUL DUP2 ADD DUP5 ADD SWAP1 SWAP5 MSTORE DUP1 DUP5 MSTORE SWAP1 SWAP2 DUP4 ADD DUP3 DUP3 DUP1 ISZERO PUSH2 0x2076 JUMPI PUSH1 0x20 MUL DUP3 ADD SWAP2 SWAP1 PUSH1 0x0 MSTORE PUSH1 0x20 PUSH1 0x0 KECCAK256 SWAP1 JUMPDEST DUP2 SLOAD PUSH1 0x1 PUSH1 0x1 PUSH1 0xA0 SHL SUB AND DUP2 MSTORE PUSH1 0x1 SWAP1 SWAP2 ADD SWAP1 PUSH1 0x20 ADD DUP1 DUP4 GT PUSH2 0x2058 JUMPI JUMPDEST POP POP POP POP POP SWAP2 POP POP SWAP2 SWAP1 POP JUMP JUMPDEST PUSH1 0x60 PUSH1 0x0 PUSH1 0x1 JUMPDEST PUSH1 0x1 SLOAD DUP2 GT PUSH2 0x20DE JUMPI PUSH1 0x0 DUP2 DUP2 MSTORE PUSH1 0x3 PUSH1 0x20 SWAP1 DUP2 MSTORE PUSH1 0x40 DUP1 DUP4 KECCAK256 PUSH1 0x1 PUSH1 0x1 PUSH1 0xA0 SHL SUB DUP9 AND DUP5 MSTORE SWAP1 SWAP2 MSTORE SWAP1 KECCAK256 SLOAD PUSH1 0xFF AND ISZERO PUSH2 0x20CC JUMPI DUP2 PUSH2 0x20C8 DUP2 PUSH2 0x2ADD JUMP JUMPDEST SWAP3 POP POP JUMPDEST DUP1 PUSH2 0x20D6 DUP2 PUSH2 0x2ADD JUMP JUMPDEST SWAP2 POP POP PUSH2 0x208A JUMP JUMPDEST POP DUP1 PUSH8 0xFFFFFFFFFFFFFFFF DUP2 GT ISZERO PUSH2 0x20F8 JUMPI PUSH2 0x20F8 PUSH2 0x21B2 JUMP JUMPDEST PUSH1 0x40 MLOAD SWAP1 DUP1 DUP3 MSTORE DUP1 PUSH1 0x20 MUL PUSH1 0x20 ADD DUP3 ADD PUSH1 0x40 MSTORE DUP1 ISZERO PUSH2 0x2121 JUMPI DUP2 PUSH1 0x20 ADD PUSH1 0x20 DUP3 MUL DUP1 CALLDATASIZE DUP4 CALLDATACOPY ADD SWAP1 POP JUMPDEST POP SWAP2 POP PUSH1 0x0 PUSH1 0x1 JUMPDEST PUSH1 0x1 SLOAD DUP2 GT PUSH2 0x219B JUMPI PUSH1 0x0 DUP2 DUP2 MSTORE PUSH1 0x3 PUSH1 0x20 SWAP1 DUP2 MSTORE PUSH1 0x40 DUP1 DUP4 KECCAK256 PUSH1 0x1 PUSH1 0x1 PUSH1 0xA0 SHL SUB DUP10 AND DUP5 MSTORE SWAP1 SWAP2 MSTORE SWAP1 KECCAK256 SLOAD PUSH1 0xFF AND ISZERO PUSH2 0x2189 JUMPI DUP1 DUP5 DUP4 DUP2 MLOAD DUP2 LT PUSH2 0x2170 JUMPI PUSH2 0x2170 PUSH2 0x2AB4 JUMP JUMPDEST PUSH1 0x20 SWAP1 DUP2 MUL SWAP2 SWAP1 SWAP2 ADD ADD MSTORE DUP2 PUSH2 0x2185 DUP2 PUSH2 0x2ADD JUMP JUMPDEST SWAP3 POP POP JUMPDEST DUP1 PUSH2 0x2193 DUP2 PUSH2 0x2ADD JUMP JUMPDEST SWAP2 POP POP PUSH2 0x2129 JUMP JUMPDEST POP POP POP SWAP2 SWAP1 POP JUMP JUMPDEST PUSH1 0x0 PUSH2 0xCAE PUSH3 0xF4240 DUP4 PUSH2 0x2A38 JUMP JUMPDEST PUSH4 0x4E487B71 PUSH1 0xE0 SHL PUSH1 0x0 MSTORE PUSH1 0x41 PUSH1 0x4 MSTORE PUSH1 0x24 PUSH1 0x0 REVERT JUMPDEST PUSH1 0x40 MLOAD PUSH1 0x60 DUP2 ADD PUSH8 0xFFFFFFFFFFFFFFFF DUP2 GT DUP3 DUP3 LT OR ISZERO PUSH2 0x21EB JUMPI PUSH2 0x21EB PUSH2 0x21B2 JUMP JUMPDEST PUSH1 0x40 MSTORE SWAP1 JUMP JUMPDEST PUSH1 0x40 MLOAD PUSH1 0x1F DUP3 ADD PUSH1 0x1F NOT AND DUP2 ADD PUSH8 0xFFFFFFFFFFFFFFFF DUP2 GT DUP3 DUP3 LT OR ISZERO PUSH2 0x221A JUMPI PUSH2 0x221A PUSH2 0x21B2 JUMP JUMPDEST PUSH1 0x40 MSTORE SWAP2 SWAP1 POP JUMP JUMPDEST PUSH1 0x0 PUSH8 0xFFFFFFFFFFFFFFFF DUP3 GT ISZERO PUSH2 0x223C JUMPI PUSH2 0x223C PUSH2 0x21B2 JUMP JUMPDEST POP PUSH1 0x5 SHL PUSH1 0x20 ADD SWAP1 JUMP JUMPDEST DUP1 CALLDATALOAD PUSH1 0x1 PUSH1 0x1 PUSH1 0xA0 SHL SUB DUP2 AND DUP2 EQ PUSH2 0x225D JUMPI PUSH1 0x0 DUP1 REVERT JUMPDEST SWAP2 SWAP1 POP JUMP JUMPDEST PUSH1 0x0 DUP3 PUSH1 0x1F DUP4 ADD SLT PUSH2 0x2273 JUMPI PUSH1 0x0 DUP1 REVERT JUMPDEST DUP2 CALLDATALOAD PUSH1 0x20 PUSH2 0x2288 PUSH2 0x2283 DUP4 PUSH2 0x2222 JUMP JUMPDEST PUSH2 0x21F1 JUMP JUMPDEST DUP3 DUP2 MSTORE PUSH1 0x5 SWAP3 SWAP1 SWAP3 SHL DUP5 ADD DUP2 ADD SWAP2 DUP2 DUP2 ADD SWAP1 DUP7 DUP5 GT ISZERO PUSH2 0x22A7 JUMPI PUSH1 0x0 DUP1 REVERT JUMPDEST DUP3 DUP7 ADD JUMPDEST DUP5 DUP2 LT ISZERO PUSH2 0x22C9 JUMPI PUSH2 0x22BC DUP2 PUSH2 0x2246 JUMP JUMPDEST DUP4 MSTORE SWAP2 DUP4 ADD SWAP2 DUP4 ADD PUSH2 0x22AB JUMP JUMPDEST POP SWAP7 SWAP6 POP POP POP POP POP POP JUMP JUMPDEST PUSH1 0x0 DUP1 PUSH1 0x0 PUSH1 0x60 DUP5 DUP7 SUB SLT ISZERO PUSH2 0x22E9 JUMPI PUSH1 0x0 DUP1 REVERT JUMPDEST DUP4 CALLDATALOAD SWAP3 POP PUSH1 0x20 DUP1 DUP6 ADD CALLDATALOAD PUSH8 0xFFFFFFFFFFFFFFFF DUP1 DUP3 GT ISZERO PUSH2 0x2309 JUMPI PUSH1 0x0 DUP1 REVERT JUMPDEST PUSH2 0x2315 DUP9 DUP4 DUP10 ADD PUSH2 0x2262 JUMP JUMPDEST SWAP5 POP PUSH1 0x40 DUP8 ADD CALLDATALOAD SWAP2 POP DUP1 DUP3 GT ISZERO PUSH2 0x232B JUMPI PUSH1 0x0 DUP1 REVERT JUMPDEST POP DUP6 ADD PUSH1 0x1F DUP2 ADD DUP8 SGT PUSH2 0x233D JUMPI PUSH1 0x0 DUP1 REVERT JUMPDEST DUP1 CALLDATALOAD PUSH2 0x234B PUSH2 0x2283 DUP3 PUSH2 0x2222 JUMP JUMPDEST DUP2 DUP2 MSTORE PUSH1 0x5 SWAP2 SWAP1 SWAP2 SHL DUP3 ADD DUP4 ADD SWAP1 DUP4 DUP2 ADD SWAP1 DUP10 DUP4 GT ISZERO PUSH2 0x236A JUMPI PUSH1 0x0 DUP1 REVERT JUMPDEST SWAP3 DUP5 ADD SWAP3 JUMPDEST DUP3 DUP5 LT ISZERO PUSH2 0x2388 JUMPI DUP4 CALLDATALOAD DUP3 MSTORE SWAP3 DUP5 ADD SWAP3 SWAP1 DUP5 ADD SWAP1 PUSH2 0x236F JUMP JUMPDEST DUP1 SWAP6 POP POP POP POP POP POP SWAP3 POP SWAP3 POP SWAP3 JUMP JUMPDEST PUSH1 0x0 PUSH1 0x20 DUP3 DUP5 SUB SLT ISZERO PUSH2 0x23A9 JUMPI PUSH1 0x0 DUP1 REVERT JUMPDEST POP CALLDATALOAD SWAP2 SWAP1 POP JUMP JUMPDEST PUSH1 0x0 DUP2 MLOAD DUP1 DUP5 MSTORE PUSH1 0x0 JUMPDEST DUP2 DUP2 LT ISZERO PUSH2 0x23D6 JUMPI PUSH1 0x20 DUP2 DUP6 ADD DUP2 ADD MLOAD DUP7 DUP4 ADD DUP3 ADD MSTORE ADD PUSH2 0x23BA JUMP JUMPDEST POP PUSH1 0x0 PUSH1 0x20 DUP3 DUP7 ADD ADD MSTORE PUSH1 0x20 PUSH1 0x1F NOT PUSH1 0x1F DUP4 ADD AND DUP6 ADD ADD SWAP2 POP POP SWAP3 SWAP2 POP POP JUMP JUMPDEST PUSH1 0x0 PUSH2 0x140 DUP1 DUP4 MSTORE PUSH2 0x240A DUP2 DUP5 ADD DUP15 PUSH2 0x23B0 JUMP JUMPDEST SWAP1 POP DUP3 DUP2 SUB PUSH1 0x20 DUP5 ADD MSTORE PUSH2 0x241E DUP2 DUP14 PUSH2 0x23B0 JUMP JUMPDEST PUSH1 0x1 PUSH1 0x1 PUSH1 0xA0 SHL SUB SWAP12 SWAP1 SWAP12 AND PUSH1 0x40 DUP5 ADD MSTORE POP POP PUSH1 0x60 DUP2 ADD SWAP8 SWAP1 SWAP8 MSTORE PUSH1 0x80 DUP8 ADD SWAP6 SWAP1 SWAP6 MSTORE PUSH1 0xA0 DUP7 ADD SWAP4 SWAP1 SWAP4 MSTORE SWAP1 ISZERO ISZERO PUSH1 0xC0 DUP6 ADD MSTORE PUSH1 0xE0 DUP5 ADD MSTORE PUSH2 0x100 DUP4 ADD MSTORE PUSH2 0x120 SWAP1 SWAP2 ADD MSTORE SWAP3 SWAP2 POP POP JUMP JUMPDEST PUSH1 0x0 DUP1 PUSH1 0x40 DUP4 DUP6 SUB SLT ISZERO PUSH2 0x247C JUMPI PUSH1 0x0 DUP1 REVERT JUMPDEST POP POP DUP1 CALLDATALOAD SWAP3 PUSH1 0x20 SWAP1 SWAP2 ADD CALLDATALOAD SWAP2 POP JUMP JUMPDEST PUSH1 0xC0 DUP2 MSTORE PUSH1 0x0 PUSH2 0x249E PUSH1 0xC0 DUP4 ADD DUP10 PUSH2 0x23B0 JUMP JUMPDEST DUP3 DUP2 SUB PUSH1 0x20 DUP5 ADD MSTORE PUSH2 0x24B0 DUP2 DUP10 PUSH2 0x23B0 JUMP JUMPDEST SWAP1 POP DUP3 DUP2 SUB PUSH1 0x40 DUP5 ADD MSTORE PUSH2 0x24C4 DUP2 DUP9 PUSH2 0x23B0 JUMP JUMPDEST SWAP1 POP DUP3 DUP2 SUB PUSH1 0x60 DUP5 ADD MSTORE PUSH2 0x24D8 DUP2 DUP8 PUSH2 0x23B0 JUMP JUMPDEST PUSH1 0x1 PUSH1 0x1 PUSH1 0xA0 SHL SUB SWAP6 SWAP1 SWAP6 AND PUSH1 0x80 DUP5 ADD MSTORE POP POP PUSH1 0xA0 ADD MSTORE SWAP5 SWAP4 POP POP POP POP JUMP JUMPDEST PUSH1 0x0 DUP1 PUSH1 0x40 DUP4 DUP6 SUB SLT ISZERO PUSH2 0x250A JUMPI PUSH1 0x0 DUP1 REVERT JUMPDEST DUP3 CALLDATALOAD SWAP2 POP PUSH2 0x251A PUSH1 0x20 DUP5 ADD PUSH2 0x2246 JUMP JUMPDEST SWAP1 POP SWAP3 POP SWAP3 SWAP1 POP JUMP JUMPDEST PUSH1 0x0 PUSH2 0x100 DUP11 DUP4 MSTORE DUP10 PUSH1 0x20 DUP5 ADD MSTORE DUP1 PUSH1 0x40 DUP5 ADD MSTORE PUSH2 0x2543 DUP2 DUP5 ADD DUP11 PUSH2 0x23B0 JUMP JUMPDEST SWAP1 POP DUP3 DUP2 SUB PUSH1 0x60 DUP5 ADD MSTORE PUSH2 0x2557 DUP2 DUP10 PUSH2 0x23B0 JUMP JUMPDEST SWAP1 POP DUP3 DUP2 SUB PUSH1 0x80 DUP5 ADD MSTORE PUSH2 0x256B DUP2 DUP9 PUSH2 0x23B0 JUMP JUMPDEST SWAP1 POP DUP3 DUP2 SUB PUSH1 0xA0 DUP5 ADD MSTORE PUSH2 0x257F DUP2 DUP8 PUSH2 0x23B0 JUMP JUMPDEST PUSH1 0x1 PUSH1 0x1 PUSH1 0xA0 SHL SUB SWAP6 SWAP1 SWAP6 AND PUSH1 0xC0 DUP5 ADD MSTORE POP POP PUSH1 0xE0 ADD MSTORE SWAP7 SWAP6 POP POP POP POP POP POP JUMP JUMPDEST PUSH1 0x0 DUP3 PUSH1 0x1F DUP4 ADD SLT PUSH2 0x25B1 JUMPI PUSH1 0x0 DUP1 REVERT JUMPDEST DUP2 CALLDATALOAD PUSH8 0xFFFFFFFFFFFFFFFF DUP2 GT ISZERO PUSH2 0x25CB JUMPI PUSH2 0x25CB PUSH2 0x21B2 JUMP JUMPDEST PUSH2 0x25DE PUSH1 0x1F DUP3 ADD PUSH1 0x1F NOT AND PUSH1 0x20 ADD PUSH2 0x21F1 JUMP JUMPDEST DUP2 DUP2 MSTORE DUP5 PUSH1 0x20 DUP4 DUP7 ADD ADD GT ISZERO PUSH2 0x25F3 JUMPI PUSH1 0x0 DUP1 REVERT JUMPDEST DUP2 PUSH1 0x20 DUP6 ADD PUSH1 0x20 DUP4 ADD CALLDATACOPY PUSH1 0x0 SWAP2 DUP2 ADD PUSH1 0x20 ADD SWAP2 SWAP1 SWAP2 MSTORE SWAP4 SWAP3 POP POP POP JUMP JUMPDEST PUSH1 0x0 DUP1 PUSH1 0x0 DUP1 PUSH1 0x0 PUSH1 0xA0 DUP7 DUP9 SUB SLT ISZERO PUSH2 0x2628 JUMPI PUSH1 0x0 DUP1 REVERT JUMPDEST DUP6 CALLDATALOAD SWAP5 POP PUSH1 0x20 DUP7 ADD CALLDATALOAD PUSH8 0xFFFFFFFFFFFFFFFF DUP1 DUP3 GT ISZERO PUSH2 0x2647 JUMPI PUSH1 0x0 DUP1 REVERT JUMPDEST PUSH2 0x2653 DUP10 DUP4 DUP11 ADD PUSH2 0x25A0 JUMP JUMPDEST SWAP6 POP PUSH1 0x40 DUP9 ADD CALLDATALOAD SWAP2 POP DUP1 DUP3 GT ISZERO PUSH2 0x2669 JUMPI PUSH1 0x0 DUP1 REVERT JUMPDEST PUSH2 0x2675 DUP10 DUP4 DUP11 ADD PUSH2 0x25A0 JUMP JUMPDEST SWAP5 POP PUSH1 0x60 DUP9 ADD CALLDATALOAD SWAP2 POP DUP1 DUP3 GT ISZERO PUSH2 0x268B JUMPI PUSH1 0x0 DUP1 REVERT JUMPDEST PUSH2 0x2697 DUP10 DUP4 DUP11 ADD PUSH2 0x25A0 JUMP JUMPDEST SWAP4 POP PUSH1 0x80 DUP9 ADD CALLDATALOAD SWAP2 POP DUP1 DUP3 GT ISZERO PUSH2 0x26AD JUMPI PUSH1 0x0 DUP1 REVERT JUMPDEST POP PUSH2 0x26BA DUP9 DUP3 DUP10 ADD PUSH2 0x25A0 JUMP JUMPDEST SWAP2 POP POP SWAP3 SWAP6 POP SWAP3 SWAP6 SWAP1 SWAP4 POP JUMP JUMPDEST PUSH1 0x0 DUP3 PUSH1 0x1F DUP4 ADD SLT PUSH2 0x26D8 JUMPI PUSH1 0x0 DUP1 REVERT JUMPDEST DUP2 CALLDATALOAD PUSH1 0x20 PUSH2 0x26E8 PUSH2 0x2283 DUP4 PUSH2 0x2222 JUMP JUMPDEST DUP3 DUP2 MSTORE PUSH1 0x5 SWAP3 SWAP1 SWAP3 SHL DUP5 ADD DUP2 ADD SWAP2 DUP2 DUP2 ADD SWAP1 DUP7 DUP5 GT ISZERO PUSH2 0x2707 JUMPI PUSH1 0x0 DUP1 REVERT JUMPDEST DUP3 DUP7 ADD JUMPDEST DUP5 DUP2 LT ISZERO PUSH2 0x22C9 JUMPI DUP1 CALLDATALOAD PUSH8 0xFFFFFFFFFFFFFFFF DUP1 DUP3 GT ISZERO PUSH2 0x272C JUMPI PUSH1 0x0 DUP1 DUP2 REVERT JUMPDEST SWAP1 DUP9 ADD SWAP1 PUSH1 0x60 DUP3 DUP12 SUB PUSH1 0x1F NOT ADD DUP2 SGT ISZERO PUSH2 0x2746 JUMPI PUSH1 0x0 DUP1 DUP2 REVERT JUMPDEST PUSH2 0x274E PUSH2 0x21C8 JUMP JUMPDEST DUP8 DUP5 ADD CALLDATALOAD DUP4 DUP2 GT ISZERO PUSH2 0x2760 JUMPI PUSH1 0x0 DUP1 DUP2 REVERT JUMPDEST PUSH2 0x276E DUP14 DUP11 DUP4 DUP9 ADD ADD PUSH2 0x25A0 JUMP JUMPDEST DUP3 MSTORE POP PUSH1 0x40 DUP5 DUP2 ADD CALLDATALOAD DUP10 DUP4 ADD MSTORE SWAP2 SWAP1 SWAP4 ADD CALLDATALOAD SWAP1 DUP4 ADD MSTORE POP DUP4 MSTORE SWAP2 DUP4 ADD SWAP2 DUP4 ADD PUSH2 0x270B JUMP JUMPDEST PUSH1 0x0 DUP1 PUSH1 0x0 DUP1 PUSH1 0x0 DUP1 PUSH1 0x0 PUSH1 0xE0 DUP9 DUP11 SUB SLT ISZERO PUSH2 0x27AD JUMPI PUSH1 0x0 DUP1 REVERT JUMPDEST DUP8 CALLDATALOAD PUSH8 0xFFFFFFFFFFFFFFFF DUP1 DUP3 GT ISZERO PUSH2 0x27C5 JUMPI PUSH1 0x0 DUP1 REVERT JUMPDEST PUSH2 0x27D1 DUP12 DUP4 DUP13 ADD PUSH2 0x25A0 JUMP JUMPDEST SWAP9 POP PUSH1 0x20 DUP11 ADD CALLDATALOAD SWAP2 POP DUP1 DUP3 GT ISZERO PUSH2 0x27E7 JUMPI PUSH1 0x0 DUP1 REVERT JUMPDEST PUSH2 0x27F3 DUP12 DUP4 DUP13 ADD PUSH2 0x25A0 JUMP JUMPDEST SWAP8 POP PUSH1 0x40 DUP11 ADD CALLDATALOAD SWAP2 POP DUP1 DUP3 GT ISZERO PUSH2 0x2809 JUMPI PUSH1 0x0 DUP1 REVERT JUMPDEST PUSH2 0x2815 DUP12 DUP4 DUP13 ADD PUSH2 0x2262 JUMP JUMPDEST SWAP7 POP PUSH1 0x60 DUP11 ADD CALLDATALOAD SWAP2 POP DUP1 DUP3 GT ISZERO PUSH2 0x282B JUMPI PUSH1 0x0 DUP1 REVERT JUMPDEST POP PUSH2 0x2838 DUP11 DUP3 DUP12 ADD PUSH2 0x26C7 JUMP JUMPDEST SWAP8 SWAP11 SWAP7 SWAP10 POP SWAP5 SWAP8 PUSH1 0x80 DUP2 ADD CALLDATALOAD SWAP7 PUSH1 0xA0 DUP3 ADD CALLDATALOAD SWAP7 POP PUSH1 0xC0 SWAP1 SWAP2 ADD CALLDATALOAD SWAP5 POP SWAP3 POP POP POP JUMP JUMPDEST DUP14 DUP2 MSTORE PUSH2 0x1A0 PUSH1 0x20 DUP3 ADD MSTORE PUSH1 0x0 PUSH2 0x2875 PUSH2 0x1A0 DUP4 ADD DUP16 PUSH2 0x23B0 JUMP JUMPDEST DUP3 DUP2 SUB PUSH1 0x40 DUP5 ADD MSTORE PUSH2 0x2887 DUP2 DUP16 PUSH2 0x23B0 JUMP JUMPDEST PUSH1 0x1 PUSH1 0x1 PUSH1 0xA0 SHL SUB SWAP14 SWAP1 SWAP14 AND PUSH1 0x60 DUP5 ADD MSTORE POP POP PUSH1 0x80 DUP2 ADD SWAP10 SWAP1 SWAP10 MSTORE PUSH1 0xA0 DUP10 ADD SWAP8 SWAP1 SWAP8 MSTORE PUSH1 0xC0 DUP9 ADD SWAP6 SWAP1 SWAP6 MSTORE PUSH1 0xE0 DUP8 ADD SWAP4 SWAP1 SWAP4 MSTORE PUSH2 0x100 DUP7 ADD SWAP2 SWAP1 SWAP2 MSTORE PUSH2 0x120 DUP6 ADD MSTORE PUSH2 0x140 DUP5 ADD MSTORE ISZERO ISZERO PUSH2 0x160 DUP4 ADD MSTORE PUSH2 0x180 SWAP1 SWAP2 ADD MSTORE SWAP4 SWAP3 POP POP POP JUMP JUMPDEST PUSH1 0x0 PUSH1 0x20 DUP1 DUP4 ADD DUP2 DUP5 MSTORE DUP1 DUP6 MLOAD DUP1 DUP4 MSTORE PUSH1 0x40 SWAP3 POP DUP3 DUP7 ADD SWAP2 POP DUP3 DUP2 PUSH1 0x5 SHL DUP8 ADD ADD DUP5 DUP9 ADD PUSH1 0x0 JUMPDEST DUP4 DUP2 LT ISZERO PUSH2 0x2958 JUMPI PUSH1 0x3F NOT DUP10 DUP5 SUB ADD DUP6 MSTORE DUP2 MLOAD PUSH1 0x60 DUP2 MLOAD DUP2 DUP7 MSTORE PUSH2 0x2932 DUP3 DUP8 ADD DUP3 PUSH2 0x23B0 JUMP JUMPDEST DUP4 DUP12 ADD MLOAD DUP8 DUP13 ADD MSTORE SWAP3 DUP10 ADD MLOAD SWAP6 DUP10 ADD SWAP6 SWAP1 SWAP6 MSTORE POP SWAP5 DUP8 ADD SWAP5 SWAP3 POP SWAP1 DUP7 ADD SWAP1 PUSH1 0x1 ADD PUSH2 0x290C JUMP JUMPDEST POP SWAP1 SWAP9 SWAP8 POP POP POP POP POP POP POP POP JUMP JUMPDEST PUSH1 0x0 DUP2 MLOAD DUP1 DUP5 MSTORE PUSH1 0x20 DUP1 DUP6 ADD SWAP5 POP DUP1 DUP5 ADD PUSH1 0x0 JUMPDEST DUP4 DUP2 LT ISZERO PUSH2 0x299F JUMPI DUP2 MLOAD PUSH1 0x1 PUSH1 0x1 PUSH1 0xA0 SHL SUB AND DUP8 MSTORE SWAP6 DUP3 ADD SWAP6 SWAP1 DUP3 ADD SWAP1 PUSH1 0x1 ADD PUSH2 0x297A JUMP JUMPDEST POP SWAP5 SWAP6 SWAP5 POP POP POP POP POP JUMP JUMPDEST PUSH1 0x20 DUP2 MSTORE PUSH1 0x0 PUSH2 0x29BD PUSH1 0x20 DUP4 ADD DUP5 PUSH2 0x2966 JUMP JUMPDEST SWAP4 SWAP3 POP POP POP JUMP JUMPDEST PUSH1 0x0 PUSH1 0x20 DUP3 DUP5 SUB SLT ISZERO PUSH2 0x29D6 JUMPI PUSH1 0x0 DUP1 REVERT JUMPDEST PUSH2 0x29BD DUP3 PUSH2 0x2246 JUMP JUMPDEST PUSH1 0x0 DUP2 MLOAD DUP1 DUP5 MSTORE PUSH1 0x20 DUP1 DUP6 ADD SWAP5 POP DUP1 DUP5 ADD PUSH1 0x0 JUMPDEST DUP4 DUP2 LT ISZERO PUSH2 0x299F JUMPI DUP2 MLOAD DUP8 MSTORE SWAP6 DUP3 ADD SWAP6 SWAP1 DUP3 ADD SWAP1 PUSH1 0x1 ADD PUSH2 0x29F3 JUMP JUMPDEST PUSH1 0x20 DUP2 MSTORE PUSH1 0x0 PUSH2 0x29BD PUSH1 0x20 DUP4 ADD DUP5 PUSH2 0x29DF JUMP JUMPDEST PUSH4 0x4E487B71 PUSH1 0xE0 SHL PUSH1 0x0 MSTORE PUSH1 0x11 PUSH1 0x4 MSTORE PUSH1 0x24 PUSH1 0x0 REVERT JUMPDEST DUP1 DUP3 MUL DUP2 ISZERO DUP3 DUP3 DIV DUP5 EQ OR PUSH2 0xCAE JUMPI PUSH2 0xCAE PUSH2 0x2A22 JUMP JUMPDEST PUSH1 0x20 DUP1 DUP3 MSTORE PUSH1 0x18 SWAP1 DUP3 ADD MSTORE PUSH32 0x4861636B6174686F6E20646F6573206E6F742065786973740000000000000000 PUSH1 0x40 DUP3 ADD MSTORE PUSH1 0x60 ADD SWAP1 JUMP JUMPDEST PUSH1 0x20 DUP1 DUP3 MSTORE PUSH1 0x14 SWAP1 DUP3 ADD MSTORE PUSH20 0x4861636B6174686F6E206E6F7420616374697665 PUSH1 0x60 SHL PUSH1 0x40 DUP3 ADD MSTORE PUSH1 0x60 ADD SWAP1 JUMP JUMPDEST PUSH4 0x4E487B71 PUSH1 0xE0 SHL PUSH1 0x0 MSTORE PUSH1 0x32 PUSH1 0x4 MSTORE PUSH1 0x24 PUSH1 0x0 REVERT JUMPDEST DUP1 DUP3 ADD DUP1 DUP3 GT ISZERO PUSH2 0xCAE JUMPI PUSH2 0xCAE PUSH2 0x2A22 JUMP JUMPDEST PUSH1 0x0 PUSH1 0x1 DUP3 ADD PUSH2 0x2AEF JUMPI PUSH2 0x2AEF PUSH2 0x2A22 JUMP JUMPDEST POP PUSH1 0x1 ADD SWAP1 JUMP JUMPDEST DUP2 DUP2 SUB DUP2 DUP2 GT ISZERO PUSH2 0xCAE JUMPI PUSH2 0xCAE PUSH2 0x2A22 JUMP JUMPDEST PUSH1 0x40 DUP2 MSTORE PUSH1 0x0 PUSH2 0x2B1C PUSH1 0x40 DUP4 ADD DUP6 PUSH2 0x2966 JUMP JUMPDEST DUP3 DUP2 SUB PUSH1 0x20 DUP5 ADD MSTORE PUSH2 0x2B2E DUP2 DUP6 PUSH2 0x29DF JUMP JUMPDEST SWAP6 SWAP5 POP POP POP POP POP JUMP JUMPDEST PUSH1 0x0 DUP3 PUSH2 0x2B54 JUMPI PUSH4 0x4E487B71 PUSH1 0xE0 SHL PUSH1 0x0 MSTORE PUSH1 0x12 PUSH1 0x4 MSTORE PUSH1 0x24 PUSH1 0x0 REVERT JUMPDEST POP DIV SWAP1 JUMP JUMPDEST PUSH1 0x1 DUP2 DUP2 SHR SWAP1 DUP3 AND DUP1 PUSH2 0x2B6D JUMPI PUSH1 0x7F DUP3 AND SWAP2 POP JUMPDEST PUSH1 0x20 DUP3 LT DUP2 SUB PUSH2 0x1EFF JUMPI PUSH4 0x4E487B71 PUSH1 0xE0 SHL PUSH1 0x0 MSTORE PUSH1 0x22 PUSH1 0x4 MSTORE PUSH1 0x24 PUSH1 0x0 REVERT JUMPDEST PUSH1 0x1F DUP3 GT ISZERO PUSH2 0x2BD7 JUMPI PUSH1 0x0 DUP2 DUP2 MSTORE PUSH1 0x20 DUP2 KECCAK256 PUSH1 0x1F DUP6 ADD PUSH1 0x5 SHR DUP2 ADD PUSH1 0x20 DUP7 LT ISZERO PUSH2 0x2BB4 JUMPI POP DUP1 JUMPDEST PUSH1 0x1F DUP6 ADD PUSH1 0x5 SHR DUP3 ADD SWAP2 POP JUMPDEST DUP2 DUP2 LT ISZERO PUSH2 0x2BD3 JUMPI DUP3 DUP2 SSTORE PUSH1 0x1 ADD PUSH2 0x2BC0 JUMP JUMPDEST POP POP POP JUMPDEST POP POP POP JUMP JUMPDEST DUP2 MLOAD PUSH8 0xFFFFFFFFFFFFFFFF DUP2 GT ISZERO PUSH2 0x2BF6 JUMPI PUSH2 0x2BF6 PUSH2 0x21B2 JUMP JUMPDEST PUSH2 0x2C0A DUP2 PUSH2 0x2C04 DUP5 SLOAD PUSH2 0x2B59 JUMP JUMPDEST DUP5 PUSH2 0x2B8D JUMP JUMPDEST PUSH1 0x20 DUP1 PUSH1 0x1F DUP4 GT PUSH1 0x1 DUP2 EQ PUSH2 0x2C3F JUMPI PUSH1 0x0 DUP5 ISZERO PUSH2 0x2C27 JUMPI POP DUP6 DUP4 ADD MLOAD JUMPDEST PUSH1 0x0 NOT PUSH1 0x3 DUP7 SWAP1 SHL SHR NOT AND PUSH1 0x1 DUP6 SWAP1 SHL OR DUP6 SSTORE PUSH2 0x2BD3 JUMP JUMPDEST PUSH1 0x0 DUP6 DUP2 MSTORE PUSH1 0x20 DUP2 KECCAK256 PUSH1 0x1F NOT DUP7 AND SWAP2 JUMPDEST DUP3 DUP2 LT ISZERO PUSH2 0x2C6E JUMPI DUP9 DUP7 ADD MLOAD DUP3 SSTORE SWAP5 DUP5 ADD SWAP5 PUSH1 0x1 SWAP1 SWAP2 ADD SWAP1 DUP5 ADD PUSH2 0x2C4F JUMP JUMPDEST POP DUP6 DUP3 LT ISZERO PUSH2 0x2C8C JUMPI DUP8 DUP6 ADD MLOAD PUSH1 0x0 NOT PUSH1 0x3 DUP9 SWAP1 SHL PUSH1 0xF8 AND SHR NOT AND DUP2 SSTORE JUMPDEST POP POP POP POP POP PUSH1 0x1 SWAP1 DUP2 SHL ADD SWAP1 SSTORE POP JUMP JUMPDEST PUSH1 0x40 DUP2 MSTORE PUSH1 0x0 PUSH2 0x2CAF PUSH1 0x40 DUP4 ADD DUP6 PUSH2 0x23B0 JUMP JUMPDEST SWAP1 POP DUP3 PUSH1 0x20 DUP4 ADD MSTORE SWAP4 SWAP3 POP POP POP JUMP JUMPDEST PUSH1 0x80 DUP2 MSTORE PUSH1 0x0 PUSH2 0x2CD1 PUSH1 0x80 DUP4 ADD DUP8 PUSH2 0x23B0 JUMP JUMPDEST PUSH1 0x20 DUP4 ADD SWAP6 SWAP1 SWAP6 MSTORE POP PUSH1 0x40 DUP2 ADD SWAP3 SWAP1 SWAP3 MSTORE PUSH1 0x60 SWAP1 SWAP2 ADD MSTORE SWAP2 SWAP1 POP JUMP INVALID LOG2 PUSH5 0x6970667358 0x22 SLT KECCAK256 BYTE SMOD PUSH10 0xBA0ABCE7188BB4C6D94C CALLER 0x2B 0xC0 JUMPDEST 0xEB CALL 0x25 0xF8 DUP12 STOP PUSH25 0xE3030649F50AFCDB64736F6C63430008140033000000000000 "},"methodIdentifiers":{"HACKATHON_CREATION_FEE()":"cb29bb72","HACKERCOIN()":"cf290427","JUDGE_BASE_FEE()":"1b77ed24","JUDGE_SHARE_PERCENT()":"adcf5b3d","ORGANIZER_SHARE_PERCENT()":"48d0cb57","SUBMISSION_FEE()":"7d48536d","addJudge(uint256,address)":"66e1006e","createHackathon(string,string,address[],(string,uint256,uint256)[],uint256,uint256,uint256)":"aab18c16","distributePrizes(uint256,address[],uint256[])":"23fcd3e4","getHackathon(uint256)":"2ca34d93","getHackathonsForJudge(address)":"dd9b0d80","getJudges(uint256)":"da3c0aa4","getPlatformBalance()":"ba9bf757","getPrizes(uint256)":"cc307795","getProject(uint256,uint256)":"49df9464","hackathonCount()":"96ab7739","hackathons(uint256)":"c1077194","hackerCoinsToWei(uint256)":"dfbac869","isHackathonJudge(uint256,address)":"d62e08aa","isJudge(uint256,address)":"a25232f5","platformBalance()":"62a5dbbc","platformOwner()":"4df8ccb1","projects(uint256,uint256)":"85818e72","submitProject(uint256,string,string,string,string)":"a3966006","weiToHackerCoins(uint256)":"4657fc6a","withdrawPlatformFees()":"d0b7830b"}}}}}