{"contracts/HackerCoinPlatform.sol":{"HackerCoinPlatform":{"abi":[{"inputs":[],"stateMutability":"nonpayable","type":"constructor"},{"anonymous":false,"inputs":[{"indexed":true,"internalType":"uint256","name":"hackathonId","type":"uint256"},{"indexed":true,"internalType":"address","name":"organizer","type":"address"},{"indexed":false,"internalType":"string","name":"name","type":"string"},{"indexed":false,"internalType":"uint256","name":"prizePoolWei","type":"uint256"},{"indexed":false,"internalType":"uint256","name":"creationFeeWei","type":"uint256"},{"indexed":false,"internalType":"uint256","name":"judgeCount","type":"uint256"}],"name":"HackathonCreated","type":"event"},{"anonymous":false,"inputs":[{"indexed":true,"internalType":"uint256","name":"hackathonId","type":"uint256"},{"indexed":true,"internalType":"address","name":"judge","type":"address"},{"indexed":false,"internalType":"uint256","name":"baseFeeWei","type":"uint256"}],"name":"JudgeAdded","type":"event"},{"anonymous":false,"inputs":[{"indexed":true,"internalType":"uint256","name":"hackathonId","type":"uint256"},{"indexed":false,"internalType":"uint256","name":"totalAmount","type":"uint256"},{"indexed":false,"internalType":"uint256","name":"judgeCount","type":"uint256"}],"name":"JudgesPaid","type":"event"},{"anonymous":false,"inputs":[{"indexed":true,"internalType":"uint256","name":"hackathonId","type":"uint256"},{"indexed":true,"internalType":"address","name":"organizer","type":"address"},{"indexed":false,"internalType":"uint256","name":"amount","type":"uint256"}],"name":"OrganizerPaid","type":"event"},{"anonymous":false,"inputs":[{"indexed":true,"internalType":"uint256","name":"hackathonId","type":"uint256"},{"indexed":false,"internalType":"address[]","name":"winners","type":"address[]"},{"indexed":false,"internalType":"uint256[]","name":"amounts","type":"uint256[]"}],"name":"PrizesDistributed","type":"event"},{"anonymous":false,"inputs":[{"indexed":true,"internalType":"uint256","name":"hackathonId","type":"uint256"},{"indexed":true,"internalType":"uint256","name":"projectId","type":"uint256"},{"indexed":true,"internalType":"address","name":"participant","type":"address"},{"indexed":false,"internalType":"string","name":"projectName","type":"string"},{"indexed":false,"internalType":"uint256","name":"submissionFeeWei","type":"uint256"}],"name":"ProjectSubmitted","type":"event"},{"inputs":[],"name":"HACKATHON_CREATION_FEE","outputs":[{"internalType":"uint256","name":"","type":"uint256"}],"stateMutability":"view","type":"function"},{"inputs":[],"name":"HACKERCOIN","outputs":[{"internalType":"uint256","name":"","type":"uint256"}],"stateMutability":"view","type":"function"},{"inputs":[],"name":"JUDGE_BASE_FEE","outputs":[{"internalType":"uint256","name":"","type":"uint256"}],"stateMutability":"view","type":"function"},{"inputs":[],"name":"JUDGE_SHARE_PERCENT","outputs":[{"internalType":"uint256","name":"","type":"uint256"}],"stateMutability":"view","type":"function"},{"inputs":[],"name":"ORGANIZER_SHARE_PERCENT","outputs":[{"internalType":"uint256","name":"","type":"uint256"}],"stateMutability":"view","type":"function"},{"inputs":[],"name":"SUBMISSION_FEE","outputs":[{"internalType":"uint256","name":"","type":"uint256"}],"stateMutability":"view","type":"function"},{"inputs":[{"internalType":"string","name":"name","type":"string"},{"internalType":"string","name":"description","type":"string"},{"internalType":"address[]","name":"judgeAddresses","type":"address[]"},{"components":[{"internalType":"string","name":"title","type":"string"},{"internalType":"uint256","name":"amount","type":"uint256"},{"internalType":"uint256","name":"position","type":"uint256"}],"internalType":"struct HackerCoinPlatform.Prize[]","name":"prizes","type":"tuple[]"}],"name":"createHackathon","outputs":[],"stateMutability":"payable","type":"function"},{"inputs":[{"internalType":"uint256","name":"hackathonId","type":"uint256"},{"internalType":"address[]","name":"winners","type":"address[]"},{"internalType":"uint256[]","name":"prizeAmountsHC","type":"uint256[]"}],"name":"distributePrizes","outputs":[],"stateMutability":"nonpayable","type":"function"},{"inputs":[{"internalType":"uint256","name":"hackathonId","type":"uint256"}],"name":"getHackathon","outputs":[{"internalType":"string","name":"name","type":"string"},{"internalType":"string","name":"description","type":"string"},{"internalType":"address","name":"organizer","type":"address"},{"internalType":"uint256","name":"prizePoolWei","type":"uint256"},{"internalType":"uint256","name":"projectCount","type":"uint256"},{"internalType":"uint256","name":"judgeCount","type":"uint256"},{"internalType":"bool","name":"active","type":"bool"}],"stateMutability":"view","type":"function"},{"inputs":[{"internalType":"uint256","name":"hackathonId","type":"uint256"}],"name":"getJudges","outputs":[{"internalType":"address[]","name":"","type":"address[]"}],"stateMutability":"view","type":"function"},{"inputs":[],"name":"getPlatformBalance","outputs":[{"internalType":"uint256","name":"","type":"uint256"}],"stateMutability":"view","type":"function"},{"inputs":[{"internalType":"uint256","name":"hackathonId","type":"uint256"},{"internalType":"uint256","name":"projectId","type":"uint256"}],"name":"getProject","outputs":[{"internalType":"string","name":"name","type":"string"},{"internalType":"string","name":"description","type":"string"},{"internalType":"string","name":"githubUrl","type":"string"},{"internalType":"string","name":"demoUrl","type":"string"},{"internalType":"address","name":"participant","type":"address"},{"internalType":"uint256","name":"submissionTimestamp","type":"uint256"}],"stateMutability":"view","type":"function"},{"inputs":[],"name":"hackathonCount","outputs":[{"internalType":"uint256","name":"","type":"uint256"}],"stateMutability":"view","type":"function"},{"inputs":[{"internalType":"uint256","name":"","type":"uint256"}],"name":"hackathons","outputs":[{"internalType":"uint256","name":"id","type":"uint256"},{"internalType":"string","name":"name","type":"string"},{"internalType":"string","name":"description","type":"string"},{"internalType":"address","name":"organizer","type":"address"},{"internalType":"uint256","name":"prizePoolWei","type":"uint256"},{"internalType":"uint256","name":"creationTimestamp","type":"uint256"},{"internalType":"uint256","name":"judgePoolBalance","type":"uint256"},{"internalType":"uint256","name":"organizerBalance","type":"uint256"},{"internalType":"bool","name":"active","type":"bool"},{"internalType":"uint256","name":"projectCount","type":"uint256"}],"stateMutability":"view","type":"function"},{"inputs":[{"internalType":"uint256","name":"hackerCoins","type":"uint256"}],"name":"hackerCoinsToWei","outputs":[{"internalType":"uint256","name":"","type":"uint256"}],"stateMutability":"pure","type":"function"},{"inputs":[{"internalType":"uint256","name":"hackathonId","type":"uint256"},{"internalType":"address","name":"addr","type":"address"}],"name":"isHackathonJudge","outputs":[{"internalType":"bool","name":"","type":"bool"}],"stateMutability":"view","type":"function"},{"inputs":[{"internalType":"uint256","name":"","type":"uint256"},{"internalType":"address","name":"","type":"address"}],"name":"isJudge","outputs":[{"internalType":"bool","name":"","type":"bool"}],"stateMutability":"view","type":"function"},{"inputs":[],"name":"platformBalance","outputs":[{"internalType":"uint256","name":"","type":"uint256"}],"stateMutability":"view","type":"function"},{"inputs":[],"name":"platformOwner","outputs":[{"internalType":"address","name":"","type":"address"}],"stateMutability":"view","type":"function"},{"inputs":[{"internalType":"uint256","name":"","type":"uint256"},{"internalType":"uint256","name":"","type":"uint256"}],"name":"projects","outputs":[{"internalType":"uint256","name":"id","type":"uint256"},{"internalType":"uint256","name":"hackathonId","type":"uint256"},{"internalType":"string","name":"name","type":"string"},{"internalType":"string","name":"description","type":"string"},{"internalType":"string","name":"githubUrl","type":"string"},{"internalType":"string","name":"demoUrl","type":"string"},{"internalType":"address","name":"participant","type":"address"},{"internalType":"uint256","name":"submissionTimestamp","type":"uint256"}],"stateMutability":"view","type":"function"},{"inputs":[{"internalType":"uint256","name":"hackathonId","type":"uint256"},{"internalType":"string","name":"projectName","type":"string"},{"internalType":"string","name":"projectDescription","type":"string"},{"internalType":"string","name":"githubUrl","type":"string"},{"internalType":"string","name":"demoUrl","type":"string"}],"name":"submitProject","outputs":[],"stateMutability":"payable","type":"function"},{"inputs":[{"internalType":"uint256","name":"weiAmount","type":"uint256"}],"name":"weiToHackerCoins","outputs":[{"internalType":"uint256","name":"","type":"uint256"}],"stateMutability":"pure","type":"function"},{"inputs":[],"name":"withdrawPlatformFees","outputs":[],"stateMutability":"nonpayable","type":"function"}],"evm":{"bytecode":{"linkReferences":{},"object":"608060405234801561001057600080fd5b50600580546001600160a01b031916331790556125e0806100326000396000f3fe6080604052600436106101405760003560e01c806396ab7739116100b6578063cb29bb721161006f578063cb29bb72146103a7578063cf290427146103bc578063d0b7830b146103d3578063d62e08aa146103e8578063da3c0aa41461042e578063dfbac8691461045b57600080fd5b806396ab7739146102d3578063a25232f5146102e9578063a396600614610334578063adcf5b3d14610347578063ba9bf7571461035c578063c10771941461037157600080fd5b806349df94641161010857806349df9464146101f75780634df8ccb1146102295780635d8c52b31461026157806362a5dbbc146102745780637d48536d1461028a57806385818e721461029f57600080fd5b80631b77ed241461014557806323fcd3e41461016d5780632ca34d931461018f5780634657fc6a146101c257806348d0cb57146101e2575b600080fd5b34801561015157600080fd5b5061015a61047b565b6040519081526020015b60405180910390f35b34801561017957600080fd5b5061018d610188366004611cd2565b61048c565b005b34801561019b57600080fd5b506101af6101aa366004611d95565b610a50565b6040516101649796959493929190611df4565b3480156101ce57600080fd5b5061015a6101dd366004611d95565b610c08565b3480156101ee57600080fd5b5061015a601481565b34801561020357600080fd5b50610217610212366004611e4f565b610c1d565b60405161016496959493929190611e71565b34801561023557600080fd5b50600554610249906001600160a01b031681565b6040516001600160a01b039091168152602001610164565b61018d61026f366004611f4d565b610f0e565b34801561028057600080fd5b5061015a60045481565b34801561029657600080fd5b5061015a611370565b3480156102ab57600080fd5b506102bf6102ba366004611e4f565b61137e565b6040516101649897969594939291906120b2565b3480156102df57600080fd5b5061015a60015481565b3480156102f557600080fd5b5061032461030436600461212f565b600360209081526000928352604080842090915290825290205460ff1681565b6040519015158152602001610164565b61018d61034236600461215b565b6115f3565b34801561035357600080fd5b5061015a605081565b34801561036857600080fd5b5060045461015a565b34801561037d57600080fd5b5061039161038c366004611d95565b6118a5565b6040516101649a99989796959493929190612212565b3480156103b357600080fd5b5061015a611a14565b3480156103c857600080fd5b5061015a620f424081565b3480156103df57600080fd5b5061018d611a22565b3480156103f457600080fd5b5061032461040336600461212f565b60009182526003602090815260408084206001600160a01b0393909316845291905290205460ff1690565b34801561043a57600080fd5b5061044e610449366004611d95565b611b03565b60405161016491906122ca565b34801561046757600080fd5b5061015a610476366004611d95565b611ba1565b610489620f424060056122fa565b81565b8260008111801561049f57506001548111155b6104c45760405162461bcd60e51b81526004016104bb90612311565b60405180910390fd5b600084815260208190526040902060090154849060ff1661051e5760405162461bcd60e51b81526020600482015260146024820152734861636b6174686f6e206e6f742061637469766560601b60448201526064016104bb565b60008581526020819052604090206003015485906001600160a01b031633146105795760405162461bcd60e51b815260206004820152600d60248201526c2737ba1037b933b0b734bd32b960991b60448201526064016104bb565b83518551146105c25760405162461bcd60e51b8152602060048201526015602482015274082e4e4c2f240d8cadccee8d040dad2e6dac2e8c6d605b1b60448201526064016104bb565b60008551116106135760405162461bcd60e51b815260206004820152601c60248201527f4174206c65617374206f6e652077696e6e65722072657175697265640000000060448201526064016104bb565b6000868152602081905260408120855190919067ffffffffffffffff81111561063e5761063e611bb0565b604051908082528060200260200182016040528015610667578160200160208202803683370190505b5090506000805b87518110156106f657620f424088828151811061068d5761068d612348565b602002602001015161069f91906122fa565b8382815181106106b1576106b1612348565b6020026020010181815250508281815181106106cf576106cf612348565b6020026020010151826106e2919061235e565b9150806106ee81612371565b91505061066e565b50826004015481111561074b5760405162461bcd60e51b815260206004820152601860248201527f5072697a657320657863656564207072697a6520706f6f6c000000000000000060448201526064016104bb565b60005b88518110156108495760006001600160a01b031689828151811061077457610774612348565b60200260200101516001600160a01b0316036107cb5760405162461bcd60e51b8152602060048201526016602482015275496e76616c69642077696e6e6572206164647265737360501b60448201526064016104bb565b8881815181106107dd576107dd612348565b60200260200101516001600160a01b03166108fc84838151811061080357610803612348565b60200260200101519081150290604051600060405180830381858888f19350505050158015610836573d6000803e3d6000fd5b508061084181612371565b91505061074e565b508083600401600082825461085e919061238a565b92505081905550887fec92dccf4a03653bc1a3d85019574bf62a659c47575779a889806684783b9e5c898460405161089792919061239d565b60405180910390a2600083600701541180156108b65750600683015415155b1561099f57600683015460078401546000916108d1916123f4565b905060005b600685015481101561094a578460060181815481106108f7576108f7612348565b60009182526020822001546040516001600160a01b039091169184156108fc02918591818181858888f19350505050158015610937573d6000803e3d6000fd5b508061094281612371565b9150506108d6565b50600784015460068501546040518c927fd7a5ed460dbf7886fdeb07e60e3ba47bda207ef714efd849b50d0d740d1aa5a49261098e92918252602082015260400190565b60405180910390a250600060078401555b600883015415610a3b57600883018054600091829055600385015460405191926001600160a01b039091169183156108fc0291849190818181858888f193505050501580156109f2573d6000803e3d6000fd5b5060038401546040518281526001600160a01b03909116908b907f2341587e69938509c4731d6ce2058ff14e7313743097d35b00c03894c37e6f569060200160405180910390a3505b5050600901805460ff19169055505050505050565b606080600080600080600087600081118015610a6e57506001548111155b610a8a5760405162461bcd60e51b81526004016104bb90612311565b600089815260208190526040902060038101546004820154600a83015460068401546009850154600186018054909560028801956001600160a01b039091169490939092909160ff909116908790610ae190612416565b80601f0160208091040260200160405190810160405280929190818152602001828054610b0d90612416565b8015610b5a5780601f10610b2f57610100808354040283529160200191610b5a565b820191906000526020600020905b815481529060010190602001808311610b3d57829003601f168201915b50505050509650858054610b6d90612416565b80601f0160208091040260200160405190810160405280929190818152602001828054610b9990612416565b8015610be65780601f10610bbb57610100808354040283529160200191610be6565b820191906000526020600020905b815481529060010190602001808311610bc957829003601f168201915b5050505050955098509850985098509850985098505050919395979092949650565b6000610c17620f4240836123f4565b92915050565b6000828152600260208181526040808420858552909152822090810180546060938493849384938392918391610c5290612416565b905011610c9a5760405162461bcd60e51b8152602060048201526016602482015275141c9bda9958dd08191bd95cc81b9bdd08195e1a5cdd60521b60448201526064016104bb565b806002018160030182600401836005018460060160009054906101000a90046001600160a01b03168560070154858054610cd390612416565b80601f0160208091040260200160405190810160405280929190818152602001828054610cff90612416565b8015610d4c5780601f10610d2157610100808354040283529160200191610d4c565b820191906000526020600020905b815481529060010190602001808311610d2f57829003601f168201915b50505050509550848054610d5f90612416565b80601f0160208091040260200160405190810160405280929190818152602001828054610d8b90612416565b8015610dd85780601f10610dad57610100808354040283529160200191610dd8565b820191906000526020600020905b815481529060010190602001808311610dbb57829003601f168201915b50505050509450838054610deb90612416565b80601f0160208091040260200160405190810160405280929190818152602001828054610e1790612416565b8015610e645780601f10610e3957610100808354040283529160200191610e64565b820191906000526020600020905b815481529060010190602001808311610e4757829003601f168201915b50505050509350828054610e7790612416565b80601f0160208091040260200160405190810160405280929190818152602001828054610ea390612416565b8015610ef05780601f10610ec557610100808354040283529160200191610ef0565b820191906000526020600020905b815481529060010190602001808311610ed357829003601f168201915b50505050509250965096509650965096509650509295509295509295565b6000845111610f4f5760405162461bcd60e51b815260206004820152600d60248201526c13985b59481c995c5d5a5c9959609a1b60448201526064016104bb565b6000825111610fa05760405162461bcd60e51b815260206004820152601b60248201527f4174206c65617374206f6e65206a75646765207265717569726564000000000060448201526064016104bb565b6000805b8251811015610ff757620f4240838281518110610fc357610fc3612348565b602002602001015160200151610fd991906122fa565b610fe3908361235e565b915080610fef81612371565b915050610fa4565b506000611008620f424060056122fa565b845161101491906122fa565b905060008183611028620f424060646122fa565b611032919061235e565b61103c919061235e565b9050803410156110855760405162461bcd60e51b8152602060048201526014602482015273125b9cdd59999a58da595b9d081c185e5b595b9d60621b60448201526064016104bb565b6001805490600061109583612371565b90915550506001805460008181526020819052604090209081559081016110bc8982612499565b50600281016110cb8882612499565b506003810180546001600160a01b031916331790556004810184905542600582015560098101805460ff1916600117905560006007820181905560088201819055600a82018190555b86518110156112f157600087828151811061113157611131612348565b6020026020010151905060006001600160a01b0316816001600160a01b0316036111955760405162461bcd60e51b8152602060048201526015602482015274496e76616c6964206a75646765206164647265737360581b60448201526064016104bb565b60015460009081526003602090815260408083206001600160a01b038516845290915290205460ff16156111fd5760405162461bcd60e51b815260206004820152600f60248201526e4475706c6963617465206a7564676560881b60448201526064016104bb565b600683018054600180820183556000928352602080842090920180546001600160a01b0319166001600160a01b0386169081179091558154845260038352604080852082865290935291909220805460ff19169092179091556108fc611267620f424060056122fa565b6040518115909202916000818181858888f1935050505015801561128f573d6000803e3d6000fd5b506001546001600160a01b038216907f2e52a072f9c8b68344176c3c5ab5eb12950f749471dcebaa8b0fdc692857a0c96112cd620f424060056122fa565b60405190815260200160405180910390a350806112e981612371565b915050611114565b50611300620f424060646122fa565b60046000828254611311919061235e565b909155505060015433907fa47aa39d6ac62056016efa5af31b5ed4625d9b3bc0b2421ab17322373d65756b8a8761134c620f424060646122fa565b8b5160405161135e9493929190612559565b60405180910390a35050505050505050565b610489620f424060016122fa565b60026020818152600093845260408085209091529183529120805460018201549282018054919392916113b090612416565b80601f01602080910402602001604051908101604052809291908181526020018280546113dc90612416565b80156114295780601f106113fe57610100808354040283529160200191611429565b820191906000526020600020905b81548152906001019060200180831161140c57829003601f168201915b50505050509080600301805461143e90612416565b80601f016020809104026020016040519081016040528092919081815260200182805461146a90612416565b80156114b75780601f1061148c576101008083540402835291602001916114b7565b820191906000526020600020905b81548152906001019060200180831161149a57829003601f168201915b5050505050908060040180546114cc90612416565b80601f01602080910402602001604051908101604052809291908181526020018280546114f890612416565b80156115455780601f1061151a57610100808354040283529160200191611545565b820191906000526020600020905b81548152906001019060200180831161152857829003601f168201915b50505050509080600501805461155a90612416565b80601f016020809104026020016040519081016040528092919081815260200182805461158690612416565b80156115d35780601f106115a8576101008083540402835291602001916115d3565b820191906000526020600020905b8154815290600101906020018083116115b657829003601f168201915b50505050600683015460079093015491926001600160a01b031691905088565b8460008111801561160657506001548111155b6116225760405162461bcd60e51b81526004016104bb90612311565b600086815260208190526040902060090154869060ff1661167c5760405162461bcd60e51b81526020600482015260146024820152734861636b6174686f6e206e6f742061637469766560601b60448201526064016104bb565b61168a620f424060016122fa565b3410156116d95760405162461bcd60e51b815260206004820152601b60248201527f496e73756666696369656e74207375626d697373696f6e20666565000000000060448201526064016104bb565b60008651116117225760405162461bcd60e51b8152602060048201526015602482015274141c9bda9958dd081b985b59481c995c5d5a5c9959605a1b60448201526064016104bb565b6000878152602081905260408120600a81018054919261174183612371565b90915550506000888152600260208181526040808420600a8601548086529252909220918255600182018a9055810161177a8982612499565b50600381016117898882612499565b50600481016117988782612499565b50600581016117a78682612499565b506006810180546001600160a01b031916331790554260078201556000606460146117d6620f424060016122fa565b6117e091906122fa565b6117ea91906123f4565b9050600060646050611800620f424060016122fa565b61180a91906122fa565b61181491906123f4565b90508184600801600082825461182a919061235e565b9250508190555080846007016000828254611845919061235e565b9091555050600a84015433908c7f86ef949d57e272497938a9a14dffa96f0273668710ef813d2bc69c1587b28bfe8d611882620f424060016122fa565b604051611890929190612588565b60405180910390a45050505050505050505050565b600060208190529081526040902080546001820180549192916118c790612416565b80601f01602080910402602001604051908101604052809291908181526020018280546118f390612416565b80156119405780601f1061191557610100808354040283529160200191611940565b820191906000526020600020905b81548152906001019060200180831161192357829003601f168201915b50505050509080600201805461195590612416565b80601f016020809104026020016040519081016040528092919081815260200182805461198190612416565b80156119ce5780601f106119a3576101008083540402835291602001916119ce565b820191906000526020600020905b8154815290600101906020018083116119b157829003601f168201915b50505050600383015460048401546005850154600786015460088701546009880154600a9098015496976001600160a01b03909516969395509193909260ff909116908a565b610489620f424060646122fa565b6005546001600160a01b03163314611a725760405162461bcd60e51b815260206004820152601360248201527227b7363c90383630ba3337b9369037bbb732b960691b60448201526064016104bb565b600060045411611aba5760405162461bcd60e51b81526020600482015260136024820152724e6f206665657320746f20776974686472617760681b60448201526064016104bb565b6004805460009182905560055460405191926001600160a01b039091169183156108fc0291849190818181858888f19350505050158015611aff573d6000803e3d6000fd5b5050565b606081600081118015611b1857506001548111155b611b345760405162461bcd60e51b81526004016104bb90612311565b6000838152602081815260409182902060060180548351818402810184019094528084529091830182828015611b9357602002820191906000526020600020905b81546001600160a01b03168152600190910190602001808311611b75575b505050505091505b50919050565b6000610c17620f4240836122fa565b634e487b7160e01b600052604160045260246000fd5b6040516060810167ffffffffffffffff81118282101715611be957611be9611bb0565b60405290565b604051601f8201601f1916810167ffffffffffffffff81118282101715611c1857611c18611bb0565b604052919050565b600067ffffffffffffffff821115611c3a57611c3a611bb0565b5060051b60200190565b80356001600160a01b0381168114611c5b57600080fd5b919050565b600082601f830112611c7157600080fd5b81356020611c86611c8183611c20565b611bef565b82815260059290921b84018101918181019086841115611ca557600080fd5b8286015b84811015611cc757611cba81611c44565b8352918301918301611ca9565b509695505050505050565b600080600060608486031215611ce757600080fd5b8335925060208085013567ffffffffffffffff80821115611d0757600080fd5b611d1388838901611c60565b94506040870135915080821115611d2957600080fd5b508501601f81018713611d3b57600080fd5b8035611d49611c8182611c20565b81815260059190911b82018301908381019089831115611d6857600080fd5b928401925b82841015611d8657833582529284019290840190611d6d565b80955050505050509250925092565b600060208284031215611da757600080fd5b5035919050565b6000815180845260005b81811015611dd457602081850181015186830182015201611db8565b506000602082860101526020601f19601f83011685010191505092915050565b60e081526000611e0760e083018a611dae565b8281036020840152611e19818a611dae565b6001600160a01b0398909816604084015250506060810194909452608084019290925260a0830152151560c09091015292915050565b60008060408385031215611e6257600080fd5b50508035926020909101359150565b60c081526000611e8460c0830189611dae565b8281036020840152611e968189611dae565b90508281036040840152611eaa8188611dae565b90508281036060840152611ebe8187611dae565b6001600160a01b03959095166080840152505060a00152949350505050565b600082601f830112611eee57600080fd5b813567ffffffffffffffff811115611f0857611f08611bb0565b611f1b601f8201601f1916602001611bef565b818152846020838601011115611f3057600080fd5b816020850160208301376000918101602001919091529392505050565b60008060008060808587031215611f6357600080fd5b67ffffffffffffffff8086351115611f7a57600080fd5b611f878787358801611edd565b9450602086013581811115611f9b57600080fd5b611fa788828901611edd565b945050604086013581811115611fbc57600080fd5b611fc888828901611c60565b935050606086013581811115611fdd57600080fd5b8601601f81018813611fee57600080fd5b8035611ffc611c8182611c20565b8082825260208201915060208360051b85010192508a83111561201e57600080fd5b602084015b838110156120a257858135111561203957600080fd5b803585016060818e03601f1901121561205157600080fd5b612059611bc6565b60208201358881111561206b57600080fd5b61207a8f602083860101611edd565b8252506040828101356020808401919091526060909301359082015284529283019201612023565b50979a9699509497505050505050565b60006101008a83528960208401528060408401526120d28184018a611dae565b905082810360608401526120e68189611dae565b905082810360808401526120fa8188611dae565b905082810360a084015261210e8187611dae565b6001600160a01b039590951660c0840152505060e001529695505050505050565b6000806040838503121561214257600080fd5b8235915061215260208401611c44565b90509250929050565b600080600080600060a0868803121561217357600080fd5b85359450602086013567ffffffffffffffff8082111561219257600080fd5b61219e89838a01611edd565b955060408801359150808211156121b457600080fd5b6121c089838a01611edd565b945060608801359150808211156121d657600080fd5b6121e289838a01611edd565b935060808801359150808211156121f857600080fd5b5061220588828901611edd565b9150509295509295909350565b60006101408c835280602084015261222c8184018d611dae565b90508281036040840152612240818c611dae565b6001600160a01b039a909a1660608401525050608081019690965260a086019490945260c085019290925260e08401521515610100830152610120909101529392505050565b600081518084526020808501945080840160005b838110156122bf5781516001600160a01b03168752958201959082019060010161229a565b509495945050505050565b6020815260006122dd6020830184612286565b9392505050565b634e487b7160e01b600052601160045260246000fd5b8082028115828204841417610c1757610c176122e4565b60208082526018908201527f4861636b6174686f6e20646f6573206e6f742065786973740000000000000000604082015260600190565b634e487b7160e01b600052603260045260246000fd5b80820180821115610c1757610c176122e4565b600060018201612383576123836122e4565b5060010190565b81810381811115610c1757610c176122e4565b6040815260006123b06040830185612286565b82810360208481019190915284518083528582019282019060005b818110156123e7578451835293830193918301916001016123cb565b5090979650505050505050565b60008261241157634e487b7160e01b600052601260045260246000fd5b500490565b600181811c9082168061242a57607f821691505b602082108103611b9b57634e487b7160e01b600052602260045260246000fd5b601f82111561249457600081815260208120601f850160051c810160208610156124715750805b601f850160051c820191505b818110156124905782815560010161247d565b5050505b505050565b815167ffffffffffffffff8111156124b3576124b3611bb0565b6124c7816124c18454612416565b8461244a565b602080601f8311600181146124fc57600084156124e45750858301515b600019600386901b1c1916600185901b178555612490565b600085815260208120601f198616915b8281101561252b5788860151825594840194600190910190840161250c565b50858210156125495787850151600019600388901b60f8161c191681555b5050505050600190811b01905550565b60808152600061256c6080830187611dae565b6020830195909552506040810192909252606090910152919050565b60408152600061259b6040830185611dae565b9050826020830152939250505056fea26469706673582212205f0420f1aabc701ea744b84003762605cce7e8f7c32baa68508c2ab76c30c42264736f6c63430008140033","opcodes":"PUSH1 0x80 PUSH1 0x40 MSTORE CALLVALUE DUP1 ISZERO PUSH2 0x10 JUMPI PUSH1 0x0 DUP1 REVERT JUMPDEST POP PUSH1 0x5 DUP1 SLOAD PUSH1 0x1 PUSH1 0x1 PUSH1 0xA0 SHL SUB NOT AND CALLER OR SWAP1 SSTORE PUSH2 0x25E0 DUP1 PUSH2 0x32 PUSH1 0x0 CODECOPY PUSH1 0x0 RETURN INVALID PUSH1 0x80 PUSH1 0x40 MSTORE PUSH1 0x4 CALLDATASIZE LT PUSH2 0x140 JUMPI PUSH1 0x0 CALLDATALOAD PUSH1 0xE0 SHR DUP1 PUSH4 0x96AB7739 GT PUSH2 0xB6 JUMPI DUP1 PUSH4 0xCB29BB72 GT PUSH2 0x6F JUMPI DUP1 PUSH4 0xCB29BB72 EQ PUSH2 0x3A7 JUMPI DUP1 PUSH4 0xCF290427 EQ PUSH2 0x3BC JUMPI DUP1 PUSH4 0xD0B7830B EQ PUSH2 0x3D3 JUMPI DUP1 PUSH4 0xD62E08AA EQ PUSH2 0x3E8 JUMPI DUP1 PUSH4 0xDA3C0AA4 EQ PUSH2 0x42E JUMPI DUP1 PUSH4 0xDFBAC869 EQ PUSH2 0x45B JUMPI PUSH1 0x0 DUP1 REVERT JUMPDEST DUP1 PUSH4 0x96AB7739 EQ PUSH2 0x2D3 JUMPI DUP1 PUSH4 0xA25232F5 EQ PUSH2 0x2E9 JUMPI DUP1 PUSH4 0xA3966006 EQ PUSH2 0x334 JUMPI DUP1 PUSH4 0xADCF5B3D EQ PUSH2 0x347 JUMPI DUP1 PUSH4 0xBA9BF757 EQ PUSH2 0x35C JUMPI DUP1 PUSH4 0xC1077194 EQ PUSH2 0x371 JUMPI PUSH1 0x0 DUP1 REVERT JUMPDEST DUP1 PUSH4 0x49DF9464 GT PUSH2 0x108 JUMPI DUP1 PUSH4 0x49DF9464 EQ PUSH2 0x1F7 JUMPI DUP1 PUSH4 0x4DF8CCB1 EQ PUSH2 0x229 JUMPI DUP1 PUSH4 0x5D8C52B3 EQ PUSH2 0x261 JUMPI DUP1 PUSH4 0x62A5DBBC EQ PUSH2 0x274 JUMPI DUP1 PUSH4 0x7D48536D EQ PUSH2 0x28A JUMPI DUP1 PUSH4 0x85818E72 EQ PUSH2 0x29F JUMPI PUSH1 0x0 DUP1 REVERT JUMPDEST DUP1 PUSH4 0x1B77ED24 EQ PUSH2 0x145 JUMPI DUP1 PUSH4 0x23FCD3E4 EQ PUSH2 0x16D JUMPI DUP1 PUSH4 0x2CA34D93 EQ PUSH2 0x18F JUMPI DUP1 PUSH4 0x4657FC6A EQ PUSH2 0x1C2 JUMPI DUP1 PUSH4 0x48D0CB57 EQ PUSH2 0x1E2 JUMPI JUMPDEST PUSH1 0x0 DUP1 REVERT JUMPDEST CALLVALUE DUP1 ISZERO PUSH2 0x151 JUMPI PUSH1 0x0 DUP1 REVERT JUMPDEST POP PUSH2 0x15A PUSH2 0x47B JUMP JUMPDEST PUSH1 0x40 MLOAD SWAP1 DUP2 MSTORE PUSH1 0x20 ADD JUMPDEST PUSH1 0x40 MLOAD DUP1 SWAP2 SUB SWAP1 RETURN JUMPDEST CALLVALUE DUP1 ISZERO PUSH2 0x179 JUMPI PUSH1 0x0 DUP1 REVERT JUMPDEST POP PUSH2 0x18D PUSH2 0x188 CALLDATASIZE PUSH1 0x4 PUSH2 0x1CD2 JUMP JUMPDEST PUSH2 0x48C JUMP JUMPDEST STOP JUMPDEST CALLVALUE DUP1 ISZERO PUSH2 0x19B JUMPI PUSH1 0x0 DUP1 REVERT JUMPDEST POP PUSH2 0x1AF PUSH2 0x1AA CALLDATASIZE PUSH1 0x4 PUSH2 0x1D95 JUMP JUMPDEST PUSH2 0xA50 JUMP JUMPDEST PUSH1 0x40 MLOAD PUSH2 0x164 SWAP8 SWAP7 SWAP6 SWAP5 SWAP4 SWAP3 SWAP2 SWAP1 PUSH2 0x1DF4 JUMP JUMPDEST CALLVALUE DUP1 ISZERO PUSH2 0x1CE JUMPI PUSH1 0x0 DUP1 REVERT JUMPDEST POP PUSH2 0x15A PUSH2 0x1DD CALLDATASIZE PUSH1 0x4 PUSH2 0x1D95 JUMP JUMPDEST PUSH2 0xC08 JUMP JUMPDEST CALLVALUE DUP1 ISZERO PUSH2 0x1EE JUMPI PUSH1 0x0 DUP1 REVERT JUMPDEST POP PUSH2 0x15A PUSH1 0x14 DUP2 JUMP JUMPDEST CALLVALUE DUP1 ISZERO PUSH2 0x203 JUMPI PUSH1 0x0 DUP1 REVERT JUMPDEST POP PUSH2 0x217 PUSH2 0x212 CALLDATASIZE PUSH1 0x4 PUSH2 0x1E4F JUMP JUMPDEST PUSH2 0xC1D JUMP JUMPDEST PUSH1 0x40 MLOAD PUSH2 0x164 SWAP7 SWAP6 SWAP5 SWAP4 SWAP3 SWAP2 SWAP1 PUSH2 0x1E71 JUMP JUMPDEST CALLVALUE DUP1 ISZERO PUSH2 0x235 JUMPI PUSH1 0x0 DUP1 REVERT JUMPDEST POP PUSH1 0x5 SLOAD PUSH2 0x249 SWAP1 PUSH1 0x1 PUSH1 0x1 PUSH1 0xA0 SHL SUB AND DUP2 JUMP JUMPDEST PUSH1 0x40 MLOAD PUSH1 0x1 PUSH1 0x1 PUSH1 0xA0 SHL SUB SWAP1 SWAP2 AND DUP2 MSTORE PUSH1 0x20 ADD PUSH2 0x164 JUMP JUMPDEST PUSH2 0x18D PUSH2 0x26F CALLDATASIZE PUSH1 0x4 PUSH2 0x1F4D JUMP JUMPDEST PUSH2 0xF0E JUMP JUMPDEST CALLVALUE DUP1 ISZERO PUSH2 0x280 JUMPI PUSH1 0x0 DUP1 REVERT JUMPDEST POP PUSH2 0x15A PUSH1 0x4 SLOAD DUP2 JUMP JUMPDEST CALLVALUE DUP1 ISZERO PUSH2 0x296 JUMPI PUSH1 0x0 DUP1 REVERT JUMPDEST POP PUSH2 0x15A PUSH2 0x1370 JUMP JUMPDEST CALLVALUE DUP1 ISZERO PUSH2 0x2AB JUMPI PUSH1 0x0 DUP1 REVERT JUMPDEST POP PUSH2 0x2BF PUSH2 0x2BA CALLDATASIZE PUSH1 0x4 PUSH2 0x1E4F JUMP JUMPDEST PUSH2 0x137E JUMP JUMPDEST PUSH1 0x40 MLOAD PUSH2 0x164 SWAP9 SWAP8 SWAP7 SWAP6 SWAP5 SWAP4 SWAP3 SWAP2 SWAP1 PUSH2 0x20B2 JUMP JUMPDEST CALLVALUE DUP1 ISZERO PUSH2 0x2DF JUMPI PUSH1 0x0 DUP1 REVERT JUMPDEST POP PUSH2 0x15A PUSH1 0x1 SLOAD DUP2 JUMP JUMPDEST CALLVALUE DUP1 ISZERO PUSH2 0x2F5 JUMPI PUSH1 0x0 DUP1 REVERT JUMPDEST POP PUSH2 0x324 PUSH2 0x304 CALLDATASIZE PUSH1 0x4 PUSH2 0x212F JUMP JUMPDEST PUSH1 0x3 PUSH1 0x20 SWAP1 DUP2 MSTORE PUSH1 0x0 SWAP3 DUP4 MSTORE PUSH1 0x40 DUP1 DUP5 KECCAK256 SWAP1 SWAP2 MSTORE SWAP1 DUP3 MSTORE SWAP1 KECCAK256 SLOAD PUSH1 0xFF AND DUP2 JUMP JUMPDEST PUSH1 0x40 MLOAD SWAP1 ISZERO ISZERO DUP2 MSTORE PUSH1 0x20 ADD PUSH2 0x164 JUMP JUMPDEST PUSH2 0x18D PUSH2 0x342 CALLDATASIZE PUSH1 0x4 PUSH2 0x215B JUMP JUMPDEST PUSH2 0x15F3 JUMP JUMPDEST CALLVALUE DUP1 ISZERO PUSH2 0x353 JUMPI PUSH1 0x0 DUP1 REVERT JUMPDEST POP PUSH2 0x15A PUSH1 0x50 DUP2 JUMP JUMPDEST CALLVALUE DUP1 ISZERO PUSH2 0x368 JUMPI PUSH1 0x0 DUP1 REVERT JUMPDEST POP PUSH1 0x4 SLOAD PUSH2 0x15A JUMP JUMPDEST CALLVALUE DUP1 ISZERO PUSH2 0x37D JUMPI PUSH1 0x0 DUP1 REVERT JUMPDEST POP PUSH2 0x391 PUSH2 0x38C CALLDATASIZE PUSH1 0x4 PUSH2 0x1D95 JUMP JUMPDEST PUSH2 0x18A5 JUMP JUMPDEST PUSH1 0x40 MLOAD PUSH2 0x164 SWAP11 SWAP10 SWAP9 SWAP8 SWAP7 SWAP6 SWAP5 SWAP4 SWAP3 SWAP2 SWAP1 PUSH2 0x2212 JUMP JUMPDEST CALLVALUE DUP1 ISZERO PUSH2 0x3B3 JUMPI PUSH1 0x0 DUP1 REVERT JUMPDEST POP PUSH2 0x15A PUSH2 0x1A14 JUMP JUMPDEST CALLVALUE DUP1 ISZERO PUSH2 0x3C8 JUMPI PUSH1 0x0 DUP1 REVERT JUMPDEST POP PUSH2 0x15A PUSH3 0xF4240 DUP2 JUMP JUMPDEST CALLVALUE DUP1 ISZERO PUSH2 0x3DF JUMPI PUSH1 0x0 DUP1 REVERT JUMPDEST POP PUSH2 0x18D PUSH2 0x1A22 JUMP JUMPDEST CALLVALUE DUP1 ISZERO PUSH2 0x3F4 JUMPI PUSH1 0x0 DUP1 REVERT JUMPDEST POP PUSH2 0x324 PUSH2 0x403 CALLDATASIZE PUSH1 0x4 PUSH2 0x212F JUMP JUMPDEST PUSH1 0x0 SWAP2 DUP3 MSTORE PUSH1 0x3 PUSH1 0x20 SWAP1 DUP2 MSTORE PUSH1 0x40 DUP1 DUP5 KECCAK256 PUSH1 0x1 PUSH1 0x1 PUSH1 0xA0 SHL SUB SWAP4 SWAP1 SWAP4 AND DUP5 MSTORE SWAP2 SWAP1 MSTORE SWAP1 KECCAK256 SLOAD PUSH1 0xFF AND SWAP1 JUMP JUMPDEST CALLVALUE DUP1 ISZERO PUSH2 0x43A JUMPI PUSH1 0x0 DUP1 REVERT JUMPDEST POP PUSH2 0x44E PUSH2 0x449 CALLDATASIZE PUSH1 0x4 PUSH2 0x1D95 JUMP JUMPDEST PUSH2 0x1B03 JUMP JUMPDEST PUSH1 0x40 MLOAD PUSH2 0x164 SWAP2 SWAP1 PUSH2 0x22CA JUMP JUMPDEST CALLVALUE DUP1 ISZERO PUSH2 0x467 JUMPI PUSH1 0x0 DUP1 REVERT JUMPDEST POP PUSH2 0x15A PUSH2 0x476 CALLDATASIZE PUSH1 0x4 PUSH2 0x1D95 JUMP JUMPDEST PUSH2 0x1BA1 JUMP JUMPDEST PUSH2 0x489 PUSH3 0xF4240 PUSH1 0x5 PUSH2 0x22FA JUMP JUMPDEST DUP2 JUMP JUMPDEST DUP3 PUSH1 0x0 DUP2 GT DUP1 ISZERO PUSH2 0x49F JUMPI POP PUSH1 0x1 SLOAD DUP2 GT ISZERO JUMPDEST PUSH2 0x4C4 JUMPI PUSH1 0x40 MLOAD PUSH3 0x461BCD PUSH1 0xE5 SHL DUP2 MSTORE PUSH1 0x4 ADD PUSH2 0x4BB SWAP1 PUSH2 0x2311 JUMP JUMPDEST PUSH1 0x40 MLOAD DUP1 SWAP2 SUB SWAP1 REVERT JUMPDEST PUSH1 0x0 DUP5 DUP2 MSTORE PUSH1 0x20 DUP2 SWAP1 MSTORE PUSH1 0x40 SWAP1 KECCAK256 PUSH1 0x9 ADD SLOAD DUP5 SWAP1 PUSH1 0xFF AND PUSH2 0x51E JUMPI PUSH1 0x40 MLOAD PUSH3 0x461BCD PUSH1 0xE5 SHL DUP2 MSTORE PUSH1 0x20 PUSH1 0x4 DUP3 ADD MSTORE PUSH1 0x14 PUSH1 0x24 DUP3 ADD MSTORE PUSH20 0x4861636B6174686F6E206E6F7420616374697665 PUSH1 0x60 SHL PUSH1 0x44 DUP3 ADD MSTORE PUSH1 0x64 ADD PUSH2 0x4BB JUMP JUMPDEST PUSH1 0x0 DUP6 DUP2 MSTORE PUSH1 0x20 DUP2 SWAP1 MSTORE PUSH1 0x40 SWAP1 KECCAK256 PUSH1 0x3 ADD SLOAD DUP6 SWAP1 PUSH1 0x1 PUSH1 0x1 PUSH1 0xA0 SHL SUB AND CALLER EQ PUSH2 0x579 JUMPI PUSH1 0x40 MLOAD PUSH3 0x461BCD PUSH1 0xE5 SHL DUP2 MSTORE PUSH1 0x20 PUSH1 0x4 DUP3 ADD MSTORE PUSH1 0xD PUSH1 0x24 DUP3 ADD MSTORE PUSH13 0x2737BA1037B933B0B734BD32B9 PUSH1 0x99 SHL PUSH1 0x44 DUP3 ADD MSTORE PUSH1 0x64 ADD PUSH2 0x4BB JUMP JUMPDEST DUP4 MLOAD DUP6 MLOAD EQ PUSH2 0x5C2 JUMPI PUSH1 0x40 MLOAD PUSH3 0x461BCD PUSH1 0xE5 SHL DUP2 MSTORE PUSH1 0x20 PUSH1 0x4 DUP3 ADD MSTORE PUSH1 0x15 PUSH1 0x24 DUP3 ADD MSTORE PUSH21 0x82E4E4C2F240D8CADCCEE8D040DAD2E6DAC2E8C6D PUSH1 0x5B SHL PUSH1 0x44 DUP3 ADD MSTORE PUSH1 0x64 ADD PUSH2 0x4BB JUMP JUMPDEST PUSH1 0x0 DUP6 MLOAD GT PUSH2 0x613 JUMPI PUSH1 0x40 MLOAD PUSH3 0x461BCD PUSH1 0xE5 SHL DUP2 MSTORE PUSH1 0x20 PUSH1 0x4 DUP3 ADD MSTORE PUSH1 0x1C PUSH1 0x24 DUP3 ADD MSTORE PUSH32 0x4174206C65617374206F6E652077696E6E657220726571756972656400000000 PUSH1 0x44 DUP3 ADD MSTORE PUSH1 0x64 ADD PUSH2 0x4BB JUMP JUMPDEST PUSH1 0x0 DUP7 DUP2 MSTORE PUSH1 0x20 DUP2 SWAP1 MSTORE PUSH1 0x40 DUP2 KECCAK256 DUP6 MLOAD SWAP1 SWAP2 SWAP1 PUSH8 0xFFFFFFFFFFFFFFFF DUP2 GT ISZERO PUSH2 0x63E JUMPI PUSH2 0x63E PUSH2 0x1BB0 JUMP JUMPDEST PUSH1 0x40 MLOAD SWAP1 DUP1 DUP3 MSTORE DUP1 PUSH1 0x20 MUL PUSH1 0x20 ADD DUP3 ADD PUSH1 0x40 MSTORE DUP1 ISZERO PUSH2 0x667 JUMPI DUP2 PUSH1 0x20 ADD PUSH1 0x20 DUP3 MUL DUP1 CALLDATASIZE DUP4 CALLDATACOPY ADD SWAP1 POP JUMPDEST POP SWAP1 POP PUSH1 0x0 DUP1 JUMPDEST DUP8 MLOAD DUP2 LT ISZERO PUSH2 0x6F6 JUMPI PUSH3 0xF4240 DUP9 DUP3 DUP2 MLOAD DUP2 LT PUSH2 0x68D JUMPI PUSH2 0x68D PUSH2 0x2348 JUMP JUMPDEST PUSH1 0x20 MUL PUSH1 0x20 ADD ADD MLOAD PUSH2 0x69F SWAP2 SWAP1 PUSH2 0x22FA JUMP JUMPDEST DUP4 DUP3 DUP2 MLOAD DUP2 LT PUSH2 0x6B1 JUMPI PUSH2 0x6B1 PUSH2 0x2348 JUMP JUMPDEST PUSH1 0x20 MUL PUSH1 0x20 ADD ADD DUP2 DUP2 MSTORE POP POP DUP3 DUP2 DUP2 MLOAD DUP2 LT PUSH2 0x6CF JUMPI PUSH2 0x6CF PUSH2 0x2348 JUMP JUMPDEST PUSH1 0x20 MUL PUSH1 0x20 ADD ADD MLOAD DUP3 PUSH2 0x6E2 SWAP2 SWAP1 PUSH2 0x235E JUMP JUMPDEST SWAP2 POP DUP1 PUSH2 0x6EE DUP2 PUSH2 0x2371 JUMP JUMPDEST SWAP2 POP POP PUSH2 0x66E JUMP JUMPDEST POP DUP3 PUSH1 0x4 ADD SLOAD DUP2 GT ISZERO PUSH2 0x74B JUMPI PUSH1 0x40 MLOAD PUSH3 0x461BCD PUSH1 0xE5 SHL DUP2 MSTORE PUSH1 0x20 PUSH1 0x4 DUP3 ADD MSTORE PUSH1 0x18 PUSH1 0x24 DUP3 ADD MSTORE PUSH32 0x5072697A657320657863656564207072697A6520706F6F6C0000000000000000 PUSH1 0x44 DUP3 ADD MSTORE PUSH1 0x64 ADD PUSH2 0x4BB JUMP JUMPDEST PUSH1 0x0 JUMPDEST DUP9 MLOAD DUP2 LT ISZERO PUSH2 0x849 JUMPI PUSH1 0x0 PUSH1 0x1 PUSH1 0x1 PUSH1 0xA0 SHL SUB AND DUP10 DUP3 DUP2 MLOAD DUP2 LT PUSH2 0x774 JUMPI PUSH2 0x774 PUSH2 0x2348 JUMP JUMPDEST PUSH1 0x20 MUL PUSH1 0x20 ADD ADD MLOAD PUSH1 0x1 PUSH1 0x1 PUSH1 0xA0 SHL SUB AND SUB PUSH2 0x7CB JUMPI PUSH1 0x40 MLOAD PUSH3 0x461BCD PUSH1 0xE5 SHL DUP2 MSTORE PUSH1 0x20 PUSH1 0x4 DUP3 ADD MSTORE PUSH1 0x16 PUSH1 0x24 DUP3 ADD MSTORE PUSH22 0x496E76616C69642077696E6E65722061646472657373 PUSH1 0x50 SHL PUSH1 0x44 DUP3 ADD MSTORE PUSH1 0x64 ADD PUSH2 0x4BB JUMP JUMPDEST DUP9 DUP2 DUP2 MLOAD DUP2 LT PUSH2 0x7DD JUMPI PUSH2 0x7DD PUSH2 0x2348 JUMP JUMPDEST PUSH1 0x20 MUL PUSH1 0x20 ADD ADD MLOAD PUSH1 0x1 PUSH1 0x1 PUSH1 0xA0 SHL SUB AND PUSH2 0x8FC DUP5 DUP4 DUP2 MLOAD DUP2 LT PUSH2 0x803 JUMPI PUSH2 0x803 PUSH2 0x2348 JUMP JUMPDEST PUSH1 0x20 MUL PUSH1 0x20 ADD ADD MLOAD SWAP1 DUP2 ISZERO MUL SWAP1 PUSH1 0x40 MLOAD PUSH1 0x0 PUSH1 0x40 MLOAD DUP1 DUP4 SUB DUP2 DUP6 DUP9 DUP9 CALL SWAP4 POP POP POP POP ISZERO DUP1 ISZERO PUSH2 0x836 JUMPI RETURNDATASIZE PUSH1 0x0 DUP1 RETURNDATACOPY RETURNDATASIZE PUSH1 0x0 REVERT JUMPDEST POP DUP1 PUSH2 0x841 DUP2 PUSH2 0x2371 JUMP JUMPDEST SWAP2 POP POP PUSH2 0x74E JUMP JUMPDEST POP DUP1 DUP4 PUSH1 0x4 ADD PUSH1 0x0 DUP3 DUP3 SLOAD PUSH2 0x85E SWAP2 SWAP1 PUSH2 0x238A JUMP JUMPDEST SWAP3 POP POP DUP2 SWAP1 SSTORE POP DUP9 PUSH32 0xEC92DCCF4A03653BC1A3D85019574BF62A659C47575779A889806684783B9E5C DUP10 DUP5 PUSH1 0x40 MLOAD PUSH2 0x897 SWAP3 SWAP2 SWAP1 PUSH2 0x239D JUMP JUMPDEST PUSH1 0x40 MLOAD DUP1 SWAP2 SUB SWAP1 LOG2 PUSH1 0x0 DUP4 PUSH1 0x7 ADD SLOAD GT DUP1 ISZERO PUSH2 0x8B6 JUMPI POP PUSH1 0x6 DUP4 ADD SLOAD ISZERO ISZERO JUMPDEST ISZERO PUSH2 0x99F JUMPI PUSH1 0x6 DUP4 ADD SLOAD PUSH1 0x7 DUP5 ADD SLOAD PUSH1 0x0 SWAP2 PUSH2 0x8D1 SWAP2 PUSH2 0x23F4 JUMP JUMPDEST SWAP1 POP PUSH1 0x0 JUMPDEST PUSH1 0x6 DUP6 ADD SLOAD DUP2 LT ISZERO PUSH2 0x94A JUMPI DUP5 PUSH1 0x6 ADD DUP2 DUP2 SLOAD DUP2 LT PUSH2 0x8F7 JUMPI PUSH2 0x8F7 PUSH2 0x2348 JUMP JUMPDEST PUSH1 0x0 SWAP2 DUP3 MSTORE PUSH1 0x20 DUP3 KECCAK256 ADD SLOAD PUSH1 0x40 MLOAD PUSH1 0x1 PUSH1 0x1 PUSH1 0xA0 SHL SUB SWAP1 SWAP2 AND SWAP2 DUP5 ISZERO PUSH2 0x8FC MUL SWAP2 DUP6 SWAP2 DUP2 DUP2 DUP2 DUP6 DUP9 DUP9 CALL SWAP4 POP POP POP POP ISZERO DUP1 ISZERO PUSH2 0x937 JUMPI RETURNDATASIZE PUSH1 0x0 DUP1 RETURNDATACOPY RETURNDATASIZE PUSH1 0x0 REVERT JUMPDEST POP DUP1 PUSH2 0x942 DUP2 PUSH2 0x2371 JUMP JUMPDEST SWAP2 POP POP PUSH2 0x8D6 JUMP JUMPDEST POP PUSH1 0x7 DUP5 ADD SLOAD PUSH1 0x6 DUP6 ADD SLOAD PUSH1 0x40 MLOAD DUP13 SWAP3 PUSH32 0xD7A5ED460DBF7886FDEB07E60E3BA47BDA207EF714EFD849B50D0D740D1AA5A4 SWAP3 PUSH2 0x98E SWAP3 SWAP2 DUP3 MSTORE PUSH1 0x20 DUP3 ADD MSTORE PUSH1 0x40 ADD SWAP1 JUMP JUMPDEST PUSH1 0x40 MLOAD DUP1 SWAP2 SUB SWAP1 LOG2 POP PUSH1 0x0 PUSH1 0x7 DUP5 ADD SSTORE JUMPDEST PUSH1 0x8 DUP4 ADD SLOAD ISZERO PUSH2 0xA3B JUMPI PUSH1 0x8 DUP4 ADD DUP1 SLOAD PUSH1 0x0 SWAP2 DUP3 SWAP1 SSTORE PUSH1 0x3 DUP6 ADD SLOAD PUSH1 0x40 MLOAD SWAP2 SWAP3 PUSH1 0x1 PUSH1 0x1 PUSH1 0xA0 SHL SUB SWAP1 SWAP2 AND SWAP2 DUP4 ISZERO PUSH2 0x8FC MUL SWAP2 DUP5 SWAP2 SWAP1 DUP2 DUP2 DUP2 DUP6 DUP9 DUP9 CALL SWAP4 POP POP POP POP ISZERO DUP1 ISZERO PUSH2 0x9F2 JUMPI RETURNDATASIZE PUSH1 0x0 DUP1 RETURNDATACOPY RETURNDATASIZE PUSH1 0x0 REVERT JUMPDEST POP PUSH1 0x3 DUP5 ADD SLOAD PUSH1 0x40 MLOAD DUP3 DUP2 MSTORE PUSH1 0x1 PUSH1 0x1 PUSH1 0xA0 SHL SUB SWAP1 SWAP2 AND SWAP1 DUP12 SWAP1 PUSH32 0x2341587E69938509C4731D6CE2058FF14E7313743097D35B00C03894C37E6F56 SWAP1 PUSH1 0x20 ADD PUSH1 0x40 MLOAD DUP1 SWAP2 SUB SWAP1 LOG3 POP JUMPDEST POP POP PUSH1 0x9 ADD DUP1 SLOAD PUSH1 0xFF NOT AND SWAP1 SSTORE POP POP POP POP POP POP JUMP JUMPDEST PUSH1 0x60 DUP1 PUSH1 0x0 DUP1 PUSH1 0x0 DUP1 PUSH1 0x0 DUP8 PUSH1 0x0 DUP2 GT DUP1 ISZERO PUSH2 0xA6E JUMPI POP PUSH1 0x1 SLOAD DUP2 GT ISZERO JUMPDEST PUSH2 0xA8A JUMPI PUSH1 0x40 MLOAD PUSH3 0x461BCD PUSH1 0xE5 SHL DUP2 MSTORE PUSH1 0x4 ADD PUSH2 0x4BB SWAP1 PUSH2 0x2311 JUMP JUMPDEST PUSH1 0x0 DUP10 DUP2 MSTORE PUSH1 0x20 DUP2 SWAP1 MSTORE PUSH1 0x40 SWAP1 KECCAK256 PUSH1 0x3 DUP2 ADD SLOAD PUSH1 0x4 DUP3 ADD SLOAD PUSH1 0xA DUP4 ADD SLOAD PUSH1 0x6 DUP5 ADD SLOAD PUSH1 0x9 DUP6 ADD SLOAD PUSH1 0x1 DUP7 ADD DUP1 SLOAD SWAP1 SWAP6 PUSH1 0x2 DUP9 ADD SWAP6 PUSH1 0x1 PUSH1 0x1 PUSH1 0xA0 SHL SUB SWAP1 SWAP2 AND SWAP5 SWAP1 SWAP4 SWAP1 SWAP3 SWAP1 SWAP2 PUSH1 0xFF SWAP1 SWAP2 AND SWAP1 DUP8 SWAP1 PUSH2 0xAE1 SWAP1 PUSH2 0x2416 JUMP JUMPDEST DUP1 PUSH1 0x1F ADD PUSH1 0x20 DUP1 SWAP2 DIV MUL PUSH1 0x20 ADD PUSH1 0x40 MLOAD SWAP1 DUP2 ADD PUSH1 0x40 MSTORE DUP1 SWAP3 SWAP2 SWAP1 DUP2 DUP2 MSTORE PUSH1 0x20 ADD DUP3 DUP1 SLOAD PUSH2 0xB0D SWAP1 PUSH2 0x2416 JUMP JUMPDEST DUP1 ISZERO PUSH2 0xB5A JUMPI DUP1 PUSH1 0x1F LT PUSH2 0xB2F JUMPI PUSH2 0x100 DUP1 DUP4 SLOAD DIV MUL DUP4 MSTORE SWAP2 PUSH1 0x20 ADD SWAP2 PUSH2 0xB5A JUMP JUMPDEST DUP3 ADD SWAP2 SWAP1 PUSH1 0x0 MSTORE PUSH1 0x20 PUSH1 0x0 KECCAK256 SWAP1 JUMPDEST DUP2 SLOAD DUP2 MSTORE SWAP1 PUSH1 0x1 ADD SWAP1 PUSH1 0x20 ADD DUP1 DUP4 GT PUSH2 0xB3D JUMPI DUP3 SWAP1 SUB PUSH1 0x1F AND DUP3 ADD SWAP2 JUMPDEST POP POP POP POP POP SWAP7 POP DUP6 DUP1 SLOAD PUSH2 0xB6D SWAP1 PUSH2 0x2416 JUMP JUMPDEST DUP1 PUSH1 0x1F ADD PUSH1 0x20 DUP1 SWAP2 DIV MUL PUSH1 0x20 ADD PUSH1 0x40 MLOAD SWAP1 DUP2 ADD PUSH1 0x40 MSTORE DUP1 SWAP3 SWAP2 SWAP1 DUP2 DUP2 MSTORE PUSH1 0x20 ADD DUP3 DUP1 SLOAD PUSH2 0xB99 SWAP1 PUSH2 0x2416 JUMP JUMPDEST DUP1 ISZERO PUSH2 0xBE6 JUMPI DUP1 PUSH1 0x1F LT PUSH2 0xBBB JUMPI PUSH2 0x100 DUP1 DUP4 SLOAD DIV MUL DUP4 MSTORE SWAP2 PUSH1 0x20 ADD SWAP2 PUSH2 0xBE6 JUMP JUMPDEST DUP3 ADD SWAP2 SWAP1 PUSH1 0x0 MSTORE PUSH1 0x20 PUSH1 0x0 KECCAK256 SWAP1 JUMPDEST DUP2 SLOAD DUP2 MSTORE SWAP1 PUSH1 0x1 ADD SWAP1 PUSH1 0x20 ADD DUP1 DUP4 GT PUSH2 0xBC9 JUMPI DUP3 SWAP1 SUB PUSH1 0x1F AND DUP3 ADD SWAP2 JUMPDEST POP POP POP POP POP SWAP6 POP SWAP9 POP SWAP9 POP SWAP9 POP SWAP9 POP SWAP9 POP SWAP9 POP SWAP9 POP POP POP SWAP2 SWAP4 SWAP6 SWAP8 SWAP1 SWAP3 SWAP5 SWAP7 POP JUMP JUMPDEST PUSH1 0x0 PUSH2 0xC17 PUSH3 0xF4240 DUP4 PUSH2 0x23F4 JUMP JUMPDEST SWAP3 SWAP2 POP POP JUMP JUMPDEST PUSH1 0x0 DUP3 DUP2 MSTORE PUSH1 0x2 PUSH1 0x20 DUP2 DUP2 MSTORE PUSH1 0x40 DUP1 DUP5 KECCAK256 DUP6 DUP6 MSTORE SWAP1 SWAP2 MSTORE DUP3 KECCAK256 SWAP1 DUP2 ADD DUP1 SLOAD PUSH1 0x60 SWAP4 DUP5 SWAP4 DUP5 SWAP4 DUP5 SWAP4 DUP4 SWAP3 SWAP2 DUP4 SWAP2 PUSH2 0xC52 SWAP1 PUSH2 0x2416 JUMP JUMPDEST SWAP1 POP GT PUSH2 0xC9A JUMPI PUSH1 0x40 MLOAD PUSH3 0x461BCD PUSH1 0xE5 SHL DUP2 MSTORE PUSH1 0x20 PUSH1 0x4 DUP3 ADD MSTORE PUSH1 0x16 PUSH1 0x24 DUP3 ADD MSTORE PUSH22 0x141C9BDA9958DD08191BD95CC81B9BDD08195E1A5CDD PUSH1 0x52 SHL PUSH1 0x44 DUP3 ADD MSTORE PUSH1 0x64 ADD PUSH2 0x4BB JUMP JUMPDEST DUP1 PUSH1 0x2 ADD DUP2 PUSH1 0x3 ADD DUP3 PUSH1 0x4 ADD DUP4 PUSH1 0x5 ADD DUP5 PUSH1 0x6 ADD PUSH1 0x0 SWAP1 SLOAD SWAP1 PUSH2 0x100 EXP SWAP1 DIV PUSH1 0x1 PUSH1 0x1 PUSH1 0xA0 SHL SUB AND DUP6 PUSH1 0x7 ADD SLOAD DUP6 DUP1 SLOAD PUSH2 0xCD3 SWAP1 PUSH2 0x2416 JUMP JUMPDEST DUP1 PUSH1 0x1F ADD PUSH1 0x20 DUP1 SWAP2 DIV MUL PUSH1 0x20 ADD PUSH1 0x40 MLOAD SWAP1 DUP2 ADD PUSH1 0x40 MSTORE DUP1 SWAP3 SWAP2 SWAP1 DUP2 DUP2 MSTORE PUSH1 0x20 ADD DUP3 DUP1 SLOAD PUSH2 0xCFF SWAP1 PUSH2 0x2416 JUMP JUMPDEST DUP1 ISZERO PUSH2 0xD4C JUMPI DUP1 PUSH1 0x1F LT PUSH2 0xD21 JUMPI PUSH2 0x100 DUP1 DUP4 SLOAD DIV MUL DUP4 MSTORE SWAP2 PUSH1 0x20 ADD SWAP2 PUSH2 0xD4C JUMP JUMPDEST DUP3 ADD SWAP2 SWAP1 PUSH1 0x0 MSTORE PUSH1 0x20 PUSH1 0x0 KECCAK256 SWAP1 JUMPDEST DUP2 SLOAD DUP2 MSTORE SWAP1 PUSH1 0x1 ADD SWAP1 PUSH1 0x20 ADD DUP1 DUP4 GT PUSH2 0xD2F JUMPI DUP3 SWAP1 SUB PUSH1 0x1F AND DUP3 ADD SWAP2 JUMPDEST POP POP POP POP POP SWAP6 POP DUP5 DUP1 SLOAD PUSH2 0xD5F SWAP1 PUSH2 0x2416 JUMP JUMPDEST DUP1 PUSH1 0x1F ADD PUSH1 0x20 DUP1 SWAP2 DIV MUL PUSH1 0x20 ADD PUSH1 0x40 MLOAD SWAP1 DUP2 ADD PUSH1 0x40 MSTORE DUP1 SWAP3 SWAP2 SWAP1 DUP2 DUP2 MSTORE PUSH1 0x20 ADD DUP3 DUP1 SLOAD PUSH2 0xD8B SWAP1 PUSH2 0x2416 JUMP JUMPDEST DUP1 ISZERO PUSH2 0xDD8 JUMPI DUP1 PUSH1 0x1F LT PUSH2 0xDAD JUMPI PUSH2 0x100 DUP1 DUP4 SLOAD DIV MUL DUP4 MSTORE SWAP2 PUSH1 0x20 ADD SWAP2 PUSH2 0xDD8 JUMP JUMPDEST DUP3 ADD SWAP2 SWAP1 PUSH1 0x0 MSTORE PUSH1 0x20 PUSH1 0x0 KECCAK256 SWAP1 JUMPDEST DUP2 SLOAD DUP2 MSTORE SWAP1 PUSH1 0x1 ADD SWAP1 PUSH1 0x20 ADD DUP1 DUP4 GT PUSH2 0xDBB JUMPI DUP3 SWAP1 SUB PUSH1 0x1F AND DUP3 ADD SWAP2 JUMPDEST POP POP POP POP POP SWAP5 POP DUP4 DUP1 SLOAD PUSH2 0xDEB SWAP1 PUSH2 0x2416 JUMP JUMPDEST DUP1 PUSH1 0x1F ADD PUSH1 0x20 DUP1 SWAP2 DIV MUL PUSH1 0x20 ADD PUSH1 0x40 MLOAD SWAP1 DUP2 ADD PUSH1 0x40 MSTORE DUP1 SWAP3 SWAP2 SWAP1 DUP2 DUP2 MSTORE PUSH1 0x20 ADD DUP3 DUP1 SLOAD PUSH2 0xE17 SWAP1 PUSH2 0x2416 JUMP JUMPDEST DUP1 ISZERO PUSH2 0xE64 JUMPI DUP1 PUSH1 0x1F LT PUSH2 0xE39 JUMPI PUSH2 0x100 DUP1 DUP4 SLOAD DIV MUL DUP4 MSTORE SWAP2 PUSH1 0x20 ADD SWAP2 PUSH2 0xE64 JUMP JUMPDEST DUP3 ADD SWAP2 SWAP1 PUSH1 0x0 MSTORE PUSH1 0x20 PUSH1 0x0 KECCAK256 SWAP1 JUMPDEST DUP2 SLOAD DUP2 MSTORE SWAP1 PUSH1 0x1 ADD SWAP1 PUSH1 0x20 ADD DUP1 DUP4 GT PUSH2 0xE47 JUMPI DUP3 SWAP1 SUB PUSH1 0x1F AND DUP3 ADD SWAP2 JUMPDEST POP POP POP POP POP SWAP4 POP DUP3 DUP1 SLOAD PUSH2 0xE77 SWAP1 PUSH2 0x2416 JUMP JUMPDEST DUP1 PUSH1 0x1F ADD PUSH1 0x20 DUP1 SWAP2 DIV MUL PUSH1 0x20 ADD PUSH1 0x40 MLOAD SWAP1 DUP2 ADD PUSH1 0x40 MSTORE DUP1 SWAP3 SWAP2 SWAP1 DUP2 DUP2 MSTORE PUSH1 0x20 ADD DUP3 DUP1 SLOAD PUSH2 0xEA3 SWAP1 PUSH2 0x2416 JUMP JUMPDEST DUP1 ISZERO PUSH2 0xEF0 JUMPI DUP1 PUSH1 0x1F LT PUSH2 0xEC5 JUMPI PUSH2 0x100 DUP1 DUP4 SLOAD DIV MUL DUP4 MSTORE SWAP2 PUSH1 0x20 ADD SWAP2 PUSH2 0xEF0 JUMP JUMPDEST DUP3 ADD SWAP2 SWAP1 PUSH1 0x0 MSTORE PUSH1 0x20 PUSH1 0x0 KECCAK256 SWAP1 JUMPDEST DUP2 SLOAD DUP2 MSTORE SWAP1 PUSH1 0x1 ADD SWAP1 PUSH1 0x20 ADD DUP1 DUP4 GT PUSH2 0xED3 JUMPI DUP3 SWAP1 SUB PUSH1 0x1F AND DUP3 ADD SWAP2 JUMPDEST POP POP POP POP POP SWAP3 POP SWAP7 POP SWAP7 POP SWAP7 POP SWAP7 POP SWAP7 POP SWAP7 POP POP SWAP3 SWAP6 POP SWAP3 SWAP6 POP SWAP3 SWAP6 JUMP JUMPDEST PUSH1 0x0 DUP5 MLOAD GT PUSH2 0xF4F JUMPI PUSH1 0x40 MLOAD PUSH3 0x461BCD PUSH1 0xE5 SHL DUP2 MSTORE PUSH1 0x20 PUSH1 0x4 DUP3 ADD MSTORE PUSH1 0xD PUSH1 0x24 DUP3 ADD MSTORE PUSH13 0x13985B59481C995C5D5A5C9959 PUSH1 0x9A SHL PUSH1 0x44 DUP3 ADD MSTORE PUSH1 0x64 ADD PUSH2 0x4BB JUMP JUMPDEST PUSH1 0x0 DUP3 MLOAD GT PUSH2 0xFA0 JUMPI PUSH1 0x40 MLOAD PUSH3 0x461BCD PUSH1 0xE5 SHL DUP2 MSTORE PUSH1 0x20 PUSH1 0x4 DUP3 ADD MSTORE PUSH1 0x1B PUSH1 0x24 DUP3 ADD MSTORE PUSH32 0x4174206C65617374206F6E65206A756467652072657175697265640000000000 PUSH1 0x44 DUP3 ADD MSTORE PUSH1 0x64 ADD PUSH2 0x4BB JUMP JUMPDEST PUSH1 0x0 DUP1 JUMPDEST DUP3 MLOAD DUP2 LT ISZERO PUSH2 0xFF7 JUMPI PUSH3 0xF4240 DUP4 DUP3 DUP2 MLOAD DUP2 LT PUSH2 0xFC3 JUMPI PUSH2 0xFC3 PUSH2 0x2348 JUMP JUMPDEST PUSH1 0x20 MUL PUSH1 0x20 ADD ADD MLOAD PUSH1 0x20 ADD MLOAD PUSH2 0xFD9 SWAP2 SWAP1 PUSH2 0x22FA JUMP JUMPDEST PUSH2 0xFE3 SWAP1 DUP4 PUSH2 0x235E JUMP JUMPDEST SWAP2 POP DUP1 PUSH2 0xFEF DUP2 PUSH2 0x2371 JUMP JUMPDEST SWAP2 POP POP PUSH2 0xFA4 JUMP JUMPDEST POP PUSH1 0x0 PUSH2 0x1008 PUSH3 0xF4240 PUSH1 0x5 PUSH2 0x22FA JUMP JUMPDEST DUP5 MLOAD PUSH2 0x1014 SWAP2 SWAP1 PUSH2 0x22FA JUMP JUMPDEST SWAP1 POP PUSH1 0x0 DUP2 DUP4 PUSH2 0x1028 PUSH3 0xF4240 PUSH1 0x64 PUSH2 0x22FA JUMP JUMPDEST PUSH2 0x1032 SWAP2 SWAP1 PUSH2 0x235E JUMP JUMPDEST PUSH2 0x103C SWAP2 SWAP1 PUSH2 0x235E JUMP JUMPDEST SWAP1 POP DUP1 CALLVALUE LT ISZERO PUSH2 0x1085 JUMPI PUSH1 0x40 MLOAD PUSH3 0x461BCD PUSH1 0xE5 SHL DUP2 MSTORE PUSH1 0x20 PUSH1 0x4 DUP3 ADD MSTORE PUSH1 0x14 PUSH1 0x24 DUP3 ADD MSTORE PUSH20 0x125B9CDD59999A58DA595B9D081C185E5B595B9D PUSH1 0x62 SHL PUSH1 0x44 DUP3 ADD MSTORE PUSH1 0x64 ADD PUSH2 0x4BB JUMP JUMPDEST PUSH1 0x1 DUP1 SLOAD SWAP1 PUSH1 0x0 PUSH2 0x1095 DUP4 PUSH2 0x2371 JUMP JUMPDEST SWAP1 SWAP2 SSTORE POP POP PUSH1 0x1 DUP1 SLOAD PUSH1 0x0 DUP2 DUP2 MSTORE PUSH1 0x20 DUP2 SWAP1 MSTORE PUSH1 0x40 SWAP1 KECCAK256 SWAP1 DUP2 SSTORE SWAP1 DUP2 ADD PUSH2 0x10BC DUP10 DUP3 PUSH2 0x2499 JUMP JUMPDEST POP PUSH1 0x2 DUP2 ADD PUSH2 0x10CB DUP9 DUP3 PUSH2 0x2499 JUMP JUMPDEST POP PUSH1 0x3 DUP2 ADD DUP1 SLOAD PUSH1 0x1 PUSH1 0x1 PUSH1 0xA0 SHL SUB NOT AND CALLER OR SWAP1 SSTORE PUSH1 0x4 DUP2 ADD DUP5 SWAP1 SSTORE TIMESTAMP PUSH1 0x5 DUP3 ADD SSTORE PUSH1 0x9 DUP2 ADD DUP1 SLOAD PUSH1 0xFF NOT AND PUSH1 0x1 OR SWAP1 SSTORE PUSH1 0x0 PUSH1 0x7 DUP3 ADD DUP2 SWAP1 SSTORE PUSH1 0x8 DUP3 ADD DUP2 SWAP1 SSTORE PUSH1 0xA DUP3 ADD DUP2 SWAP1 SSTORE JUMPDEST DUP7 MLOAD DUP2 LT ISZERO PUSH2 0x12F1 JUMPI PUSH1 0x0 DUP8 DUP3 DUP2 MLOAD DUP2 LT PUSH2 0x1131 JUMPI PUSH2 0x1131 PUSH2 0x2348 JUMP JUMPDEST PUSH1 0x20 MUL PUSH1 0x20 ADD ADD MLOAD SWAP1 POP PUSH1 0x0 PUSH1 0x1 PUSH1 0x1 PUSH1 0xA0 SHL SUB AND DUP2 PUSH1 0x1 PUSH1 0x1 PUSH1 0xA0 SHL SUB AND SUB PUSH2 0x1195 JUMPI PUSH1 0x40 MLOAD PUSH3 0x461BCD PUSH1 0xE5 SHL DUP2 MSTORE PUSH1 0x20 PUSH1 0x4 DUP3 ADD MSTORE PUSH1 0x15 PUSH1 0x24 DUP3 ADD MSTORE PUSH21 0x496E76616C6964206A756467652061646472657373 PUSH1 0x58 SHL PUSH1 0x44 DUP3 ADD MSTORE PUSH1 0x64 ADD PUSH2 0x4BB JUMP JUMPDEST PUSH1 0x1 SLOAD PUSH1 0x0 SWAP1 DUP2 MSTORE PUSH1 0x3 PUSH1 0x20 SWAP1 DUP2 MSTORE PUSH1 0x40 DUP1 DUP4 KECCAK256 PUSH1 0x1 PUSH1 0x1 PUSH1 0xA0 SHL SUB DUP6 AND DUP5 MSTORE SWAP1 SWAP2 MSTORE SWAP1 KECCAK256 SLOAD PUSH1 0xFF AND ISZERO PUSH2 0x11FD JUMPI PUSH1 0x40 MLOAD PUSH3 0x461BCD PUSH1 0xE5 SHL DUP2 MSTORE PUSH1 0x20 PUSH1 0x4 DUP3 ADD MSTORE PUSH1 0xF PUSH1 0x24 DUP3 ADD MSTORE PUSH15 0x4475706C6963617465206A75646765 PUSH1 0x88 SHL PUSH1 0x44 DUP3 ADD MSTORE PUSH1 0x64 ADD PUSH2 0x4BB JUMP JUMPDEST PUSH1 0x6 DUP4 ADD DUP1 SLOAD PUSH1 0x1 DUP1 DUP3 ADD DUP4 SSTORE PUSH1 0x0 SWAP3 DUP4 MSTORE PUSH1 0x20 DUP1 DUP5 KECCAK256 SWAP1 SWAP3 ADD DUP1 SLOAD PUSH1 0x1 PUSH1 0x1 PUSH1 0xA0 SHL SUB NOT AND PUSH1 0x1 PUSH1 0x1 PUSH1 0xA0 SHL SUB DUP7 AND SWAP1 DUP2 OR SWAP1 SWAP2 SSTORE DUP2 SLOAD DUP5 MSTORE PUSH1 0x3 DUP4 MSTORE PUSH1 0x40 DUP1 DUP6 KECCAK256 DUP3 DUP7 MSTORE SWAP1 SWAP4 MSTORE SWAP2 SWAP1 SWAP3 KECCAK256 DUP1 SLOAD PUSH1 0xFF NOT AND SWAP1 SWAP3 OR SWAP1 SWAP2 SSTORE PUSH2 0x8FC PUSH2 0x1267 PUSH3 0xF4240 PUSH1 0x5 PUSH2 0x22FA JUMP JUMPDEST PUSH1 0x40 MLOAD DUP2 ISZERO SWAP1 SWAP3 MUL SWAP2 PUSH1 0x0 DUP2 DUP2 DUP2 DUP6 DUP9 DUP9 CALL SWAP4 POP POP POP POP ISZERO DUP1 ISZERO PUSH2 0x128F JUMPI RETURNDATASIZE PUSH1 0x0 DUP1 RETURNDATACOPY RETURNDATASIZE PUSH1 0x0 REVERT JUMPDEST POP PUSH1 0x1 SLOAD PUSH1 0x1 PUSH1 0x1 PUSH1 0xA0 SHL SUB DUP3 AND SWAP1 PUSH32 0x2E52A072F9C8B68344176C3C5AB5EB12950F749471DCEBAA8B0FDC692857A0C9 PUSH2 0x12CD PUSH3 0xF4240 PUSH1 0x5 PUSH2 0x22FA JUMP JUMPDEST PUSH1 0x40 MLOAD SWAP1 DUP2 MSTORE PUSH1 0x20 ADD PUSH1 0x40 MLOAD DUP1 SWAP2 SUB SWAP1 LOG3 POP DUP1 PUSH2 0x12E9 DUP2 PUSH2 0x2371 JUMP JUMPDEST SWAP2 POP POP PUSH2 0x1114 JUMP JUMPDEST POP PUSH2 0x1300 PUSH3 0xF4240 PUSH1 0x64 PUSH2 0x22FA JUMP JUMPDEST PUSH1 0x4 PUSH1 0x0 DUP3 DUP3 SLOAD PUSH2 0x1311 SWAP2 SWAP1 PUSH2 0x235E JUMP JUMPDEST SWAP1 SWAP2 SSTORE POP POP PUSH1 0x1 SLOAD CALLER SWAP1 PUSH32 0xA47AA39D6AC62056016EFA5AF31B5ED4625D9B3BC0B2421AB17322373D65756B DUP11 DUP8 PUSH2 0x134C PUSH3 0xF4240 PUSH1 0x64 PUSH2 0x22FA JUMP JUMPDEST DUP12 MLOAD PUSH1 0x40 MLOAD PUSH2 0x135E SWAP5 SWAP4 SWAP3 SWAP2 SWAP1 PUSH2 0x2559 JUMP JUMPDEST PUSH1 0x40 MLOAD DUP1 SWAP2 SUB SWAP1 LOG3 POP POP POP POP POP POP POP POP JUMP JUMPDEST PUSH2 0x489 PUSH3 0xF4240 PUSH1 0x1 PUSH2 0x22FA JUMP JUMPDEST PUSH1 0x2 PUSH1 0x20 DUP2 DUP2 MSTORE PUSH1 0x0 SWAP4 DUP5 MSTORE PUSH1 0x40 DUP1 DUP6 KECCAK256 SWAP1 SWAP2 MSTORE SWAP2 DUP4 MSTORE SWAP2 KECCAK256 DUP1 SLOAD PUSH1 0x1 DUP3 ADD SLOAD SWAP3 DUP3 ADD DUP1 SLOAD SWAP2 SWAP4 SWAP3 SWAP2 PUSH2 0x13B0 SWAP1 PUSH2 0x2416 JUMP JUMPDEST DUP1 PUSH1 0x1F ADD PUSH1 0x20 DUP1 SWAP2 DIV MUL PUSH1 0x20 ADD PUSH1 0x40 MLOAD SWAP1 DUP2 ADD PUSH1 0x40 MSTORE DUP1 SWAP3 SWAP2 SWAP1 DUP2 DUP2 MSTORE PUSH1 0x20 ADD DUP3 DUP1 SLOAD PUSH2 0x13DC SWAP1 PUSH2 0x2416 JUMP JUMPDEST DUP1 ISZERO PUSH2 0x1429 JUMPI DUP1 PUSH1 0x1F LT PUSH2 0x13FE JUMPI PUSH2 0x100 DUP1 DUP4 SLOAD DIV MUL DUP4 MSTORE SWAP2 PUSH1 0x20 ADD SWAP2 PUSH2 0x1429 JUMP JUMPDEST DUP3 ADD SWAP2 SWAP1 PUSH1 0x0 MSTORE PUSH1 0x20 PUSH1 0x0 KECCAK256 SWAP1 JUMPDEST DUP2 SLOAD DUP2 MSTORE SWAP1 PUSH1 0x1 ADD SWAP1 PUSH1 0x20 ADD DUP1 DUP4 GT PUSH2 0x140C JUMPI DUP3 SWAP1 SUB PUSH1 0x1F AND DUP3 ADD SWAP2 JUMPDEST POP POP POP POP POP SWAP1 DUP1 PUSH1 0x3 ADD DUP1 SLOAD PUSH2 0x143E SWAP1 PUSH2 0x2416 JUMP JUMPDEST DUP1 PUSH1 0x1F ADD PUSH1 0x20 DUP1 SWAP2 DIV MUL PUSH1 0x20 ADD PUSH1 0x40 MLOAD SWAP1 DUP2 ADD PUSH1 0x40 MSTORE DUP1 SWAP3 SWAP2 SWAP1 DUP2 DUP2 MSTORE PUSH1 0x20 ADD DUP3 DUP1 SLOAD PUSH2 0x146A SWAP1 PUSH2 0x2416 JUMP JUMPDEST DUP1 ISZERO PUSH2 0x14B7 JUMPI DUP1 PUSH1 0x1F LT PUSH2 0x148C JUMPI PUSH2 0x100 DUP1 DUP4 SLOAD DIV MUL DUP4 MSTORE SWAP2 PUSH1 0x20 ADD SWAP2 PUSH2 0x14B7 JUMP JUMPDEST DUP3 ADD SWAP2 SWAP1 PUSH1 0x0 MSTORE PUSH1 0x20 PUSH1 0x0 KECCAK256 SWAP1 JUMPDEST DUP2 SLOAD DUP2 MSTORE SWAP1 PUSH1 0x1 ADD SWAP1 PUSH1 0x20 ADD DUP1 DUP4 GT PUSH2 0x149A JUMPI DUP3 SWAP1 SUB PUSH1 0x1F AND DUP3 ADD SWAP2 JUMPDEST POP POP POP POP POP SWAP1 DUP1 PUSH1 0x4 ADD DUP1 SLOAD PUSH2 0x14CC SWAP1 PUSH2 0x2416 JUMP JUMPDEST DUP1 PUSH1 0x1F ADD PUSH1 0x20 DUP1 SWAP2 DIV MUL PUSH1 0x20 ADD PUSH1 0x40 MLOAD SWAP1 DUP2 ADD PUSH1 0x40 MSTORE DUP1 SWAP3 SWAP2 SWAP1 DUP2 DUP2 MSTORE PUSH1 0x20 ADD DUP3 DUP1 SLOAD PUSH2 0x14F8 SWAP1 PUSH2 0x2416 JUMP JUMPDEST DUP1 ISZERO PUSH2 0x1545 JUMPI DUP1 PUSH1 0x1F LT PUSH2 0x151A JUMPI PUSH2 0x100 DUP1 DUP4 SLOAD DIV MUL DUP4 MSTORE SWAP2 PUSH1 0x20 ADD SWAP2 PUSH2 0x1545 JUMP JUMPDEST DUP3 ADD SWAP2 SWAP1 PUSH1 0x0 MSTORE PUSH1 0x20 PUSH1 0x0 KECCAK256 SWAP1 JUMPDEST DUP2 SLOAD DUP2 MSTORE SWAP1 PUSH1 0x1 ADD SWAP1 PUSH1 0x20 ADD DUP1 DUP4 GT PUSH2 0x1528 JUMPI DUP3 SWAP1 SUB PUSH1 0x1F AND DUP3 ADD SWAP2 JUMPDEST POP POP POP POP POP SWAP1 DUP1 PUSH1 0x5 ADD DUP1 SLOAD PUSH2 0x155A SWAP1 PUSH2 0x2416 JUMP JUMPDEST DUP1 PUSH1 0x1F ADD PUSH1 0x20 DUP1 SWAP2 DIV MUL PUSH1 0x20 ADD PUSH1 0x40 MLOAD SWAP1 DUP2 ADD PUSH1 0x40 MSTORE DUP1 SWAP3 SWAP2 SWAP1 DUP2 DUP2 MSTORE PUSH1 0x20 ADD DUP3 DUP1 SLOAD PUSH2 0x1586 SWAP1 PUSH2 0x2416 JUMP JUMPDEST DUP1 ISZERO PUSH2 0x15D3 JUMPI DUP1 PUSH1 0x1F LT PUSH2 0x15A8 JUMPI PUSH2 0x100 DUP1 DUP4 SLOAD DIV MUL DUP4 MSTORE SWAP2 PUSH1 0x20 ADD SWAP2 PUSH2 0x15D3 JUMP JUMPDEST DUP3 ADD SWAP2 SWAP1 PUSH1 0x0 MSTORE PUSH1 0x20 PUSH1 0x0 KECCAK256 SWAP1 JUMPDEST DUP2 SLOAD DUP2 MSTORE SWAP1 PUSH1 0x1 ADD SWAP1 PUSH1 0x20 ADD DUP1 DUP4 GT PUSH2 0x15B6 JUMPI DUP3 SWAP1 SUB PUSH1 0x1F AND DUP3 ADD SWAP2 JUMPDEST POP POP POP POP PUSH1 0x6 DUP4 ADD SLOAD PUSH1 0x7 SWAP1 SWAP4 ADD SLOAD SWAP2 SWAP3 PUSH1 0x1 PUSH1 0x1 PUSH1 0xA0 SHL SUB AND SWAP2 SWAP1 POP DUP9 JUMP JUMPDEST DUP5 PUSH1 0x0 DUP2 GT DUP1 ISZERO PUSH2 0x1606 JUMPI POP PUSH1 0x1 SLOAD DUP2 GT ISZERO JUMPDEST PUSH2 0x1622 JUMPI PUSH1 0x40 MLOAD PUSH3 0x461BCD PUSH1 0xE5 SHL DUP2 MSTORE PUSH1 0x4 ADD PUSH2 0x4BB SWAP1 PUSH2 0x2311 JUMP JUMPDEST PUSH1 0x0 DUP7 DUP2 MSTORE PUSH1 0x20 DUP2 SWAP1 MSTORE PUSH1 0x40 SWAP1 KECCAK256 PUSH1 0x9 ADD SLOAD DUP7 SWAP1 PUSH1 0xFF AND PUSH2 0x167C JUMPI PUSH1 0x40 MLOAD PUSH3 0x461BCD PUSH1 0xE5 SHL DUP2 MSTORE PUSH1 0x20 PUSH1 0x4 DUP3 ADD MSTORE PUSH1 0x14 PUSH1 0x24 DUP3 ADD MSTORE PUSH20 0x4861636B6174686F6E206E6F7420616374697665 PUSH1 0x60 SHL PUSH1 0x44 DUP3 ADD MSTORE PUSH1 0x64 ADD PUSH2 0x4BB JUMP JUMPDEST PUSH2 0x168A PUSH3 0xF4240 PUSH1 0x1 PUSH2 0x22FA JUMP JUMPDEST CALLVALUE LT ISZERO PUSH2 0x16D9 JUMPI PUSH1 0x40 MLOAD PUSH3 0x461BCD PUSH1 0xE5 SHL DUP2 MSTORE PUSH1 0x20 PUSH1 0x4 DUP3 ADD MSTORE PUSH1 0x1B PUSH1 0x24 DUP3 ADD MSTORE PUSH32 0x496E73756666696369656E74207375626D697373696F6E206665650000000000 PUSH1 0x44 DUP3 ADD MSTORE PUSH1 0x64 ADD PUSH2 0x4BB JUMP JUMPDEST PUSH1 0x0 DUP7 MLOAD GT PUSH2 0x1722 JUMPI PUSH1 0x40 MLOAD PUSH3 0x461BCD PUSH1 0xE5 SHL DUP2 MSTORE PUSH1 0x20 PUSH1 0x4 DUP3 ADD MSTORE PUSH1 0x15 PUSH1 0x24 DUP3 ADD MSTORE PUSH21 0x141C9BDA9958DD081B985B59481C995C5D5A5C9959 PUSH1 0x5A SHL PUSH1 0x44 DUP3 ADD MSTORE PUSH1 0x64 ADD PUSH2 0x4BB JUMP JUMPDEST PUSH1 0x0 DUP8 DUP2 MSTORE PUSH1 0x20 DUP2 SWAP1 MSTORE PUSH1 0x40 DUP2 KECCAK256 PUSH1 0xA DUP2 ADD DUP1 SLOAD SWAP2 SWAP3 PUSH2 0x1741 DUP4 PUSH2 0x2371 JUMP JUMPDEST SWAP1 SWAP2 SSTORE POP POP PUSH1 0x0 DUP9 DUP2 MSTORE PUSH1 0x2 PUSH1 0x20 DUP2 DUP2 MSTORE PUSH1 0x40 DUP1 DUP5 KECCAK256 PUSH1 0xA DUP7 ADD SLOAD DUP1 DUP7 MSTORE SWAP3 MSTORE SWAP1 SWAP3 KECCAK256 SWAP2 DUP3 SSTORE PUSH1 0x1 DUP3 ADD DUP11 SWAP1 SSTORE DUP2 ADD PUSH2 0x177A DUP10 DUP3 PUSH2 0x2499 JUMP JUMPDEST POP PUSH1 0x3 DUP2 ADD PUSH2 0x1789 DUP9 DUP3 PUSH2 0x2499 JUMP JUMPDEST POP PUSH1 0x4 DUP2 ADD PUSH2 0x1798 DUP8 DUP3 PUSH2 0x2499 JUMP JUMPDEST POP PUSH1 0x5 DUP2 ADD PUSH2 0x17A7 DUP7 DUP3 PUSH2 0x2499 JUMP JUMPDEST POP PUSH1 0x6 DUP2 ADD DUP1 SLOAD PUSH1 0x1 PUSH1 0x1 PUSH1 0xA0 SHL SUB NOT AND CALLER OR SWAP1 SSTORE TIMESTAMP PUSH1 0x7 DUP3 ADD SSTORE PUSH1 0x0 PUSH1 0x64 PUSH1 0x14 PUSH2 0x17D6 PUSH3 0xF4240 PUSH1 0x1 PUSH2 0x22FA JUMP JUMPDEST PUSH2 0x17E0 SWAP2 SWAP1 PUSH2 0x22FA JUMP JUMPDEST PUSH2 0x17EA SWAP2 SWAP1 PUSH2 0x23F4 JUMP JUMPDEST SWAP1 POP PUSH1 0x0 PUSH1 0x64 PUSH1 0x50 PUSH2 0x1800 PUSH3 0xF4240 PUSH1 0x1 PUSH2 0x22FA JUMP JUMPDEST PUSH2 0x180A SWAP2 SWAP1 PUSH2 0x22FA JUMP JUMPDEST PUSH2 0x1814 SWAP2 SWAP1 PUSH2 0x23F4 JUMP JUMPDEST SWAP1 POP DUP2 DUP5 PUSH1 0x8 ADD PUSH1 0x0 DUP3 DUP3 SLOAD PUSH2 0x182A SWAP2 SWAP1 PUSH2 0x235E JUMP JUMPDEST SWAP3 POP POP DUP2 SWAP1 SSTORE POP DUP1 DUP5 PUSH1 0x7 ADD PUSH1 0x0 DUP3 DUP3 SLOAD PUSH2 0x1845 SWAP2 SWAP1 PUSH2 0x235E JUMP JUMPDEST SWAP1 SWAP2 SSTORE POP POP PUSH1 0xA DUP5 ADD SLOAD CALLER SWAP1 DUP13 PUSH32 0x86EF949D57E272497938A9A14DFFA96F0273668710EF813D2BC69C1587B28BFE DUP14 PUSH2 0x1882 PUSH3 0xF4240 PUSH1 0x1 PUSH2 0x22FA JUMP JUMPDEST PUSH1 0x40 MLOAD PUSH2 0x1890 SWAP3 SWAP2 SWAP1 PUSH2 0x2588 JUMP JUMPDEST PUSH1 0x40 MLOAD DUP1 SWAP2 SUB SWAP1 LOG4 POP POP POP POP POP POP POP POP POP POP POP JUMP JUMPDEST PUSH1 0x0 PUSH1 0x20 DUP2 SWAP1 MSTORE SWAP1 DUP2 MSTORE PUSH1 0x40 SWAP1 KECCAK256 DUP1 SLOAD PUSH1 0x1 DUP3 ADD DUP1 SLOAD SWAP2 SWAP3 SWAP2 PUSH2 0x18C7 SWAP1 PUSH2 0x2416 JUMP JUMPDEST DUP1 PUSH1 0x1F ADD PUSH1 0x20 DUP1 SWAP2 DIV MUL PUSH1 0x20 ADD PUSH1 0x40 MLOAD SWAP1 DUP2 ADD PUSH1 0x40 MSTORE DUP1 SWAP3 SWAP2 SWAP1 DUP2 DUP2 MSTORE PUSH1 0x20 ADD DUP3 DUP1 SLOAD PUSH2 0x18F3 SWAP1 PUSH2 0x2416 JUMP JUMPDEST DUP1 ISZERO PUSH2 0x1940 JUMPI DUP1 PUSH1 0x1F LT PUSH2 0x1915 JUMPI PUSH2 0x100 DUP1 DUP4 SLOAD DIV MUL DUP4 MSTORE SWAP2 PUSH1 0x20 ADD SWAP2 PUSH2 0x1940 JUMP JUMPDEST DUP3 ADD SWAP2 SWAP1 PUSH1 0x0 MSTORE PUSH1 0x20 PUSH1 0x0 KECCAK256 SWAP1 JUMPDEST DUP2 SLOAD DUP2 MSTORE SWAP1 PUSH1 0x1 ADD SWAP1 PUSH1 0x20 ADD DUP1 DUP4 GT PUSH2 0x1923 JUMPI DUP3 SWAP1 SUB PUSH1 0x1F AND DUP3 ADD SWAP2 JUMPDEST POP POP POP POP POP SWAP1 DUP1 PUSH1 0x2 ADD DUP1 SLOAD PUSH2 0x1955 SWAP1 PUSH2 0x2416 JUMP JUMPDEST DUP1 PUSH1 0x1F ADD PUSH1 0x20 DUP1 SWAP2 DIV MUL PUSH1 0x20 ADD PUSH1 0x40 MLOAD SWAP1 DUP2 ADD PUSH1 0x40 MSTORE DUP1 SWAP3 SWAP2 SWAP1 DUP2 DUP2 MSTORE PUSH1 0x20 ADD DUP3 DUP1 SLOAD PUSH2 0x1981 SWAP1 PUSH2 0x2416 JUMP JUMPDEST DUP1 ISZERO PUSH2 0x19CE JUMPI DUP1 PUSH1 0x1F LT PUSH2 0x19A3 JUMPI PUSH2 0x100 DUP1 DUP4 SLOAD DIV MUL DUP4 MSTORE SWAP2 PUSH1 0x20 ADD SWAP2 PUSH2 0x19CE JUMP JUMPDEST DUP3 ADD SWAP2 SWAP1 PUSH1 0x0 MSTORE PUSH1 0x20 PUSH1 0x0 KECCAK256 SWAP1 JUMPDEST DUP2 SLOAD DUP2 MSTORE SWAP1 PUSH1 0x1 ADD SWAP1 PUSH1 0x20 ADD DUP1 DUP4 GT PUSH2 0x19B1 JUMPI DUP3 SWAP1 SUB PUSH1 0x1F AND DUP3 ADD SWAP2 JUMPDEST POP POP POP POP PUSH1 0x3 DUP4 ADD SLOAD PUSH1 0x4 DUP5 ADD SLOAD PUSH1 0x5 DUP6 ADD SLOAD PUSH1 0x7 DUP7 ADD SLOAD PUSH1 0x8 DUP8 ADD SLOAD PUSH1 0x9 DUP9 ADD SLOAD PUSH1 0xA SWAP1 SWAP9 ADD SLOAD SWAP7 SWAP8 PUSH1 0x1 PUSH1 0x1 PUSH1 0xA0 SHL SUB SWAP1 SWAP6 AND SWAP7 SWAP4 SWAP6 POP SWAP2 SWAP4 SWAP1 SWAP3 PUSH1 0xFF SWAP1 SWAP2 AND SWAP1 DUP11 JUMP JUMPDEST PUSH2 0x489 PUSH3 0xF4240 PUSH1 0x64 PUSH2 0x22FA JUMP JUMPDEST PUSH1 0x5 SLOAD PUSH1 0x1 PUSH1 0x1 PUSH1 0xA0 SHL SUB AND CALLER EQ PUSH2 0x1A72 JUMPI PUSH1 0x40 MLOAD PUSH3 0x461BCD PUSH1 0xE5 SHL DUP2 MSTORE PUSH1 0x20 PUSH1 0x4 DUP3 ADD MSTORE PUSH1 0x13 PUSH1 0x24 DUP3 ADD MSTORE PUSH19 0x27B7363C90383630BA3337B9369037BBB732B9 PUSH1 0x69 SHL PUSH1 0x44 DUP3 ADD MSTORE PUSH1 0x64 ADD PUSH2 0x4BB JUMP JUMPDEST PUSH1 0x0 PUSH1 0x4 SLOAD GT PUSH2 0x1ABA JUMPI PUSH1 0x40 MLOAD PUSH3 0x461BCD PUSH1 0xE5 SHL DUP2 MSTORE PUSH1 0x20 PUSH1 0x4 DUP3 ADD MSTORE PUSH1 0x13 PUSH1 0x24 DUP3 ADD MSTORE PUSH19 0x4E6F206665657320746F207769746864726177 PUSH1 0x68 SHL PUSH1 0x44 DUP3 ADD MSTORE PUSH1 0x64 ADD PUSH2 0x4BB JUMP JUMPDEST PUSH1 0x4 DUP1 SLOAD PUSH1 0x0 SWAP2 DUP3 SWAP1 SSTORE PUSH1 0x5 SLOAD PUSH1 0x40 MLOAD SWAP2 SWAP3 PUSH1 0x1 PUSH1 0x1 PUSH1 0xA0 SHL SUB SWAP1 SWAP2 AND SWAP2 DUP4 ISZERO PUSH2 0x8FC MUL SWAP2 DUP5 SWAP2 SWAP1 DUP2 DUP2 DUP2 DUP6 DUP9 DUP9 CALL SWAP4 POP POP POP POP ISZERO DUP1 ISZERO PUSH2 0x1AFF JUMPI RETURNDATASIZE PUSH1 0x0 DUP1 RETURNDATACOPY RETURNDATASIZE PUSH1 0x0 REVERT JUMPDEST POP POP JUMP JUMPDEST PUSH1 0x60 DUP2 PUSH1 0x0 DUP2 GT DUP1 ISZERO PUSH2 0x1B18 JUMPI POP PUSH1 0x1 SLOAD DUP2 GT ISZERO JUMPDEST PUSH2 0x1B34 JUMPI PUSH1 0x40 MLOAD PUSH3 0x461BCD PUSH1 0xE5 SHL DUP2 MSTORE PUSH1 0x4 ADD PUSH2 0x4BB SWAP1 PUSH2 0x2311 JUMP JUMPDEST PUSH1 0x0 DUP4 DUP2 MSTORE PUSH1 0x20 DUP2 DUP2 MSTORE PUSH1 0x40 SWAP2 DUP3 SWAP1 KECCAK256 PUSH1 0x6 ADD DUP1 SLOAD DUP4 MLOAD DUP2 DUP5 MUL DUP2 ADD DUP5 ADD SWAP1 SWAP5 MSTORE DUP1 DUP5 MSTORE SWAP1 SWAP2 DUP4 ADD DUP3 DUP3 DUP1 ISZERO PUSH2 0x1B93 JUMPI PUSH1 0x20 MUL DUP3 ADD SWAP2 SWAP1 PUSH1 0x0 MSTORE PUSH1 0x20 PUSH1 0x0 KECCAK256 SWAP1 JUMPDEST DUP2 SLOAD PUSH1 0x1 PUSH1 0x1 PUSH1 0xA0 SHL SUB AND DUP2 MSTORE PUSH1 0x1 SWAP1 SWAP2 ADD SWAP1 PUSH1 0x20 ADD DUP1 DUP4 GT PUSH2 0x1B75 JUMPI JUMPDEST POP POP POP POP POP SWAP2 POP JUMPDEST POP SWAP2 SWAP1 POP JUMP JUMPDEST PUSH1 0x0 PUSH2 0xC17 PUSH3 0xF4240 DUP4 PUSH2 0x22FA JUMP JUMPDEST PUSH4 0x4E487B71 PUSH1 0xE0 SHL PUSH1 0x0 MSTORE PUSH1 0x41 PUSH1 0x4 MSTORE PUSH1 0x24 PUSH1 0x0 REVERT JUMPDEST PUSH1 0x40 MLOAD PUSH1 0x60 DUP2 ADD PUSH8 0xFFFFFFFFFFFFFFFF DUP2 GT DUP3 DUP3 LT OR ISZERO PUSH2 0x1BE9 JUMPI PUSH2 0x1BE9 PUSH2 0x1BB0 JUMP JUMPDEST PUSH1 0x40 MSTORE SWAP1 JUMP JUMPDEST PUSH1 0x40 MLOAD PUSH1 0x1F DUP3 ADD PUSH1 0x1F NOT AND DUP2 ADD PUSH8 0xFFFFFFFFFFFFFFFF DUP2 GT DUP3 DUP3 LT OR ISZERO PUSH2 0x1C18 JUMPI PUSH2 0x1C18 PUSH2 0x1BB0 JUMP JUMPDEST PUSH1 0x40 MSTORE SWAP2 SWAP1 POP JUMP JUMPDEST PUSH1 0x0 PUSH8 0xFFFFFFFFFFFFFFFF DUP3 GT ISZERO PUSH2 0x1C3A JUMPI PUSH2 0x1C3A PUSH2 0x1BB0 JUMP JUMPDEST POP PUSH1 0x5 SHL PUSH1 0x20 ADD SWAP1 JUMP JUMPDEST DUP1 CALLDATALOAD PUSH1 0x1 PUSH1 0x1 PUSH1 0xA0 SHL SUB DUP2 AND DUP2 EQ PUSH2 0x1C5B JUMPI PUSH1 0x0 DUP1 REVERT JUMPDEST SWAP2 SWAP1 POP JUMP JUMPDEST PUSH1 0x0 DUP3 PUSH1 0x1F DUP4 ADD SLT PUSH2 0x1C71 JUMPI PUSH1 0x0 DUP1 REVERT JUMPDEST DUP2 CALLDATALOAD PUSH1 0x20 PUSH2 0x1C86 PUSH2 0x1C81 DUP4 PUSH2 0x1C20 JUMP JUMPDEST PUSH2 0x1BEF JUMP JUMPDEST DUP3 DUP2 MSTORE PUSH1 0x5 SWAP3 SWAP1 SWAP3 SHL DUP5 ADD DUP2 ADD SWAP2 DUP2 DUP2 ADD SWAP1 DUP7 DUP5 GT ISZERO PUSH2 0x1CA5 JUMPI PUSH1 0x0 DUP1 REVERT JUMPDEST DUP3 DUP7 ADD JUMPDEST DUP5 DUP2 LT ISZERO PUSH2 0x1CC7 JUMPI PUSH2 0x1CBA DUP2 PUSH2 0x1C44 JUMP JUMPDEST DUP4 MSTORE SWAP2 DUP4 ADD SWAP2 DUP4 ADD PUSH2 0x1CA9 JUMP JUMPDEST POP SWAP7 SWAP6 POP POP POP POP POP POP JUMP JUMPDEST PUSH1 0x0 DUP1 PUSH1 0x0 PUSH1 0x60 DUP5 DUP7 SUB SLT ISZERO PUSH2 0x1CE7 JUMPI PUSH1 0x0 DUP1 REVERT JUMPDEST DUP4 CALLDATALOAD SWAP3 POP PUSH1 0x20 DUP1 DUP6 ADD CALLDATALOAD PUSH8 0xFFFFFFFFFFFFFFFF DUP1 DUP3 GT ISZERO PUSH2 0x1D07 JUMPI PUSH1 0x0 DUP1 REVERT JUMPDEST PUSH2 0x1D13 DUP9 DUP4 DUP10 ADD PUSH2 0x1C60 JUMP JUMPDEST SWAP5 POP PUSH1 0x40 DUP8 ADD CALLDATALOAD SWAP2 POP DUP1 DUP3 GT ISZERO PUSH2 0x1D29 JUMPI PUSH1 0x0 DUP1 REVERT JUMPDEST POP DUP6 ADD PUSH1 0x1F DUP2 ADD DUP8 SGT PUSH2 0x1D3B JUMPI PUSH1 0x0 DUP1 REVERT JUMPDEST DUP1 CALLDATALOAD PUSH2 0x1D49 PUSH2 0x1C81 DUP3 PUSH2 0x1C20 JUMP JUMPDEST DUP2 DUP2 MSTORE PUSH1 0x5 SWAP2 SWAP1 SWAP2 SHL DUP3 ADD DUP4 ADD SWAP1 DUP4 DUP2 ADD SWAP1 DUP10 DUP4 GT ISZERO PUSH2 0x1D68 JUMPI PUSH1 0x0 DUP1 REVERT JUMPDEST SWAP3 DUP5 ADD SWAP3 JUMPDEST DUP3 DUP5 LT ISZERO PUSH2 0x1D86 JUMPI DUP4 CALLDATALOAD DUP3 MSTORE SWAP3 DUP5 ADD SWAP3 SWAP1 DUP5 ADD SWAP1 PUSH2 0x1D6D JUMP JUMPDEST DUP1 SWAP6 POP POP POP POP POP POP SWAP3 POP SWAP3 POP SWAP3 JUMP JUMPDEST PUSH1 0x0 PUSH1 0x20 DUP3 DUP5 SUB SLT ISZERO PUSH2 0x1DA7 JUMPI PUSH1 0x0 DUP1 REVERT JUMPDEST POP CALLDATALOAD SWAP2 SWAP1 POP JUMP JUMPDEST PUSH1 0x0 DUP2 MLOAD DUP1 DUP5 MSTORE PUSH1 0x0 JUMPDEST DUP2 DUP2 LT ISZERO PUSH2 0x1DD4 JUMPI PUSH1 0x20 DUP2 DUP6 ADD DUP2 ADD MLOAD DUP7 DUP4 ADD DUP3 ADD MSTORE ADD PUSH2 0x1DB8 JUMP JUMPDEST POP PUSH1 0x0 PUSH1 0x20 DUP3 DUP7 ADD ADD MSTORE PUSH1 0x20 PUSH1 0x1F NOT PUSH1 0x1F DUP4 ADD AND DUP6 ADD ADD SWAP2 POP POP SWAP3 SWAP2 POP POP JUMP JUMPDEST PUSH1 0xE0 DUP2 MSTORE PUSH1 0x0 PUSH2 0x1E07 PUSH1 0xE0 DUP4 ADD DUP11 PUSH2 0x1DAE JUMP JUMPDEST DUP3 DUP2 SUB PUSH1 0x20 DUP5 ADD MSTORE PUSH2 0x1E19 DUP2 DUP11 PUSH2 0x1DAE JUMP JUMPDEST PUSH1 0x1 PUSH1 0x1 PUSH1 0xA0 SHL SUB SWAP9 SWAP1 SWAP9 AND PUSH1 0x40 DUP5 ADD MSTORE POP POP PUSH1 0x60 DUP2 ADD SWAP5 SWAP1 SWAP5 MSTORE PUSH1 0x80 DUP5 ADD SWAP3 SWAP1 SWAP3 MSTORE PUSH1 0xA0 DUP4 ADD MSTORE ISZERO ISZERO PUSH1 0xC0 SWAP1 SWAP2 ADD MSTORE SWAP3 SWAP2 POP POP JUMP JUMPDEST PUSH1 0x0 DUP1 PUSH1 0x40 DUP4 DUP6 SUB SLT ISZERO PUSH2 0x1E62 JUMPI PUSH1 0x0 DUP1 REVERT JUMPDEST POP POP DUP1 CALLDATALOAD SWAP3 PUSH1 0x20 SWAP1 SWAP2 ADD CALLDATALOAD SWAP2 POP JUMP JUMPDEST PUSH1 0xC0 DUP2 MSTORE PUSH1 0x0 PUSH2 0x1E84 PUSH1 0xC0 DUP4 ADD DUP10 PUSH2 0x1DAE JUMP JUMPDEST DUP3 DUP2 SUB PUSH1 0x20 DUP5 ADD MSTORE PUSH2 0x1E96 DUP2 DUP10 PUSH2 0x1DAE JUMP JUMPDEST SWAP1 POP DUP3 DUP2 SUB PUSH1 0x40 DUP5 ADD MSTORE PUSH2 0x1EAA DUP2 DUP9 PUSH2 0x1DAE JUMP JUMPDEST SWAP1 POP DUP3 DUP2 SUB PUSH1 0x60 DUP5 ADD MSTORE PUSH2 0x1EBE DUP2 DUP8 PUSH2 0x1DAE JUMP JUMPDEST PUSH1 0x1 PUSH1 0x1 PUSH1 0xA0 SHL SUB SWAP6 SWAP1 SWAP6 AND PUSH1 0x80 DUP5 ADD MSTORE POP POP PUSH1 0xA0 ADD MSTORE SWAP5 SWAP4 POP POP POP POP JUMP JUMPDEST PUSH1 0x0 DUP3 PUSH1 0x1F DUP4 ADD SLT PUSH2 0x1EEE JUMPI PUSH1 0x0 DUP1 REVERT JUMPDEST DUP2 CALLDATALOAD PUSH8 0xFFFFFFFFFFFFFFFF DUP2 GT ISZERO PUSH2 0x1F08 JUMPI PUSH2 0x1F08 PUSH2 0x1BB0 JUMP JUMPDEST PUSH2 0x1F1B PUSH1 0x1F DUP3 ADD PUSH1 0x1F NOT AND PUSH1 0x20 ADD PUSH2 0x1BEF JUMP JUMPDEST DUP2 DUP2 MSTORE DUP5 PUSH1 0x20 DUP4 DUP7 ADD ADD GT ISZERO PUSH2 0x1F30 JUMPI PUSH1 0x0 DUP1 REVERT JUMPDEST DUP2 PUSH1 0x20 DUP6 ADD PUSH1 0x20 DUP4 ADD CALLDATACOPY PUSH1 0x0 SWAP2 DUP2 ADD PUSH1 0x20 ADD SWAP2 SWAP1 SWAP2 MSTORE SWAP4 SWAP3 POP POP POP JUMP JUMPDEST PUSH1 0x0 DUP1 PUSH1 0x0 DUP1 PUSH1 0x80 DUP6 DUP8 SUB SLT ISZERO PUSH2 0x1F63 JUMPI PUSH1 0x0 DUP1 REVERT JUMPDEST PUSH8 0xFFFFFFFFFFFFFFFF DUP1 DUP7 CALLDATALOAD GT ISZERO PUSH2 0x1F7A JUMPI PUSH1 0x0 DUP1 REVERT JUMPDEST PUSH2 0x1F87 DUP8 DUP8 CALLDATALOAD DUP9 ADD PUSH2 0x1EDD JUMP JUMPDEST SWAP5 POP PUSH1 0x20 DUP7 ADD CALLDATALOAD DUP2 DUP2 GT ISZERO PUSH2 0x1F9B JUMPI PUSH1 0x0 DUP1 REVERT JUMPDEST PUSH2 0x1FA7 DUP9 DUP3 DUP10 ADD PUSH2 0x1EDD JUMP JUMPDEST SWAP5 POP POP PUSH1 0x40 DUP7 ADD CALLDATALOAD DUP2 DUP2 GT ISZERO PUSH2 0x1FBC JUMPI PUSH1 0x0 DUP1 REVERT JUMPDEST PUSH2 0x1FC8 DUP9 DUP3 DUP10 ADD PUSH2 0x1C60 JUMP JUMPDEST SWAP4 POP POP PUSH1 0x60 DUP7 ADD CALLDATALOAD DUP2 DUP2 GT ISZERO PUSH2 0x1FDD JUMPI PUSH1 0x0 DUP1 REVERT JUMPDEST DUP7 ADD PUSH1 0x1F DUP2 ADD DUP9 SGT PUSH2 0x1FEE JUMPI PUSH1 0x0 DUP1 REVERT JUMPDEST DUP1 CALLDATALOAD PUSH2 0x1FFC PUSH2 0x1C81 DUP3 PUSH2 0x1C20 JUMP JUMPDEST DUP1 DUP3 DUP3 MSTORE PUSH1 0x20 DUP3 ADD SWAP2 POP PUSH1 0x20 DUP4 PUSH1 0x5 SHL DUP6 ADD ADD SWAP3 POP DUP11 DUP4 GT ISZERO PUSH2 0x201E JUMPI PUSH1 0x0 DUP1 REVERT JUMPDEST PUSH1 0x20 DUP5 ADD JUMPDEST DUP4 DUP2 LT ISZERO PUSH2 0x20A2 JUMPI DUP6 DUP2 CALLDATALOAD GT ISZERO PUSH2 0x2039 JUMPI PUSH1 0x0 DUP1 REVERT JUMPDEST DUP1 CALLDATALOAD DUP6 ADD PUSH1 0x60 DUP2 DUP15 SUB PUSH1 0x1F NOT ADD SLT ISZERO PUSH2 0x2051 JUMPI PUSH1 0x0 DUP1 REVERT JUMPDEST PUSH2 0x2059 PUSH2 0x1BC6 JUMP JUMPDEST PUSH1 0x20 DUP3 ADD CALLDATALOAD DUP9 DUP2 GT ISZERO PUSH2 0x206B JUMPI PUSH1 0x0 DUP1 REVERT JUMPDEST PUSH2 0x207A DUP16 PUSH1 0x20 DUP4 DUP7 ADD ADD PUSH2 0x1EDD JUMP JUMPDEST DUP3 MSTORE POP PUSH1 0x40 DUP3 DUP2 ADD CALLDATALOAD PUSH1 0x20 DUP1 DUP5 ADD SWAP2 SWAP1 SWAP2 MSTORE PUSH1 0x60 SWAP1 SWAP4 ADD CALLDATALOAD SWAP1 DUP3 ADD MSTORE DUP5 MSTORE SWAP3 DUP4 ADD SWAP3 ADD PUSH2 0x2023 JUMP JUMPDEST POP SWAP8 SWAP11 SWAP7 SWAP10 POP SWAP5 SWAP8 POP POP POP POP POP POP JUMP JUMPDEST PUSH1 0x0 PUSH2 0x100 DUP11 DUP4 MSTORE DUP10 PUSH1 0x20 DUP5 ADD MSTORE DUP1 PUSH1 0x40 DUP5 ADD MSTORE PUSH2 0x20D2 DUP2 DUP5 ADD DUP11 PUSH2 0x1DAE JUMP JUMPDEST SWAP1 POP DUP3 DUP2 SUB PUSH1 0x60 DUP5 ADD MSTORE PUSH2 0x20E6 DUP2 DUP10 PUSH2 0x1DAE JUMP JUMPDEST SWAP1 POP DUP3 DUP2 SUB PUSH1 0x80 DUP5 ADD MSTORE PUSH2 0x20FA DUP2 DUP9 PUSH2 0x1DAE JUMP JUMPDEST SWAP1 POP DUP3 DUP2 SUB PUSH1 0xA0 DUP5 ADD MSTORE PUSH2 0x210E DUP2 DUP8 PUSH2 0x1DAE JUMP JUMPDEST PUSH1 0x1 PUSH1 0x1 PUSH1 0xA0 SHL SUB SWAP6 SWAP1 SWAP6 AND PUSH1 0xC0 DUP5 ADD MSTORE POP POP PUSH1 0xE0 ADD MSTORE SWAP7 SWAP6 POP POP POP POP POP POP JUMP JUMPDEST PUSH1 0x0 DUP1 PUSH1 0x40 DUP4 DUP6 SUB SLT ISZERO PUSH2 0x2142 JUMPI PUSH1 0x0 DUP1 REVERT JUMPDEST DUP3 CALLDATALOAD SWAP2 POP PUSH2 0x2152 PUSH1 0x20 DUP5 ADD PUSH2 0x1C44 JUMP JUMPDEST SWAP1 POP SWAP3 POP SWAP3 SWAP1 POP JUMP JUMPDEST PUSH1 0x0 DUP1 PUSH1 0x0 DUP1 PUSH1 0x0 PUSH1 0xA0 DUP7 DUP9 SUB SLT ISZERO PUSH2 0x2173 JUMPI PUSH1 0x0 DUP1 REVERT JUMPDEST DUP6 CALLDATALOAD SWAP5 POP PUSH1 0x20 DUP7 ADD CALLDATALOAD PUSH8 0xFFFFFFFFFFFFFFFF DUP1 DUP3 GT ISZERO PUSH2 0x2192 JUMPI PUSH1 0x0 DUP1 REVERT JUMPDEST PUSH2 0x219E DUP10 DUP4 DUP11 ADD PUSH2 0x1EDD JUMP JUMPDEST SWAP6 POP PUSH1 0x40 DUP9 ADD CALLDATALOAD SWAP2 POP DUP1 DUP3 GT ISZERO PUSH2 0x21B4 JUMPI PUSH1 0x0 DUP1 REVERT JUMPDEST PUSH2 0x21C0 DUP10 DUP4 DUP11 ADD PUSH2 0x1EDD JUMP JUMPDEST SWAP5 POP PUSH1 0x60 DUP9 ADD CALLDATALOAD SWAP2 POP DUP1 DUP3 GT ISZERO PUSH2 0x21D6 JUMPI PUSH1 0x0 DUP1 REVERT JUMPDEST PUSH2 0x21E2 DUP10 DUP4 DUP11 ADD PUSH2 0x1EDD JUMP JUMPDEST SWAP4 POP PUSH1 0x80 DUP9 ADD CALLDATALOAD SWAP2 POP DUP1 DUP3 GT ISZERO PUSH2 0x21F8 JUMPI PUSH1 0x0 DUP1 REVERT JUMPDEST POP PUSH2 0x2205 DUP9 DUP3 DUP10 ADD PUSH2 0x1EDD JUMP JUMPDEST SWAP2 POP POP SWAP3 SWAP6 POP SWAP3 SWAP6 SWAP1 SWAP4 POP JUMP JUMPDEST PUSH1 0x0 PUSH2 0x140 DUP13 DUP4 MSTORE DUP1 PUSH1 0x20 DUP5 ADD MSTORE PUSH2 0x222C DUP2 DUP5 ADD DUP14 PUSH2 0x1DAE JUMP JUMPDEST SWAP1 POP DUP3 DUP2 SUB PUSH1 0x40 DUP5 ADD MSTORE PUSH2 0x2240 DUP2 DUP13 PUSH2 0x1DAE JUMP JUMPDEST PUSH1 0x1 PUSH1 0x1 PUSH1 0xA0 SHL SUB SWAP11 SWAP1 SWAP11 AND PUSH1 0x60 DUP5 ADD MSTORE POP POP PUSH1 0x80 DUP2 ADD SWAP7 SWAP1 SWAP7 MSTORE PUSH1 0xA0 DUP7 ADD SWAP5 SWAP1 SWAP5 MSTORE PUSH1 0xC0 DUP6 ADD SWAP3 SWAP1 SWAP3 MSTORE PUSH1 0xE0 DUP5 ADD MSTORE ISZERO ISZERO PUSH2 0x100 DUP4 ADD MSTORE PUSH2 0x120 SWAP1 SWAP2 ADD MSTORE SWAP4 SWAP3 POP POP POP JUMP JUMPDEST PUSH1 0x0 DUP2 MLOAD DUP1 DUP5 MSTORE PUSH1 0x20 DUP1 DUP6 ADD SWAP5 POP DUP1 DUP5 ADD PUSH1 0x0 JUMPDEST DUP4 DUP2 LT ISZERO PUSH2 0x22BF JUMPI DUP2 MLOAD PUSH1 0x1 PUSH1 0x1 PUSH1 0xA0 SHL SUB AND DUP8 MSTORE SWAP6 DUP3 ADD SWAP6 SWAP1 DUP3 ADD SWAP1 PUSH1 0x1 ADD PUSH2 0x229A JUMP JUMPDEST POP SWAP5 SWAP6 SWAP5 POP POP POP POP POP JUMP JUMPDEST PUSH1 0x20 DUP2 MSTORE PUSH1 0x0 PUSH2 0x22DD PUSH1 0x20 DUP4 ADD DUP5 PUSH2 0x2286 JUMP JUMPDEST SWAP4 SWAP3 POP POP POP JUMP JUMPDEST PUSH4 0x4E487B71 PUSH1 0xE0 SHL PUSH1 0x0 MSTORE PUSH1 0x11 PUSH1 0x4 MSTORE PUSH1 0x24 PUSH1 0x0 REVERT JUMPDEST DUP1 DUP3 MUL DUP2 ISZERO DUP3 DUP3 DIV DUP5 EQ OR PUSH2 0xC17 JUMPI PUSH2 0xC17 PUSH2 0x22E4 JUMP JUMPDEST PUSH1 0x20 DUP1 DUP3 MSTORE PUSH1 0x18 SWAP1 DUP3 ADD MSTORE PUSH32 0x4861636B6174686F6E20646F6573206E6F742065786973740000000000000000 PUSH1 0x40 DUP3 ADD MSTORE PUSH1 0x60 ADD SWAP1 JUMP JUMPDEST PUSH4 0x4E487B71 PUSH1 0xE0 SHL PUSH1 0x0 MSTORE PUSH1 0x32 PUSH1 0x4 MSTORE PUSH1 0x24 PUSH1 0x0 REVERT JUMPDEST DUP1 DUP3 ADD DUP1 DUP3 GT ISZERO PUSH2 0xC17 JUMPI PUSH2 0xC17 PUSH2 0x22E4 JUMP JUMPDEST PUSH1 0x0 PUSH1 0x1 DUP3 ADD PUSH2 0x2383 JUMPI PUSH2 0x2383 PUSH2 0x22E4 JUMP JUMPDEST POP PUSH1 0x1 ADD SWAP1 JUMP JUMPDEST DUP2 DUP2 SUB DUP2 DUP2 GT ISZERO PUSH2 0xC17 JUMPI PUSH2 0xC17 PUSH2 0x22E4 JUMP JUMPDEST PUSH1 0x40 DUP2 MSTORE PUSH1 0x0 PUSH2 0x23B0 PUSH1 0x40 DUP4 ADD DUP6 PUSH2 0x2286 JUMP JUMPDEST DUP3 DUP2 SUB PUSH1 0x20 DUP5 DUP2 ADD SWAP2 SWAP1 SWAP2 MSTORE DUP5 MLOAD DUP1 DUP4 MSTORE DUP6 DUP3 ADD SWAP3 DUP3 ADD SWAP1 PUSH1 0x0 JUMPDEST DUP2 DUP2 LT ISZERO PUSH2 0x23E7 JUMPI DUP5 MLOAD DUP4 MSTORE SWAP4 DUP4 ADD SWAP4 SWAP2 DUP4 ADD SWAP2 PUSH1 0x1 ADD PUSH2 0x23CB JUMP JUMPDEST POP SWAP1 SWAP8 SWAP7 POP POP POP POP POP POP POP JUMP JUMPDEST PUSH1 0x0 DUP3 PUSH2 0x2411 JUMPI PUSH4 0x4E487B71 PUSH1 0xE0 SHL PUSH1 0x0 MSTORE PUSH1 0x12 PUSH1 0x4 MSTORE PUSH1 0x24 PUSH1 0x0 REVERT JUMPDEST POP DIV SWAP1 JUMP JUMPDEST PUSH1 0x1 DUP2 DUP2 SHR SWAP1 DUP3 AND DUP1 PUSH2 0x242A JUMPI PUSH1 0x7F DUP3 AND SWAP2 POP JUMPDEST PUSH1 0x20 DUP3 LT DUP2 SUB PUSH2 0x1B9B JUMPI PUSH4 0x4E487B71 PUSH1 0xE0 SHL PUSH1 0x0 MSTORE PUSH1 0x22 PUSH1 0x4 MSTORE PUSH1 0x24 PUSH1 0x0 REVERT JUMPDEST PUSH1 0x1F DUP3 GT ISZERO PUSH2 0x2494 JUMPI PUSH1 0x0 DUP2 DUP2 MSTORE PUSH1 0x20 DUP2 KECCAK256 PUSH1 0x1F DUP6 ADD PUSH1 0x5 SHR DUP2 ADD PUSH1 0x20 DUP7 LT ISZERO PUSH2 0x2471 JUMPI POP DUP1 JUMPDEST PUSH1 0x1F DUP6 ADD PUSH1 0x5 SHR DUP3 ADD SWAP2 POP JUMPDEST DUP2 DUP2 LT ISZERO PUSH2 0x2490 JUMPI DUP3 DUP2 SSTORE PUSH1 0x1 ADD PUSH2 0x247D JUMP JUMPDEST POP POP POP JUMPDEST POP POP POP JUMP JUMPDEST DUP2 MLOAD PUSH8 0xFFFFFFFFFFFFFFFF DUP2 GT ISZERO PUSH2 0x24B3 JUMPI PUSH2 0x24B3 PUSH2 0x1BB0 JUMP JUMPDEST PUSH2 0x24C7 DUP2 PUSH2 0x24C1 DUP5 SLOAD PUSH2 0x2416 JUMP JUMPDEST DUP5 PUSH2 0x244A JUMP JUMPDEST PUSH1 0x20 DUP1 PUSH1 0x1F DUP4 GT PUSH1 0x1 DUP2 EQ PUSH2 0x24FC JUMPI PUSH1 0x0 DUP5 ISZERO PUSH2 0x24E4 JUMPI POP DUP6 DUP4 ADD MLOAD JUMPDEST PUSH1 0x0 NOT PUSH1 0x3 DUP7 SWAP1 SHL SHR NOT AND PUSH1 0x1 DUP6 SWAP1 SHL OR DUP6 SSTORE PUSH2 0x2490 JUMP JUMPDEST PUSH1 0x0 DUP6 DUP2 MSTORE PUSH1 0x20 DUP2 KECCAK256 PUSH1 0x1F NOT DUP7 AND SWAP2 JUMPDEST DUP3 DUP2 LT ISZERO PUSH2 0x252B JUMPI DUP9 DUP7 ADD MLOAD DUP3 SSTORE SWAP5 DUP5 ADD SWAP5 PUSH1 0x1 SWAP1 SWAP2 ADD SWAP1 DUP5 ADD PUSH2 0x250C JUMP JUMPDEST POP DUP6 DUP3 LT ISZERO PUSH2 0x2549 JUMPI DUP8 DUP6 ADD MLOAD PUSH1 0x0 NOT PUSH1 0x3 DUP9 SWAP1 SHL PUSH1 0xF8 AND SHR NOT AND DUP2 SSTORE JUMPDEST POP POP POP POP POP PUSH1 0x1 SWAP1 DUP2 SHL ADD SWAP1 SSTORE POP JUMP JUMPDEST PUSH1 0x80 DUP2 MSTORE PUSH1 0x0 PUSH2 0x256C PUSH1 0x80 DUP4 ADD DUP8 PUSH2 0x1DAE JUMP JUMPDEST PUSH1 0x20 DUP4 ADD SWAP6 SWAP1 SWAP6 MSTORE POP PUSH1 0x40 DUP2 ADD SWAP3 SWAP1 SWAP3 MSTORE PUSH1 0x60 SWAP1 SWAP2 ADD MSTORE SWAP2 SWAP1 POP JUMP JUMPDEST PUSH1 0x40 DUP2 MSTORE PUSH1 0x0 PUSH2 0x259B PUSH1 0x40 DUP4 ADD DUP6 PUSH2 0x1DAE JUMP JUMPDEST SWAP1 POP DUP3 PUSH1 0x20 DUP4 ADD MSTORE SWAP4 SWAP3 POP POP POP JUMP INVALID LOG2 PUSH5 0x6970667358 0x22 SLT KECCAK256 PUSH0 DIV KECCAK256 CALL 0xAA 0xBC PUSH17 0x1EA744B84003762605CCE7E8F7C32BAA68 POP DUP13 0x2A 0xB7 PUSH13 0x30C42264736F6C634300081400 CALLER "},"methodIdentifiers":{"HACKATHON_CREATION_FEE()":"cb29bb72","HACKERCOIN()":"cf290427","JUDGE_BASE_FEE()":"1b77ed24","JUDGE_SHARE_PERCENT()":"adcf5b3d","ORGANIZER_SHARE_PERCENT()":"48d0cb57","SUBMISSION_FEE()":"7d48536d","createHackathon(string,string,address[],(string,uint256,uint256)[])":"5d8c52b3","distributePrizes(uint256,address[],uint256[])":"23fcd3e4","getHackathon(uint256)":"2ca34d93","getJudges(uint256)":"da3c0aa4","getPlatformBalance()":"ba9bf757","getProject(uint256,uint256)":"49df9464","hackathonCount()":"96ab7739","hackathons(uint256)":"c1077194","hackerCoinsToWei(uint256)":"dfbac869","isHackathonJudge(uint256,address)":"d62e08aa","isJudge(uint256,address)":"a25232f5","platformBalance()":"62a5dbbc","platformOwner()":"4df8ccb1","projects(uint256,uint256)":"85818e72","submitProject(uint256,string,string,string,string)":"a3966006","weiToHackerCoins(uint256)":"4657fc6a","withdrawPlatformFees()":"d0b7830b"}}}}}