{"contracts/HackathonPlatform.sol":{"HackathonPlatform":{"abi":[{"anonymous":false,"inputs":[{"indexed":true,"internalType":"uint256","name":"id","type":"uint256"},{"indexed":false,"internalType":"string","name":"name","type":"string"},{"indexed":false,"internalType":"address","name":"organizer","type":"address"}],"name":"HackathonCreated","type":"event"},{"anonymous":false,"inputs":[{"indexed":true,"internalType":"uint256","name":"hackathonId","type":"uint256"},{"indexed":false,"internalType":"address","name":"judge","type":"address"}],"name":"JudgeAdded","type":"event"},{"anonymous":false,"inputs":[{"indexed":true,"internalType":"uint256","name":"hackathonId","type":"uint256"},{"indexed":false,"internalType":"uint256","name":"prizeId","type":"uint256"},{"indexed":false,"internalType":"string","name":"title","type":"string"}],"name":"PrizeAdded","type":"event"},{"anonymous":false,"inputs":[{"indexed":true,"internalType":"uint256","name":"projectId","type":"uint256"},{"indexed":false,"internalType":"address","name":"judge","type":"address"}],"name":"ProjectScored","type":"event"},{"anonymous":false,"inputs":[{"indexed":true,"internalType":"uint256","name":"projectId","type":"uint256"},{"indexed":false,"internalType":"uint256","name":"hackathonId","type":"uint256"},{"indexed":false,"internalType":"string","name":"name","type":"string"}],"name":"ProjectSubmitted","type":"event"},{"anonymous":false,"inputs":[{"indexed":true,"internalType":"uint256","name":"hackathonId","type":"uint256"},{"indexed":false,"internalType":"uint256","name":"scheduleId","type":"uint256"}],"name":"ScheduleAdded","type":"event"},{"anonymous":false,"inputs":[{"indexed":true,"internalType":"uint256","name":"hackathonId","type":"uint256"}],"name":"ScoresReleased","type":"event"},{"inputs":[{"internalType":"uint256","name":"_hackathonId","type":"uint256"},{"internalType":"address","name":"_judge","type":"address"}],"name":"addJudge","outputs":[],"stateMutability":"nonpayable","type":"function"},{"inputs":[{"internalType":"uint256","name":"_hackathonId","type":"uint256"},{"internalType":"string","name":"_title","type":"string"},{"internalType":"string","name":"_description","type":"string"},{"internalType":"uint256","name":"_amount","type":"uint256"},{"internalType":"uint256","name":"_position","type":"uint256"}],"name":"addPrize","outputs":[],"stateMutability":"nonpayable","type":"function"},{"inputs":[{"internalType":"uint256","name":"_hackathonId","type":"uint256"},{"internalType":"string","name":"_eventName","type":"string"},{"internalType":"string","name":"_description","type":"string"},{"internalType":"uint256","name":"_eventTime","type":"uint256"}],"name":"addSchedule","outputs":[],"stateMutability":"nonpayable","type":"function"},{"inputs":[{"internalType":"uint256","name":"_hackathonId","type":"uint256"}],"name":"areScoresReleased","outputs":[{"internalType":"bool","name":"","type":"bool"}],"stateMutability":"view","type":"function"},{"inputs":[{"internalType":"string","name":"_name","type":"string"},{"internalType":"string","name":"_description","type":"string"},{"internalType":"uint256","name":"_startDate","type":"uint256"},{"internalType":"uint256","name":"_endDate","type":"uint256"}],"name":"createHackathon","outputs":[{"internalType":"uint256","name":"","type":"uint256"}],"stateMutability":"nonpayable","type":"function"},{"inputs":[{"internalType":"uint256","name":"_id","type":"uint256"}],"name":"getHackathon","outputs":[{"components":[{"internalType":"uint256","name":"id","type":"uint256"},{"internalType":"string","name":"name","type":"string"},{"internalType":"string","name":"description","type":"string"},{"internalType":"uint256","name":"startDate","type":"uint256"},{"internalType":"uint256","name":"endDate","type":"uint256"},{"internalType":"address","name":"organizer","type":"address"},{"internalType":"bool","name":"isActive","type":"bool"},{"internalType":"uint256","name":"createdAt","type":"uint256"}],"internalType":"struct HackathonPlatform.Hackathon","name":"","type":"tuple"}],"stateMutability":"view","type":"function"},{"inputs":[{"internalType":"uint256","name":"_hackathonId","type":"uint256"}],"name":"getPrizes","outputs":[{"components":[{"internalType":"uint256","name":"id","type":"uint256"},{"internalType":"uint256","name":"hackathonId","type":"uint256"},{"internalType":"string","name":"title","type":"string"},{"internalType":"string","name":"description","type":"string"},{"internalType":"uint256","name":"amount","type":"uint256"},{"internalType":"uint256","name":"position","type":"uint256"}],"internalType":"struct HackathonPlatform.Prize[]","name":"","type":"tuple[]"}],"stateMutability":"view","type":"function"},{"inputs":[{"internalType":"uint256","name":"_hackathonId","type":"uint256"},{"internalType":"uint256","name":"_projectId","type":"uint256"}],"name":"getProjectScores","outputs":[{"components":[{"internalType":"uint256","name":"projectId","type":"uint256"},{"internalType":"address","name":"judge","type":"address"},{"internalType":"uint256","name":"technicalScore","type":"uint256"},{"internalType":"uint256","name":"innovationScore","type":"uint256"},{"internalType":"uint256","name":"presentationScore","type":"uint256"},{"internalType":"uint256","name":"impactScore","type":"uint256"},{"internalType":"string","name":"feedback","type":"string"},{"internalType":"uint256","name":"scoredAt","type":"uint256"}],"internalType":"struct HackathonPlatform.Score[]","name":"","type":"tuple[]"}],"stateMutability":"view","type":"function"},{"inputs":[{"internalType":"uint256","name":"_hackathonId","type":"uint256"}],"name":"getProjects","outputs":[{"components":[{"internalType":"uint256","name":"id","type":"uint256"},{"internalType":"uint256","name":"hackathonId","type":"uint256"},{"internalType":"string","name":"name","type":"string"},{"internalType":"string","name":"description","type":"string"},{"internalType":"string","name":"githubUrl","type":"string"},{"internalType":"string","name":"demoUrl","type":"string"},{"internalType":"address[]","name":"teamMembers","type":"address[]"},{"internalType":"uint256","name":"submittedAt","type":"uint256"}],"internalType":"struct HackathonPlatform.Project[]","name":"","type":"tuple[]"}],"stateMutability":"view","type":"function"},{"inputs":[{"internalType":"uint256","name":"_hackathonId","type":"uint256"}],"name":"getSchedules","outputs":[{"components":[{"internalType":"uint256","name":"id","type":"uint256"},{"internalType":"uint256","name":"hackathonId","type":"uint256"},{"internalType":"string","name":"eventName","type":"string"},{"internalType":"string","name":"description","type":"string"},{"internalType":"uint256","name":"eventTime","type":"uint256"}],"internalType":"struct HackathonPlatform.Schedule[]","name":"","type":"tuple[]"}],"stateMutability":"view","type":"function"},{"inputs":[],"name":"hackathonCount","outputs":[{"internalType":"uint256","name":"","type":"uint256"}],"stateMutability":"view","type":"function"},{"inputs":[{"internalType":"uint256","name":"","type":"uint256"},{"internalType":"address","name":"","type":"address"}],"name":"hackathonJudges","outputs":[{"internalType":"bool","name":"","type":"bool"}],"stateMutability":"view","type":"function"},{"inputs":[{"internalType":"uint256","name":"","type":"uint256"},{"internalType":"uint256","name":"","type":"uint256"}],"name":"hackathonPrizes","outputs":[{"internalType":"uint256","name":"id","type":"uint256"},{"internalType":"uint256","name":"hackathonId","type":"uint256"},{"internalType":"string","name":"title","type":"string"},{"internalType":"string","name":"description","type":"string"},{"internalType":"uint256","name":"amount","type":"uint256"},{"internalType":"uint256","name":"position","type":"uint256"}],"stateMutability":"view","type":"function"},{"inputs":[{"internalType":"uint256","name":"","type":"uint256"},{"internalType":"uint256","name":"","type":"uint256"}],"name":"hackathonProjects","outputs":[{"internalType":"uint256","name":"id","type":"uint256"},{"internalType":"uint256","name":"hackathonId","type":"uint256"},{"internalType":"string","name":"name","type":"string"},{"internalType":"string","name":"description","type":"string"},{"internalType":"string","name":"githubUrl","type":"string"},{"internalType":"string","name":"demoUrl","type":"string"},{"internalType":"uint256","name":"submittedAt","type":"uint256"}],"stateMutability":"view","type":"function"},{"inputs":[{"internalType":"uint256","name":"","type":"uint256"},{"internalType":"uint256","name":"","type":"uint256"}],"name":"hackathonSchedules","outputs":[{"internalType":"uint256","name":"id","type":"uint256"},{"internalType":"uint256","name":"hackathonId","type":"uint256"},{"internalType":"string","name":"eventName","type":"string"},{"internalType":"string","name":"description","type":"string"},{"internalType":"uint256","name":"eventTime","type":"uint256"}],"stateMutability":"view","type":"function"},{"inputs":[{"internalType":"uint256","name":"","type":"uint256"}],"name":"hackathons","outputs":[{"internalType":"uint256","name":"id","type":"uint256"},{"internalType":"string","name":"name","type":"string"},{"internalType":"string","name":"description","type":"string"},{"internalType":"uint256","name":"startDate","type":"uint256"},{"internalType":"uint256","name":"endDate","type":"uint256"},{"internalType":"address","name":"organizer","type":"address"},{"internalType":"bool","name":"isActive","type":"bool"},{"internalType":"uint256","name":"createdAt","type":"uint256"}],"stateMutability":"view","type":"function"},{"inputs":[{"internalType":"uint256","name":"_hackathonId","type":"uint256"},{"internalType":"address","name":"_address","type":"address"}],"name":"isJudge","outputs":[{"internalType":"bool","name":"","type":"bool"}],"stateMutability":"view","type":"function"},{"inputs":[],"name":"prizeCount","outputs":[{"internalType":"uint256","name":"","type":"uint256"}],"stateMutability":"view","type":"function"},{"inputs":[],"name":"projectCount","outputs":[{"internalType":"uint256","name":"","type":"uint256"}],"stateMutability":"view","type":"function"},{"inputs":[{"internalType":"uint256","name":"","type":"uint256"},{"internalType":"uint256","name":"","type":"uint256"},{"internalType":"uint256","name":"","type":"uint256"}],"name":"projectScores","outputs":[{"internalType":"uint256","name":"projectId","type":"uint256"},{"internalType":"address","name":"judge","type":"address"},{"internalType":"uint256","name":"technicalScore","type":"uint256"},{"internalType":"uint256","name":"innovationScore","type":"uint256"},{"internalType":"uint256","name":"presentationScore","type":"uint256"},{"internalType":"uint256","name":"impactScore","type":"uint256"},{"internalType":"string","name":"feedback","type":"string"},{"internalType":"uint256","name":"scoredAt","type":"uint256"}],"stateMutability":"view","type":"function"},{"inputs":[{"internalType":"uint256","name":"_hackathonId","type":"uint256"}],"name":"releaseScores","outputs":[],"stateMutability":"nonpayable","type":"function"},{"inputs":[],"name":"scheduleCount","outputs":[{"internalType":"uint256","name":"","type":"uint256"}],"stateMutability":"view","type":"function"},{"inputs":[{"internalType":"uint256","name":"_hackathonId","type":"uint256"},{"internalType":"uint256","name":"_projectId","type":"uint256"},{"internalType":"uint256","name":"_technicalScore","type":"uint256"},{"internalType":"uint256","name":"_innovationScore","type":"uint256"},{"internalType":"uint256","name":"_presentationScore","type":"uint256"},{"internalType":"uint256","name":"_impactScore","type":"uint256"},{"internalType":"string","name":"_feedback","type":"string"}],"name":"scoreProject","outputs":[],"stateMutability":"nonpayable","type":"function"},{"inputs":[{"internalType":"uint256","name":"","type":"uint256"}],"name":"scoresReleased","outputs":[{"internalType":"bool","name":"","type":"bool"}],"stateMutability":"view","type":"function"},{"inputs":[{"internalType":"uint256","name":"_hackathonId","type":"uint256"},{"internalType":"string","name":"_name","type":"string"},{"internalType":"string","name":"_description","type":"string"},{"internalType":"string","name":"_githubUrl","type":"string"},{"internalType":"string","name":"_demoUrl","type":"string"},{"internalType":"address[]","name":"_teamMembers","type":"address[]"}],"name":"submitProject","outputs":[{"internalType":"uint256","name":"","type":"uint256"}],"stateMutability":"nonpayable","type":"function"}],"evm":{"bytecode":{"linkReferences":{},"object":"608060405234801561001057600080fd5b50614169806100206000396000f3fe608060405234801561001057600080fd5b50600436106101735760003560e01c80637f23df0a116100de578063c1f374f011610097578063cc30779511610071578063cc307795146104e2578063ef90401614610512578063f810177d14610547578063f9eda36f1461056357610173565b8063c1f374f01461044e578063cb9784421461047e578063cbb94d5d146104b257610173565b80637f23df0a146103715780638e9f19491461038f57806396ab7739146103ab578063a25232f5146103c9578063b7ef81e1146103f9578063c10771941461041757610173565b8063595d497411610130578063595d49741461028657806360299cd9146102bd57806363e8118d146102d957806366e1006e146103095780636b6334b414610325578063746a64701461034157610173565b80630ed4853c146101785780631a52a2ae146101a857806320628b48146101d85780632ca34d931461020857806336fbad26146102385780634e99628214610256575b600080fd5b610192600480360381019061018d9190612827565b610599565b60405161019f9190612882565b60405180910390f35b6101c260048036038101906101bd9190612aab565b6105c8565b6040516101cf9190612bd3565b60405180910390f35b6101f260048036038101906101ed9190612bee565b610852565b6040516101ff9190612ef5565b60405180910390f35b610222600480360381019061021d9190612bee565b610bb9565b60405161022f9190612fdd565b60405180910390f35b610240610da3565b60405161024d9190612bd3565b60405180910390f35b610270600480360381019061026b9190612fff565b610da9565b60405161027d91906131b1565b60405180910390f35b6102a0600480360381019061029b91906131d3565b611082565b6040516102b498979695949392919061327f565b60405180910390f35b6102d760048036038101906102d29190612bee565b61119c565b005b6102f360048036038101906102ee9190612bee565b61129d565b6040516103009190612882565b60405180910390f35b610323600480360381019061031e9190612827565b6112c7565b005b61033f600480360381019061033a9190613304565b611411565b005b61035b60048036038101906103569190612bee565b6115c5565b60405161036891906134e2565b60405180910390f35b610379611779565b6040516103869190612bd3565b60405180910390f35b6103a960048036038101906103a49190613504565b61177f565b005b6103b3611946565b6040516103c09190612bd3565b60405180910390f35b6103e360048036038101906103de9190612827565b61194c565b6040516103f09190612882565b60405180910390f35b6104016119b4565b60405161040e9190612bd3565b60405180910390f35b610431600480360381019061042c9190612bee565b6119ba565b6040516104459897969594939291906135b7565b60405180910390f35b61046860048036038101906104639190612bee565b611b3f565b6040516104759190612882565b60405180910390f35b61049860048036038101906104939190612fff565b611b5f565b6040516104a9959493929190613643565b60405180910390f35b6104cc60048036038101906104c791906136a4565b611cc2565b6040516104d99190612bd3565b60405180910390f35b6104fc60048036038101906104f79190612bee565b611e4c565b6040516105099190613895565b60405180910390f35b61052c60048036038101906105279190612fff565b61200a565b60405161053e969594939291906138b7565b60405180910390f35b610561600480360381019061055c9190613926565b612173565b005b61057d60048036038101906105789190612fff565b6123fc565b60405161059097969594939291906139e4565b60405180910390f35b60056020528160005260406000206020528060005260406000206000915091509054906101000a900460ff1681565b600080600088815260200190815260200160002060050160149054906101000a900460ff1661062c576040517f08c379a000000000000000000000000000000000000000000000000000000000815260040161062390613abb565b60405180910390fd5b60008088815260200190815260200160002060030154421015610684576040517f08c379a000000000000000000000000000000000000000000000000000000000815260040161067b90613b27565b60405180910390fd5b600080888152602001908152602001600020600401544211156106dc576040517f08c379a00000000000000000000000000000000000000000000000000000000081526004016106d390613b93565b60405180910390fd5b600860008154809291906106ef90613be2565b919050555060006040518061010001604052806008548152602001898152602001888152602001878152602001868152602001858152602001848152602001428152509050600260008981526020019081526020016000208190806001815401808255809150506001900390600052602060002090600802016000909190919091506000820151816000015560208201518160010155604082015181600201908161079a9190613e36565b5060608201518160030190816107b09190613e36565b5060808201518160040190816107c69190613e36565b5060a08201518160050190816107dc9190613e36565b5060c08201518160060190805190602001906107f992919061267b565b5060e0820151816007015550506008547fa68029ee858dee2070a776912910040353834982b139c654e3ab49e79259282c898960405161083a929190613f08565b60405180910390a26008549150509695505050505050565b606060026000838152602001908152602001600020805480602002602001604051908101604052809291908181526020016000905b82821015610bae57838290600052602060002090600802016040518061010001604052908160008201548152602001600182015481526020016002820180546108cf90613c59565b80601f01602080910402602001604051908101604052809291908181526020018280546108fb90613c59565b80156109485780601f1061091d57610100808354040283529160200191610948565b820191906000526020600020905b81548152906001019060200180831161092b57829003601f168201915b5050505050815260200160038201805461096190613c59565b80601f016020809104026020016040519081016040528092919081815260200182805461098d90613c59565b80156109da5780601f106109af576101008083540402835291602001916109da565b820191906000526020600020905b8154815290600101906020018083116109bd57829003601f168201915b505050505081526020016004820180546109f390613c59565b80601f0160208091040260200160405190810160405280929190818152602001828054610a1f90613c59565b8015610a6c5780601f10610a4157610100808354040283529160200191610a6c565b820191906000526020600020905b815481529060010190602001808311610a4f57829003601f168201915b50505050508152602001600582018054610a8590613c59565b80601f0160208091040260200160405190810160405280929190818152602001828054610ab190613c59565b8015610afe5780601f10610ad357610100808354040283529160200191610afe565b820191906000526020600020905b815481529060010190602001808311610ae157829003601f168201915b5050505050815260200160068201805480602002602001604051908101604052809291908181526020018280548015610b8c57602002820191906000526020600020905b8160009054906101000a900473ffffffffffffffffffffffffffffffffffffffff1673ffffffffffffffffffffffffffffffffffffffff1681526020019060010190808311610b42575b5050505050815260200160078201548152505081526020019060010190610887565b505050509050919050565b610bc1612705565b6000808381526020019081526020016000206040518061010001604052908160008201548152602001600182018054610bf990613c59565b80601f0160208091040260200160405190810160405280929190818152602001828054610c2590613c59565b8015610c725780601f10610c4757610100808354040283529160200191610c72565b820191906000526020600020905b815481529060010190602001808311610c5557829003601f168201915b50505050508152602001600282018054610c8b90613c59565b80601f0160208091040260200160405190810160405280929190818152602001828054610cb790613c59565b8015610d045780601f10610cd957610100808354040283529160200191610d04565b820191906000526020600020905b815481529060010190602001808311610ce757829003601f168201915b5050505050815260200160038201548152602001600482015481526020016005820160009054906101000a900473ffffffffffffffffffffffffffffffffffffffff1673ffffffffffffffffffffffffffffffffffffffff1673ffffffffffffffffffffffffffffffffffffffff1681526020016005820160149054906101000a900460ff161515151581526020016006820154815250509050919050565b60085481565b60606006600084815260200190815260200160002060009054906101000a900460ff1680610e3757503373ffffffffffffffffffffffffffffffffffffffff1660008085815260200190815260200160002060050160009054906101000a900473ffffffffffffffffffffffffffffffffffffffff1673ffffffffffffffffffffffffffffffffffffffff16145b80610e9c57506005600084815260200190815260200160002060003373ffffffffffffffffffffffffffffffffffffffff1673ffffffffffffffffffffffffffffffffffffffff16815260200190815260200160002060009054906101000a900460ff165b610edb576040517f08c379a0000000000000000000000000000000000000000000000000000000008152600401610ed290613f84565b60405180910390fd5b600360008481526020019081526020016000206000838152602001908152602001600020805480602002602001604051908101604052809291908181526020016000905b82821015611076578382906000526020600020906008020160405180610100016040529081600082015481526020016001820160009054906101000a900473ffffffffffffffffffffffffffffffffffffffff1673ffffffffffffffffffffffffffffffffffffffff1673ffffffffffffffffffffffffffffffffffffffff16815260200160028201548152602001600382015481526020016004820154815260200160058201548152602001600682018054610fdb90613c59565b80601f016020809104026020016040519081016040528092919081815260200182805461100790613c59565b80156110545780601f1061102957610100808354040283529160200191611054565b820191906000526020600020905b81548152906001019060200180831161103757829003601f168201915b5050505050815260200160078201548152505081526020019060010190610f1f565b50505050905092915050565b600360205282600052604060002060205281600052604060002081815481106110aa57600080fd5b906000526020600020906008020160009250925050508060000154908060010160009054906101000a900473ffffffffffffffffffffffffffffffffffffffff169080600201549080600301549080600401549080600501549080600601805461111390613c59565b80601f016020809104026020016040519081016040528092919081815260200182805461113f90613c59565b801561118c5780601f106111615761010080835404028352916020019161118c565b820191906000526020600020905b81548152906001019060200180831161116f57829003601f168201915b5050505050908060070154905088565b803373ffffffffffffffffffffffffffffffffffffffff1660008083815260200190815260200160002060050160009054906101000a900473ffffffffffffffffffffffffffffffffffffffff1673ffffffffffffffffffffffffffffffffffffffff1614611240576040517f08c379a000000000000000000000000000000000000000000000000000000000815260040161123790613ff0565b60405180910390fd5b60016006600084815260200190815260200160002060006101000a81548160ff021916908315150217905550817f35fd8c5b783f985984e90d1afdfb6f248a1539e57f882c515a721aa02798c68c60405160405180910390a25050565b60006006600083815260200190815260200160002060009054906101000a900460ff169050919050565b813373ffffffffffffffffffffffffffffffffffffffff1660008083815260200190815260200160002060050160009054906101000a900473ffffffffffffffffffffffffffffffffffffffff1673ffffffffffffffffffffffffffffffffffffffff161461136b576040517f08c379a000000000000000000000000000000000000000000000000000000000815260040161136290613ff0565b60405180910390fd5b60016005600085815260200190815260200160002060008473ffffffffffffffffffffffffffffffffffffffff1673ffffffffffffffffffffffffffffffffffffffff16815260200190815260200160002060006101000a81548160ff021916908315150217905550827f61846e41005e48cc4b4f814fd87591c4f1ada6effe9d192bc5d929f0ef9585d1836040516114049190614010565b60405180910390a2505050565b833373ffffffffffffffffffffffffffffffffffffffff1660008083815260200190815260200160002060050160009054906101000a900473ffffffffffffffffffffffffffffffffffffffff1673ffffffffffffffffffffffffffffffffffffffff16146114b5576040517f08c379a00000000000000000000000000000000000000000000000000000000081526004016114ac90613ff0565b60405180910390fd5b600a60008154809291906114c890613be2565b919050555060006040518060a00160405280600a54815260200187815260200186815260200185815260200184815250905060046000878152602001908152602001600020819080600181540180825580915050600190039060005260206000209060050201600090919091909150600082015181600001556020820151816001015560408201518160020190816115609190613e36565b5060608201518160030190816115769190613e36565b50608082015181600401555050857fda582de5d612009c14d4b959d2e5e91065d382afeaad29d0481c0b9f82c2bf25600a546040516115b59190612bd3565b60405180910390a2505050505050565b606060046000838152602001908152602001600020805480602002602001604051908101604052809291908181526020016000905b8282101561176e57838290600052602060002090600502016040518060a0016040529081600082015481526020016001820154815260200160028201805461164190613c59565b80601f016020809104026020016040519081016040528092919081815260200182805461166d90613c59565b80156116ba5780601f1061168f576101008083540402835291602001916116ba565b820191906000526020600020905b81548152906001019060200180831161169d57829003601f168201915b505050505081526020016003820180546116d390613c59565b80601f01602080910402602001604051908101604052809291908181526020018280546116ff90613c59565b801561174c5780601f106117215761010080835404028352916020019161174c565b820191906000526020600020905b81548152906001019060200180831161172f57829003601f168201915b50505050508152602001600482015481525050815260200190600101906115fa565b505050509050919050565b60095481565b843373ffffffffffffffffffffffffffffffffffffffff1660008083815260200190815260200160002060050160009054906101000a900473ffffffffffffffffffffffffffffffffffffffff1673ffffffffffffffffffffffffffffffffffffffff1614611823576040517f08c379a000000000000000000000000000000000000000000000000000000000815260040161181a90613ff0565b60405180910390fd5b6009600081548092919061183690613be2565b919050555060006040518060c00160405280600954815260200188815260200187815260200186815260200185815260200184815250905060016000888152602001908152602001600020819080600181540180825580915050600190039060005260206000209060060201600090919091909150600082015181600001556020820151816001015560408201518160020190816118d49190613e36565b5060608201518160030190816118ea9190613e36565b506080820151816004015560a082015181600501555050867f9533451fa5361435374b8572dbba1c7ee1c1c1ed052c0d1b0198dfcd41e27ad760095488604051611935929190613f08565b60405180910390a250505050505050565b60075481565b60006005600084815260200190815260200160002060008373ffffffffffffffffffffffffffffffffffffffff1673ffffffffffffffffffffffffffffffffffffffff16815260200190815260200160002060009054906101000a900460ff16905092915050565b600a5481565b60006020528060005260406000206000915090508060000154908060010180546119e390613c59565b80601f0160208091040260200160405190810160405280929190818152602001828054611a0f90613c59565b8015611a5c5780601f10611a3157610100808354040283529160200191611a5c565b820191906000526020600020905b815481529060010190602001808311611a3f57829003601f168201915b505050505090806002018054611a7190613c59565b80601f0160208091040260200160405190810160405280929190818152602001828054611a9d90613c59565b8015611aea5780601f10611abf57610100808354040283529160200191611aea565b820191906000526020600020905b815481529060010190602001808311611acd57829003601f168201915b5050505050908060030154908060040154908060050160009054906101000a900473ffffffffffffffffffffffffffffffffffffffff16908060050160149054906101000a900460ff16908060060154905088565b60066020528060005260406000206000915054906101000a900460ff1681565b60046020528160005260406000208181548110611b7b57600080fd5b906000526020600020906005020160009150915050806000015490806001015490806002018054611bab90613c59565b80601f0160208091040260200160405190810160405280929190818152602001828054611bd790613c59565b8015611c245780601f10611bf957610100808354040283529160200191611c24565b820191906000526020600020905b815481529060010190602001808311611c0757829003601f168201915b505050505090806003018054611c3990613c59565b80601f0160208091040260200160405190810160405280929190818152602001828054611c6590613c59565b8015611cb25780601f10611c8757610100808354040283529160200191611cb2565b820191906000526020600020905b815481529060010190602001808311611c9557829003601f168201915b5050505050908060040154905085565b600060076000815480929190611cd790613be2565b919050555060405180610100016040528060075481526020018681526020018581526020018481526020018381526020013373ffffffffffffffffffffffffffffffffffffffff168152602001600115158152602001428152506000806007548152602001908152602001600020600082015181600001556020820151816001019081611d649190613e36565b506040820151816002019081611d7a9190613e36565b50606082015181600301556080820151816004015560a08201518160050160006101000a81548173ffffffffffffffffffffffffffffffffffffffff021916908373ffffffffffffffffffffffffffffffffffffffff16021790555060c08201518160050160146101000a81548160ff02191690831515021790555060e082015181600601559050506007547fa94cd0b7a6a30768493dd3c96d659f8684f84657295d41125416f89e1027f8768633604051611e3792919061402b565b60405180910390a26007549050949350505050565b606060016000838152602001908152602001600020805480602002602001604051908101604052809291908181526020016000905b82821015611fff57838290600052602060002090600602016040518060c00160405290816000820154815260200160018201548152602001600282018054611ec890613c59565b80601f0160208091040260200160405190810160405280929190818152602001828054611ef490613c59565b8015611f415780601f10611f1657610100808354040283529160200191611f41565b820191906000526020600020905b815481529060010190602001808311611f2457829003601f168201915b50505050508152602001600382018054611f5a90613c59565b80601f0160208091040260200160405190810160405280929190818152602001828054611f8690613c59565b8015611fd35780601f10611fa857610100808354040283529160200191611fd3565b820191906000526020600020905b815481529060010190602001808311611fb657829003601f168201915b505050505081526020016004820154815260200160058201548152505081526020019060010190611e81565b505050509050919050565b6001602052816000526040600020818154811061202657600080fd5b90600052602060002090600602016000915091505080600001549080600101549080600201805461205690613c59565b80601f016020809104026020016040519081016040528092919081815260200182805461208290613c59565b80156120cf5780601f106120a4576101008083540402835291602001916120cf565b820191906000526020600020905b8154815290600101906020018083116120b257829003601f168201915b5050505050908060030180546120e490613c59565b80601f016020809104026020016040519081016040528092919081815260200182805461211090613c59565b801561215d5780601f106121325761010080835404028352916020019161215d565b820191906000526020600020905b81548152906001019060200180831161214057829003601f168201915b5050505050908060040154908060050154905086565b866005600082815260200190815260200160002060003373ffffffffffffffffffffffffffffffffffffffff1673ffffffffffffffffffffffffffffffffffffffff16815260200190815260200160002060009054906101000a900460ff16612211576040517f08c379a0000000000000000000000000000000000000000000000000000000008152600401612208906140a7565b60405180910390fd5b60648611158015612223575060648511155b8015612230575060648411155b801561223d575060648311155b61227c576040517f08c379a000000000000000000000000000000000000000000000000000000000815260040161227390614113565b60405180910390fd5b60006040518061010001604052808981526020013373ffffffffffffffffffffffffffffffffffffffff168152602001888152602001878152602001868152602001858152602001848152602001428152509050600360008a815260200190815260200160002060008981526020019081526020016000208190806001815401808255809150506001900390600052602060002090600802016000909190919091506000820151816000015560208201518160010160006101000a81548173ffffffffffffffffffffffffffffffffffffffff021916908373ffffffffffffffffffffffffffffffffffffffff16021790555060408201518160020155606082015181600301556080820151816004015560a0820151816005015560c08201518160060190816123ac9190613e36565b5060e082015181600701555050877fbf47a96ef84dec8a1e1ad8045fa88d5a7191f8bf698b2b046a50e77ea9b6cf81336040516123e99190614010565b60405180910390a2505050505050505050565b6002602052816000526040600020818154811061241857600080fd5b90600052602060002090600802016000915091505080600001549080600101549080600201805461244890613c59565b80601f016020809104026020016040519081016040528092919081815260200182805461247490613c59565b80156124c15780601f10612496576101008083540402835291602001916124c1565b820191906000526020600020905b8154815290600101906020018083116124a457829003601f168201915b5050505050908060030180546124d690613c59565b80601f016020809104026020016040519081016040528092919081815260200182805461250290613c59565b801561254f5780601f106125245761010080835404028352916020019161254f565b820191906000526020600020905b81548152906001019060200180831161253257829003601f168201915b50505050509080600401805461256490613c59565b80601f016020809104026020016040519081016040528092919081815260200182805461259090613c59565b80156125dd5780601f106125b2576101008083540402835291602001916125dd565b820191906000526020600020905b8154815290600101906020018083116125c057829003601f168201915b5050505050908060050180546125f290613c59565b80601f016020809104026020016040519081016040528092919081815260200182805461261e90613c59565b801561266b5780601f106126405761010080835404028352916020019161266b565b820191906000526020600020905b81548152906001019060200180831161264e57829003601f168201915b5050505050908060070154905087565b8280548282559060005260206000209081019282156126f4579160200282015b828111156126f35782518260006101000a81548173ffffffffffffffffffffffffffffffffffffffff021916908373ffffffffffffffffffffffffffffffffffffffff1602179055509160200191906001019061269b565b5b5090506127019190612762565b5090565b6040518061010001604052806000815260200160608152602001606081526020016000815260200160008152602001600073ffffffffffffffffffffffffffffffffffffffff168152602001600015158152602001600081525090565b5b8082111561277b576000816000905550600101612763565b5090565b6000604051905090565b600080fd5b600080fd5b6000819050919050565b6127a681612793565b81146127b157600080fd5b50565b6000813590506127c38161279d565b92915050565b600073ffffffffffffffffffffffffffffffffffffffff82169050919050565b60006127f4826127c9565b9050919050565b612804816127e9565b811461280f57600080fd5b50565b600081359050612821816127fb565b92915050565b6000806040838503121561283e5761283d612789565b5b600061284c858286016127b4565b925050602061285d85828601612812565b9150509250929050565b60008115159050919050565b61287c81612867565b82525050565b60006020820190506128976000830184612873565b92915050565b600080fd5b600080fd5b6000601f19601f8301169050919050565b7f4e487b7100000000000000000000000000000000000000000000000000000000600052604160045260246000fd5b6128f0826128a7565b810181811067ffffffffffffffff8211171561290f5761290e6128b8565b5b80604052505050565b600061292261277f565b905061292e82826128e7565b919050565b600067ffffffffffffffff82111561294e5761294d6128b8565b5b612957826128a7565b9050602081019050919050565b82818337600083830152505050565b600061298661298184612933565b612918565b9050828152602081018484840111156129a2576129a16128a2565b5b6129ad848285612964565b509392505050565b600082601f8301126129ca576129c961289d565b5b81356129da848260208601612973565b91505092915050565b600067ffffffffffffffff8211156129fe576129fd6128b8565b5b602082029050602081019050919050565b600080fd5b6000612a27612a22846129e3565b612918565b90508083825260208201905060208402830185811115612a4a57612a49612a0f565b5b835b81811015612a735780612a5f8882612812565b845260208401935050602081019050612a4c565b5050509392505050565b600082601f830112612a9257612a9161289d565b5b8135612aa2848260208601612a14565b91505092915050565b60008060008060008060c08789031215612ac857612ac7612789565b5b6000612ad689828a016127b4565b965050602087013567ffffffffffffffff811115612af757612af661278e565b5b612b0389828a016129b5565b955050604087013567ffffffffffffffff811115612b2457612b2361278e565b5b612b3089828a016129b5565b945050606087013567ffffffffffffffff811115612b5157612b5061278e565b5b612b5d89828a016129b5565b935050608087013567ffffffffffffffff811115612b7e57612b7d61278e565b5b612b8a89828a016129b5565b92505060a087013567ffffffffffffffff811115612bab57612baa61278e565b5b612bb789828a01612a7d565b9150509295509295509295565b612bcd81612793565b82525050565b6000602082019050612be86000830184612bc4565b92915050565b600060208284031215612c0457612c03612789565b5b6000612c12848285016127b4565b91505092915050565b600081519050919050565b600082825260208201905092915050565b6000819050602082019050919050565b612c5081612793565b82525050565b600081519050919050565b600082825260208201905092915050565b60005b83811015612c90578082015181840152602081019050612c75565b60008484015250505050565b6000612ca782612c56565b612cb18185612c61565b9350612cc1818560208601612c72565b612cca816128a7565b840191505092915050565b600081519050919050565b600082825260208201905092915050565b6000819050602082019050919050565b612d0a816127e9565b82525050565b6000612d1c8383612d01565b60208301905092915050565b6000602082019050919050565b6000612d4082612cd5565b612d4a8185612ce0565b9350612d5583612cf1565b8060005b83811015612d86578151612d6d8882612d10565b9750612d7883612d28565b925050600181019050612d59565b5085935050505092915050565b600061010083016000830151612dac6000860182612c47565b506020830151612dbf6020860182612c47565b5060408301518482036040860152612dd78282612c9c565b91505060608301518482036060860152612df18282612c9c565b91505060808301518482036080860152612e0b8282612c9c565b91505060a083015184820360a0860152612e258282612c9c565b91505060c083015184820360c0860152612e3f8282612d35565b91505060e0830151612e5460e0860182612c47565b508091505092915050565b6000612e6b8383612d93565b905092915050565b6000602082019050919050565b6000612e8b82612c1b565b612e958185612c26565b935083602082028501612ea785612c37565b8060005b85811015612ee35784840389528151612ec48582612e5f565b9450612ecf83612e73565b925060208a01995050600181019050612eab565b50829750879550505050505092915050565b60006020820190508181036000830152612f0f8184612e80565b905092915050565b612f2081612867565b82525050565b600061010083016000830151612f3f6000860182612c47565b5060208301518482036020860152612f578282612c9c565b91505060408301518482036040860152612f718282612c9c565b9150506060830151612f866060860182612c47565b506080830151612f996080860182612c47565b5060a0830151612fac60a0860182612d01565b5060c0830151612fbf60c0860182612f17565b5060e0830151612fd260e0860182612c47565b508091505092915050565b60006020820190508181036000830152612ff78184612f26565b905092915050565b6000806040838503121561301657613015612789565b5b6000613024858286016127b4565b9250506020613035858286016127b4565b9150509250929050565b600081519050919050565b600082825260208201905092915050565b6000819050602082019050919050565b6000610100830160008301516130846000860182612c47565b5060208301516130976020860182612d01565b5060408301516130aa6040860182612c47565b5060608301516130bd6060860182612c47565b5060808301516130d06080860182612c47565b5060a08301516130e360a0860182612c47565b5060c083015184820360c08601526130fb8282612c9c565b91505060e083015161311060e0860182612c47565b508091505092915050565b6000613127838361306b565b905092915050565b6000602082019050919050565b60006131478261303f565b613151818561304a565b9350836020820285016131638561305b565b8060005b8581101561319f5784840389528151613180858261311b565b945061318b8361312f565b925060208a01995050600181019050613167565b50829750879550505050505092915050565b600060208201905081810360008301526131cb818461313c565b905092915050565b6000806000606084860312156131ec576131eb612789565b5b60006131fa868287016127b4565b935050602061320b868287016127b4565b925050604061321c868287016127b4565b9150509250925092565b61322f816127e9565b82525050565b600082825260208201905092915050565b600061325182612c56565b61325b8185613235565b935061326b818560208601612c72565b613274816128a7565b840191505092915050565b600061010082019050613295600083018b612bc4565b6132a2602083018a613226565b6132af6040830189612bc4565b6132bc6060830188612bc4565b6132c96080830187612bc4565b6132d660a0830186612bc4565b81810360c08301526132e88185613246565b90506132f760e0830184612bc4565b9998505050505050505050565b6000806000806080858703121561331e5761331d612789565b5b600061332c878288016127b4565b945050602085013567ffffffffffffffff81111561334d5761334c61278e565b5b613359878288016129b5565b935050604085013567ffffffffffffffff81111561337a5761337961278e565b5b613386878288016129b5565b9250506060613397878288016127b4565b91505092959194509250565b600081519050919050565b600082825260208201905092915050565b6000819050602082019050919050565b600060a0830160008301516133e76000860182612c47565b5060208301516133fa6020860182612c47565b50604083015184820360408601526134128282612c9c565b9150506060830151848203606086015261342c8282612c9c565b91505060808301516134416080860182612c47565b508091505092915050565b600061345883836133cf565b905092915050565b6000602082019050919050565b6000613478826133a3565b61348281856133ae565b935083602082028501613494856133bf565b8060005b858110156134d057848403895281516134b1858261344c565b94506134bc83613460565b925060208a01995050600181019050613498565b50829750879550505050505092915050565b600060208201905081810360008301526134fc818461346d565b905092915050565b600080600080600060a086880312156135205761351f612789565b5b600061352e888289016127b4565b955050602086013567ffffffffffffffff81111561354f5761354e61278e565b5b61355b888289016129b5565b945050604086013567ffffffffffffffff81111561357c5761357b61278e565b5b613588888289016129b5565b9350506060613599888289016127b4565b92505060806135aa888289016127b4565b9150509295509295909350565b6000610100820190506135cd600083018b612bc4565b81810360208301526135df818a613246565b905081810360408301526135f38189613246565b90506136026060830188612bc4565b61360f6080830187612bc4565b61361c60a0830186613226565b61362960c0830185612873565b61363660e0830184612bc4565b9998505050505050505050565b600060a0820190506136586000830188612bc4565b6136656020830187612bc4565b81810360408301526136778186613246565b9050818103606083015261368b8185613246565b905061369a6080830184612bc4565b9695505050505050565b600080600080608085870312156136be576136bd612789565b5b600085013567ffffffffffffffff8111156136dc576136db61278e565b5b6136e8878288016129b5565b945050602085013567ffffffffffffffff8111156137095761370861278e565b5b613715878288016129b5565b9350506040613726878288016127b4565b9250506060613737878288016127b4565b91505092959194509250565b600081519050919050565b600082825260208201905092915050565b6000819050602082019050919050565b600060c0830160008301516137876000860182612c47565b50602083015161379a6020860182612c47565b50604083015184820360408601526137b28282612c9c565b915050606083015184820360608601526137cc8282612c9c565b91505060808301516137e16080860182612c47565b5060a08301516137f460a0860182612c47565b508091505092915050565b600061380b838361376f565b905092915050565b6000602082019050919050565b600061382b82613743565b613835818561374e565b9350836020820285016138478561375f565b8060005b85811015613883578484038952815161386485826137ff565b945061386f83613813565b925060208a0199505060018101905061384b565b50829750879550505050505092915050565b600060208201905081810360008301526138af8184613820565b905092915050565b600060c0820190506138cc6000830189612bc4565b6138d96020830188612bc4565b81810360408301526138eb8187613246565b905081810360608301526138ff8186613246565b905061390e6080830185612bc4565b61391b60a0830184612bc4565b979650505050505050565b600080600080600080600060e0888a03121561394557613944612789565b5b60006139538a828b016127b4565b97505060206139648a828b016127b4565b96505060406139758a828b016127b4565b95505060606139868a828b016127b4565b94505060806139978a828b016127b4565b93505060a06139a88a828b016127b4565b92505060c088013567ffffffffffffffff8111156139c9576139c861278e565b5b6139d58a828b016129b5565b91505092959891949750929550565b600060e0820190506139f9600083018a612bc4565b613a066020830189612bc4565b8181036040830152613a188188613246565b90508181036060830152613a2c8187613246565b90508181036080830152613a408186613246565b905081810360a0830152613a548185613246565b9050613a6360c0830184612bc4565b98975050505050505050565b7f4861636b6174686f6e206e6f7420616374697665000000000000000000000000600082015250565b6000613aa5601483613235565b9150613ab082613a6f565b602082019050919050565b60006020820190508181036000830152613ad481613a98565b9050919050565b7f4861636b6174686f6e206e6f7420737461727465640000000000000000000000600082015250565b6000613b11601583613235565b9150613b1c82613adb565b602082019050919050565b60006020820190508181036000830152613b4081613b04565b9050919050565b7f4861636b6174686f6e20656e6465640000000000000000000000000000000000600082015250565b6000613b7d600f83613235565b9150613b8882613b47565b602082019050919050565b60006020820190508181036000830152613bac81613b70565b9050919050565b7f4e487b7100000000000000000000000000000000000000000000000000000000600052601160045260246000fd5b6000613bed82612793565b91507fffffffffffffffffffffffffffffffffffffffffffffffffffffffffffffffff8203613c1f57613c1e613bb3565b5b600182019050919050565b7f4e487b7100000000000000000000000000000000000000000000000000000000600052602260045260246000fd5b60006002820490506001821680613c7157607f821691505b602082108103613c8457613c83613c2a565b5b50919050565b60008190508160005260206000209050919050565b60006020601f8301049050919050565b600082821b905092915050565b600060088302613cec7fffffffffffffffffffffffffffffffffffffffffffffffffffffffffffffffff82613caf565b613cf68683613caf565b95508019841693508086168417925050509392505050565b6000819050919050565b6000613d33613d2e613d2984612793565b613d0e565b612793565b9050919050565b6000819050919050565b613d4d83613d18565b613d61613d5982613d3a565b848454613cbc565b825550505050565b600090565b613d76613d69565b613d81818484613d44565b505050565b5b81811015613da557613d9a600082613d6e565b600181019050613d87565b5050565b601f821115613dea57613dbb81613c8a565b613dc484613c9f565b81016020851015613dd3578190505b613de7613ddf85613c9f565b830182613d86565b50505b505050565b600082821c905092915050565b6000613e0d60001984600802613def565b1980831691505092915050565b6000613e268383613dfc565b9150826002028217905092915050565b613e3f82612c56565b67ffffffffffffffff811115613e5857613e576128b8565b5b613e628254613c59565b613e6d828285613da9565b600060209050601f831160018114613ea05760008415613e8e578287015190505b613e988582613e1a565b865550613f00565b601f198416613eae86613c8a565b60005b82811015613ed657848901518255600182019150602085019450602081019050613eb1565b86831015613ef35784890151613eef601f891682613dfc565b8355505b6001600288020188555050505b505050505050565b6000604082019050613f1d6000830185612bc4565b8181036020830152613f2f8184613246565b90509392505050565b7f53636f726573206e6f742072656c656173656400000000000000000000000000600082015250565b6000613f6e601383613235565b9150613f7982613f38565b602082019050919050565b60006020820190508181036000830152613f9d81613f61565b9050919050565b7f4e6f74206f7267616e697a657200000000000000000000000000000000000000600082015250565b6000613fda600d83613235565b9150613fe582613fa4565b602082019050919050565b6000602082019050818103600083015261400981613fcd565b9050919050565b60006020820190506140256000830184613226565b92915050565b600060408201905081810360008301526140458185613246565b90506140546020830184613226565b9392505050565b7f4e6f742061206a75646765000000000000000000000000000000000000000000600082015250565b6000614091600b83613235565b915061409c8261405b565b602082019050919050565b600060208201905081810360008301526140c081614084565b9050919050565b7f496e76616c69642073636f726573000000000000000000000000000000000000600082015250565b60006140fd600e83613235565b9150614108826140c7565b602082019050919050565b6000602082019050818103600083015261412c816140f0565b905091905056fea26469706673582212202f344ecc77d6619888b8d619d439bcd3a388702821d51079bbb48a69550eac6564736f6c63430008140033","opcodes":"PUSH1 0x80 PUSH1 0x40 MSTORE CALLVALUE DUP1 ISZERO PUSH2 0x10 JUMPI PUSH1 0x0 DUP1 REVERT JUMPDEST POP PUSH2 0x4169 DUP1 PUSH2 0x20 PUSH1 0x0 CODECOPY PUSH1 0x0 RETURN INVALID PUSH1 0x80 PUSH1 0x40 MSTORE CALLVALUE DUP1 ISZERO PUSH2 0x10 JUMPI PUSH1 0x0 DUP1 REVERT JUMPDEST POP PUSH1 0x4 CALLDATASIZE LT PUSH2 0x173 JUMPI PUSH1 0x0 CALLDATALOAD PUSH1 0xE0 SHR DUP1 PUSH4 0x7F23DF0A GT PUSH2 0xDE JUMPI DUP1 PUSH4 0xC1F374F0 GT PUSH2 0x97 JUMPI DUP1 PUSH4 0xCC307795 GT PUSH2 0x71 JUMPI DUP1 PUSH4 0xCC307795 EQ PUSH2 0x4E2 JUMPI DUP1 PUSH4 0xEF904016 EQ PUSH2 0x512 JUMPI DUP1 PUSH4 0xF810177D EQ PUSH2 0x547 JUMPI DUP1 PUSH4 0xF9EDA36F EQ PUSH2 0x563 JUMPI PUSH2 0x173 JUMP JUMPDEST DUP1 PUSH4 0xC1F374F0 EQ PUSH2 0x44E JUMPI DUP1 PUSH4 0xCB978442 EQ PUSH2 0x47E JUMPI DUP1 PUSH4 0xCBB94D5D EQ PUSH2 0x4B2 JUMPI PUSH2 0x173 JUMP JUMPDEST DUP1 PUSH4 0x7F23DF0A EQ PUSH2 0x371 JUMPI DUP1 PUSH4 0x8E9F1949 EQ PUSH2 0x38F JUMPI DUP1 PUSH4 0x96AB7739 EQ PUSH2 0x3AB JUMPI DUP1 PUSH4 0xA25232F5 EQ PUSH2 0x3C9 JUMPI DUP1 PUSH4 0xB7EF81E1 EQ PUSH2 0x3F9 JUMPI DUP1 PUSH4 0xC1077194 EQ PUSH2 0x417 JUMPI PUSH2 0x173 JUMP JUMPDEST DUP1 PUSH4 0x595D4974 GT PUSH2 0x130 JUMPI DUP1 PUSH4 0x595D4974 EQ PUSH2 0x286 JUMPI DUP1 PUSH4 0x60299CD9 EQ PUSH2 0x2BD JUMPI DUP1 PUSH4 0x63E8118D EQ PUSH2 0x2D9 JUMPI DUP1 PUSH4 0x66E1006E EQ PUSH2 0x309 JUMPI DUP1 PUSH4 0x6B6334B4 EQ PUSH2 0x325 JUMPI DUP1 PUSH4 0x746A6470 EQ PUSH2 0x341 JUMPI PUSH2 0x173 JUMP JUMPDEST DUP1 PUSH4 0xED4853C EQ PUSH2 0x178 JUMPI DUP1 PUSH4 0x1A52A2AE EQ PUSH2 0x1A8 JUMPI DUP1 PUSH4 0x20628B48 EQ PUSH2 0x1D8 JUMPI DUP1 PUSH4 0x2CA34D93 EQ PUSH2 0x208 JUMPI DUP1 PUSH4 0x36FBAD26 EQ PUSH2 0x238 JUMPI DUP1 PUSH4 0x4E996282 EQ PUSH2 0x256 JUMPI JUMPDEST PUSH1 0x0 DUP1 REVERT JUMPDEST PUSH2 0x192 PUSH1 0x4 DUP1 CALLDATASIZE SUB DUP2 ADD SWAP1 PUSH2 0x18D SWAP2 SWAP1 PUSH2 0x2827 JUMP JUMPDEST PUSH2 0x599 JUMP JUMPDEST PUSH1 0x40 MLOAD PUSH2 0x19F SWAP2 SWAP1 PUSH2 0x2882 JUMP JUMPDEST PUSH1 0x40 MLOAD DUP1 SWAP2 SUB SWAP1 RETURN JUMPDEST PUSH2 0x1C2 PUSH1 0x4 DUP1 CALLDATASIZE SUB DUP2 ADD SWAP1 PUSH2 0x1BD SWAP2 SWAP1 PUSH2 0x2AAB JUMP JUMPDEST PUSH2 0x5C8 JUMP JUMPDEST PUSH1 0x40 MLOAD PUSH2 0x1CF SWAP2 SWAP1 PUSH2 0x2BD3 JUMP JUMPDEST PUSH1 0x40 MLOAD DUP1 SWAP2 SUB SWAP1 RETURN JUMPDEST PUSH2 0x1F2 PUSH1 0x4 DUP1 CALLDATASIZE SUB DUP2 ADD SWAP1 PUSH2 0x1ED SWAP2 SWAP1 PUSH2 0x2BEE JUMP JUMPDEST PUSH2 0x852 JUMP JUMPDEST PUSH1 0x40 MLOAD PUSH2 0x1FF SWAP2 SWAP1 PUSH2 0x2EF5 JUMP JUMPDEST PUSH1 0x40 MLOAD DUP1 SWAP2 SUB SWAP1 RETURN JUMPDEST PUSH2 0x222 PUSH1 0x4 DUP1 CALLDATASIZE SUB DUP2 ADD SWAP1 PUSH2 0x21D SWAP2 SWAP1 PUSH2 0x2BEE JUMP JUMPDEST PUSH2 0xBB9 JUMP JUMPDEST PUSH1 0x40 MLOAD PUSH2 0x22F SWAP2 SWAP1 PUSH2 0x2FDD JUMP JUMPDEST PUSH1 0x40 MLOAD DUP1 SWAP2 SUB SWAP1 RETURN JUMPDEST PUSH2 0x240 PUSH2 0xDA3 JUMP JUMPDEST PUSH1 0x40 MLOAD PUSH2 0x24D SWAP2 SWAP1 PUSH2 0x2BD3 JUMP JUMPDEST PUSH1 0x40 MLOAD DUP1 SWAP2 SUB SWAP1 RETURN JUMPDEST PUSH2 0x270 PUSH1 0x4 DUP1 CALLDATASIZE SUB DUP2 ADD SWAP1 PUSH2 0x26B SWAP2 SWAP1 PUSH2 0x2FFF JUMP JUMPDEST PUSH2 0xDA9 JUMP JUMPDEST PUSH1 0x40 MLOAD PUSH2 0x27D SWAP2 SWAP1 PUSH2 0x31B1 JUMP JUMPDEST PUSH1 0x40 MLOAD DUP1 SWAP2 SUB SWAP1 RETURN JUMPDEST PUSH2 0x2A0 PUSH1 0x4 DUP1 CALLDATASIZE SUB DUP2 ADD SWAP1 PUSH2 0x29B SWAP2 SWAP1 PUSH2 0x31D3 JUMP JUMPDEST PUSH2 0x1082 JUMP JUMPDEST PUSH1 0x40 MLOAD PUSH2 0x2B4 SWAP9 SWAP8 SWAP7 SWAP6 SWAP5 SWAP4 SWAP3 SWAP2 SWAP1 PUSH2 0x327F JUMP JUMPDEST PUSH1 0x40 MLOAD DUP1 SWAP2 SUB SWAP1 RETURN JUMPDEST PUSH2 0x2D7 PUSH1 0x4 DUP1 CALLDATASIZE SUB DUP2 ADD SWAP1 PUSH2 0x2D2 SWAP2 SWAP1 PUSH2 0x2BEE JUMP JUMPDEST PUSH2 0x119C JUMP JUMPDEST STOP JUMPDEST PUSH2 0x2F3 PUSH1 0x4 DUP1 CALLDATASIZE SUB DUP2 ADD SWAP1 PUSH2 0x2EE SWAP2 SWAP1 PUSH2 0x2BEE JUMP JUMPDEST PUSH2 0x129D JUMP JUMPDEST PUSH1 0x40 MLOAD PUSH2 0x300 SWAP2 SWAP1 PUSH2 0x2882 JUMP JUMPDEST PUSH1 0x40 MLOAD DUP1 SWAP2 SUB SWAP1 RETURN JUMPDEST PUSH2 0x323 PUSH1 0x4 DUP1 CALLDATASIZE SUB DUP2 ADD SWAP1 PUSH2 0x31E SWAP2 SWAP1 PUSH2 0x2827 JUMP JUMPDEST PUSH2 0x12C7 JUMP JUMPDEST STOP JUMPDEST PUSH2 0x33F PUSH1 0x4 DUP1 CALLDATASIZE SUB DUP2 ADD SWAP1 PUSH2 0x33A SWAP2 SWAP1 PUSH2 0x3304 JUMP JUMPDEST PUSH2 0x1411 JUMP JUMPDEST STOP JUMPDEST PUSH2 0x35B PUSH1 0x4 DUP1 CALLDATASIZE SUB DUP2 ADD SWAP1 PUSH2 0x356 SWAP2 SWAP1 PUSH2 0x2BEE JUMP JUMPDEST PUSH2 0x15C5 JUMP JUMPDEST PUSH1 0x40 MLOAD PUSH2 0x368 SWAP2 SWAP1 PUSH2 0x34E2 JUMP JUMPDEST PUSH1 0x40 MLOAD DUP1 SWAP2 SUB SWAP1 RETURN JUMPDEST PUSH2 0x379 PUSH2 0x1779 JUMP JUMPDEST PUSH1 0x40 MLOAD PUSH2 0x386 SWAP2 SWAP1 PUSH2 0x2BD3 JUMP JUMPDEST PUSH1 0x40 MLOAD DUP1 SWAP2 SUB SWAP1 RETURN JUMPDEST PUSH2 0x3A9 PUSH1 0x4 DUP1 CALLDATASIZE SUB DUP2 ADD SWAP1 PUSH2 0x3A4 SWAP2 SWAP1 PUSH2 0x3504 JUMP JUMPDEST PUSH2 0x177F JUMP JUMPDEST STOP JUMPDEST PUSH2 0x3B3 PUSH2 0x1946 JUMP JUMPDEST PUSH1 0x40 MLOAD PUSH2 0x3C0 SWAP2 SWAP1 PUSH2 0x2BD3 JUMP JUMPDEST PUSH1 0x40 MLOAD DUP1 SWAP2 SUB SWAP1 RETURN JUMPDEST PUSH2 0x3E3 PUSH1 0x4 DUP1 CALLDATASIZE SUB DUP2 ADD SWAP1 PUSH2 0x3DE SWAP2 SWAP1 PUSH2 0x2827 JUMP JUMPDEST PUSH2 0x194C JUMP JUMPDEST PUSH1 0x40 MLOAD PUSH2 0x3F0 SWAP2 SWAP1 PUSH2 0x2882 JUMP JUMPDEST PUSH1 0x40 MLOAD DUP1 SWAP2 SUB SWAP1 RETURN JUMPDEST PUSH2 0x401 PUSH2 0x19B4 JUMP JUMPDEST PUSH1 0x40 MLOAD PUSH2 0x40E SWAP2 SWAP1 PUSH2 0x2BD3 JUMP JUMPDEST PUSH1 0x40 MLOAD DUP1 SWAP2 SUB SWAP1 RETURN JUMPDEST PUSH2 0x431 PUSH1 0x4 DUP1 CALLDATASIZE SUB DUP2 ADD SWAP1 PUSH2 0x42C SWAP2 SWAP1 PUSH2 0x2BEE JUMP JUMPDEST PUSH2 0x19BA JUMP JUMPDEST PUSH1 0x40 MLOAD PUSH2 0x445 SWAP9 SWAP8 SWAP7 SWAP6 SWAP5 SWAP4 SWAP3 SWAP2 SWAP1 PUSH2 0x35B7 JUMP JUMPDEST PUSH1 0x40 MLOAD DUP1 SWAP2 SUB SWAP1 RETURN JUMPDEST PUSH2 0x468 PUSH1 0x4 DUP1 CALLDATASIZE SUB DUP2 ADD SWAP1 PUSH2 0x463 SWAP2 SWAP1 PUSH2 0x2BEE JUMP JUMPDEST PUSH2 0x1B3F JUMP JUMPDEST PUSH1 0x40 MLOAD PUSH2 0x475 SWAP2 SWAP1 PUSH2 0x2882 JUMP JUMPDEST PUSH1 0x40 MLOAD DUP1 SWAP2 SUB SWAP1 RETURN JUMPDEST PUSH2 0x498 PUSH1 0x4 DUP1 CALLDATASIZE SUB DUP2 ADD SWAP1 PUSH2 0x493 SWAP2 SWAP1 PUSH2 0x2FFF JUMP JUMPDEST PUSH2 0x1B5F JUMP JUMPDEST PUSH1 0x40 MLOAD PUSH2 0x4A9 SWAP6 SWAP5 SWAP4 SWAP3 SWAP2 SWAP1 PUSH2 0x3643 JUMP JUMPDEST PUSH1 0x40 MLOAD DUP1 SWAP2 SUB SWAP1 RETURN JUMPDEST PUSH2 0x4CC PUSH1 0x4 DUP1 CALLDATASIZE SUB DUP2 ADD SWAP1 PUSH2 0x4C7 SWAP2 SWAP1 PUSH2 0x36A4 JUMP JUMPDEST PUSH2 0x1CC2 JUMP JUMPDEST PUSH1 0x40 MLOAD PUSH2 0x4D9 SWAP2 SWAP1 PUSH2 0x2BD3 JUMP JUMPDEST PUSH1 0x40 MLOAD DUP1 SWAP2 SUB SWAP1 RETURN JUMPDEST PUSH2 0x4FC PUSH1 0x4 DUP1 CALLDATASIZE SUB DUP2 ADD SWAP1 PUSH2 0x4F7 SWAP2 SWAP1 PUSH2 0x2BEE JUMP JUMPDEST PUSH2 0x1E4C JUMP JUMPDEST PUSH1 0x40 MLOAD PUSH2 0x509 SWAP2 SWAP1 PUSH2 0x3895 JUMP JUMPDEST PUSH1 0x40 MLOAD DUP1 SWAP2 SUB SWAP1 RETURN JUMPDEST PUSH2 0x52C PUSH1 0x4 DUP1 CALLDATASIZE SUB DUP2 ADD SWAP1 PUSH2 0x527 SWAP2 SWAP1 PUSH2 0x2FFF JUMP JUMPDEST PUSH2 0x200A JUMP JUMPDEST PUSH1 0x40 MLOAD PUSH2 0x53E SWAP7 SWAP6 SWAP5 SWAP4 SWAP3 SWAP2 SWAP1 PUSH2 0x38B7 JUMP JUMPDEST PUSH1 0x40 MLOAD DUP1 SWAP2 SUB SWAP1 RETURN JUMPDEST PUSH2 0x561 PUSH1 0x4 DUP1 CALLDATASIZE SUB DUP2 ADD SWAP1 PUSH2 0x55C SWAP2 SWAP1 PUSH2 0x3926 JUMP JUMPDEST PUSH2 0x2173 JUMP JUMPDEST STOP JUMPDEST PUSH2 0x57D PUSH1 0x4 DUP1 CALLDATASIZE SUB DUP2 ADD SWAP1 PUSH2 0x578 SWAP2 SWAP1 PUSH2 0x2FFF JUMP JUMPDEST PUSH2 0x23FC JUMP JUMPDEST PUSH1 0x40 MLOAD PUSH2 0x590 SWAP8 SWAP7 SWAP6 SWAP5 SWAP4 SWAP3 SWAP2 SWAP1 PUSH2 0x39E4 JUMP JUMPDEST PUSH1 0x40 MLOAD DUP1 SWAP2 SUB SWAP1 RETURN JUMPDEST PUSH1 0x5 PUSH1 0x20 MSTORE DUP2 PUSH1 0x0 MSTORE PUSH1 0x40 PUSH1 0x0 KECCAK256 PUSH1 0x20 MSTORE DUP1 PUSH1 0x0 MSTORE PUSH1 0x40 PUSH1 0x0 KECCAK256 PUSH1 0x0 SWAP2 POP SWAP2 POP SWAP1 SLOAD SWAP1 PUSH2 0x100 EXP SWAP1 DIV PUSH1 0xFF AND DUP2 JUMP JUMPDEST PUSH1 0x0 DUP1 PUSH1 0x0 DUP9 DUP2 MSTORE PUSH1 0x20 ADD SWAP1 DUP2 MSTORE PUSH1 0x20 ADD PUSH1 0x0 KECCAK256 PUSH1 0x5 ADD PUSH1 0x14 SWAP1 SLOAD SWAP1 PUSH2 0x100 EXP SWAP1 DIV PUSH1 0xFF AND PUSH2 0x62C JUMPI PUSH1 0x40 MLOAD PUSH32 0x8C379A000000000000000000000000000000000000000000000000000000000 DUP2 MSTORE PUSH1 0x4 ADD PUSH2 0x623 SWAP1 PUSH2 0x3ABB JUMP JUMPDEST PUSH1 0x40 MLOAD DUP1 SWAP2 SUB SWAP1 REVERT JUMPDEST PUSH1 0x0 DUP1 DUP9 DUP2 MSTORE PUSH1 0x20 ADD SWAP1 DUP2 MSTORE PUSH1 0x20 ADD PUSH1 0x0 KECCAK256 PUSH1 0x3 ADD SLOAD TIMESTAMP LT ISZERO PUSH2 0x684 JUMPI PUSH1 0x40 MLOAD PUSH32 0x8C379A000000000000000000000000000000000000000000000000000000000 DUP2 MSTORE PUSH1 0x4 ADD PUSH2 0x67B SWAP1 PUSH2 0x3B27 JUMP JUMPDEST PUSH1 0x40 MLOAD DUP1 SWAP2 SUB SWAP1 REVERT JUMPDEST PUSH1 0x0 DUP1 DUP9 DUP2 MSTORE PUSH1 0x20 ADD SWAP1 DUP2 MSTORE PUSH1 0x20 ADD PUSH1 0x0 KECCAK256 PUSH1 0x4 ADD SLOAD TIMESTAMP GT ISZERO PUSH2 0x6DC JUMPI PUSH1 0x40 MLOAD PUSH32 0x8C379A000000000000000000000000000000000000000000000000000000000 DUP2 MSTORE PUSH1 0x4 ADD PUSH2 0x6D3 SWAP1 PUSH2 0x3B93 JUMP JUMPDEST PUSH1 0x40 MLOAD DUP1 SWAP2 SUB SWAP1 REVERT JUMPDEST PUSH1 0x8 PUSH1 0x0 DUP2 SLOAD DUP1 SWAP3 SWAP2 SWAP1 PUSH2 0x6EF SWAP1 PUSH2 0x3BE2 JUMP JUMPDEST SWAP2 SWAP1 POP SSTORE POP PUSH1 0x0 PUSH1 0x40 MLOAD DUP1 PUSH2 0x100 ADD PUSH1 0x40 MSTORE DUP1 PUSH1 0x8 SLOAD DUP2 MSTORE PUSH1 0x20 ADD DUP10 DUP2 MSTORE PUSH1 0x20 ADD DUP9 DUP2 MSTORE PUSH1 0x20 ADD DUP8 DUP2 MSTORE PUSH1 0x20 ADD DUP7 DUP2 MSTORE PUSH1 0x20 ADD DUP6 DUP2 MSTORE PUSH1 0x20 ADD DUP5 DUP2 MSTORE PUSH1 0x20 ADD TIMESTAMP DUP2 MSTORE POP SWAP1 POP PUSH1 0x2 PUSH1 0x0 DUP10 DUP2 MSTORE PUSH1 0x20 ADD SWAP1 DUP2 MSTORE PUSH1 0x20 ADD PUSH1 0x0 KECCAK256 DUP2 SWAP1 DUP1 PUSH1 0x1 DUP2 SLOAD ADD DUP1 DUP3 SSTORE DUP1 SWAP2 POP POP PUSH1 0x1 SWAP1 SUB SWAP1 PUSH1 0x0 MSTORE PUSH1 0x20 PUSH1 0x0 KECCAK256 SWAP1 PUSH1 0x8 MUL ADD PUSH1 0x0 SWAP1 SWAP2 SWAP1 SWAP2 SWAP1 SWAP2 POP PUSH1 0x0 DUP3 ADD MLOAD DUP2 PUSH1 0x0 ADD SSTORE PUSH1 0x20 DUP3 ADD MLOAD DUP2 PUSH1 0x1 ADD SSTORE PUSH1 0x40 DUP3 ADD MLOAD DUP2 PUSH1 0x2 ADD SWAP1 DUP2 PUSH2 0x79A SWAP2 SWAP1 PUSH2 0x3E36 JUMP JUMPDEST POP PUSH1 0x60 DUP3 ADD MLOAD DUP2 PUSH1 0x3 ADD SWAP1 DUP2 PUSH2 0x7B0 SWAP2 SWAP1 PUSH2 0x3E36 JUMP JUMPDEST POP PUSH1 0x80 DUP3 ADD MLOAD DUP2 PUSH1 0x4 ADD SWAP1 DUP2 PUSH2 0x7C6 SWAP2 SWAP1 PUSH2 0x3E36 JUMP JUMPDEST POP PUSH1 0xA0 DUP3 ADD MLOAD DUP2 PUSH1 0x5 ADD SWAP1 DUP2 PUSH2 0x7DC SWAP2 SWAP1 PUSH2 0x3E36 JUMP JUMPDEST POP PUSH1 0xC0 DUP3 ADD MLOAD DUP2 PUSH1 0x6 ADD SWAP1 DUP1 MLOAD SWAP1 PUSH1 0x20 ADD SWAP1 PUSH2 0x7F9 SWAP3 SWAP2 SWAP1 PUSH2 0x267B JUMP JUMPDEST POP PUSH1 0xE0 DUP3 ADD MLOAD DUP2 PUSH1 0x7 ADD SSTORE POP POP PUSH1 0x8 SLOAD PUSH32 0xA68029EE858DEE2070A776912910040353834982B139C654E3AB49E79259282C DUP10 DUP10 PUSH1 0x40 MLOAD PUSH2 0x83A SWAP3 SWAP2 SWAP1 PUSH2 0x3F08 JUMP JUMPDEST PUSH1 0x40 MLOAD DUP1 SWAP2 SUB SWAP1 LOG2 PUSH1 0x8 SLOAD SWAP2 POP POP SWAP7 SWAP6 POP POP POP POP POP POP JUMP JUMPDEST PUSH1 0x60 PUSH1 0x2 PUSH1 0x0 DUP4 DUP2 MSTORE PUSH1 0x20 ADD SWAP1 DUP2 MSTORE PUSH1 0x20 ADD PUSH1 0x0 KECCAK256 DUP1 SLOAD DUP1 PUSH1 0x20 MUL PUSH1 0x20 ADD PUSH1 0x40 MLOAD SWAP1 DUP2 ADD PUSH1 0x40 MSTORE DUP1 SWAP3 SWAP2 SWAP1 DUP2 DUP2 MSTORE PUSH1 0x20 ADD PUSH1 0x0 SWAP1 JUMPDEST DUP3 DUP3 LT ISZERO PUSH2 0xBAE JUMPI DUP4 DUP3 SWAP1 PUSH1 0x0 MSTORE PUSH1 0x20 PUSH1 0x0 KECCAK256 SWAP1 PUSH1 0x8 MUL ADD PUSH1 0x40 MLOAD DUP1 PUSH2 0x100 ADD PUSH1 0x40 MSTORE SWAP1 DUP2 PUSH1 0x0 DUP3 ADD SLOAD DUP2 MSTORE PUSH1 0x20 ADD PUSH1 0x1 DUP3 ADD SLOAD DUP2 MSTORE PUSH1 0x20 ADD PUSH1 0x2 DUP3 ADD DUP1 SLOAD PUSH2 0x8CF SWAP1 PUSH2 0x3C59 JUMP JUMPDEST DUP1 PUSH1 0x1F ADD PUSH1 0x20 DUP1 SWAP2 DIV MUL PUSH1 0x20 ADD PUSH1 0x40 MLOAD SWAP1 DUP2 ADD PUSH1 0x40 MSTORE DUP1 SWAP3 SWAP2 SWAP1 DUP2 DUP2 MSTORE PUSH1 0x20 ADD DUP3 DUP1 SLOAD PUSH2 0x8FB SWAP1 PUSH2 0x3C59 JUMP JUMPDEST DUP1 ISZERO PUSH2 0x948 JUMPI DUP1 PUSH1 0x1F LT PUSH2 0x91D JUMPI PUSH2 0x100 DUP1 DUP4 SLOAD DIV MUL DUP4 MSTORE SWAP2 PUSH1 0x20 ADD SWAP2 PUSH2 0x948 JUMP JUMPDEST DUP3 ADD SWAP2 SWAP1 PUSH1 0x0 MSTORE PUSH1 0x20 PUSH1 0x0 KECCAK256 SWAP1 JUMPDEST DUP2 SLOAD DUP2 MSTORE SWAP1 PUSH1 0x1 ADD SWAP1 PUSH1 0x20 ADD DUP1 DUP4 GT PUSH2 0x92B JUMPI DUP3 SWAP1 SUB PUSH1 0x1F AND DUP3 ADD SWAP2 JUMPDEST POP POP POP POP POP DUP2 MSTORE PUSH1 0x20 ADD PUSH1 0x3 DUP3 ADD DUP1 SLOAD PUSH2 0x961 SWAP1 PUSH2 0x3C59 JUMP JUMPDEST DUP1 PUSH1 0x1F ADD PUSH1 0x20 DUP1 SWAP2 DIV MUL PUSH1 0x20 ADD PUSH1 0x40 MLOAD SWAP1 DUP2 ADD PUSH1 0x40 MSTORE DUP1 SWAP3 SWAP2 SWAP1 DUP2 DUP2 MSTORE PUSH1 0x20 ADD DUP3 DUP1 SLOAD PUSH2 0x98D SWAP1 PUSH2 0x3C59 JUMP JUMPDEST DUP1 ISZERO PUSH2 0x9DA JUMPI DUP1 PUSH1 0x1F LT PUSH2 0x9AF JUMPI PUSH2 0x100 DUP1 DUP4 SLOAD DIV MUL DUP4 MSTORE SWAP2 PUSH1 0x20 ADD SWAP2 PUSH2 0x9DA JUMP JUMPDEST DUP3 ADD SWAP2 SWAP1 PUSH1 0x0 MSTORE PUSH1 0x20 PUSH1 0x0 KECCAK256 SWAP1 JUMPDEST DUP2 SLOAD DUP2 MSTORE SWAP1 PUSH1 0x1 ADD SWAP1 PUSH1 0x20 ADD DUP1 DUP4 GT PUSH2 0x9BD JUMPI DUP3 SWAP1 SUB PUSH1 0x1F AND DUP3 ADD SWAP2 JUMPDEST POP POP POP POP POP DUP2 MSTORE PUSH1 0x20 ADD PUSH1 0x4 DUP3 ADD DUP1 SLOAD PUSH2 0x9F3 SWAP1 PUSH2 0x3C59 JUMP JUMPDEST DUP1 PUSH1 0x1F ADD PUSH1 0x20 DUP1 SWAP2 DIV MUL PUSH1 0x20 ADD PUSH1 0x40 MLOAD SWAP1 DUP2 ADD PUSH1 0x40 MSTORE DUP1 SWAP3 SWAP2 SWAP1 DUP2 DUP2 MSTORE PUSH1 0x20 ADD DUP3 DUP1 SLOAD PUSH2 0xA1F SWAP1 PUSH2 0x3C59 JUMP JUMPDEST DUP1 ISZERO PUSH2 0xA6C JUMPI DUP1 PUSH1 0x1F LT PUSH2 0xA41 JUMPI PUSH2 0x100 DUP1 DUP4 SLOAD DIV MUL DUP4 MSTORE SWAP2 PUSH1 0x20 ADD SWAP2 PUSH2 0xA6C JUMP JUMPDEST DUP3 ADD SWAP2 SWAP1 PUSH1 0x0 MSTORE PUSH1 0x20 PUSH1 0x0 KECCAK256 SWAP1 JUMPDEST DUP2 SLOAD DUP2 MSTORE SWAP1 PUSH1 0x1 ADD SWAP1 PUSH1 0x20 ADD DUP1 DUP4 GT PUSH2 0xA4F JUMPI DUP3 SWAP1 SUB PUSH1 0x1F AND DUP3 ADD SWAP2 JUMPDEST POP POP POP POP POP DUP2 MSTORE PUSH1 0x20 ADD PUSH1 0x5 DUP3 ADD DUP1 SLOAD PUSH2 0xA85 SWAP1 PUSH2 0x3C59 JUMP JUMPDEST DUP1 PUSH1 0x1F ADD PUSH1 0x20 DUP1 SWAP2 DIV MUL PUSH1 0x20 ADD PUSH1 0x40 MLOAD SWAP1 DUP2 ADD PUSH1 0x40 MSTORE DUP1 SWAP3 SWAP2 SWAP1 DUP2 DUP2 MSTORE PUSH1 0x20 ADD DUP3 DUP1 SLOAD PUSH2 0xAB1 SWAP1 PUSH2 0x3C59 JUMP JUMPDEST DUP1 ISZERO PUSH2 0xAFE JUMPI DUP1 PUSH1 0x1F LT PUSH2 0xAD3 JUMPI PUSH2 0x100 DUP1 DUP4 SLOAD DIV MUL DUP4 MSTORE SWAP2 PUSH1 0x20 ADD SWAP2 PUSH2 0xAFE JUMP JUMPDEST DUP3 ADD SWAP2 SWAP1 PUSH1 0x0 MSTORE PUSH1 0x20 PUSH1 0x0 KECCAK256 SWAP1 JUMPDEST DUP2 SLOAD DUP2 MSTORE SWAP1 PUSH1 0x1 ADD SWAP1 PUSH1 0x20 ADD DUP1 DUP4 GT PUSH2 0xAE1 JUMPI DUP3 SWAP1 SUB PUSH1 0x1F AND DUP3 ADD SWAP2 JUMPDEST POP POP POP POP POP DUP2 MSTORE PUSH1 0x20 ADD PUSH1 0x6 DUP3 ADD DUP1 SLOAD DUP1 PUSH1 0x20 MUL PUSH1 0x20 ADD PUSH1 0x40 MLOAD SWAP1 DUP2 ADD PUSH1 0x40 MSTORE DUP1 SWAP3 SWAP2 SWAP1 DUP2 DUP2 MSTORE PUSH1 0x20 ADD DUP3 DUP1 SLOAD DUP1 ISZERO PUSH2 0xB8C JUMPI PUSH1 0x20 MUL DUP3 ADD SWAP2 SWAP1 PUSH1 0x0 MSTORE PUSH1 0x20 PUSH1 0x0 KECCAK256 SWAP1 JUMPDEST DUP2 PUSH1 0x0 SWAP1 SLOAD SWAP1 PUSH2 0x100 EXP SWAP1 DIV PUSH20 0xFFFFFFFFFFFFFFFFFFFFFFFFFFFFFFFFFFFFFFFF AND PUSH20 0xFFFFFFFFFFFFFFFFFFFFFFFFFFFFFFFFFFFFFFFF AND DUP2 MSTORE PUSH1 0x20 ADD SWAP1 PUSH1 0x1 ADD SWAP1 DUP1 DUP4 GT PUSH2 0xB42 JUMPI JUMPDEST POP POP POP POP POP DUP2 MSTORE PUSH1 0x20 ADD PUSH1 0x7 DUP3 ADD SLOAD DUP2 MSTORE POP POP DUP2 MSTORE PUSH1 0x20 ADD SWAP1 PUSH1 0x1 ADD SWAP1 PUSH2 0x887 JUMP JUMPDEST POP POP POP POP SWAP1 POP SWAP2 SWAP1 POP JUMP JUMPDEST PUSH2 0xBC1 PUSH2 0x2705 JUMP JUMPDEST PUSH1 0x0 DUP1 DUP4 DUP2 MSTORE PUSH1 0x20 ADD SWAP1 DUP2 MSTORE PUSH1 0x20 ADD PUSH1 0x0 KECCAK256 PUSH1 0x40 MLOAD DUP1 PUSH2 0x100 ADD PUSH1 0x40 MSTORE SWAP1 DUP2 PUSH1 0x0 DUP3 ADD SLOAD DUP2 MSTORE PUSH1 0x20 ADD PUSH1 0x1 DUP3 ADD DUP1 SLOAD PUSH2 0xBF9 SWAP1 PUSH2 0x3C59 JUMP JUMPDEST DUP1 PUSH1 0x1F ADD PUSH1 0x20 DUP1 SWAP2 DIV MUL PUSH1 0x20 ADD PUSH1 0x40 MLOAD SWAP1 DUP2 ADD PUSH1 0x40 MSTORE DUP1 SWAP3 SWAP2 SWAP1 DUP2 DUP2 MSTORE PUSH1 0x20 ADD DUP3 DUP1 SLOAD PUSH2 0xC25 SWAP1 PUSH2 0x3C59 JUMP JUMPDEST DUP1 ISZERO PUSH2 0xC72 JUMPI DUP1 PUSH1 0x1F LT PUSH2 0xC47 JUMPI PUSH2 0x100 DUP1 DUP4 SLOAD DIV MUL DUP4 MSTORE SWAP2 PUSH1 0x20 ADD SWAP2 PUSH2 0xC72 JUMP JUMPDEST DUP3 ADD SWAP2 SWAP1 PUSH1 0x0 MSTORE PUSH1 0x20 PUSH1 0x0 KECCAK256 SWAP1 JUMPDEST DUP2 SLOAD DUP2 MSTORE SWAP1 PUSH1 0x1 ADD SWAP1 PUSH1 0x20 ADD DUP1 DUP4 GT PUSH2 0xC55 JUMPI DUP3 SWAP1 SUB PUSH1 0x1F AND DUP3 ADD SWAP2 JUMPDEST POP POP POP POP POP DUP2 MSTORE PUSH1 0x20 ADD PUSH1 0x2 DUP3 ADD DUP1 SLOAD PUSH2 0xC8B SWAP1 PUSH2 0x3C59 JUMP JUMPDEST DUP1 PUSH1 0x1F ADD PUSH1 0x20 DUP1 SWAP2 DIV MUL PUSH1 0x20 ADD PUSH1 0x40 MLOAD SWAP1 DUP2 ADD PUSH1 0x40 MSTORE DUP1 SWAP3 SWAP2 SWAP1 DUP2 DUP2 MSTORE PUSH1 0x20 ADD DUP3 DUP1 SLOAD PUSH2 0xCB7 SWAP1 PUSH2 0x3C59 JUMP JUMPDEST DUP1 ISZERO PUSH2 0xD04 JUMPI DUP1 PUSH1 0x1F LT PUSH2 0xCD9 JUMPI PUSH2 0x100 DUP1 DUP4 SLOAD DIV MUL DUP4 MSTORE SWAP2 PUSH1 0x20 ADD SWAP2 PUSH2 0xD04 JUMP JUMPDEST DUP3 ADD SWAP2 SWAP1 PUSH1 0x0 MSTORE PUSH1 0x20 PUSH1 0x0 KECCAK256 SWAP1 JUMPDEST DUP2 SLOAD DUP2 MSTORE SWAP1 PUSH1 0x1 ADD SWAP1 PUSH1 0x20 ADD DUP1 DUP4 GT PUSH2 0xCE7 JUMPI DUP3 SWAP1 SUB PUSH1 0x1F AND DUP3 ADD SWAP2 JUMPDEST POP POP POP POP POP DUP2 MSTORE PUSH1 0x20 ADD PUSH1 0x3 DUP3 ADD SLOAD DUP2 MSTORE PUSH1 0x20 ADD PUSH1 0x4 DUP3 ADD SLOAD DUP2 MSTORE PUSH1 0x20 ADD PUSH1 0x5 DUP3 ADD PUSH1 0x0 SWAP1 SLOAD SWAP1 PUSH2 0x100 EXP SWAP1 DIV PUSH20 0xFFFFFFFFFFFFFFFFFFFFFFFFFFFFFFFFFFFFFFFF AND PUSH20 0xFFFFFFFFFFFFFFFFFFFFFFFFFFFFFFFFFFFFFFFF AND PUSH20 0xFFFFFFFFFFFFFFFFFFFFFFFFFFFFFFFFFFFFFFFF AND DUP2 MSTORE PUSH1 0x20 ADD PUSH1 0x5 DUP3 ADD PUSH1 0x14 SWAP1 SLOAD SWAP1 PUSH2 0x100 EXP SWAP1 DIV PUSH1 0xFF AND ISZERO ISZERO ISZERO ISZERO DUP2 MSTORE PUSH1 0x20 ADD PUSH1 0x6 DUP3 ADD SLOAD DUP2 MSTORE POP POP SWAP1 POP SWAP2 SWAP1 POP JUMP JUMPDEST PUSH1 0x8 SLOAD DUP2 JUMP JUMPDEST PUSH1 0x60 PUSH1 0x6 PUSH1 0x0 DUP5 DUP2 MSTORE PUSH1 0x20 ADD SWAP1 DUP2 MSTORE PUSH1 0x20 ADD PUSH1 0x0 KECCAK256 PUSH1 0x0 SWAP1 SLOAD SWAP1 PUSH2 0x100 EXP SWAP1 DIV PUSH1 0xFF AND DUP1 PUSH2 0xE37 JUMPI POP CALLER PUSH20 0xFFFFFFFFFFFFFFFFFFFFFFFFFFFFFFFFFFFFFFFF AND PUSH1 0x0 DUP1 DUP6 DUP2 MSTORE PUSH1 0x20 ADD SWAP1 DUP2 MSTORE PUSH1 0x20 ADD PUSH1 0x0 KECCAK256 PUSH1 0x5 ADD PUSH1 0x0 SWAP1 SLOAD SWAP1 PUSH2 0x100 EXP SWAP1 DIV PUSH20 0xFFFFFFFFFFFFFFFFFFFFFFFFFFFFFFFFFFFFFFFF AND PUSH20 0xFFFFFFFFFFFFFFFFFFFFFFFFFFFFFFFFFFFFFFFF AND EQ JUMPDEST DUP1 PUSH2 0xE9C JUMPI POP PUSH1 0x5 PUSH1 0x0 DUP5 DUP2 MSTORE PUSH1 0x20 ADD SWAP1 DUP2 MSTORE PUSH1 0x20 ADD PUSH1 0x0 KECCAK256 PUSH1 0x0 CALLER PUSH20 0xFFFFFFFFFFFFFFFFFFFFFFFFFFFFFFFFFFFFFFFF AND PUSH20 0xFFFFFFFFFFFFFFFFFFFFFFFFFFFFFFFFFFFFFFFF AND DUP2 MSTORE PUSH1 0x20 ADD SWAP1 DUP2 MSTORE PUSH1 0x20 ADD PUSH1 0x0 KECCAK256 PUSH1 0x0 SWAP1 SLOAD SWAP1 PUSH2 0x100 EXP SWAP1 DIV PUSH1 0xFF AND JUMPDEST PUSH2 0xEDB JUMPI PUSH1 0x40 MLOAD PUSH32 0x8C379A000000000000000000000000000000000000000000000000000000000 DUP2 MSTORE PUSH1 0x4 ADD PUSH2 0xED2 SWAP1 PUSH2 0x3F84 JUMP JUMPDEST PUSH1 0x40 MLOAD DUP1 SWAP2 SUB SWAP1 REVERT JUMPDEST PUSH1 0x3 PUSH1 0x0 DUP5 DUP2 MSTORE PUSH1 0x20 ADD SWAP1 DUP2 MSTORE PUSH1 0x20 ADD PUSH1 0x0 KECCAK256 PUSH1 0x0 DUP4 DUP2 MSTORE PUSH1 0x20 ADD SWAP1 DUP2 MSTORE PUSH1 0x20 ADD PUSH1 0x0 KECCAK256 DUP1 SLOAD DUP1 PUSH1 0x20 MUL PUSH1 0x20 ADD PUSH1 0x40 MLOAD SWAP1 DUP2 ADD PUSH1 0x40 MSTORE DUP1 SWAP3 SWAP2 SWAP1 DUP2 DUP2 MSTORE PUSH1 0x20 ADD PUSH1 0x0 SWAP1 JUMPDEST DUP3 DUP3 LT ISZERO PUSH2 0x1076 JUMPI DUP4 DUP3 SWAP1 PUSH1 0x0 MSTORE PUSH1 0x20 PUSH1 0x0 KECCAK256 SWAP1 PUSH1 0x8 MUL ADD PUSH1 0x40 MLOAD DUP1 PUSH2 0x100 ADD PUSH1 0x40 MSTORE SWAP1 DUP2 PUSH1 0x0 DUP3 ADD SLOAD DUP2 MSTORE PUSH1 0x20 ADD PUSH1 0x1 DUP3 ADD PUSH1 0x0 SWAP1 SLOAD SWAP1 PUSH2 0x100 EXP SWAP1 DIV PUSH20 0xFFFFFFFFFFFFFFFFFFFFFFFFFFFFFFFFFFFFFFFF AND PUSH20 0xFFFFFFFFFFFFFFFFFFFFFFFFFFFFFFFFFFFFFFFF AND PUSH20 0xFFFFFFFFFFFFFFFFFFFFFFFFFFFFFFFFFFFFFFFF AND DUP2 MSTORE PUSH1 0x20 ADD PUSH1 0x2 DUP3 ADD SLOAD DUP2 MSTORE PUSH1 0x20 ADD PUSH1 0x3 DUP3 ADD SLOAD DUP2 MSTORE PUSH1 0x20 ADD PUSH1 0x4 DUP3 ADD SLOAD DUP2 MSTORE PUSH1 0x20 ADD PUSH1 0x5 DUP3 ADD SLOAD DUP2 MSTORE PUSH1 0x20 ADD PUSH1 0x6 DUP3 ADD DUP1 SLOAD PUSH2 0xFDB SWAP1 PUSH2 0x3C59 JUMP JUMPDEST DUP1 PUSH1 0x1F ADD PUSH1 0x20 DUP1 SWAP2 DIV MUL PUSH1 0x20 ADD PUSH1 0x40 MLOAD SWAP1 DUP2 ADD PUSH1 0x40 MSTORE DUP1 SWAP3 SWAP2 SWAP1 DUP2 DUP2 MSTORE PUSH1 0x20 ADD DUP3 DUP1 SLOAD PUSH2 0x1007 SWAP1 PUSH2 0x3C59 JUMP JUMPDEST DUP1 ISZERO PUSH2 0x1054 JUMPI DUP1 PUSH1 0x1F LT PUSH2 0x1029 JUMPI PUSH2 0x100 DUP1 DUP4 SLOAD DIV MUL DUP4 MSTORE SWAP2 PUSH1 0x20 ADD SWAP2 PUSH2 0x1054 JUMP JUMPDEST DUP3 ADD SWAP2 SWAP1 PUSH1 0x0 MSTORE PUSH1 0x20 PUSH1 0x0 KECCAK256 SWAP1 JUMPDEST DUP2 SLOAD DUP2 MSTORE SWAP1 PUSH1 0x1 ADD SWAP1 PUSH1 0x20 ADD DUP1 DUP4 GT PUSH2 0x1037 JUMPI DUP3 SWAP1 SUB PUSH1 0x1F AND DUP3 ADD SWAP2 JUMPDEST POP POP POP POP POP DUP2 MSTORE PUSH1 0x20 ADD PUSH1 0x7 DUP3 ADD SLOAD DUP2 MSTORE POP POP DUP2 MSTORE PUSH1 0x20 ADD SWAP1 PUSH1 0x1 ADD SWAP1 PUSH2 0xF1F JUMP JUMPDEST POP POP POP POP SWAP1 POP SWAP3 SWAP2 POP POP JUMP JUMPDEST PUSH1 0x3 PUSH1 0x20 MSTORE DUP3 PUSH1 0x0 MSTORE PUSH1 0x40 PUSH1 0x0 KECCAK256 PUSH1 0x20 MSTORE DUP2 PUSH1 0x0 MSTORE PUSH1 0x40 PUSH1 0x0 KECCAK256 DUP2 DUP2 SLOAD DUP2 LT PUSH2 0x10AA JUMPI PUSH1 0x0 DUP1 REVERT JUMPDEST SWAP1 PUSH1 0x0 MSTORE PUSH1 0x20 PUSH1 0x0 KECCAK256 SWAP1 PUSH1 0x8 MUL ADD PUSH1 0x0 SWAP3 POP SWAP3 POP POP POP DUP1 PUSH1 0x0 ADD SLOAD SWAP1 DUP1 PUSH1 0x1 ADD PUSH1 0x0 SWAP1 SLOAD SWAP1 PUSH2 0x100 EXP SWAP1 DIV PUSH20 0xFFFFFFFFFFFFFFFFFFFFFFFFFFFFFFFFFFFFFFFF AND SWAP1 DUP1 PUSH1 0x2 ADD SLOAD SWAP1 DUP1 PUSH1 0x3 ADD SLOAD SWAP1 DUP1 PUSH1 0x4 ADD SLOAD SWAP1 DUP1 PUSH1 0x5 ADD SLOAD SWAP1 DUP1 PUSH1 0x6 ADD DUP1 SLOAD PUSH2 0x1113 SWAP1 PUSH2 0x3C59 JUMP JUMPDEST DUP1 PUSH1 0x1F ADD PUSH1 0x20 DUP1 SWAP2 DIV MUL PUSH1 0x20 ADD PUSH1 0x40 MLOAD SWAP1 DUP2 ADD PUSH1 0x40 MSTORE DUP1 SWAP3 SWAP2 SWAP1 DUP2 DUP2 MSTORE PUSH1 0x20 ADD DUP3 DUP1 SLOAD PUSH2 0x113F SWAP1 PUSH2 0x3C59 JUMP JUMPDEST DUP1 ISZERO PUSH2 0x118C JUMPI DUP1 PUSH1 0x1F LT PUSH2 0x1161 JUMPI PUSH2 0x100 DUP1 DUP4 SLOAD DIV MUL DUP4 MSTORE SWAP2 PUSH1 0x20 ADD SWAP2 PUSH2 0x118C JUMP JUMPDEST DUP3 ADD SWAP2 SWAP1 PUSH1 0x0 MSTORE PUSH1 0x20 PUSH1 0x0 KECCAK256 SWAP1 JUMPDEST DUP2 SLOAD DUP2 MSTORE SWAP1 PUSH1 0x1 ADD SWAP1 PUSH1 0x20 ADD DUP1 DUP4 GT PUSH2 0x116F JUMPI DUP3 SWAP1 SUB PUSH1 0x1F AND DUP3 ADD SWAP2 JUMPDEST POP POP POP POP POP SWAP1 DUP1 PUSH1 0x7 ADD SLOAD SWAP1 POP DUP9 JUMP JUMPDEST DUP1 CALLER PUSH20 0xFFFFFFFFFFFFFFFFFFFFFFFFFFFFFFFFFFFFFFFF AND PUSH1 0x0 DUP1 DUP4 DUP2 MSTORE PUSH1 0x20 ADD SWAP1 DUP2 MSTORE PUSH1 0x20 ADD PUSH1 0x0 KECCAK256 PUSH1 0x5 ADD PUSH1 0x0 SWAP1 SLOAD SWAP1 PUSH2 0x100 EXP SWAP1 DIV PUSH20 0xFFFFFFFFFFFFFFFFFFFFFFFFFFFFFFFFFFFFFFFF AND PUSH20 0xFFFFFFFFFFFFFFFFFFFFFFFFFFFFFFFFFFFFFFFF AND EQ PUSH2 0x1240 JUMPI PUSH1 0x40 MLOAD PUSH32 0x8C379A000000000000000000000000000000000000000000000000000000000 DUP2 MSTORE PUSH1 0x4 ADD PUSH2 0x1237 SWAP1 PUSH2 0x3FF0 JUMP JUMPDEST PUSH1 0x40 MLOAD DUP1 SWAP2 SUB SWAP1 REVERT JUMPDEST PUSH1 0x1 PUSH1 0x6 PUSH1 0x0 DUP5 DUP2 MSTORE PUSH1 0x20 ADD SWAP1 DUP2 MSTORE PUSH1 0x20 ADD PUSH1 0x0 KECCAK256 PUSH1 0x0 PUSH2 0x100 EXP DUP2 SLOAD DUP2 PUSH1 0xFF MUL NOT AND SWAP1 DUP4 ISZERO ISZERO MUL OR SWAP1 SSTORE POP DUP2 PUSH32 0x35FD8C5B783F985984E90D1AFDFB6F248A1539E57F882C515A721AA02798C68C PUSH1 0x40 MLOAD PUSH1 0x40 MLOAD DUP1 SWAP2 SUB SWAP1 LOG2 POP POP JUMP JUMPDEST PUSH1 0x0 PUSH1 0x6 PUSH1 0x0 DUP4 DUP2 MSTORE PUSH1 0x20 ADD SWAP1 DUP2 MSTORE PUSH1 0x20 ADD PUSH1 0x0 KECCAK256 PUSH1 0x0 SWAP1 SLOAD SWAP1 PUSH2 0x100 EXP SWAP1 DIV PUSH1 0xFF AND SWAP1 POP SWAP2 SWAP1 POP JUMP JUMPDEST DUP2 CALLER PUSH20 0xFFFFFFFFFFFFFFFFFFFFFFFFFFFFFFFFFFFFFFFF AND PUSH1 0x0 DUP1 DUP4 DUP2 MSTORE PUSH1 0x20 ADD SWAP1 DUP2 MSTORE PUSH1 0x20 ADD PUSH1 0x0 KECCAK256 PUSH1 0x5 ADD PUSH1 0x0 SWAP1 SLOAD SWAP1 PUSH2 0x100 EXP SWAP1 DIV PUSH20 0xFFFFFFFFFFFFFFFFFFFFFFFFFFFFFFFFFFFFFFFF AND PUSH20 0xFFFFFFFFFFFFFFFFFFFFFFFFFFFFFFFFFFFFFFFF AND EQ PUSH2 0x136B JUMPI PUSH1 0x40 MLOAD PUSH32 0x8C379A000000000000000000000000000000000000000000000000000000000 DUP2 MSTORE PUSH1 0x4 ADD PUSH2 0x1362 SWAP1 PUSH2 0x3FF0 JUMP JUMPDEST PUSH1 0x40 MLOAD DUP1 SWAP2 SUB SWAP1 REVERT JUMPDEST PUSH1 0x1 PUSH1 0x5 PUSH1 0x0 DUP6 DUP2 MSTORE PUSH1 0x20 ADD SWAP1 DUP2 MSTORE PUSH1 0x20 ADD PUSH1 0x0 KECCAK256 PUSH1 0x0 DUP5 PUSH20 0xFFFFFFFFFFFFFFFFFFFFFFFFFFFFFFFFFFFFFFFF AND PUSH20 0xFFFFFFFFFFFFFFFFFFFFFFFFFFFFFFFFFFFFFFFF AND DUP2 MSTORE PUSH1 0x20 ADD SWAP1 DUP2 MSTORE PUSH1 0x20 ADD PUSH1 0x0 KECCAK256 PUSH1 0x0 PUSH2 0x100 EXP DUP2 SLOAD DUP2 PUSH1 0xFF MUL NOT AND SWAP1 DUP4 ISZERO ISZERO MUL OR SWAP1 SSTORE POP DUP3 PUSH32 0x61846E41005E48CC4B4F814FD87591C4F1ADA6EFFE9D192BC5D929F0EF9585D1 DUP4 PUSH1 0x40 MLOAD PUSH2 0x1404 SWAP2 SWAP1 PUSH2 0x4010 JUMP JUMPDEST PUSH1 0x40 MLOAD DUP1 SWAP2 SUB SWAP1 LOG2 POP POP POP JUMP JUMPDEST DUP4 CALLER PUSH20 0xFFFFFFFFFFFFFFFFFFFFFFFFFFFFFFFFFFFFFFFF AND PUSH1 0x0 DUP1 DUP4 DUP2 MSTORE PUSH1 0x20 ADD SWAP1 DUP2 MSTORE PUSH1 0x20 ADD PUSH1 0x0 KECCAK256 PUSH1 0x5 ADD PUSH1 0x0 SWAP1 SLOAD SWAP1 PUSH2 0x100 EXP SWAP1 DIV PUSH20 0xFFFFFFFFFFFFFFFFFFFFFFFFFFFFFFFFFFFFFFFF AND PUSH20 0xFFFFFFFFFFFFFFFFFFFFFFFFFFFFFFFFFFFFFFFF AND EQ PUSH2 0x14B5 JUMPI PUSH1 0x40 MLOAD PUSH32 0x8C379A000000000000000000000000000000000000000000000000000000000 DUP2 MSTORE PUSH1 0x4 ADD PUSH2 0x14AC SWAP1 PUSH2 0x3FF0 JUMP JUMPDEST PUSH1 0x40 MLOAD DUP1 SWAP2 SUB SWAP1 REVERT JUMPDEST PUSH1 0xA PUSH1 0x0 DUP2 SLOAD DUP1 SWAP3 SWAP2 SWAP1 PUSH2 0x14C8 SWAP1 PUSH2 0x3BE2 JUMP JUMPDEST SWAP2 SWAP1 POP SSTORE POP PUSH1 0x0 PUSH1 0x40 MLOAD DUP1 PUSH1 0xA0 ADD PUSH1 0x40 MSTORE DUP1 PUSH1 0xA SLOAD DUP2 MSTORE PUSH1 0x20 ADD DUP8 DUP2 MSTORE PUSH1 0x20 ADD DUP7 DUP2 MSTORE PUSH1 0x20 ADD DUP6 DUP2 MSTORE PUSH1 0x20 ADD DUP5 DUP2 MSTORE POP SWAP1 POP PUSH1 0x4 PUSH1 0x0 DUP8 DUP2 MSTORE PUSH1 0x20 ADD SWAP1 DUP2 MSTORE PUSH1 0x20 ADD PUSH1 0x0 KECCAK256 DUP2 SWAP1 DUP1 PUSH1 0x1 DUP2 SLOAD ADD DUP1 DUP3 SSTORE DUP1 SWAP2 POP POP PUSH1 0x1 SWAP1 SUB SWAP1 PUSH1 0x0 MSTORE PUSH1 0x20 PUSH1 0x0 KECCAK256 SWAP1 PUSH1 0x5 MUL ADD PUSH1 0x0 SWAP1 SWAP2 SWAP1 SWAP2 SWAP1 SWAP2 POP PUSH1 0x0 DUP3 ADD MLOAD DUP2 PUSH1 0x0 ADD SSTORE PUSH1 0x20 DUP3 ADD MLOAD DUP2 PUSH1 0x1 ADD SSTORE PUSH1 0x40 DUP3 ADD MLOAD DUP2 PUSH1 0x2 ADD SWAP1 DUP2 PUSH2 0x1560 SWAP2 SWAP1 PUSH2 0x3E36 JUMP JUMPDEST POP PUSH1 0x60 DUP3 ADD MLOAD DUP2 PUSH1 0x3 ADD SWAP1 DUP2 PUSH2 0x1576 SWAP2 SWAP1 PUSH2 0x3E36 JUMP JUMPDEST POP PUSH1 0x80 DUP3 ADD MLOAD DUP2 PUSH1 0x4 ADD SSTORE POP POP DUP6 PUSH32 0xDA582DE5D612009C14D4B959D2E5E91065D382AFEAAD29D0481C0B9F82C2BF25 PUSH1 0xA SLOAD PUSH1 0x40 MLOAD PUSH2 0x15B5 SWAP2 SWAP1 PUSH2 0x2BD3 JUMP JUMPDEST PUSH1 0x40 MLOAD DUP1 SWAP2 SUB SWAP1 LOG2 POP POP POP POP POP POP JUMP JUMPDEST PUSH1 0x60 PUSH1 0x4 PUSH1 0x0 DUP4 DUP2 MSTORE PUSH1 0x20 ADD SWAP1 DUP2 MSTORE PUSH1 0x20 ADD PUSH1 0x0 KECCAK256 DUP1 SLOAD DUP1 PUSH1 0x20 MUL PUSH1 0x20 ADD PUSH1 0x40 MLOAD SWAP1 DUP2 ADD PUSH1 0x40 MSTORE DUP1 SWAP3 SWAP2 SWAP1 DUP2 DUP2 MSTORE PUSH1 0x20 ADD PUSH1 0x0 SWAP1 JUMPDEST DUP3 DUP3 LT ISZERO PUSH2 0x176E JUMPI DUP4 DUP3 SWAP1 PUSH1 0x0 MSTORE PUSH1 0x20 PUSH1 0x0 KECCAK256 SWAP1 PUSH1 0x5 MUL ADD PUSH1 0x40 MLOAD DUP1 PUSH1 0xA0 ADD PUSH1 0x40 MSTORE SWAP1 DUP2 PUSH1 0x0 DUP3 ADD SLOAD DUP2 MSTORE PUSH1 0x20 ADD PUSH1 0x1 DUP3 ADD SLOAD DUP2 MSTORE PUSH1 0x20 ADD PUSH1 0x2 DUP3 ADD DUP1 SLOAD PUSH2 0x1641 SWAP1 PUSH2 0x3C59 JUMP JUMPDEST DUP1 PUSH1 0x1F ADD PUSH1 0x20 DUP1 SWAP2 DIV MUL PUSH1 0x20 ADD PUSH1 0x40 MLOAD SWAP1 DUP2 ADD PUSH1 0x40 MSTORE DUP1 SWAP3 SWAP2 SWAP1 DUP2 DUP2 MSTORE PUSH1 0x20 ADD DUP3 DUP1 SLOAD PUSH2 0x166D SWAP1 PUSH2 0x3C59 JUMP JUMPDEST DUP1 ISZERO PUSH2 0x16BA JUMPI DUP1 PUSH1 0x1F LT PUSH2 0x168F JUMPI PUSH2 0x100 DUP1 DUP4 SLOAD DIV MUL DUP4 MSTORE SWAP2 PUSH1 0x20 ADD SWAP2 PUSH2 0x16BA JUMP JUMPDEST DUP3 ADD SWAP2 SWAP1 PUSH1 0x0 MSTORE PUSH1 0x20 PUSH1 0x0 KECCAK256 SWAP1 JUMPDEST DUP2 SLOAD DUP2 MSTORE SWAP1 PUSH1 0x1 ADD SWAP1 PUSH1 0x20 ADD DUP1 DUP4 GT PUSH2 0x169D JUMPI DUP3 SWAP1 SUB PUSH1 0x1F AND DUP3 ADD SWAP2 JUMPDEST POP POP POP POP POP DUP2 MSTORE PUSH1 0x20 ADD PUSH1 0x3 DUP3 ADD DUP1 SLOAD PUSH2 0x16D3 SWAP1 PUSH2 0x3C59 JUMP JUMPDEST DUP1 PUSH1 0x1F ADD PUSH1 0x20 DUP1 SWAP2 DIV MUL PUSH1 0x20 ADD PUSH1 0x40 MLOAD SWAP1 DUP2 ADD PUSH1 0x40 MSTORE DUP1 SWAP3 SWAP2 SWAP1 DUP2 DUP2 MSTORE PUSH1 0x20 ADD DUP3 DUP1 SLOAD PUSH2 0x16FF SWAP1 PUSH2 0x3C59 JUMP JUMPDEST DUP1 ISZERO PUSH2 0x174C JUMPI DUP1 PUSH1 0x1F LT PUSH2 0x1721 JUMPI PUSH2 0x100 DUP1 DUP4 SLOAD DIV MUL DUP4 MSTORE SWAP2 PUSH1 0x20 ADD SWAP2 PUSH2 0x174C JUMP JUMPDEST DUP3 ADD SWAP2 SWAP1 PUSH1 0x0 MSTORE PUSH1 0x20 PUSH1 0x0 KECCAK256 SWAP1 JUMPDEST DUP2 SLOAD DUP2 MSTORE SWAP1 PUSH1 0x1 ADD SWAP1 PUSH1 0x20 ADD DUP1 DUP4 GT PUSH2 0x172F JUMPI DUP3 SWAP1 SUB PUSH1 0x1F AND DUP3 ADD SWAP2 JUMPDEST POP POP POP POP POP DUP2 MSTORE PUSH1 0x20 ADD PUSH1 0x4 DUP3 ADD SLOAD DUP2 MSTORE POP POP DUP2 MSTORE PUSH1 0x20 ADD SWAP1 PUSH1 0x1 ADD SWAP1 PUSH2 0x15FA JUMP JUMPDEST POP POP POP POP SWAP1 POP SWAP2 SWAP1 POP JUMP JUMPDEST PUSH1 0x9 SLOAD DUP2 JUMP JUMPDEST DUP5 CALLER PUSH20 0xFFFFFFFFFFFFFFFFFFFFFFFFFFFFFFFFFFFFFFFF AND PUSH1 0x0 DUP1 DUP4 DUP2 MSTORE PUSH1 0x20 ADD SWAP1 DUP2 MSTORE PUSH1 0x20 ADD PUSH1 0x0 KECCAK256 PUSH1 0x5 ADD PUSH1 0x0 SWAP1 SLOAD SWAP1 PUSH2 0x100 EXP SWAP1 DIV PUSH20 0xFFFFFFFFFFFFFFFFFFFFFFFFFFFFFFFFFFFFFFFF AND PUSH20 0xFFFFFFFFFFFFFFFFFFFFFFFFFFFFFFFFFFFFFFFF AND EQ PUSH2 0x1823 JUMPI PUSH1 0x40 MLOAD PUSH32 0x8C379A000000000000000000000000000000000000000000000000000000000 DUP2 MSTORE PUSH1 0x4 ADD PUSH2 0x181A SWAP1 PUSH2 0x3FF0 JUMP JUMPDEST PUSH1 0x40 MLOAD DUP1 SWAP2 SUB SWAP1 REVERT JUMPDEST PUSH1 0x9 PUSH1 0x0 DUP2 SLOAD DUP1 SWAP3 SWAP2 SWAP1 PUSH2 0x1836 SWAP1 PUSH2 0x3BE2 JUMP JUMPDEST SWAP2 SWAP1 POP SSTORE POP PUSH1 0x0 PUSH1 0x40 MLOAD DUP1 PUSH1 0xC0 ADD PUSH1 0x40 MSTORE DUP1 PUSH1 0x9 SLOAD DUP2 MSTORE PUSH1 0x20 ADD DUP9 DUP2 MSTORE PUSH1 0x20 ADD DUP8 DUP2 MSTORE PUSH1 0x20 ADD DUP7 DUP2 MSTORE PUSH1 0x20 ADD DUP6 DUP2 MSTORE PUSH1 0x20 ADD DUP5 DUP2 MSTORE POP SWAP1 POP PUSH1 0x1 PUSH1 0x0 DUP9 DUP2 MSTORE PUSH1 0x20 ADD SWAP1 DUP2 MSTORE PUSH1 0x20 ADD PUSH1 0x0 KECCAK256 DUP2 SWAP1 DUP1 PUSH1 0x1 DUP2 SLOAD ADD DUP1 DUP3 SSTORE DUP1 SWAP2 POP POP PUSH1 0x1 SWAP1 SUB SWAP1 PUSH1 0x0 MSTORE PUSH1 0x20 PUSH1 0x0 KECCAK256 SWAP1 PUSH1 0x6 MUL ADD PUSH1 0x0 SWAP1 SWAP2 SWAP1 SWAP2 SWAP1 SWAP2 POP PUSH1 0x0 DUP3 ADD MLOAD DUP2 PUSH1 0x0 ADD SSTORE PUSH1 0x20 DUP3 ADD MLOAD DUP2 PUSH1 0x1 ADD SSTORE PUSH1 0x40 DUP3 ADD MLOAD DUP2 PUSH1 0x2 ADD SWAP1 DUP2 PUSH2 0x18D4 SWAP2 SWAP1 PUSH2 0x3E36 JUMP JUMPDEST POP PUSH1 0x60 DUP3 ADD MLOAD DUP2 PUSH1 0x3 ADD SWAP1 DUP2 PUSH2 0x18EA SWAP2 SWAP1 PUSH2 0x3E36 JUMP JUMPDEST POP PUSH1 0x80 DUP3 ADD MLOAD DUP2 PUSH1 0x4 ADD SSTORE PUSH1 0xA0 DUP3 ADD MLOAD DUP2 PUSH1 0x5 ADD SSTORE POP POP DUP7 PUSH32 0x9533451FA5361435374B8572DBBA1C7EE1C1C1ED052C0D1B0198DFCD41E27AD7 PUSH1 0x9 SLOAD DUP9 PUSH1 0x40 MLOAD PUSH2 0x1935 SWAP3 SWAP2 SWAP1 PUSH2 0x3F08 JUMP JUMPDEST PUSH1 0x40 MLOAD DUP1 SWAP2 SUB SWAP1 LOG2 POP POP POP POP POP POP POP JUMP JUMPDEST PUSH1 0x7 SLOAD DUP2 JUMP JUMPDEST PUSH1 0x0 PUSH1 0x5 PUSH1 0x0 DUP5 DUP2 MSTORE PUSH1 0x20 ADD SWAP1 DUP2 MSTORE PUSH1 0x20 ADD PUSH1 0x0 KECCAK256 PUSH1 0x0 DUP4 PUSH20 0xFFFFFFFFFFFFFFFFFFFFFFFFFFFFFFFFFFFFFFFF AND PUSH20 0xFFFFFFFFFFFFFFFFFFFFFFFFFFFFFFFFFFFFFFFF AND DUP2 MSTORE PUSH1 0x20 ADD SWAP1 DUP2 MSTORE PUSH1 0x20 ADD PUSH1 0x0 KECCAK256 PUSH1 0x0 SWAP1 SLOAD SWAP1 PUSH2 0x100 EXP SWAP1 DIV PUSH1 0xFF AND SWAP1 POP SWAP3 SWAP2 POP POP JUMP JUMPDEST PUSH1 0xA SLOAD DUP2 JUMP JUMPDEST PUSH1 0x0 PUSH1 0x20 MSTORE DUP1 PUSH1 0x0 MSTORE PUSH1 0x40 PUSH1 0x0 KECCAK256 PUSH1 0x0 SWAP2 POP SWAP1 POP DUP1 PUSH1 0x0 ADD SLOAD SWAP1 DUP1 PUSH1 0x1 ADD DUP1 SLOAD PUSH2 0x19E3 SWAP1 PUSH2 0x3C59 JUMP JUMPDEST DUP1 PUSH1 0x1F ADD PUSH1 0x20 DUP1 SWAP2 DIV MUL PUSH1 0x20 ADD PUSH1 0x40 MLOAD SWAP1 DUP2 ADD PUSH1 0x40 MSTORE DUP1 SWAP3 SWAP2 SWAP1 DUP2 DUP2 MSTORE PUSH1 0x20 ADD DUP3 DUP1 SLOAD PUSH2 0x1A0F SWAP1 PUSH2 0x3C59 JUMP JUMPDEST DUP1 ISZERO PUSH2 0x1A5C JUMPI DUP1 PUSH1 0x1F LT PUSH2 0x1A31 JUMPI PUSH2 0x100 DUP1 DUP4 SLOAD DIV MUL DUP4 MSTORE SWAP2 PUSH1 0x20 ADD SWAP2 PUSH2 0x1A5C JUMP JUMPDEST DUP3 ADD SWAP2 SWAP1 PUSH1 0x0 MSTORE PUSH1 0x20 PUSH1 0x0 KECCAK256 SWAP1 JUMPDEST DUP2 SLOAD DUP2 MSTORE SWAP1 PUSH1 0x1 ADD SWAP1 PUSH1 0x20 ADD DUP1 DUP4 GT PUSH2 0x1A3F JUMPI DUP3 SWAP1 SUB PUSH1 0x1F AND DUP3 ADD SWAP2 JUMPDEST POP POP POP POP POP SWAP1 DUP1 PUSH1 0x2 ADD DUP1 SLOAD PUSH2 0x1A71 SWAP1 PUSH2 0x3C59 JUMP JUMPDEST DUP1 PUSH1 0x1F ADD PUSH1 0x20 DUP1 SWAP2 DIV MUL PUSH1 0x20 ADD PUSH1 0x40 MLOAD SWAP1 DUP2 ADD PUSH1 0x40 MSTORE DUP1 SWAP3 SWAP2 SWAP1 DUP2 DUP2 MSTORE PUSH1 0x20 ADD DUP3 DUP1 SLOAD PUSH2 0x1A9D SWAP1 PUSH2 0x3C59 JUMP JUMPDEST DUP1 ISZERO PUSH2 0x1AEA JUMPI DUP1 PUSH1 0x1F LT PUSH2 0x1ABF JUMPI PUSH2 0x100 DUP1 DUP4 SLOAD DIV MUL DUP4 MSTORE SWAP2 PUSH1 0x20 ADD SWAP2 PUSH2 0x1AEA JUMP JUMPDEST DUP3 ADD SWAP2 SWAP1 PUSH1 0x0 MSTORE PUSH1 0x20 PUSH1 0x0 KECCAK256 SWAP1 JUMPDEST DUP2 SLOAD DUP2 MSTORE SWAP1 PUSH1 0x1 ADD SWAP1 PUSH1 0x20 ADD DUP1 DUP4 GT PUSH2 0x1ACD JUMPI DUP3 SWAP1 SUB PUSH1 0x1F AND DUP3 ADD SWAP2 JUMPDEST POP POP POP POP POP SWAP1 DUP1 PUSH1 0x3 ADD SLOAD SWAP1 DUP1 PUSH1 0x4 ADD SLOAD SWAP1 DUP1 PUSH1 0x5 ADD PUSH1 0x0 SWAP1 SLOAD SWAP1 PUSH2 0x100 EXP SWAP1 DIV PUSH20 0xFFFFFFFFFFFFFFFFFFFFFFFFFFFFFFFFFFFFFFFF AND SWAP1 DUP1 PUSH1 0x5 ADD PUSH1 0x14 SWAP1 SLOAD SWAP1 PUSH2 0x100 EXP SWAP1 DIV PUSH1 0xFF AND SWAP1 DUP1 PUSH1 0x6 ADD SLOAD SWAP1 POP DUP9 JUMP JUMPDEST PUSH1 0x6 PUSH1 0x20 MSTORE DUP1 PUSH1 0x0 MSTORE PUSH1 0x40 PUSH1 0x0 KECCAK256 PUSH1 0x0 SWAP2 POP SLOAD SWAP1 PUSH2 0x100 EXP SWAP1 DIV PUSH1 0xFF AND DUP2 JUMP JUMPDEST PUSH1 0x4 PUSH1 0x20 MSTORE DUP2 PUSH1 0x0 MSTORE PUSH1 0x40 PUSH1 0x0 KECCAK256 DUP2 DUP2 SLOAD DUP2 LT PUSH2 0x1B7B JUMPI PUSH1 0x0 DUP1 REVERT JUMPDEST SWAP1 PUSH1 0x0 MSTORE PUSH1 0x20 PUSH1 0x0 KECCAK256 SWAP1 PUSH1 0x5 MUL ADD PUSH1 0x0 SWAP2 POP SWAP2 POP POP DUP1 PUSH1 0x0 ADD SLOAD SWAP1 DUP1 PUSH1 0x1 ADD SLOAD SWAP1 DUP1 PUSH1 0x2 ADD DUP1 SLOAD PUSH2 0x1BAB SWAP1 PUSH2 0x3C59 JUMP JUMPDEST DUP1 PUSH1 0x1F ADD PUSH1 0x20 DUP1 SWAP2 DIV MUL PUSH1 0x20 ADD PUSH1 0x40 MLOAD SWAP1 DUP2 ADD PUSH1 0x40 MSTORE DUP1 SWAP3 SWAP2 SWAP1 DUP2 DUP2 MSTORE PUSH1 0x20 ADD DUP3 DUP1 SLOAD PUSH2 0x1BD7 SWAP1 PUSH2 0x3C59 JUMP JUMPDEST DUP1 ISZERO PUSH2 0x1C24 JUMPI DUP1 PUSH1 0x1F LT PUSH2 0x1BF9 JUMPI PUSH2 0x100 DUP1 DUP4 SLOAD DIV MUL DUP4 MSTORE SWAP2 PUSH1 0x20 ADD SWAP2 PUSH2 0x1C24 JUMP JUMPDEST DUP3 ADD SWAP2 SWAP1 PUSH1 0x0 MSTORE PUSH1 0x20 PUSH1 0x0 KECCAK256 SWAP1 JUMPDEST DUP2 SLOAD DUP2 MSTORE SWAP1 PUSH1 0x1 ADD SWAP1 PUSH1 0x20 ADD DUP1 DUP4 GT PUSH2 0x1C07 JUMPI DUP3 SWAP1 SUB PUSH1 0x1F AND DUP3 ADD SWAP2 JUMPDEST POP POP POP POP POP SWAP1 DUP1 PUSH1 0x3 ADD DUP1 SLOAD PUSH2 0x1C39 SWAP1 PUSH2 0x3C59 JUMP JUMPDEST DUP1 PUSH1 0x1F ADD PUSH1 0x20 DUP1 SWAP2 DIV MUL PUSH1 0x20 ADD PUSH1 0x40 MLOAD SWAP1 DUP2 ADD PUSH1 0x40 MSTORE DUP1 SWAP3 SWAP2 SWAP1 DUP2 DUP2 MSTORE PUSH1 0x20 ADD DUP3 DUP1 SLOAD PUSH2 0x1C65 SWAP1 PUSH2 0x3C59 JUMP JUMPDEST DUP1 ISZERO PUSH2 0x1CB2 JUMPI DUP1 PUSH1 0x1F LT PUSH2 0x1C87 JUMPI PUSH2 0x100 DUP1 DUP4 SLOAD DIV MUL DUP4 MSTORE SWAP2 PUSH1 0x20 ADD SWAP2 PUSH2 0x1CB2 JUMP JUMPDEST DUP3 ADD SWAP2 SWAP1 PUSH1 0x0 MSTORE PUSH1 0x20 PUSH1 0x0 KECCAK256 SWAP1 JUMPDEST DUP2 SLOAD DUP2 MSTORE SWAP1 PUSH1 0x1 ADD SWAP1 PUSH1 0x20 ADD DUP1 DUP4 GT PUSH2 0x1C95 JUMPI DUP3 SWAP1 SUB PUSH1 0x1F AND DUP3 ADD SWAP2 JUMPDEST POP POP POP POP POP SWAP1 DUP1 PUSH1 0x4 ADD SLOAD SWAP1 POP DUP6 JUMP JUMPDEST PUSH1 0x0 PUSH1 0x7 PUSH1 0x0 DUP2 SLOAD DUP1 SWAP3 SWAP2 SWAP1 PUSH2 0x1CD7 SWAP1 PUSH2 0x3BE2 JUMP JUMPDEST SWAP2 SWAP1 POP SSTORE POP PUSH1 0x40 MLOAD DUP1 PUSH2 0x100 ADD PUSH1 0x40 MSTORE DUP1 PUSH1 0x7 SLOAD DUP2 MSTORE PUSH1 0x20 ADD DUP7 DUP2 MSTORE PUSH1 0x20 ADD DUP6 DUP2 MSTORE PUSH1 0x20 ADD DUP5 DUP2 MSTORE PUSH1 0x20 ADD DUP4 DUP2 MSTORE PUSH1 0x20 ADD CALLER PUSH20 0xFFFFFFFFFFFFFFFFFFFFFFFFFFFFFFFFFFFFFFFF AND DUP2 MSTORE PUSH1 0x20 ADD PUSH1 0x1 ISZERO ISZERO DUP2 MSTORE PUSH1 0x20 ADD TIMESTAMP DUP2 MSTORE POP PUSH1 0x0 DUP1 PUSH1 0x7 SLOAD DUP2 MSTORE PUSH1 0x20 ADD SWAP1 DUP2 MSTORE PUSH1 0x20 ADD PUSH1 0x0 KECCAK256 PUSH1 0x0 DUP3 ADD MLOAD DUP2 PUSH1 0x0 ADD SSTORE PUSH1 0x20 DUP3 ADD MLOAD DUP2 PUSH1 0x1 ADD SWAP1 DUP2 PUSH2 0x1D64 SWAP2 SWAP1 PUSH2 0x3E36 JUMP JUMPDEST POP PUSH1 0x40 DUP3 ADD MLOAD DUP2 PUSH1 0x2 ADD SWAP1 DUP2 PUSH2 0x1D7A SWAP2 SWAP1 PUSH2 0x3E36 JUMP JUMPDEST POP PUSH1 0x60 DUP3 ADD MLOAD DUP2 PUSH1 0x3 ADD SSTORE PUSH1 0x80 DUP3 ADD MLOAD DUP2 PUSH1 0x4 ADD SSTORE PUSH1 0xA0 DUP3 ADD MLOAD DUP2 PUSH1 0x5 ADD PUSH1 0x0 PUSH2 0x100 EXP DUP2 SLOAD DUP2 PUSH20 0xFFFFFFFFFFFFFFFFFFFFFFFFFFFFFFFFFFFFFFFF MUL NOT AND SWAP1 DUP4 PUSH20 0xFFFFFFFFFFFFFFFFFFFFFFFFFFFFFFFFFFFFFFFF AND MUL OR SWAP1 SSTORE POP PUSH1 0xC0 DUP3 ADD MLOAD DUP2 PUSH1 0x5 ADD PUSH1 0x14 PUSH2 0x100 EXP DUP2 SLOAD DUP2 PUSH1 0xFF MUL NOT AND SWAP1 DUP4 ISZERO ISZERO MUL OR SWAP1 SSTORE POP PUSH1 0xE0 DUP3 ADD MLOAD DUP2 PUSH1 0x6 ADD SSTORE SWAP1 POP POP PUSH1 0x7 SLOAD PUSH32 0xA94CD0B7A6A30768493DD3C96D659F8684F84657295D41125416F89E1027F876 DUP7 CALLER PUSH1 0x40 MLOAD PUSH2 0x1E37 SWAP3 SWAP2 SWAP1 PUSH2 0x402B JUMP JUMPDEST PUSH1 0x40 MLOAD DUP1 SWAP2 SUB SWAP1 LOG2 PUSH1 0x7 SLOAD SWAP1 POP SWAP5 SWAP4 POP POP POP POP JUMP JUMPDEST PUSH1 0x60 PUSH1 0x1 PUSH1 0x0 DUP4 DUP2 MSTORE PUSH1 0x20 ADD SWAP1 DUP2 MSTORE PUSH1 0x20 ADD PUSH1 0x0 KECCAK256 DUP1 SLOAD DUP1 PUSH1 0x20 MUL PUSH1 0x20 ADD PUSH1 0x40 MLOAD SWAP1 DUP2 ADD PUSH1 0x40 MSTORE DUP1 SWAP3 SWAP2 SWAP1 DUP2 DUP2 MSTORE PUSH1 0x20 ADD PUSH1 0x0 SWAP1 JUMPDEST DUP3 DUP3 LT ISZERO PUSH2 0x1FFF JUMPI DUP4 DUP3 SWAP1 PUSH1 0x0 MSTORE PUSH1 0x20 PUSH1 0x0 KECCAK256 SWAP1 PUSH1 0x6 MUL ADD PUSH1 0x40 MLOAD DUP1 PUSH1 0xC0 ADD PUSH1 0x40 MSTORE SWAP1 DUP2 PUSH1 0x0 DUP3 ADD SLOAD DUP2 MSTORE PUSH1 0x20 ADD PUSH1 0x1 DUP3 ADD SLOAD DUP2 MSTORE PUSH1 0x20 ADD PUSH1 0x2 DUP3 ADD DUP1 SLOAD PUSH2 0x1EC8 SWAP1 PUSH2 0x3C59 JUMP JUMPDEST DUP1 PUSH1 0x1F ADD PUSH1 0x20 DUP1 SWAP2 DIV MUL PUSH1 0x20 ADD PUSH1 0x40 MLOAD SWAP1 DUP2 ADD PUSH1 0x40 MSTORE DUP1 SWAP3 SWAP2 SWAP1 DUP2 DUP2 MSTORE PUSH1 0x20 ADD DUP3 DUP1 SLOAD PUSH2 0x1EF4 SWAP1 PUSH2 0x3C59 JUMP JUMPDEST DUP1 ISZERO PUSH2 0x1F41 JUMPI DUP1 PUSH1 0x1F LT PUSH2 0x1F16 JUMPI PUSH2 0x100 DUP1 DUP4 SLOAD DIV MUL DUP4 MSTORE SWAP2 PUSH1 0x20 ADD SWAP2 PUSH2 0x1F41 JUMP JUMPDEST DUP3 ADD SWAP2 SWAP1 PUSH1 0x0 MSTORE PUSH1 0x20 PUSH1 0x0 KECCAK256 SWAP1 JUMPDEST DUP2 SLOAD DUP2 MSTORE SWAP1 PUSH1 0x1 ADD SWAP1 PUSH1 0x20 ADD DUP1 DUP4 GT PUSH2 0x1F24 JUMPI DUP3 SWAP1 SUB PUSH1 0x1F AND DUP3 ADD SWAP2 JUMPDEST POP POP POP POP POP DUP2 MSTORE PUSH1 0x20 ADD PUSH1 0x3 DUP3 ADD DUP1 SLOAD PUSH2 0x1F5A SWAP1 PUSH2 0x3C59 JUMP JUMPDEST DUP1 PUSH1 0x1F ADD PUSH1 0x20 DUP1 SWAP2 DIV MUL PUSH1 0x20 ADD PUSH1 0x40 MLOAD SWAP1 DUP2 ADD PUSH1 0x40 MSTORE DUP1 SWAP3 SWAP2 SWAP1 DUP2 DUP2 MSTORE PUSH1 0x20 ADD DUP3 DUP1 SLOAD PUSH2 0x1F86 SWAP1 PUSH2 0x3C59 JUMP JUMPDEST DUP1 ISZERO PUSH2 0x1FD3 JUMPI DUP1 PUSH1 0x1F LT PUSH2 0x1FA8 JUMPI PUSH2 0x100 DUP1 DUP4 SLOAD DIV MUL DUP4 MSTORE SWAP2 PUSH1 0x20 ADD SWAP2 PUSH2 0x1FD3 JUMP JUMPDEST DUP3 ADD SWAP2 SWAP1 PUSH1 0x0 MSTORE PUSH1 0x20 PUSH1 0x0 KECCAK256 SWAP1 JUMPDEST DUP2 SLOAD DUP2 MSTORE SWAP1 PUSH1 0x1 ADD SWAP1 PUSH1 0x20 ADD DUP1 DUP4 GT PUSH2 0x1FB6 JUMPI DUP3 SWAP1 SUB PUSH1 0x1F AND DUP3 ADD SWAP2 JUMPDEST POP POP POP POP POP DUP2 MSTORE PUSH1 0x20 ADD PUSH1 0x4 DUP3 ADD SLOAD DUP2 MSTORE PUSH1 0x20 ADD PUSH1 0x5 DUP3 ADD SLOAD DUP2 MSTORE POP POP DUP2 MSTORE PUSH1 0x20 ADD SWAP1 PUSH1 0x1 ADD SWAP1 PUSH2 0x1E81 JUMP JUMPDEST POP POP POP POP SWAP1 POP SWAP2 SWAP1 POP JUMP JUMPDEST PUSH1 0x1 PUSH1 0x20 MSTORE DUP2 PUSH1 0x0 MSTORE PUSH1 0x40 PUSH1 0x0 KECCAK256 DUP2 DUP2 SLOAD DUP2 LT PUSH2 0x2026 JUMPI PUSH1 0x0 DUP1 REVERT JUMPDEST SWAP1 PUSH1 0x0 MSTORE PUSH1 0x20 PUSH1 0x0 KECCAK256 SWAP1 PUSH1 0x6 MUL ADD PUSH1 0x0 SWAP2 POP SWAP2 POP POP DUP1 PUSH1 0x0 ADD SLOAD SWAP1 DUP1 PUSH1 0x1 ADD SLOAD SWAP1 DUP1 PUSH1 0x2 ADD DUP1 SLOAD PUSH2 0x2056 SWAP1 PUSH2 0x3C59 JUMP JUMPDEST DUP1 PUSH1 0x1F ADD PUSH1 0x20 DUP1 SWAP2 DIV MUL PUSH1 0x20 ADD PUSH1 0x40 MLOAD SWAP1 DUP2 ADD PUSH1 0x40 MSTORE DUP1 SWAP3 SWAP2 SWAP1 DUP2 DUP2 MSTORE PUSH1 0x20 ADD DUP3 DUP1 SLOAD PUSH2 0x2082 SWAP1 PUSH2 0x3C59 JUMP JUMPDEST DUP1 ISZERO PUSH2 0x20CF JUMPI DUP1 PUSH1 0x1F LT PUSH2 0x20A4 JUMPI PUSH2 0x100 DUP1 DUP4 SLOAD DIV MUL DUP4 MSTORE SWAP2 PUSH1 0x20 ADD SWAP2 PUSH2 0x20CF JUMP JUMPDEST DUP3 ADD SWAP2 SWAP1 PUSH1 0x0 MSTORE PUSH1 0x20 PUSH1 0x0 KECCAK256 SWAP1 JUMPDEST DUP2 SLOAD DUP2 MSTORE SWAP1 PUSH1 0x1 ADD SWAP1 PUSH1 0x20 ADD DUP1 DUP4 GT PUSH2 0x20B2 JUMPI DUP3 SWAP1 SUB PUSH1 0x1F AND DUP3 ADD SWAP2 JUMPDEST POP POP POP POP POP SWAP1 DUP1 PUSH1 0x3 ADD DUP1 SLOAD PUSH2 0x20E4 SWAP1 PUSH2 0x3C59 JUMP JUMPDEST DUP1 PUSH1 0x1F ADD PUSH1 0x20 DUP1 SWAP2 DIV MUL PUSH1 0x20 ADD PUSH1 0x40 MLOAD SWAP1 DUP2 ADD PUSH1 0x40 MSTORE DUP1 SWAP3 SWAP2 SWAP1 DUP2 DUP2 MSTORE PUSH1 0x20 ADD DUP3 DUP1 SLOAD PUSH2 0x2110 SWAP1 PUSH2 0x3C59 JUMP JUMPDEST DUP1 ISZERO PUSH2 0x215D JUMPI DUP1 PUSH1 0x1F LT PUSH2 0x2132 JUMPI PUSH2 0x100 DUP1 DUP4 SLOAD DIV MUL DUP4 MSTORE SWAP2 PUSH1 0x20 ADD SWAP2 PUSH2 0x215D JUMP JUMPDEST DUP3 ADD SWAP2 SWAP1 PUSH1 0x0 MSTORE PUSH1 0x20 PUSH1 0x0 KECCAK256 SWAP1 JUMPDEST DUP2 SLOAD DUP2 MSTORE SWAP1 PUSH1 0x1 ADD SWAP1 PUSH1 0x20 ADD DUP1 DUP4 GT PUSH2 0x2140 JUMPI DUP3 SWAP1 SUB PUSH1 0x1F AND DUP3 ADD SWAP2 JUMPDEST POP POP POP POP POP SWAP1 DUP1 PUSH1 0x4 ADD SLOAD SWAP1 DUP1 PUSH1 0x5 ADD SLOAD SWAP1 POP DUP7 JUMP JUMPDEST DUP7 PUSH1 0x5 PUSH1 0x0 DUP3 DUP2 MSTORE PUSH1 0x20 ADD SWAP1 DUP2 MSTORE PUSH1 0x20 ADD PUSH1 0x0 KECCAK256 PUSH1 0x0 CALLER PUSH20 0xFFFFFFFFFFFFFFFFFFFFFFFFFFFFFFFFFFFFFFFF AND PUSH20 0xFFFFFFFFFFFFFFFFFFFFFFFFFFFFFFFFFFFFFFFF AND DUP2 MSTORE PUSH1 0x20 ADD SWAP1 DUP2 MSTORE PUSH1 0x20 ADD PUSH1 0x0 KECCAK256 PUSH1 0x0 SWAP1 SLOAD SWAP1 PUSH2 0x100 EXP SWAP1 DIV PUSH1 0xFF AND PUSH2 0x2211 JUMPI PUSH1 0x40 MLOAD PUSH32 0x8C379A000000000000000000000000000000000000000000000000000000000 DUP2 MSTORE PUSH1 0x4 ADD PUSH2 0x2208 SWAP1 PUSH2 0x40A7 JUMP JUMPDEST PUSH1 0x40 MLOAD DUP1 SWAP2 SUB SWAP1 REVERT JUMPDEST PUSH1 0x64 DUP7 GT ISZERO DUP1 ISZERO PUSH2 0x2223 JUMPI POP PUSH1 0x64 DUP6 GT ISZERO JUMPDEST DUP1 ISZERO PUSH2 0x2230 JUMPI POP PUSH1 0x64 DUP5 GT ISZERO JUMPDEST DUP1 ISZERO PUSH2 0x223D JUMPI POP PUSH1 0x64 DUP4 GT ISZERO JUMPDEST PUSH2 0x227C JUMPI PUSH1 0x40 MLOAD PUSH32 0x8C379A000000000000000000000000000000000000000000000000000000000 DUP2 MSTORE PUSH1 0x4 ADD PUSH2 0x2273 SWAP1 PUSH2 0x4113 JUMP JUMPDEST PUSH1 0x40 MLOAD DUP1 SWAP2 SUB SWAP1 REVERT JUMPDEST PUSH1 0x0 PUSH1 0x40 MLOAD DUP1 PUSH2 0x100 ADD PUSH1 0x40 MSTORE DUP1 DUP10 DUP2 MSTORE PUSH1 0x20 ADD CALLER PUSH20 0xFFFFFFFFFFFFFFFFFFFFFFFFFFFFFFFFFFFFFFFF AND DUP2 MSTORE PUSH1 0x20 ADD DUP9 DUP2 MSTORE PUSH1 0x20 ADD DUP8 DUP2 MSTORE PUSH1 0x20 ADD DUP7 DUP2 MSTORE PUSH1 0x20 ADD DUP6 DUP2 MSTORE PUSH1 0x20 ADD DUP5 DUP2 MSTORE PUSH1 0x20 ADD TIMESTAMP DUP2 MSTORE POP SWAP1 POP PUSH1 0x3 PUSH1 0x0 DUP11 DUP2 MSTORE PUSH1 0x20 ADD SWAP1 DUP2 MSTORE PUSH1 0x20 ADD PUSH1 0x0 KECCAK256 PUSH1 0x0 DUP10 DUP2 MSTORE PUSH1 0x20 ADD SWAP1 DUP2 MSTORE PUSH1 0x20 ADD PUSH1 0x0 KECCAK256 DUP2 SWAP1 DUP1 PUSH1 0x1 DUP2 SLOAD ADD DUP1 DUP3 SSTORE DUP1 SWAP2 POP POP PUSH1 0x1 SWAP1 SUB SWAP1 PUSH1 0x0 MSTORE PUSH1 0x20 PUSH1 0x0 KECCAK256 SWAP1 PUSH1 0x8 MUL ADD PUSH1 0x0 SWAP1 SWAP2 SWAP1 SWAP2 SWAP1 SWAP2 POP PUSH1 0x0 DUP3 ADD MLOAD DUP2 PUSH1 0x0 ADD SSTORE PUSH1 0x20 DUP3 ADD MLOAD DUP2 PUSH1 0x1 ADD PUSH1 0x0 PUSH2 0x100 EXP DUP2 SLOAD DUP2 PUSH20 0xFFFFFFFFFFFFFFFFFFFFFFFFFFFFFFFFFFFFFFFF MUL NOT AND SWAP1 DUP4 PUSH20 0xFFFFFFFFFFFFFFFFFFFFFFFFFFFFFFFFFFFFFFFF AND MUL OR SWAP1 SSTORE POP PUSH1 0x40 DUP3 ADD MLOAD DUP2 PUSH1 0x2 ADD SSTORE PUSH1 0x60 DUP3 ADD MLOAD DUP2 PUSH1 0x3 ADD SSTORE PUSH1 0x80 DUP3 ADD MLOAD DUP2 PUSH1 0x4 ADD SSTORE PUSH1 0xA0 DUP3 ADD MLOAD DUP2 PUSH1 0x5 ADD SSTORE PUSH1 0xC0 DUP3 ADD MLOAD DUP2 PUSH1 0x6 ADD SWAP1 DUP2 PUSH2 0x23AC SWAP2 SWAP1 PUSH2 0x3E36 JUMP JUMPDEST POP PUSH1 0xE0 DUP3 ADD MLOAD DUP2 PUSH1 0x7 ADD SSTORE POP POP DUP8 PUSH32 0xBF47A96EF84DEC8A1E1AD8045FA88D5A7191F8BF698B2B046A50E77EA9B6CF81 CALLER PUSH1 0x40 MLOAD PUSH2 0x23E9 SWAP2 SWAP1 PUSH2 0x4010 JUMP JUMPDEST PUSH1 0x40 MLOAD DUP1 SWAP2 SUB SWAP1 LOG2 POP POP POP POP POP POP POP POP POP JUMP JUMPDEST PUSH1 0x2 PUSH1 0x20 MSTORE DUP2 PUSH1 0x0 MSTORE PUSH1 0x40 PUSH1 0x0 KECCAK256 DUP2 DUP2 SLOAD DUP2 LT PUSH2 0x2418 JUMPI PUSH1 0x0 DUP1 REVERT JUMPDEST SWAP1 PUSH1 0x0 MSTORE PUSH1 0x20 PUSH1 0x0 KECCAK256 SWAP1 PUSH1 0x8 MUL ADD PUSH1 0x0 SWAP2 POP SWAP2 POP POP DUP1 PUSH1 0x0 ADD SLOAD SWAP1 DUP1 PUSH1 0x1 ADD SLOAD SWAP1 DUP1 PUSH1 0x2 ADD DUP1 SLOAD PUSH2 0x2448 SWAP1 PUSH2 0x3C59 JUMP JUMPDEST DUP1 PUSH1 0x1F ADD PUSH1 0x20 DUP1 SWAP2 DIV MUL PUSH1 0x20 ADD PUSH1 0x40 MLOAD SWAP1 DUP2 ADD PUSH1 0x40 MSTORE DUP1 SWAP3 SWAP2 SWAP1 DUP2 DUP2 MSTORE PUSH1 0x20 ADD DUP3 DUP1 SLOAD PUSH2 0x2474 SWAP1 PUSH2 0x3C59 JUMP JUMPDEST DUP1 ISZERO PUSH2 0x24C1 JUMPI DUP1 PUSH1 0x1F LT PUSH2 0x2496 JUMPI PUSH2 0x100 DUP1 DUP4 SLOAD DIV MUL DUP4 MSTORE SWAP2 PUSH1 0x20 ADD SWAP2 PUSH2 0x24C1 JUMP JUMPDEST DUP3 ADD SWAP2 SWAP1 PUSH1 0x0 MSTORE PUSH1 0x20 PUSH1 0x0 KECCAK256 SWAP1 JUMPDEST DUP2 SLOAD DUP2 MSTORE SWAP1 PUSH1 0x1 ADD SWAP1 PUSH1 0x20 ADD DUP1 DUP4 GT PUSH2 0x24A4 JUMPI DUP3 SWAP1 SUB PUSH1 0x1F AND DUP3 ADD SWAP2 JUMPDEST POP POP POP POP POP SWAP1 DUP1 PUSH1 0x3 ADD DUP1 SLOAD PUSH2 0x24D6 SWAP1 PUSH2 0x3C59 JUMP JUMPDEST DUP1 PUSH1 0x1F ADD PUSH1 0x20 DUP1 SWAP2 DIV MUL PUSH1 0x20 ADD PUSH1 0x40 MLOAD SWAP1 DUP2 ADD PUSH1 0x40 MSTORE DUP1 SWAP3 SWAP2 SWAP1 DUP2 DUP2 MSTORE PUSH1 0x20 ADD DUP3 DUP1 SLOAD PUSH2 0x2502 SWAP1 PUSH2 0x3C59 JUMP JUMPDEST DUP1 ISZERO PUSH2 0x254F JUMPI DUP1 PUSH1 0x1F LT PUSH2 0x2524 JUMPI PUSH2 0x100 DUP1 DUP4 SLOAD DIV MUL DUP4 MSTORE SWAP2 PUSH1 0x20 ADD SWAP2 PUSH2 0x254F JUMP JUMPDEST DUP3 ADD SWAP2 SWAP1 PUSH1 0x0 MSTORE PUSH1 0x20 PUSH1 0x0 KECCAK256 SWAP1 JUMPDEST DUP2 SLOAD DUP2 MSTORE SWAP1 PUSH1 0x1 ADD SWAP1 PUSH1 0x20 ADD DUP1 DUP4 GT PUSH2 0x2532 JUMPI DUP3 SWAP1 SUB PUSH1 0x1F AND DUP3 ADD SWAP2 JUMPDEST POP POP POP POP POP SWAP1 DUP1 PUSH1 0x4 ADD DUP1 SLOAD PUSH2 0x2564 SWAP1 PUSH2 0x3C59 JUMP JUMPDEST DUP1 PUSH1 0x1F ADD PUSH1 0x20 DUP1 SWAP2 DIV MUL PUSH1 0x20 ADD PUSH1 0x40 MLOAD SWAP1 DUP2 ADD PUSH1 0x40 MSTORE DUP1 SWAP3 SWAP2 SWAP1 DUP2 DUP2 MSTORE PUSH1 0x20 ADD DUP3 DUP1 SLOAD PUSH2 0x2590 SWAP1 PUSH2 0x3C59 JUMP JUMPDEST DUP1 ISZERO PUSH2 0x25DD JUMPI DUP1 PUSH1 0x1F LT PUSH2 0x25B2 JUMPI PUSH2 0x100 DUP1 DUP4 SLOAD DIV MUL DUP4 MSTORE SWAP2 PUSH1 0x20 ADD SWAP2 PUSH2 0x25DD JUMP JUMPDEST DUP3 ADD SWAP2 SWAP1 PUSH1 0x0 MSTORE PUSH1 0x20 PUSH1 0x0 KECCAK256 SWAP1 JUMPDEST DUP2 SLOAD DUP2 MSTORE SWAP1 PUSH1 0x1 ADD SWAP1 PUSH1 0x20 ADD DUP1 DUP4 GT PUSH2 0x25C0 JUMPI DUP3 SWAP1 SUB PUSH1 0x1F AND DUP3 ADD SWAP2 JUMPDEST POP POP POP POP POP SWAP1 DUP1 PUSH1 0x5 ADD DUP1 SLOAD PUSH2 0x25F2 SWAP1 PUSH2 0x3C59 JUMP JUMPDEST DUP1 PUSH1 0x1F ADD PUSH1 0x20 DUP1 SWAP2 DIV MUL PUSH1 0x20 ADD PUSH1 0x40 MLOAD SWAP1 DUP2 ADD PUSH1 0x40 MSTORE DUP1 SWAP3 SWAP2 SWAP1 DUP2 DUP2 MSTORE PUSH1 0x20 ADD DUP3 DUP1 SLOAD PUSH2 0x261E SWAP1 PUSH2 0x3C59 JUMP JUMPDEST DUP1 ISZERO PUSH2 0x266B JUMPI DUP1 PUSH1 0x1F LT PUSH2 0x2640 JUMPI PUSH2 0x100 DUP1 DUP4 SLOAD DIV MUL DUP4 MSTORE SWAP2 PUSH1 0x20 ADD SWAP2 PUSH2 0x266B JUMP JUMPDEST DUP3 ADD SWAP2 SWAP1 PUSH1 0x0 MSTORE PUSH1 0x20 PUSH1 0x0 KECCAK256 SWAP1 JUMPDEST DUP2 SLOAD DUP2 MSTORE SWAP1 PUSH1 0x1 ADD SWAP1 PUSH1 0x20 ADD DUP1 DUP4 GT PUSH2 0x264E JUMPI DUP3 SWAP1 SUB PUSH1 0x1F AND DUP3 ADD SWAP2 JUMPDEST POP POP POP POP POP SWAP1 DUP1 PUSH1 0x7 ADD SLOAD SWAP1 POP DUP8 JUMP JUMPDEST DUP3 DUP1 SLOAD DUP3 DUP3 SSTORE SWAP1 PUSH1 0x0 MSTORE PUSH1 0x20 PUSH1 0x0 KECCAK256 SWAP1 DUP2 ADD SWAP3 DUP3 ISZERO PUSH2 0x26F4 JUMPI SWAP2 PUSH1 0x20 MUL DUP3 ADD JUMPDEST DUP3 DUP2 GT ISZERO PUSH2 0x26F3 JUMPI DUP3 MLOAD DUP3 PUSH1 0x0 PUSH2 0x100 EXP DUP2 SLOAD DUP2 PUSH20 0xFFFFFFFFFFFFFFFFFFFFFFFFFFFFFFFFFFFFFFFF MUL NOT AND SWAP1 DUP4 PUSH20 0xFFFFFFFFFFFFFFFFFFFFFFFFFFFFFFFFFFFFFFFF AND MUL OR SWAP1 SSTORE POP SWAP2 PUSH1 0x20 ADD SWAP2 SWAP1 PUSH1 0x1 ADD SWAP1 PUSH2 0x269B JUMP JUMPDEST JUMPDEST POP SWAP1 POP PUSH2 0x2701 SWAP2 SWAP1 PUSH2 0x2762 JUMP JUMPDEST POP SWAP1 JUMP JUMPDEST PUSH1 0x40 MLOAD DUP1 PUSH2 0x100 ADD PUSH1 0x40 MSTORE DUP1 PUSH1 0x0 DUP2 MSTORE PUSH1 0x20 ADD PUSH1 0x60 DUP2 MSTORE PUSH1 0x20 ADD PUSH1 0x60 DUP2 MSTORE PUSH1 0x20 ADD PUSH1 0x0 DUP2 MSTORE PUSH1 0x20 ADD PUSH1 0x0 DUP2 MSTORE PUSH1 0x20 ADD PUSH1 0x0 PUSH20 0xFFFFFFFFFFFFFFFFFFFFFFFFFFFFFFFFFFFFFFFF AND DUP2 MSTORE PUSH1 0x20 ADD PUSH1 0x0 ISZERO ISZERO DUP2 MSTORE PUSH1 0x20 ADD PUSH1 0x0 DUP2 MSTORE POP SWAP1 JUMP JUMPDEST JUMPDEST DUP1 DUP3 GT ISZERO PUSH2 0x277B JUMPI PUSH1 0x0 DUP2 PUSH1 0x0 SWAP1 SSTORE POP PUSH1 0x1 ADD PUSH2 0x2763 JUMP JUMPDEST POP SWAP1 JUMP JUMPDEST PUSH1 0x0 PUSH1 0x40 MLOAD SWAP1 POP SWAP1 JUMP JUMPDEST PUSH1 0x0 DUP1 REVERT JUMPDEST PUSH1 0x0 DUP1 REVERT JUMPDEST PUSH1 0x0 DUP2 SWAP1 POP SWAP2 SWAP1 POP JUMP JUMPDEST PUSH2 0x27A6 DUP2 PUSH2 0x2793 JUMP JUMPDEST DUP2 EQ PUSH2 0x27B1 JUMPI PUSH1 0x0 DUP1 REVERT JUMPDEST POP JUMP JUMPDEST PUSH1 0x0 DUP2 CALLDATALOAD SWAP1 POP PUSH2 0x27C3 DUP2 PUSH2 0x279D JUMP JUMPDEST SWAP3 SWAP2 POP POP JUMP JUMPDEST PUSH1 0x0 PUSH20 0xFFFFFFFFFFFFFFFFFFFFFFFFFFFFFFFFFFFFFFFF DUP3 AND SWAP1 POP SWAP2 SWAP1 POP JUMP JUMPDEST PUSH1 0x0 PUSH2 0x27F4 DUP3 PUSH2 0x27C9 JUMP JUMPDEST SWAP1 POP SWAP2 SWAP1 POP JUMP JUMPDEST PUSH2 0x2804 DUP2 PUSH2 0x27E9 JUMP JUMPDEST DUP2 EQ PUSH2 0x280F JUMPI PUSH1 0x0 DUP1 REVERT JUMPDEST POP JUMP JUMPDEST PUSH1 0x0 DUP2 CALLDATALOAD SWAP1 POP PUSH2 0x2821 DUP2 PUSH2 0x27FB JUMP JUMPDEST SWAP3 SWAP2 POP POP JUMP JUMPDEST PUSH1 0x0 DUP1 PUSH1 0x40 DUP4 DUP6 SUB SLT ISZERO PUSH2 0x283E JUMPI PUSH2 0x283D PUSH2 0x2789 JUMP JUMPDEST JUMPDEST PUSH1 0x0 PUSH2 0x284C DUP6 DUP3 DUP7 ADD PUSH2 0x27B4 JUMP JUMPDEST SWAP3 POP POP PUSH1 0x20 PUSH2 0x285D DUP6 DUP3 DUP7 ADD PUSH2 0x2812 JUMP JUMPDEST SWAP2 POP POP SWAP3 POP SWAP3 SWAP1 POP JUMP JUMPDEST PUSH1 0x0 DUP2 ISZERO ISZERO SWAP1 POP SWAP2 SWAP1 POP JUMP JUMPDEST PUSH2 0x287C DUP2 PUSH2 0x2867 JUMP JUMPDEST DUP3 MSTORE POP POP JUMP JUMPDEST PUSH1 0x0 PUSH1 0x20 DUP3 ADD SWAP1 POP PUSH2 0x2897 PUSH1 0x0 DUP4 ADD DUP5 PUSH2 0x2873 JUMP JUMPDEST SWAP3 SWAP2 POP POP JUMP JUMPDEST PUSH1 0x0 DUP1 REVERT JUMPDEST PUSH1 0x0 DUP1 REVERT JUMPDEST PUSH1 0x0 PUSH1 0x1F NOT PUSH1 0x1F DUP4 ADD AND SWAP1 POP SWAP2 SWAP1 POP JUMP JUMPDEST PUSH32 0x4E487B7100000000000000000000000000000000000000000000000000000000 PUSH1 0x0 MSTORE PUSH1 0x41 PUSH1 0x4 MSTORE PUSH1 0x24 PUSH1 0x0 REVERT JUMPDEST PUSH2 0x28F0 DUP3 PUSH2 0x28A7 JUMP JUMPDEST DUP2 ADD DUP2 DUP2 LT PUSH8 0xFFFFFFFFFFFFFFFF DUP3 GT OR ISZERO PUSH2 0x290F JUMPI PUSH2 0x290E PUSH2 0x28B8 JUMP JUMPDEST JUMPDEST DUP1 PUSH1 0x40 MSTORE POP POP POP JUMP JUMPDEST PUSH1 0x0 PUSH2 0x2922 PUSH2 0x277F JUMP JUMPDEST SWAP1 POP PUSH2 0x292E DUP3 DUP3 PUSH2 0x28E7 JUMP JUMPDEST SWAP2 SWAP1 POP JUMP JUMPDEST PUSH1 0x0 PUSH8 0xFFFFFFFFFFFFFFFF DUP3 GT ISZERO PUSH2 0x294E JUMPI PUSH2 0x294D PUSH2 0x28B8 JUMP JUMPDEST JUMPDEST PUSH2 0x2957 DUP3 PUSH2 0x28A7 JUMP JUMPDEST SWAP1 POP PUSH1 0x20 DUP2 ADD SWAP1 POP SWAP2 SWAP1 POP JUMP JUMPDEST DUP3 DUP2 DUP4 CALLDATACOPY PUSH1 0x0 DUP4 DUP4 ADD MSTORE POP POP POP JUMP JUMPDEST PUSH1 0x0 PUSH2 0x2986 PUSH2 0x2981 DUP5 PUSH2 0x2933 JUMP JUMPDEST PUSH2 0x2918 JUMP JUMPDEST SWAP1 POP DUP3 DUP2 MSTORE PUSH1 0x20 DUP2 ADD DUP5 DUP5 DUP5 ADD GT ISZERO PUSH2 0x29A2 JUMPI PUSH2 0x29A1 PUSH2 0x28A2 JUMP JUMPDEST JUMPDEST PUSH2 0x29AD DUP5 DUP3 DUP6 PUSH2 0x2964 JUMP JUMPDEST POP SWAP4 SWAP3 POP POP POP JUMP JUMPDEST PUSH1 0x0 DUP3 PUSH1 0x1F DUP4 ADD SLT PUSH2 0x29CA JUMPI PUSH2 0x29C9 PUSH2 0x289D JUMP JUMPDEST JUMPDEST DUP2 CALLDATALOAD PUSH2 0x29DA DUP5 DUP3 PUSH1 0x20 DUP7 ADD PUSH2 0x2973 JUMP JUMPDEST SWAP2 POP POP SWAP3 SWAP2 POP POP JUMP JUMPDEST PUSH1 0x0 PUSH8 0xFFFFFFFFFFFFFFFF DUP3 GT ISZERO PUSH2 0x29FE JUMPI PUSH2 0x29FD PUSH2 0x28B8 JUMP JUMPDEST JUMPDEST PUSH1 0x20 DUP3 MUL SWAP1 POP PUSH1 0x20 DUP2 ADD SWAP1 POP SWAP2 SWAP1 POP JUMP JUMPDEST PUSH1 0x0 DUP1 REVERT JUMPDEST PUSH1 0x0 PUSH2 0x2A27 PUSH2 0x2A22 DUP5 PUSH2 0x29E3 JUMP JUMPDEST PUSH2 0x2918 JUMP JUMPDEST SWAP1 POP DUP1 DUP4 DUP3 MSTORE PUSH1 0x20 DUP3 ADD SWAP1 POP PUSH1 0x20 DUP5 MUL DUP4 ADD DUP6 DUP2 GT ISZERO PUSH2 0x2A4A JUMPI PUSH2 0x2A49 PUSH2 0x2A0F JUMP JUMPDEST JUMPDEST DUP4 JUMPDEST DUP2 DUP2 LT ISZERO PUSH2 0x2A73 JUMPI DUP1 PUSH2 0x2A5F DUP9 DUP3 PUSH2 0x2812 JUMP JUMPDEST DUP5 MSTORE PUSH1 0x20 DUP5 ADD SWAP4 POP POP PUSH1 0x20 DUP2 ADD SWAP1 POP PUSH2 0x2A4C JUMP JUMPDEST POP POP POP SWAP4 SWAP3 POP POP POP JUMP JUMPDEST PUSH1 0x0 DUP3 PUSH1 0x1F DUP4 ADD SLT PUSH2 0x2A92 JUMPI PUSH2 0x2A91 PUSH2 0x289D JUMP JUMPDEST JUMPDEST DUP2 CALLDATALOAD PUSH2 0x2AA2 DUP5 DUP3 PUSH1 0x20 DUP7 ADD PUSH2 0x2A14 JUMP JUMPDEST SWAP2 POP POP SWAP3 SWAP2 POP POP JUMP JUMPDEST PUSH1 0x0 DUP1 PUSH1 0x0 DUP1 PUSH1 0x0 DUP1 PUSH1 0xC0 DUP8 DUP10 SUB SLT ISZERO PUSH2 0x2AC8 JUMPI PUSH2 0x2AC7 PUSH2 0x2789 JUMP JUMPDEST JUMPDEST PUSH1 0x0 PUSH2 0x2AD6 DUP10 DUP3 DUP11 ADD PUSH2 0x27B4 JUMP JUMPDEST SWAP7 POP POP PUSH1 0x20 DUP8 ADD CALLDATALOAD PUSH8 0xFFFFFFFFFFFFFFFF DUP2 GT ISZERO PUSH2 0x2AF7 JUMPI PUSH2 0x2AF6 PUSH2 0x278E JUMP JUMPDEST JUMPDEST PUSH2 0x2B03 DUP10 DUP3 DUP11 ADD PUSH2 0x29B5 JUMP JUMPDEST SWAP6 POP POP PUSH1 0x40 DUP8 ADD CALLDATALOAD PUSH8 0xFFFFFFFFFFFFFFFF DUP2 GT ISZERO PUSH2 0x2B24 JUMPI PUSH2 0x2B23 PUSH2 0x278E JUMP JUMPDEST JUMPDEST PUSH2 0x2B30 DUP10 DUP3 DUP11 ADD PUSH2 0x29B5 JUMP JUMPDEST SWAP5 POP POP PUSH1 0x60 DUP8 ADD CALLDATALOAD PUSH8 0xFFFFFFFFFFFFFFFF DUP2 GT ISZERO PUSH2 0x2B51 JUMPI PUSH2 0x2B50 PUSH2 0x278E JUMP JUMPDEST JUMPDEST PUSH2 0x2B5D DUP10 DUP3 DUP11 ADD PUSH2 0x29B5 JUMP JUMPDEST SWAP4 POP POP PUSH1 0x80 DUP8 ADD CALLDATALOAD PUSH8 0xFFFFFFFFFFFFFFFF DUP2 GT ISZERO PUSH2 0x2B7E JUMPI PUSH2 0x2B7D PUSH2 0x278E JUMP JUMPDEST JUMPDEST PUSH2 0x2B8A DUP10 DUP3 DUP11 ADD PUSH2 0x29B5 JUMP JUMPDEST SWAP3 POP POP PUSH1 0xA0 DUP8 ADD CALLDATALOAD PUSH8 0xFFFFFFFFFFFFFFFF DUP2 GT ISZERO PUSH2 0x2BAB JUMPI PUSH2 0x2BAA PUSH2 0x278E JUMP JUMPDEST JUMPDEST PUSH2 0x2BB7 DUP10 DUP3 DUP11 ADD PUSH2 0x2A7D JUMP JUMPDEST SWAP2 POP POP SWAP3 SWAP6 POP SWAP3 SWAP6 POP SWAP3 SWAP6 JUMP JUMPDEST PUSH2 0x2BCD DUP2 PUSH2 0x2793 JUMP JUMPDEST DUP3 MSTORE POP POP JUMP JUMPDEST PUSH1 0x0 PUSH1 0x20 DUP3 ADD SWAP1 POP PUSH2 0x2BE8 PUSH1 0x0 DUP4 ADD DUP5 PUSH2 0x2BC4 JUMP JUMPDEST SWAP3 SWAP2 POP POP JUMP JUMPDEST PUSH1 0x0 PUSH1 0x20 DUP3 DUP5 SUB SLT ISZERO PUSH2 0x2C04 JUMPI PUSH2 0x2C03 PUSH2 0x2789 JUMP JUMPDEST JUMPDEST PUSH1 0x0 PUSH2 0x2C12 DUP5 DUP3 DUP6 ADD PUSH2 0x27B4 JUMP JUMPDEST SWAP2 POP POP SWAP3 SWAP2 POP POP JUMP JUMPDEST PUSH1 0x0 DUP2 MLOAD SWAP1 POP SWAP2 SWAP1 POP JUMP JUMPDEST PUSH1 0x0 DUP3 DUP3 MSTORE PUSH1 0x20 DUP3 ADD SWAP1 POP SWAP3 SWAP2 POP POP JUMP JUMPDEST PUSH1 0x0 DUP2 SWAP1 POP PUSH1 0x20 DUP3 ADD SWAP1 POP SWAP2 SWAP1 POP JUMP JUMPDEST PUSH2 0x2C50 DUP2 PUSH2 0x2793 JUMP JUMPDEST DUP3 MSTORE POP POP JUMP JUMPDEST PUSH1 0x0 DUP2 MLOAD SWAP1 POP SWAP2 SWAP1 POP JUMP JUMPDEST PUSH1 0x0 DUP3 DUP3 MSTORE PUSH1 0x20 DUP3 ADD SWAP1 POP SWAP3 SWAP2 POP POP JUMP JUMPDEST PUSH1 0x0 JUMPDEST DUP4 DUP2 LT ISZERO PUSH2 0x2C90 JUMPI DUP1 DUP3 ADD MLOAD DUP2 DUP5 ADD MSTORE PUSH1 0x20 DUP2 ADD SWAP1 POP PUSH2 0x2C75 JUMP JUMPDEST PUSH1 0x0 DUP5 DUP5 ADD MSTORE POP POP POP POP JUMP JUMPDEST PUSH1 0x0 PUSH2 0x2CA7 DUP3 PUSH2 0x2C56 JUMP JUMPDEST PUSH2 0x2CB1 DUP2 DUP6 PUSH2 0x2C61 JUMP JUMPDEST SWAP4 POP PUSH2 0x2CC1 DUP2 DUP6 PUSH1 0x20 DUP7 ADD PUSH2 0x2C72 JUMP JUMPDEST PUSH2 0x2CCA DUP2 PUSH2 0x28A7 JUMP JUMPDEST DUP5 ADD SWAP2 POP POP SWAP3 SWAP2 POP POP JUMP JUMPDEST PUSH1 0x0 DUP2 MLOAD SWAP1 POP SWAP2 SWAP1 POP JUMP JUMPDEST PUSH1 0x0 DUP3 DUP3 MSTORE PUSH1 0x20 DUP3 ADD SWAP1 POP SWAP3 SWAP2 POP POP JUMP JUMPDEST PUSH1 0x0 DUP2 SWAP1 POP PUSH1 0x20 DUP3 ADD SWAP1 POP SWAP2 SWAP1 POP JUMP JUMPDEST PUSH2 0x2D0A DUP2 PUSH2 0x27E9 JUMP JUMPDEST DUP3 MSTORE POP POP JUMP JUMPDEST PUSH1 0x0 PUSH2 0x2D1C DUP4 DUP4 PUSH2 0x2D01 JUMP JUMPDEST PUSH1 0x20 DUP4 ADD SWAP1 POP SWAP3 SWAP2 POP POP JUMP JUMPDEST PUSH1 0x0 PUSH1 0x20 DUP3 ADD SWAP1 POP SWAP2 SWAP1 POP JUMP JUMPDEST PUSH1 0x0 PUSH2 0x2D40 DUP3 PUSH2 0x2CD5 JUMP JUMPDEST PUSH2 0x2D4A DUP2 DUP6 PUSH2 0x2CE0 JUMP JUMPDEST SWAP4 POP PUSH2 0x2D55 DUP4 PUSH2 0x2CF1 JUMP JUMPDEST DUP1 PUSH1 0x0 JUMPDEST DUP4 DUP2 LT ISZERO PUSH2 0x2D86 JUMPI DUP2 MLOAD PUSH2 0x2D6D DUP9 DUP3 PUSH2 0x2D10 JUMP JUMPDEST SWAP8 POP PUSH2 0x2D78 DUP4 PUSH2 0x2D28 JUMP JUMPDEST SWAP3 POP POP PUSH1 0x1 DUP2 ADD SWAP1 POP PUSH2 0x2D59 JUMP JUMPDEST POP DUP6 SWAP4 POP POP POP POP SWAP3 SWAP2 POP POP JUMP JUMPDEST PUSH1 0x0 PUSH2 0x100 DUP4 ADD PUSH1 0x0 DUP4 ADD MLOAD PUSH2 0x2DAC PUSH1 0x0 DUP7 ADD DUP3 PUSH2 0x2C47 JUMP JUMPDEST POP PUSH1 0x20 DUP4 ADD MLOAD PUSH2 0x2DBF PUSH1 0x20 DUP7 ADD DUP3 PUSH2 0x2C47 JUMP JUMPDEST POP PUSH1 0x40 DUP4 ADD MLOAD DUP5 DUP3 SUB PUSH1 0x40 DUP7 ADD MSTORE PUSH2 0x2DD7 DUP3 DUP3 PUSH2 0x2C9C JUMP JUMPDEST SWAP2 POP POP PUSH1 0x60 DUP4 ADD MLOAD DUP5 DUP3 SUB PUSH1 0x60 DUP7 ADD MSTORE PUSH2 0x2DF1 DUP3 DUP3 PUSH2 0x2C9C JUMP JUMPDEST SWAP2 POP POP PUSH1 0x80 DUP4 ADD MLOAD DUP5 DUP3 SUB PUSH1 0x80 DUP7 ADD MSTORE PUSH2 0x2E0B DUP3 DUP3 PUSH2 0x2C9C JUMP JUMPDEST SWAP2 POP POP PUSH1 0xA0 DUP4 ADD MLOAD DUP5 DUP3 SUB PUSH1 0xA0 DUP7 ADD MSTORE PUSH2 0x2E25 DUP3 DUP3 PUSH2 0x2C9C JUMP JUMPDEST SWAP2 POP POP PUSH1 0xC0 DUP4 ADD MLOAD DUP5 DUP3 SUB PUSH1 0xC0 DUP7 ADD MSTORE PUSH2 0x2E3F DUP3 DUP3 PUSH2 0x2D35 JUMP JUMPDEST SWAP2 POP POP PUSH1 0xE0 DUP4 ADD MLOAD PUSH2 0x2E54 PUSH1 0xE0 DUP7 ADD DUP3 PUSH2 0x2C47 JUMP JUMPDEST POP DUP1 SWAP2 POP POP SWAP3 SWAP2 POP POP JUMP JUMPDEST PUSH1 0x0 PUSH2 0x2E6B DUP4 DUP4 PUSH2 0x2D93 JUMP JUMPDEST SWAP1 POP SWAP3 SWAP2 POP POP JUMP JUMPDEST PUSH1 0x0 PUSH1 0x20 DUP3 ADD SWAP1 POP SWAP2 SWAP1 POP JUMP JUMPDEST PUSH1 0x0 PUSH2 0x2E8B DUP3 PUSH2 0x2C1B JUMP JUMPDEST PUSH2 0x2E95 DUP2 DUP6 PUSH2 0x2C26 JUMP JUMPDEST SWAP4 POP DUP4 PUSH1 0x20 DUP3 MUL DUP6 ADD PUSH2 0x2EA7 DUP6 PUSH2 0x2C37 JUMP JUMPDEST DUP1 PUSH1 0x0 JUMPDEST DUP6 DUP2 LT ISZERO PUSH2 0x2EE3 JUMPI DUP5 DUP5 SUB DUP10 MSTORE DUP2 MLOAD PUSH2 0x2EC4 DUP6 DUP3 PUSH2 0x2E5F JUMP JUMPDEST SWAP5 POP PUSH2 0x2ECF DUP4 PUSH2 0x2E73 JUMP JUMPDEST SWAP3 POP PUSH1 0x20 DUP11 ADD SWAP10 POP POP PUSH1 0x1 DUP2 ADD SWAP1 POP PUSH2 0x2EAB JUMP JUMPDEST POP DUP3 SWAP8 POP DUP8 SWAP6 POP POP POP POP POP POP SWAP3 SWAP2 POP POP JUMP JUMPDEST PUSH1 0x0 PUSH1 0x20 DUP3 ADD SWAP1 POP DUP2 DUP2 SUB PUSH1 0x0 DUP4 ADD MSTORE PUSH2 0x2F0F DUP2 DUP5 PUSH2 0x2E80 JUMP JUMPDEST SWAP1 POP SWAP3 SWAP2 POP POP JUMP JUMPDEST PUSH2 0x2F20 DUP2 PUSH2 0x2867 JUMP JUMPDEST DUP3 MSTORE POP POP JUMP JUMPDEST PUSH1 0x0 PUSH2 0x100 DUP4 ADD PUSH1 0x0 DUP4 ADD MLOAD PUSH2 0x2F3F PUSH1 0x0 DUP7 ADD DUP3 PUSH2 0x2C47 JUMP JUMPDEST POP PUSH1 0x20 DUP4 ADD MLOAD DUP5 DUP3 SUB PUSH1 0x20 DUP7 ADD MSTORE PUSH2 0x2F57 DUP3 DUP3 PUSH2 0x2C9C JUMP JUMPDEST SWAP2 POP POP PUSH1 0x40 DUP4 ADD MLOAD DUP5 DUP3 SUB PUSH1 0x40 DUP7 ADD MSTORE PUSH2 0x2F71 DUP3 DUP3 PUSH2 0x2C9C JUMP JUMPDEST SWAP2 POP POP PUSH1 0x60 DUP4 ADD MLOAD PUSH2 0x2F86 PUSH1 0x60 DUP7 ADD DUP3 PUSH2 0x2C47 JUMP JUMPDEST POP PUSH1 0x80 DUP4 ADD MLOAD PUSH2 0x2F99 PUSH1 0x80 DUP7 ADD DUP3 PUSH2 0x2C47 JUMP JUMPDEST POP PUSH1 0xA0 DUP4 ADD MLOAD PUSH2 0x2FAC PUSH1 0xA0 DUP7 ADD DUP3 PUSH2 0x2D01 JUMP JUMPDEST POP PUSH1 0xC0 DUP4 ADD MLOAD PUSH2 0x2FBF PUSH1 0xC0 DUP7 ADD DUP3 PUSH2 0x2F17 JUMP JUMPDEST POP PUSH1 0xE0 DUP4 ADD MLOAD PUSH2 0x2FD2 PUSH1 0xE0 DUP7 ADD DUP3 PUSH2 0x2C47 JUMP JUMPDEST POP DUP1 SWAP2 POP POP SWAP3 SWAP2 POP POP JUMP JUMPDEST PUSH1 0x0 PUSH1 0x20 DUP3 ADD SWAP1 POP DUP2 DUP2 SUB PUSH1 0x0 DUP4 ADD MSTORE PUSH2 0x2FF7 DUP2 DUP5 PUSH2 0x2F26 JUMP JUMPDEST SWAP1 POP SWAP3 SWAP2 POP POP JUMP JUMPDEST PUSH1 0x0 DUP1 PUSH1 0x40 DUP4 DUP6 SUB SLT ISZERO PUSH2 0x3016 JUMPI PUSH2 0x3015 PUSH2 0x2789 JUMP JUMPDEST JUMPDEST PUSH1 0x0 PUSH2 0x3024 DUP6 DUP3 DUP7 ADD PUSH2 0x27B4 JUMP JUMPDEST SWAP3 POP POP PUSH1 0x20 PUSH2 0x3035 DUP6 DUP3 DUP7 ADD PUSH2 0x27B4 JUMP JUMPDEST SWAP2 POP POP SWAP3 POP SWAP3 SWAP1 POP JUMP JUMPDEST PUSH1 0x0 DUP2 MLOAD SWAP1 POP SWAP2 SWAP1 POP JUMP JUMPDEST PUSH1 0x0 DUP3 DUP3 MSTORE PUSH1 0x20 DUP3 ADD SWAP1 POP SWAP3 SWAP2 POP POP JUMP JUMPDEST PUSH1 0x0 DUP2 SWAP1 POP PUSH1 0x20 DUP3 ADD SWAP1 POP SWAP2 SWAP1 POP JUMP JUMPDEST PUSH1 0x0 PUSH2 0x100 DUP4 ADD PUSH1 0x0 DUP4 ADD MLOAD PUSH2 0x3084 PUSH1 0x0 DUP7 ADD DUP3 PUSH2 0x2C47 JUMP JUMPDEST POP PUSH1 0x20 DUP4 ADD MLOAD PUSH2 0x3097 PUSH1 0x20 DUP7 ADD DUP3 PUSH2 0x2D01 JUMP JUMPDEST POP PUSH1 0x40 DUP4 ADD MLOAD PUSH2 0x30AA PUSH1 0x40 DUP7 ADD DUP3 PUSH2 0x2C47 JUMP JUMPDEST POP PUSH1 0x60 DUP4 ADD MLOAD PUSH2 0x30BD PUSH1 0x60 DUP7 ADD DUP3 PUSH2 0x2C47 JUMP JUMPDEST POP PUSH1 0x80 DUP4 ADD MLOAD PUSH2 0x30D0 PUSH1 0x80 DUP7 ADD DUP3 PUSH2 0x2C47 JUMP JUMPDEST POP PUSH1 0xA0 DUP4 ADD MLOAD PUSH2 0x30E3 PUSH1 0xA0 DUP7 ADD DUP3 PUSH2 0x2C47 JUMP JUMPDEST POP PUSH1 0xC0 DUP4 ADD MLOAD DUP5 DUP3 SUB PUSH1 0xC0 DUP7 ADD MSTORE PUSH2 0x30FB DUP3 DUP3 PUSH2 0x2C9C JUMP JUMPDEST SWAP2 POP POP PUSH1 0xE0 DUP4 ADD MLOAD PUSH2 0x3110 PUSH1 0xE0 DUP7 ADD DUP3 PUSH2 0x2C47 JUMP JUMPDEST POP DUP1 SWAP2 POP POP SWAP3 SWAP2 POP POP JUMP JUMPDEST PUSH1 0x0 PUSH2 0x3127 DUP4 DUP4 PUSH2 0x306B JUMP JUMPDEST SWAP1 POP SWAP3 SWAP2 POP POP JUMP JUMPDEST PUSH1 0x0 PUSH1 0x20 DUP3 ADD SWAP1 POP SWAP2 SWAP1 POP JUMP JUMPDEST PUSH1 0x0 PUSH2 0x3147 DUP3 PUSH2 0x303F JUMP JUMPDEST PUSH2 0x3151 DUP2 DUP6 PUSH2 0x304A JUMP JUMPDEST SWAP4 POP DUP4 PUSH1 0x20 DUP3 MUL DUP6 ADD PUSH2 0x3163 DUP6 PUSH2 0x305B JUMP JUMPDEST DUP1 PUSH1 0x0 JUMPDEST DUP6 DUP2 LT ISZERO PUSH2 0x319F JUMPI DUP5 DUP5 SUB DUP10 MSTORE DUP2 MLOAD PUSH2 0x3180 DUP6 DUP3 PUSH2 0x311B JUMP JUMPDEST SWAP5 POP PUSH2 0x318B DUP4 PUSH2 0x312F JUMP JUMPDEST SWAP3 POP PUSH1 0x20 DUP11 ADD SWAP10 POP POP PUSH1 0x1 DUP2 ADD SWAP1 POP PUSH2 0x3167 JUMP JUMPDEST POP DUP3 SWAP8 POP DUP8 SWAP6 POP POP POP POP POP POP SWAP3 SWAP2 POP POP JUMP JUMPDEST PUSH1 0x0 PUSH1 0x20 DUP3 ADD SWAP1 POP DUP2 DUP2 SUB PUSH1 0x0 DUP4 ADD MSTORE PUSH2 0x31CB DUP2 DUP5 PUSH2 0x313C JUMP JUMPDEST SWAP1 POP SWAP3 SWAP2 POP POP JUMP JUMPDEST PUSH1 0x0 DUP1 PUSH1 0x0 PUSH1 0x60 DUP5 DUP7 SUB SLT ISZERO PUSH2 0x31EC JUMPI PUSH2 0x31EB PUSH2 0x2789 JUMP JUMPDEST JUMPDEST PUSH1 0x0 PUSH2 0x31FA DUP7 DUP3 DUP8 ADD PUSH2 0x27B4 JUMP JUMPDEST SWAP4 POP POP PUSH1 0x20 PUSH2 0x320B DUP7 DUP3 DUP8 ADD PUSH2 0x27B4 JUMP JUMPDEST SWAP3 POP POP PUSH1 0x40 PUSH2 0x321C DUP7 DUP3 DUP8 ADD PUSH2 0x27B4 JUMP JUMPDEST SWAP2 POP POP SWAP3 POP SWAP3 POP SWAP3 JUMP JUMPDEST PUSH2 0x322F DUP2 PUSH2 0x27E9 JUMP JUMPDEST DUP3 MSTORE POP POP JUMP JUMPDEST PUSH1 0x0 DUP3 DUP3 MSTORE PUSH1 0x20 DUP3 ADD SWAP1 POP SWAP3 SWAP2 POP POP JUMP JUMPDEST PUSH1 0x0 PUSH2 0x3251 DUP3 PUSH2 0x2C56 JUMP JUMPDEST PUSH2 0x325B DUP2 DUP6 PUSH2 0x3235 JUMP JUMPDEST SWAP4 POP PUSH2 0x326B DUP2 DUP6 PUSH1 0x20 DUP7 ADD PUSH2 0x2C72 JUMP JUMPDEST PUSH2 0x3274 DUP2 PUSH2 0x28A7 JUMP JUMPDEST DUP5 ADD SWAP2 POP POP SWAP3 SWAP2 POP POP JUMP JUMPDEST PUSH1 0x0 PUSH2 0x100 DUP3 ADD SWAP1 POP PUSH2 0x3295 PUSH1 0x0 DUP4 ADD DUP12 PUSH2 0x2BC4 JUMP JUMPDEST PUSH2 0x32A2 PUSH1 0x20 DUP4 ADD DUP11 PUSH2 0x3226 JUMP JUMPDEST PUSH2 0x32AF PUSH1 0x40 DUP4 ADD DUP10 PUSH2 0x2BC4 JUMP JUMPDEST PUSH2 0x32BC PUSH1 0x60 DUP4 ADD DUP9 PUSH2 0x2BC4 JUMP JUMPDEST PUSH2 0x32C9 PUSH1 0x80 DUP4 ADD DUP8 PUSH2 0x2BC4 JUMP JUMPDEST PUSH2 0x32D6 PUSH1 0xA0 DUP4 ADD DUP7 PUSH2 0x2BC4 JUMP JUMPDEST DUP2 DUP2 SUB PUSH1 0xC0 DUP4 ADD MSTORE PUSH2 0x32E8 DUP2 DUP6 PUSH2 0x3246 JUMP JUMPDEST SWAP1 POP PUSH2 0x32F7 PUSH1 0xE0 DUP4 ADD DUP5 PUSH2 0x2BC4 JUMP JUMPDEST SWAP10 SWAP9 POP POP POP POP POP POP POP POP POP JUMP JUMPDEST PUSH1 0x0 DUP1 PUSH1 0x0 DUP1 PUSH1 0x80 DUP6 DUP8 SUB SLT ISZERO PUSH2 0x331E JUMPI PUSH2 0x331D PUSH2 0x2789 JUMP JUMPDEST JUMPDEST PUSH1 0x0 PUSH2 0x332C DUP8 DUP3 DUP9 ADD PUSH2 0x27B4 JUMP JUMPDEST SWAP5 POP POP PUSH1 0x20 DUP6 ADD CALLDATALOAD PUSH8 0xFFFFFFFFFFFFFFFF DUP2 GT ISZERO PUSH2 0x334D JUMPI PUSH2 0x334C PUSH2 0x278E JUMP JUMPDEST JUMPDEST PUSH2 0x3359 DUP8 DUP3 DUP9 ADD PUSH2 0x29B5 JUMP JUMPDEST SWAP4 POP POP PUSH1 0x40 DUP6 ADD CALLDATALOAD PUSH8 0xFFFFFFFFFFFFFFFF DUP2 GT ISZERO PUSH2 0x337A JUMPI PUSH2 0x3379 PUSH2 0x278E JUMP JUMPDEST JUMPDEST PUSH2 0x3386 DUP8 DUP3 DUP9 ADD PUSH2 0x29B5 JUMP JUMPDEST SWAP3 POP POP PUSH1 0x60 PUSH2 0x3397 DUP8 DUP3 DUP9 ADD PUSH2 0x27B4 JUMP JUMPDEST SWAP2 POP POP SWAP3 SWAP6 SWAP2 SWAP5 POP SWAP3 POP JUMP JUMPDEST PUSH1 0x0 DUP2 MLOAD SWAP1 POP SWAP2 SWAP1 POP JUMP JUMPDEST PUSH1 0x0 DUP3 DUP3 MSTORE PUSH1 0x20 DUP3 ADD SWAP1 POP SWAP3 SWAP2 POP POP JUMP JUMPDEST PUSH1 0x0 DUP2 SWAP1 POP PUSH1 0x20 DUP3 ADD SWAP1 POP SWAP2 SWAP1 POP JUMP JUMPDEST PUSH1 0x0 PUSH1 0xA0 DUP4 ADD PUSH1 0x0 DUP4 ADD MLOAD PUSH2 0x33E7 PUSH1 0x0 DUP7 ADD DUP3 PUSH2 0x2C47 JUMP JUMPDEST POP PUSH1 0x20 DUP4 ADD MLOAD PUSH2 0x33FA PUSH1 0x20 DUP7 ADD DUP3 PUSH2 0x2C47 JUMP JUMPDEST POP PUSH1 0x40 DUP4 ADD MLOAD DUP5 DUP3 SUB PUSH1 0x40 DUP7 ADD MSTORE PUSH2 0x3412 DUP3 DUP3 PUSH2 0x2C9C JUMP JUMPDEST SWAP2 POP POP PUSH1 0x60 DUP4 ADD MLOAD DUP5 DUP3 SUB PUSH1 0x60 DUP7 ADD MSTORE PUSH2 0x342C DUP3 DUP3 PUSH2 0x2C9C JUMP JUMPDEST SWAP2 POP POP PUSH1 0x80 DUP4 ADD MLOAD PUSH2 0x3441 PUSH1 0x80 DUP7 ADD DUP3 PUSH2 0x2C47 JUMP JUMPDEST POP DUP1 SWAP2 POP POP SWAP3 SWAP2 POP POP JUMP JUMPDEST PUSH1 0x0 PUSH2 0x3458 DUP4 DUP4 PUSH2 0x33CF JUMP JUMPDEST SWAP1 POP SWAP3 SWAP2 POP POP JUMP JUMPDEST PUSH1 0x0 PUSH1 0x20 DUP3 ADD SWAP1 POP SWAP2 SWAP1 POP JUMP JUMPDEST PUSH1 0x0 PUSH2 0x3478 DUP3 PUSH2 0x33A3 JUMP JUMPDEST PUSH2 0x3482 DUP2 DUP6 PUSH2 0x33AE JUMP JUMPDEST SWAP4 POP DUP4 PUSH1 0x20 DUP3 MUL DUP6 ADD PUSH2 0x3494 DUP6 PUSH2 0x33BF JUMP JUMPDEST DUP1 PUSH1 0x0 JUMPDEST DUP6 DUP2 LT ISZERO PUSH2 0x34D0 JUMPI DUP5 DUP5 SUB DUP10 MSTORE DUP2 MLOAD PUSH2 0x34B1 DUP6 DUP3 PUSH2 0x344C JUMP JUMPDEST SWAP5 POP PUSH2 0x34BC DUP4 PUSH2 0x3460 JUMP JUMPDEST SWAP3 POP PUSH1 0x20 DUP11 ADD SWAP10 POP POP PUSH1 0x1 DUP2 ADD SWAP1 POP PUSH2 0x3498 JUMP JUMPDEST POP DUP3 SWAP8 POP DUP8 SWAP6 POP POP POP POP POP POP SWAP3 SWAP2 POP POP JUMP JUMPDEST PUSH1 0x0 PUSH1 0x20 DUP3 ADD SWAP1 POP DUP2 DUP2 SUB PUSH1 0x0 DUP4 ADD MSTORE PUSH2 0x34FC DUP2 DUP5 PUSH2 0x346D JUMP JUMPDEST SWAP1 POP SWAP3 SWAP2 POP POP JUMP JUMPDEST PUSH1 0x0 DUP1 PUSH1 0x0 DUP1 PUSH1 0x0 PUSH1 0xA0 DUP7 DUP9 SUB SLT ISZERO PUSH2 0x3520 JUMPI PUSH2 0x351F PUSH2 0x2789 JUMP JUMPDEST JUMPDEST PUSH1 0x0 PUSH2 0x352E DUP9 DUP3 DUP10 ADD PUSH2 0x27B4 JUMP JUMPDEST SWAP6 POP POP PUSH1 0x20 DUP7 ADD CALLDATALOAD PUSH8 0xFFFFFFFFFFFFFFFF DUP2 GT ISZERO PUSH2 0x354F JUMPI PUSH2 0x354E PUSH2 0x278E JUMP JUMPDEST JUMPDEST PUSH2 0x355B DUP9 DUP3 DUP10 ADD PUSH2 0x29B5 JUMP JUMPDEST SWAP5 POP POP PUSH1 0x40 DUP7 ADD CALLDATALOAD PUSH8 0xFFFFFFFFFFFFFFFF DUP2 GT ISZERO PUSH2 0x357C JUMPI PUSH2 0x357B PUSH2 0x278E JUMP JUMPDEST JUMPDEST PUSH2 0x3588 DUP9 DUP3 DUP10 ADD PUSH2 0x29B5 JUMP JUMPDEST SWAP4 POP POP PUSH1 0x60 PUSH2 0x3599 DUP9 DUP3 DUP10 ADD PUSH2 0x27B4 JUMP JUMPDEST SWAP3 POP POP PUSH1 0x80 PUSH2 0x35AA DUP9 DUP3 DUP10 ADD PUSH2 0x27B4 JUMP JUMPDEST SWAP2 POP POP SWAP3 SWAP6 POP SWAP3 SWAP6 SWAP1 SWAP4 POP JUMP JUMPDEST PUSH1 0x0 PUSH2 0x100 DUP3 ADD SWAP1 POP PUSH2 0x35CD PUSH1 0x0 DUP4 ADD DUP12 PUSH2 0x2BC4 JUMP JUMPDEST DUP2 DUP2 SUB PUSH1 0x20 DUP4 ADD MSTORE PUSH2 0x35DF DUP2 DUP11 PUSH2 0x3246 JUMP JUMPDEST SWAP1 POP DUP2 DUP2 SUB PUSH1 0x40 DUP4 ADD MSTORE PUSH2 0x35F3 DUP2 DUP10 PUSH2 0x3246 JUMP JUMPDEST SWAP1 POP PUSH2 0x3602 PUSH1 0x60 DUP4 ADD DUP9 PUSH2 0x2BC4 JUMP JUMPDEST PUSH2 0x360F PUSH1 0x80 DUP4 ADD DUP8 PUSH2 0x2BC4 JUMP JUMPDEST PUSH2 0x361C PUSH1 0xA0 DUP4 ADD DUP7 PUSH2 0x3226 JUMP JUMPDEST PUSH2 0x3629 PUSH1 0xC0 DUP4 ADD DUP6 PUSH2 0x2873 JUMP JUMPDEST PUSH2 0x3636 PUSH1 0xE0 DUP4 ADD DUP5 PUSH2 0x2BC4 JUMP JUMPDEST SWAP10 SWAP9 POP POP POP POP POP POP POP POP POP JUMP JUMPDEST PUSH1 0x0 PUSH1 0xA0 DUP3 ADD SWAP1 POP PUSH2 0x3658 PUSH1 0x0 DUP4 ADD DUP9 PUSH2 0x2BC4 JUMP JUMPDEST PUSH2 0x3665 PUSH1 0x20 DUP4 ADD DUP8 PUSH2 0x2BC4 JUMP JUMPDEST DUP2 DUP2 SUB PUSH1 0x40 DUP4 ADD MSTORE PUSH2 0x3677 DUP2 DUP7 PUSH2 0x3246 JUMP JUMPDEST SWAP1 POP DUP2 DUP2 SUB PUSH1 0x60 DUP4 ADD MSTORE PUSH2 0x368B DUP2 DUP6 PUSH2 0x3246 JUMP JUMPDEST SWAP1 POP PUSH2 0x369A PUSH1 0x80 DUP4 ADD DUP5 PUSH2 0x2BC4 JUMP JUMPDEST SWAP7 SWAP6 POP POP POP POP POP POP JUMP JUMPDEST PUSH1 0x0 DUP1 PUSH1 0x0 DUP1 PUSH1 0x80 DUP6 DUP8 SUB SLT ISZERO PUSH2 0x36BE JUMPI PUSH2 0x36BD PUSH2 0x2789 JUMP JUMPDEST JUMPDEST PUSH1 0x0 DUP6 ADD CALLDATALOAD PUSH8 0xFFFFFFFFFFFFFFFF DUP2 GT ISZERO PUSH2 0x36DC JUMPI PUSH2 0x36DB PUSH2 0x278E JUMP JUMPDEST JUMPDEST PUSH2 0x36E8 DUP8 DUP3 DUP9 ADD PUSH2 0x29B5 JUMP JUMPDEST SWAP5 POP POP PUSH1 0x20 DUP6 ADD CALLDATALOAD PUSH8 0xFFFFFFFFFFFFFFFF DUP2 GT ISZERO PUSH2 0x3709 JUMPI PUSH2 0x3708 PUSH2 0x278E JUMP JUMPDEST JUMPDEST PUSH2 0x3715 DUP8 DUP3 DUP9 ADD PUSH2 0x29B5 JUMP JUMPDEST SWAP4 POP POP PUSH1 0x40 PUSH2 0x3726 DUP8 DUP3 DUP9 ADD PUSH2 0x27B4 JUMP JUMPDEST SWAP3 POP POP PUSH1 0x60 PUSH2 0x3737 DUP8 DUP3 DUP9 ADD PUSH2 0x27B4 JUMP JUMPDEST SWAP2 POP POP SWAP3 SWAP6 SWAP2 SWAP5 POP SWAP3 POP JUMP JUMPDEST PUSH1 0x0 DUP2 MLOAD SWAP1 POP SWAP2 SWAP1 POP JUMP JUMPDEST PUSH1 0x0 DUP3 DUP3 MSTORE PUSH1 0x20 DUP3 ADD SWAP1 POP SWAP3 SWAP2 POP POP JUMP JUMPDEST PUSH1 0x0 DUP2 SWAP1 POP PUSH1 0x20 DUP3 ADD SWAP1 POP SWAP2 SWAP1 POP JUMP JUMPDEST PUSH1 0x0 PUSH1 0xC0 DUP4 ADD PUSH1 0x0 DUP4 ADD MLOAD PUSH2 0x3787 PUSH1 0x0 DUP7 ADD DUP3 PUSH2 0x2C47 JUMP JUMPDEST POP PUSH1 0x20 DUP4 ADD MLOAD PUSH2 0x379A PUSH1 0x20 DUP7 ADD DUP3 PUSH2 0x2C47 JUMP JUMPDEST POP PUSH1 0x40 DUP4 ADD MLOAD DUP5 DUP3 SUB PUSH1 0x40 DUP7 ADD MSTORE PUSH2 0x37B2 DUP3 DUP3 PUSH2 0x2C9C JUMP JUMPDEST SWAP2 POP POP PUSH1 0x60 DUP4 ADD MLOAD DUP5 DUP3 SUB PUSH1 0x60 DUP7 ADD MSTORE PUSH2 0x37CC DUP3 DUP3 PUSH2 0x2C9C JUMP JUMPDEST SWAP2 POP POP PUSH1 0x80 DUP4 ADD MLOAD PUSH2 0x37E1 PUSH1 0x80 DUP7 ADD DUP3 PUSH2 0x2C47 JUMP JUMPDEST POP PUSH1 0xA0 DUP4 ADD MLOAD PUSH2 0x37F4 PUSH1 0xA0 DUP7 ADD DUP3 PUSH2 0x2C47 JUMP JUMPDEST POP DUP1 SWAP2 POP POP SWAP3 SWAP2 POP POP JUMP JUMPDEST PUSH1 0x0 PUSH2 0x380B DUP4 DUP4 PUSH2 0x376F JUMP JUMPDEST SWAP1 POP SWAP3 SWAP2 POP POP JUMP JUMPDEST PUSH1 0x0 PUSH1 0x20 DUP3 ADD SWAP1 POP SWAP2 SWAP1 POP JUMP JUMPDEST PUSH1 0x0 PUSH2 0x382B DUP3 PUSH2 0x3743 JUMP JUMPDEST PUSH2 0x3835 DUP2 DUP6 PUSH2 0x374E JUMP JUMPDEST SWAP4 POP DUP4 PUSH1 0x20 DUP3 MUL DUP6 ADD PUSH2 0x3847 DUP6 PUSH2 0x375F JUMP JUMPDEST DUP1 PUSH1 0x0 JUMPDEST DUP6 DUP2 LT ISZERO PUSH2 0x3883 JUMPI DUP5 DUP5 SUB DUP10 MSTORE DUP2 MLOAD PUSH2 0x3864 DUP6 DUP3 PUSH2 0x37FF JUMP JUMPDEST SWAP5 POP PUSH2 0x386F DUP4 PUSH2 0x3813 JUMP JUMPDEST SWAP3 POP PUSH1 0x20 DUP11 ADD SWAP10 POP POP PUSH1 0x1 DUP2 ADD SWAP1 POP PUSH2 0x384B JUMP JUMPDEST POP DUP3 SWAP8 POP DUP8 SWAP6 POP POP POP POP POP POP SWAP3 SWAP2 POP POP JUMP JUMPDEST PUSH1 0x0 PUSH1 0x20 DUP3 ADD SWAP1 POP DUP2 DUP2 SUB PUSH1 0x0 DUP4 ADD MSTORE PUSH2 0x38AF DUP2 DUP5 PUSH2 0x3820 JUMP JUMPDEST SWAP1 POP SWAP3 SWAP2 POP POP JUMP JUMPDEST PUSH1 0x0 PUSH1 0xC0 DUP3 ADD SWAP1 POP PUSH2 0x38CC PUSH1 0x0 DUP4 ADD DUP10 PUSH2 0x2BC4 JUMP JUMPDEST PUSH2 0x38D9 PUSH1 0x20 DUP4 ADD DUP9 PUSH2 0x2BC4 JUMP JUMPDEST DUP2 DUP2 SUB PUSH1 0x40 DUP4 ADD MSTORE PUSH2 0x38EB DUP2 DUP8 PUSH2 0x3246 JUMP JUMPDEST SWAP1 POP DUP2 DUP2 SUB PUSH1 0x60 DUP4 ADD MSTORE PUSH2 0x38FF DUP2 DUP7 PUSH2 0x3246 JUMP JUMPDEST SWAP1 POP PUSH2 0x390E PUSH1 0x80 DUP4 ADD DUP6 PUSH2 0x2BC4 JUMP JUMPDEST PUSH2 0x391B PUSH1 0xA0 DUP4 ADD DUP5 PUSH2 0x2BC4 JUMP JUMPDEST SWAP8 SWAP7 POP POP POP POP POP POP POP JUMP JUMPDEST PUSH1 0x0 DUP1 PUSH1 0x0 DUP1 PUSH1 0x0 DUP1 PUSH1 0x0 PUSH1 0xE0 DUP9 DUP11 SUB SLT ISZERO PUSH2 0x3945 JUMPI PUSH2 0x3944 PUSH2 0x2789 JUMP JUMPDEST JUMPDEST PUSH1 0x0 PUSH2 0x3953 DUP11 DUP3 DUP12 ADD PUSH2 0x27B4 JUMP JUMPDEST SWAP8 POP POP PUSH1 0x20 PUSH2 0x3964 DUP11 DUP3 DUP12 ADD PUSH2 0x27B4 JUMP JUMPDEST SWAP7 POP POP PUSH1 0x40 PUSH2 0x3975 DUP11 DUP3 DUP12 ADD PUSH2 0x27B4 JUMP JUMPDEST SWAP6 POP POP PUSH1 0x60 PUSH2 0x3986 DUP11 DUP3 DUP12 ADD PUSH2 0x27B4 JUMP JUMPDEST SWAP5 POP POP PUSH1 0x80 PUSH2 0x3997 DUP11 DUP3 DUP12 ADD PUSH2 0x27B4 JUMP JUMPDEST SWAP4 POP POP PUSH1 0xA0 PUSH2 0x39A8 DUP11 DUP3 DUP12 ADD PUSH2 0x27B4 JUMP JUMPDEST SWAP3 POP POP PUSH1 0xC0 DUP9 ADD CALLDATALOAD PUSH8 0xFFFFFFFFFFFFFFFF DUP2 GT ISZERO PUSH2 0x39C9 JUMPI PUSH2 0x39C8 PUSH2 0x278E JUMP JUMPDEST JUMPDEST PUSH2 0x39D5 DUP11 DUP3 DUP12 ADD PUSH2 0x29B5 JUMP JUMPDEST SWAP2 POP POP SWAP3 SWAP6 SWAP9 SWAP2 SWAP5 SWAP8 POP SWAP3 SWAP6 POP JUMP JUMPDEST PUSH1 0x0 PUSH1 0xE0 DUP3 ADD SWAP1 POP PUSH2 0x39F9 PUSH1 0x0 DUP4 ADD DUP11 PUSH2 0x2BC4 JUMP JUMPDEST PUSH2 0x3A06 PUSH1 0x20 DUP4 ADD DUP10 PUSH2 0x2BC4 JUMP JUMPDEST DUP2 DUP2 SUB PUSH1 0x40 DUP4 ADD MSTORE PUSH2 0x3A18 DUP2 DUP9 PUSH2 0x3246 JUMP JUMPDEST SWAP1 POP DUP2 DUP2 SUB PUSH1 0x60 DUP4 ADD MSTORE PUSH2 0x3A2C DUP2 DUP8 PUSH2 0x3246 JUMP JUMPDEST SWAP1 POP DUP2 DUP2 SUB PUSH1 0x80 DUP4 ADD MSTORE PUSH2 0x3A40 DUP2 DUP7 PUSH2 0x3246 JUMP JUMPDEST SWAP1 POP DUP2 DUP2 SUB PUSH1 0xA0 DUP4 ADD MSTORE PUSH2 0x3A54 DUP2 DUP6 PUSH2 0x3246 JUMP JUMPDEST SWAP1 POP PUSH2 0x3A63 PUSH1 0xC0 DUP4 ADD DUP5 PUSH2 0x2BC4 JUMP JUMPDEST SWAP9 SWAP8 POP POP POP POP POP POP POP POP JUMP JUMPDEST PUSH32 0x4861636B6174686F6E206E6F7420616374697665000000000000000000000000 PUSH1 0x0 DUP3 ADD MSTORE POP JUMP JUMPDEST PUSH1 0x0 PUSH2 0x3AA5 PUSH1 0x14 DUP4 PUSH2 0x3235 JUMP JUMPDEST SWAP2 POP PUSH2 0x3AB0 DUP3 PUSH2 0x3A6F JUMP JUMPDEST PUSH1 0x20 DUP3 ADD SWAP1 POP SWAP2 SWAP1 POP JUMP JUMPDEST PUSH1 0x0 PUSH1 0x20 DUP3 ADD SWAP1 POP DUP2 DUP2 SUB PUSH1 0x0 DUP4 ADD MSTORE PUSH2 0x3AD4 DUP2 PUSH2 0x3A98 JUMP JUMPDEST SWAP1 POP SWAP2 SWAP1 POP JUMP JUMPDEST PUSH32 0x4861636B6174686F6E206E6F7420737461727465640000000000000000000000 PUSH1 0x0 DUP3 ADD MSTORE POP JUMP JUMPDEST PUSH1 0x0 PUSH2 0x3B11 PUSH1 0x15 DUP4 PUSH2 0x3235 JUMP JUMPDEST SWAP2 POP PUSH2 0x3B1C DUP3 PUSH2 0x3ADB JUMP JUMPDEST PUSH1 0x20 DUP3 ADD SWAP1 POP SWAP2 SWAP1 POP JUMP JUMPDEST PUSH1 0x0 PUSH1 0x20 DUP3 ADD SWAP1 POP DUP2 DUP2 SUB PUSH1 0x0 DUP4 ADD MSTORE PUSH2 0x3B40 DUP2 PUSH2 0x3B04 JUMP JUMPDEST SWAP1 POP SWAP2 SWAP1 POP JUMP JUMPDEST PUSH32 0x4861636B6174686F6E20656E6465640000000000000000000000000000000000 PUSH1 0x0 DUP3 ADD MSTORE POP JUMP JUMPDEST PUSH1 0x0 PUSH2 0x3B7D PUSH1 0xF DUP4 PUSH2 0x3235 JUMP JUMPDEST SWAP2 POP PUSH2 0x3B88 DUP3 PUSH2 0x3B47 JUMP JUMPDEST PUSH1 0x20 DUP3 ADD SWAP1 POP SWAP2 SWAP1 POP JUMP JUMPDEST PUSH1 0x0 PUSH1 0x20 DUP3 ADD SWAP1 POP DUP2 DUP2 SUB PUSH1 0x0 DUP4 ADD MSTORE PUSH2 0x3BAC DUP2 PUSH2 0x3B70 JUMP JUMPDEST SWAP1 POP SWAP2 SWAP1 POP JUMP JUMPDEST PUSH32 0x4E487B7100000000000000000000000000000000000000000000000000000000 PUSH1 0x0 MSTORE PUSH1 0x11 PUSH1 0x4 MSTORE PUSH1 0x24 PUSH1 0x0 REVERT JUMPDEST PUSH1 0x0 PUSH2 0x3BED DUP3 PUSH2 0x2793 JUMP JUMPDEST SWAP2 POP PUSH32 0xFFFFFFFFFFFFFFFFFFFFFFFFFFFFFFFFFFFFFFFFFFFFFFFFFFFFFFFFFFFFFFFF DUP3 SUB PUSH2 0x3C1F JUMPI PUSH2 0x3C1E PUSH2 0x3BB3 JUMP JUMPDEST JUMPDEST PUSH1 0x1 DUP3 ADD SWAP1 POP SWAP2 SWAP1 POP JUMP JUMPDEST PUSH32 0x4E487B7100000000000000000000000000000000000000000000000000000000 PUSH1 0x0 MSTORE PUSH1 0x22 PUSH1 0x4 MSTORE PUSH1 0x24 PUSH1 0x0 REVERT JUMPDEST PUSH1 0x0 PUSH1 0x2 DUP3 DIV SWAP1 POP PUSH1 0x1 DUP3 AND DUP1 PUSH2 0x3C71 JUMPI PUSH1 0x7F DUP3 AND SWAP2 POP JUMPDEST PUSH1 0x20 DUP3 LT DUP2 SUB PUSH2 0x3C84 JUMPI PUSH2 0x3C83 PUSH2 0x3C2A JUMP JUMPDEST JUMPDEST POP SWAP2 SWAP1 POP JUMP JUMPDEST PUSH1 0x0 DUP2 SWAP1 POP DUP2 PUSH1 0x0 MSTORE PUSH1 0x20 PUSH1 0x0 KECCAK256 SWAP1 POP SWAP2 SWAP1 POP JUMP JUMPDEST PUSH1 0x0 PUSH1 0x20 PUSH1 0x1F DUP4 ADD DIV SWAP1 POP SWAP2 SWAP1 POP JUMP JUMPDEST PUSH1 0x0 DUP3 DUP3 SHL SWAP1 POP SWAP3 SWAP2 POP POP JUMP JUMPDEST PUSH1 0x0 PUSH1 0x8 DUP4 MUL PUSH2 0x3CEC PUSH32 0xFFFFFFFFFFFFFFFFFFFFFFFFFFFFFFFFFFFFFFFFFFFFFFFFFFFFFFFFFFFFFFFF DUP3 PUSH2 0x3CAF JUMP JUMPDEST PUSH2 0x3CF6 DUP7 DUP4 PUSH2 0x3CAF JUMP JUMPDEST SWAP6 POP DUP1 NOT DUP5 AND SWAP4 POP DUP1 DUP7 AND DUP5 OR SWAP3 POP POP POP SWAP4 SWAP3 POP POP POP JUMP JUMPDEST PUSH1 0x0 DUP2 SWAP1 POP SWAP2 SWAP1 POP JUMP JUMPDEST PUSH1 0x0 PUSH2 0x3D33 PUSH2 0x3D2E PUSH2 0x3D29 DUP5 PUSH2 0x2793 JUMP JUMPDEST PUSH2 0x3D0E JUMP JUMPDEST PUSH2 0x2793 JUMP JUMPDEST SWAP1 POP SWAP2 SWAP1 POP JUMP JUMPDEST PUSH1 0x0 DUP2 SWAP1 POP SWAP2 SWAP1 POP JUMP JUMPDEST PUSH2 0x3D4D DUP4 PUSH2 0x3D18 JUMP JUMPDEST PUSH2 0x3D61 PUSH2 0x3D59 DUP3 PUSH2 0x3D3A JUMP JUMPDEST DUP5 DUP5 SLOAD PUSH2 0x3CBC JUMP JUMPDEST DUP3 SSTORE POP POP POP POP JUMP JUMPDEST PUSH1 0x0 SWAP1 JUMP JUMPDEST PUSH2 0x3D76 PUSH2 0x3D69 JUMP JUMPDEST PUSH2 0x3D81 DUP2 DUP5 DUP5 PUSH2 0x3D44 JUMP JUMPDEST POP POP POP JUMP JUMPDEST JUMPDEST DUP2 DUP2 LT ISZERO PUSH2 0x3DA5 JUMPI PUSH2 0x3D9A PUSH1 0x0 DUP3 PUSH2 0x3D6E JUMP JUMPDEST PUSH1 0x1 DUP2 ADD SWAP1 POP PUSH2 0x3D87 JUMP JUMPDEST POP POP JUMP JUMPDEST PUSH1 0x1F DUP3 GT ISZERO PUSH2 0x3DEA JUMPI PUSH2 0x3DBB DUP2 PUSH2 0x3C8A JUMP JUMPDEST PUSH2 0x3DC4 DUP5 PUSH2 0x3C9F JUMP JUMPDEST DUP2 ADD PUSH1 0x20 DUP6 LT ISZERO PUSH2 0x3DD3 JUMPI DUP2 SWAP1 POP JUMPDEST PUSH2 0x3DE7 PUSH2 0x3DDF DUP6 PUSH2 0x3C9F JUMP JUMPDEST DUP4 ADD DUP3 PUSH2 0x3D86 JUMP JUMPDEST POP POP JUMPDEST POP POP POP JUMP JUMPDEST PUSH1 0x0 DUP3 DUP3 SHR SWAP1 POP SWAP3 SWAP2 POP POP JUMP JUMPDEST PUSH1 0x0 PUSH2 0x3E0D PUSH1 0x0 NOT DUP5 PUSH1 0x8 MUL PUSH2 0x3DEF JUMP JUMPDEST NOT DUP1 DUP4 AND SWAP2 POP POP SWAP3 SWAP2 POP POP JUMP JUMPDEST PUSH1 0x0 PUSH2 0x3E26 DUP4 DUP4 PUSH2 0x3DFC JUMP JUMPDEST SWAP2 POP DUP3 PUSH1 0x2 MUL DUP3 OR SWAP1 POP SWAP3 SWAP2 POP POP JUMP JUMPDEST PUSH2 0x3E3F DUP3 PUSH2 0x2C56 JUMP JUMPDEST PUSH8 0xFFFFFFFFFFFFFFFF DUP2 GT ISZERO PUSH2 0x3E58 JUMPI PUSH2 0x3E57 PUSH2 0x28B8 JUMP JUMPDEST JUMPDEST PUSH2 0x3E62 DUP3 SLOAD PUSH2 0x3C59 JUMP JUMPDEST PUSH2 0x3E6D DUP3 DUP3 DUP6 PUSH2 0x3DA9 JUMP JUMPDEST PUSH1 0x0 PUSH1 0x20 SWAP1 POP PUSH1 0x1F DUP4 GT PUSH1 0x1 DUP2 EQ PUSH2 0x3EA0 JUMPI PUSH1 0x0 DUP5 ISZERO PUSH2 0x3E8E JUMPI DUP3 DUP8 ADD MLOAD SWAP1 POP JUMPDEST PUSH2 0x3E98 DUP6 DUP3 PUSH2 0x3E1A JUMP JUMPDEST DUP7 SSTORE POP PUSH2 0x3F00 JUMP JUMPDEST PUSH1 0x1F NOT DUP5 AND PUSH2 0x3EAE DUP7 PUSH2 0x3C8A JUMP JUMPDEST PUSH1 0x0 JUMPDEST DUP3 DUP2 LT ISZERO PUSH2 0x3ED6 JUMPI DUP5 DUP10 ADD MLOAD DUP3 SSTORE PUSH1 0x1 DUP3 ADD SWAP2 POP PUSH1 0x20 DUP6 ADD SWAP5 POP PUSH1 0x20 DUP2 ADD SWAP1 POP PUSH2 0x3EB1 JUMP JUMPDEST DUP7 DUP4 LT ISZERO PUSH2 0x3EF3 JUMPI DUP5 DUP10 ADD MLOAD PUSH2 0x3EEF PUSH1 0x1F DUP10 AND DUP3 PUSH2 0x3DFC JUMP JUMPDEST DUP4 SSTORE POP JUMPDEST PUSH1 0x1 PUSH1 0x2 DUP9 MUL ADD DUP9 SSTORE POP POP POP JUMPDEST POP POP POP POP POP POP JUMP JUMPDEST PUSH1 0x0 PUSH1 0x40 DUP3 ADD SWAP1 POP PUSH2 0x3F1D PUSH1 0x0 DUP4 ADD DUP6 PUSH2 0x2BC4 JUMP JUMPDEST DUP2 DUP2 SUB PUSH1 0x20 DUP4 ADD MSTORE PUSH2 0x3F2F DUP2 DUP5 PUSH2 0x3246 JUMP JUMPDEST SWAP1 POP SWAP4 SWAP3 POP POP POP JUMP JUMPDEST PUSH32 0x53636F726573206E6F742072656C656173656400000000000000000000000000 PUSH1 0x0 DUP3 ADD MSTORE POP JUMP JUMPDEST PUSH1 0x0 PUSH2 0x3F6E PUSH1 0x13 DUP4 PUSH2 0x3235 JUMP JUMPDEST SWAP2 POP PUSH2 0x3F79 DUP3 PUSH2 0x3F38 JUMP JUMPDEST PUSH1 0x20 DUP3 ADD SWAP1 POP SWAP2 SWAP1 POP JUMP JUMPDEST PUSH1 0x0 PUSH1 0x20 DUP3 ADD SWAP1 POP DUP2 DUP2 SUB PUSH1 0x0 DUP4 ADD MSTORE PUSH2 0x3F9D DUP2 PUSH2 0x3F61 JUMP JUMPDEST SWAP1 POP SWAP2 SWAP1 POP JUMP JUMPDEST PUSH32 0x4E6F74206F7267616E697A657200000000000000000000000000000000000000 PUSH1 0x0 DUP3 ADD MSTORE POP JUMP JUMPDEST PUSH1 0x0 PUSH2 0x3FDA PUSH1 0xD DUP4 PUSH2 0x3235 JUMP JUMPDEST SWAP2 POP PUSH2 0x3FE5 DUP3 PUSH2 0x3FA4 JUMP JUMPDEST PUSH1 0x20 DUP3 ADD SWAP1 POP SWAP2 SWAP1 POP JUMP JUMPDEST PUSH1 0x0 PUSH1 0x20 DUP3 ADD SWAP1 POP DUP2 DUP2 SUB PUSH1 0x0 DUP4 ADD MSTORE PUSH2 0x4009 DUP2 PUSH2 0x3FCD JUMP JUMPDEST SWAP1 POP SWAP2 SWAP1 POP JUMP JUMPDEST PUSH1 0x0 PUSH1 0x20 DUP3 ADD SWAP1 POP PUSH2 0x4025 PUSH1 0x0 DUP4 ADD DUP5 PUSH2 0x3226 JUMP JUMPDEST SWAP3 SWAP2 POP POP JUMP JUMPDEST PUSH1 0x0 PUSH1 0x40 DUP3 ADD SWAP1 POP DUP2 DUP2 SUB PUSH1 0x0 DUP4 ADD MSTORE PUSH2 0x4045 DUP2 DUP6 PUSH2 0x3246 JUMP JUMPDEST SWAP1 POP PUSH2 0x4054 PUSH1 0x20 DUP4 ADD DUP5 PUSH2 0x3226 JUMP JUMPDEST SWAP4 SWAP3 POP POP POP JUMP JUMPDEST PUSH32 0x4E6F742061206A75646765000000000000000000000000000000000000000000 PUSH1 0x0 DUP3 ADD MSTORE POP JUMP JUMPDEST PUSH1 0x0 PUSH2 0x4091 PUSH1 0xB DUP4 PUSH2 0x3235 JUMP JUMPDEST SWAP2 POP PUSH2 0x409C DUP3 PUSH2 0x405B JUMP JUMPDEST PUSH1 0x20 DUP3 ADD SWAP1 POP SWAP2 SWAP1 POP JUMP JUMPDEST PUSH1 0x0 PUSH1 0x20 DUP3 ADD SWAP1 POP DUP2 DUP2 SUB PUSH1 0x0 DUP4 ADD MSTORE PUSH2 0x40C0 DUP2 PUSH2 0x4084 JUMP JUMPDEST SWAP1 POP SWAP2 SWAP1 POP JUMP JUMPDEST PUSH32 0x496E76616C69642073636F726573000000000000000000000000000000000000 PUSH1 0x0 DUP3 ADD MSTORE POP JUMP JUMPDEST PUSH1 0x0 PUSH2 0x40FD PUSH1 0xE DUP4 PUSH2 0x3235 JUMP JUMPDEST SWAP2 POP PUSH2 0x4108 DUP3 PUSH2 0x40C7 JUMP JUMPDEST PUSH1 0x20 DUP3 ADD SWAP1 POP SWAP2 SWAP1 POP JUMP JUMPDEST PUSH1 0x0 PUSH1 0x20 DUP3 ADD SWAP1 POP DUP2 DUP2 SUB PUSH1 0x0 DUP4 ADD MSTORE PUSH2 0x412C DUP2 PUSH2 0x40F0 JUMP JUMPDEST SWAP1 POP SWAP2 SWAP1 POP JUMP INVALID LOG2 PUSH5 0x6970667358 0x22 SLT KECCAK256 0x2F CALLVALUE 0x4E 0xCC PUSH24 0xD6619888B8D619D439BCD3A388702821D51079BBB48A6955 0xE 0xAC PUSH6 0x64736F6C6343 STOP ADDMOD EQ STOP CALLER "},"methodIdentifiers":{"addJudge(uint256,address)":"66e1006e","addPrize(uint256,string,string,uint256,uint256)":"8e9f1949","addSchedule(uint256,string,string,uint256)":"6b6334b4","areScoresReleased(uint256)":"63e8118d","createHackathon(string,string,uint256,uint256)":"cbb94d5d","getHackathon(uint256)":"2ca34d93","getPrizes(uint256)":"cc307795","getProjectScores(uint256,uint256)":"4e996282","getProjects(uint256)":"20628b48","getSchedules(uint256)":"746a6470","hackathonCount()":"96ab7739","hackathonJudges(uint256,address)":"0ed4853c","hackathonPrizes(uint256,uint256)":"ef904016","hackathonProjects(uint256,uint256)":"f9eda36f","hackathonSchedules(uint256,uint256)":"cb978442","hackathons(uint256)":"c1077194","isJudge(uint256,address)":"a25232f5","prizeCount()":"7f23df0a","projectCount()":"36fbad26","projectScores(uint256,uint256,uint256)":"595d4974","releaseScores(uint256)":"60299cd9","scheduleCount()":"b7ef81e1","scoreProject(uint256,uint256,uint256,uint256,uint256,uint256,string)":"f810177d","scoresReleased(uint256)":"c1f374f0","submitProject(uint256,string,string,string,string,address[])":"1a52a2ae"}}}}}