{
  "_format": "hh-sol-artifact-1",
  "contractName": "HackerCoinPlatform",
  "sourceName": "contracts/HackerCoinPlatform.sol",
  "abi": [
    {
      "inputs": [],
      "stateMutability": "nonpayable",
      "type": "constructor"
    },
    {
      "anonymous": false,
      "inputs": [
        {
          "indexed": true,
          "internalType": "uint256",
          "name": "hackathonId",
          "type": "uint256"
        },
        {
          "indexed": true,
          "internalType": "address",
          "name": "organizer",
          "type": "address"
        },
        {
          "indexed": false,
          "internalType": "string",
          "name": "name",
          "type": "string"
        },
        {
          "indexed": false,
          "internalType": "uint256",
          "name": "prizePoolWei",
          "type": "uint256"
        },
        {
          "indexed": false,
          "internalType": "uint256",
          "name": "creationFeeWei",
          "type": "uint256"
        },
        {
          "indexed": false,
          "internalType": "uint256",
          "name": "judgeCount",
          "type": "uint256"
        }
      ],
      "name": "HackathonCreated",
      "type": "event"
    },
    {
      "anonymous": false,
      "inputs": [
        {
          "indexed": true,
          "internalType": "uint256",
          "name": "hackathonId",
          "type": "uint256"
        },
        {
          "indexed": true,
          "internalType": "address",
          "name": "judge",
          "type": "address"
        },
        {
          "indexed": false,
          "internalType": "uint256",
          "name": "baseFeeWei",
          "type": "uint256"
        }
      ],
      "name": "JudgeAdded",
      "type": "event"
    },
    {
      "anonymous": false,
      "inputs": [
        {
          "indexed": true,
          "internalType": "uint256",
          "name": "hackathonId",
          "type": "uint256"
        },
        {
          "indexed": false,
          "internalType": "uint256",
          "name": "totalAmount",
          "type": "uint256"
        },
        {
          "indexed": false,
          "internalType": "uint256",
          "name": "judgeCount",
          "type": "uint256"
        }
      ],
      "name": "JudgesPaid",
      "type": "event"
    },
    {
      "anonymous": false,
      "inputs": [
        {
          "indexed": true,
          "internalType": "uint256",
          "name": "hackathonId",
          "type": "uint256"
        },
        {
          "indexed": true,
          "internalType": "address",
          "name": "organizer",
          "type": "address"
        },
        {
          "indexed": false,
          "internalType": "uint256",
          "name": "amount",
          "type": "uint256"
        }
      ],
      "name": "OrganizerPaid",
      "type": "event"
    },
    {
      "anonymous": false,
      "inputs": [
        {
          "indexed": true,
          "internalType": "uint256",
          "name": "hackathonId",
          "type": "uint256"
        },
        {
          "indexed": false,
          "internalType": "address[]",
          "name": "winners",
          "type": "address[]"
        },
        {
          "indexed": false,
          "internalType": "uint256[]",
          "name": "amounts",
          "type": "uint256[]"
        }
      ],
      "name": "PrizesDistributed",
      "type": "event"
    },
    {
      "anonymous": false,
      "inputs": [
        {
          "indexed": true,
          "internalType": "uint256",
          "name": "hackathonId",
          "type": "uint256"
        },
        {
          "indexed": true,
          "internalType": "uint256",
          "name": "projectId",
          "type": "uint256"
        },
        {
          "indexed": true,
          "internalType": "address",
          "name": "participant",
          "type": "address"
        },
        {
          "indexed": false,
          "internalType": "string",
          "name": "projectName",
          "type": "string"
        },
        {
          "indexed": false,
          "internalType": "uint256",
          "name": "submissionFeeWei",
          "type": "uint256"
        }
      ],
      "name": "ProjectSubmitted",
      "type": "event"
    },
    {
      "inputs": [],
      "name": "HACKATHON_CREATION_FEE",
      "outputs": [
        {
          "internalType": "uint256",
          "name": "",
          "type": "uint256"
        }
      ],
      "stateMutability": "view",
      "type": "function"
    },
    {
      "inputs": [],
      "name": "HACKERCOIN",
      "outputs": [
        {
          "internalType": "uint256",
          "name": "",
          "type": "uint256"
        }
      ],
      "stateMutability": "view",
      "type": "function"
    },
    {
      "inputs": [],
      "name": "JUDGE_BASE_FEE",
      "outputs": [
        {
          "internalType": "uint256",
          "name": "",
          "type": "uint256"
        }
      ],
      "stateMutability": "view",
      "type": "function"
    },
    {
      "inputs": [],
      "name": "JUDGE_SHARE_PERCENT",
      "outputs": [
        {
          "internalType": "uint256",
          "name": "",
          "type": "uint256"
        }
      ],
      "stateMutability": "view",
      "type": "function"
    },
    {
      "inputs": [],
      "name": "ORGANIZER_SHARE_PERCENT",
      "outputs": [
        {
          "internalType": "uint256",
          "name": "",
          "type": "uint256"
        }
      ],
      "stateMutability": "view",
      "type": "function"
    },
    {
      "inputs": [],
      "name": "SUBMISSION_FEE",
      "outputs": [
        {
          "internalType": "uint256",
          "name": "",
          "type": "uint256"
        }
      ],
      "stateMutability": "view",
      "type": "function"
    },
    {
      "inputs": [
        {
          "internalType": "uint256",
          "name": "hackathonId",
          "type": "uint256"
        },
        {
          "internalType": "address",
          "name": "judgeAddress",
          "type": "address"
        }
      ],
      "name": "addJudge",
      "outputs": [],
      "stateMutability": "payable",
      "type": "function"
    },
    {
      "inputs": [
        {
          "internalType": "string",
          "name": "name",
          "type": "string"
        },
        {
          "internalType": "string",
          "name": "description",
          "type": "string"
        },
        {
          "internalType": "address[]",
          "name": "judgeAddresses",
          "type": "address[]"
        },
        {
          "components": [
            {
              "internalType": "string",
              "name": "title",
              "type": "string"
            },
            {
              "internalType": "uint256",
              "name": "amount",
              "type": "uint256"
            },
            {
              "internalType": "uint256",
              "name": "position",
              "type": "uint256"
            }
          ],
          "internalType": "struct HackerCoinPlatform.Prize[]",
          "name": "prizes",
          "type": "tuple[]"
        },
        {
          "internalType": "uint256",
          "name": "registrationDeadline",
          "type": "uint256"
        },
        {
          "internalType": "uint256",
          "name": "startDate",
          "type": "uint256"
        },
        {
          "internalType": "uint256",
          "name": "endDate",
          "type": "uint256"
        }
      ],
      "name": "createHackathon",
      "outputs": [],
      "stateMutability": "payable",
      "type": "function"
    },
    {
      "inputs": [
        {
          "internalType": "uint256",
          "name": "hackathonId",
          "type": "uint256"
        },
        {
          "internalType": "address[]",
          "name": "winners",
          "type": "address[]"
        },
        {
          "internalType": "uint256[]",
          "name": "prizeAmountsHC",
          "type": "uint256[]"
        }
      ],
      "name": "distributePrizes",
      "outputs": [],
      "stateMutability": "nonpayable",
      "type": "function"
    },
    {
      "inputs": [
        {
          "internalType": "uint256",
          "name": "hackathonId",
          "type": "uint256"
        }
      ],
      "name": "getHackathon",
      "outputs": [
        {
          "internalType": "string",
          "name": "name",
          "type": "string"
        },
        {
          "internalType": "string",
          "name": "description",
          "type": "string"
        },
        {
          "internalType": "address",
          "name": "organizer",
          "type": "address"
        },
        {
          "internalType": "uint256",
          "name": "prizePoolWei",
          "type": "uint256"
        },
        {
          "internalType": "uint256",
          "name": "projectCount",
          "type": "uint256"
        },
        {
          "internalType": "uint256",
          "name": "judgeCount",
          "type": "uint256"
        },
        {
          "internalType": "bool",
          "name": "active",
          "type": "bool"
        },
        {
          "internalType": "uint256",
          "name": "registrationDeadline",
          "type": "uint256"
        },
        {
          "internalType": "uint256",
          "name": "startDate",
          "type": "uint256"
        },
        {
          "internalType": "uint256",
          "name": "endDate",
          "type": "uint256"
        }
      ],
      "stateMutability": "view",
      "type": "function"
    },
    {
      "inputs": [
        {
          "internalType": "address",
          "name": "judgeAddress",
          "type": "address"
        }
      ],
      "name": "getHackathonsForJudge",
      "outputs": [
        {
          "internalType": "uint256[]",
          "name": "hackathonIds",
          "type": "uint256[]"
        }
      ],
      "stateMutability": "view",
      "type": "function"
    },
    {
      "inputs": [
        {
          "internalType": "uint256",
          "name": "hackathonId",
          "type": "uint256"
        }
      ],
      "name": "getJudges",
      "outputs": [
        {
          "internalType": "address[]",
          "name": "",
          "type": "address[]"
        }
      ],
      "stateMutability": "view",
      "type": "function"
    },
    {
      "inputs": [],
      "name": "getPlatformBalance",
      "outputs": [
        {
          "internalType": "uint256",
          "name": "",
          "type": "uint256"
        }
      ],
      "stateMutability": "view",
      "type": "function"
    },
    {
      "inputs": [
        {
          "internalType": "uint256",
          "name": "hackathonId",
          "type": "uint256"
        }
      ],
      "name": "getPrizes",
      "outputs": [
        {
          "components": [
            {
              "internalType": "string",
              "name": "title",
              "type": "string"
            },
            {
              "internalType": "uint256",
              "name": "amount",
              "type": "uint256"
            },
            {
              "internalType": "uint256",
              "name": "position",
              "type": "uint256"
            }
          ],
          "internalType": "struct HackerCoinPlatform.Prize[]",
          "name": "",
          "type": "tuple[]"
        }
      ],
      "stateMutability": "view",
      "type": "function"
    },
    {
      "inputs": [
        {
          "internalType": "uint256",
          "name": "hackathonId",
          "type": "uint256"
        },
        {
          "internalType": "uint256",
          "name": "projectId",
          "type": "uint256"
        }
      ],
      "name": "getProject",
      "outputs": [
        {
          "internalType": "string",
          "name": "name",
          "type": "string"
        },
        {
          "internalType": "string",
          "name": "description",
          "type": "string"
        },
        {
          "internalType": "string",
          "name": "githubUrl",
          "type": "string"
        },
        {
          "internalType": "string",
          "name": "demoUrl",
          "type": "string"
        },
        {
          "internalType": "address",
          "name": "participant",
          "type": "address"
        },
        {
          "internalType": "uint256",
          "name": "submissionTimestamp",
          "type": "uint256"
        }
      ],
      "stateMutability": "view",
      "type": "function"
    },
    {
      "inputs": [],
      "name": "hackathonCount",
      "outputs": [
        {
          "internalType": "uint256",
          "name": "",
          "type": "uint256"
        }
      ],
      "stateMutability": "view",
      "type": "function"
    },
    {
      "inputs": [
        {
          "internalType": "uint256",
          "name": "",
          "type": "uint256"
        }
      ],
      "name": "hackathons",
      "outputs": [
        {
          "internalType": "uint256",
          "name": "id",
          "type": "uint256"
        },
        {
          "internalType": "string",
          "name": "name",
          "type": "string"
        },
        {
          "internalType": "string",
          "name": "description",
          "type": "string"
        },
        {
          "internalType": "address",
          "name": "organizer",
          "type": "address"
        },
        {
          "internalType": "uint256",
          "name": "prizePoolWei",
          "type": "uint256"
        },
        {
          "internalType": "uint256",
          "name": "creationTimestamp",
          "type": "uint256"
        },
        {
          "internalType": "uint256",
          "name": "registrationDeadline",
          "type": "uint256"
        },
        {
          "internalType": "uint256",
          "name": "startDate",
          "type": "uint256"
        },
        {
          "internalType": "uint256",
          "name": "endDate",
          "type": "uint256"
        },
        {
          "internalType": "uint256",
          "name": "judgePoolBalance",
          "type": "uint256"
        },
        {
          "internalType": "uint256",
          "name": "organizerBalance",
          "type": "uint256"
        },
        {
          "internalType": "bool",
          "name": "active",
          "type": "bool"
        },
        {
          "internalType": "uint256",
          "name": "projectCount",
          "type": "uint256"
        }
      ],
      "stateMutability": "view",
      "type": "function"
    },
    {
      "inputs": [
        {
          "internalType": "uint256",
          "name": "hackerCoins",
          "type": "uint256"
        }
      ],
      "name": "hackerCoinsToWei",
      "outputs": [
        {
          "internalType": "uint256",
          "name": "",
          "type": "uint256"
        }
      ],
      "stateMutability": "pure",
      "type": "function"
    },
    {
      "inputs": [
        {
          "internalType": "uint256",
          "name": "hackathonId",
          "type": "uint256"
        },
        {
          "internalType": "address",
          "name": "addr",
          "type": "address"
        }
      ],
      "name": "isHackathonJudge",
      "outputs": [
        {
          "internalType": "bool",
          "name": "",
          "type": "bool"
        }
      ],
      "stateMutability": "view",
      "type": "function"
    },
    {
      "inputs": [
        {
          "internalType": "uint256",
          "name": "",
          "type": "uint256"
        },
        {
          "internalType": "address",
          "name": "",
          "type": "address"
        }
      ],
      "name": "isJudge",
      "outputs": [
        {
          "internalType": "bool",
          "name": "",
          "type": "bool"
        }
      ],
      "stateMutability": "view",
      "type": "function"
    },
    {
      "inputs": [],
      "name": "platformBalance",
      "outputs": [
        {
          "internalType": "uint256",
          "name": "",
          "type": "uint256"
        }
      ],
      "stateMutability": "view",
      "type": "function"
    },
    {
      "inputs": [],
      "name": "platformOwner",
      "outputs": [
        {
          "internalType": "address",
          "name": "",
          "type": "address"
        }
      ],
      "stateMutability": "view",
      "type": "function"
    },
    {
      "inputs": [
        {
          "internalType": "uint256",
          "name": "",
          "type": "uint256"
        },
        {
          "internalType": "uint256",
          "name": "",
          "type": "uint256"
        }
      ],
      "name": "projects",
      "outputs": [
        {
          "internalType": "uint256",
          "name": "id",
          "type": "uint256"
        },
        {
          "internalType": "uint256",
          "name": "hackathonId",
          "type": "uint256"
        },
        {
          "internalType": "string",
          "name": "name",
          "type": "string"
        },
        {
          "internalType": "string",
          "name": "description",
          "type": "string"
        },
        {
          "internalType": "string",
          "name": "githubUrl",
          "type": "string"
        },
        {
          "internalType": "string",
          "name": "demoUrl",
          "type": "string"
        },
        {
          "internalType": "address",
          "name": "participant",
          "type": "address"
        },
        {
          "internalType": "uint256",
          "name": "submissionTimestamp",
          "type": "uint256"
        }
      ],
      "stateMutability": "view",
      "type": "function"
    },
    {
      "inputs": [
        {
          "internalType": "uint256",
          "name": "hackathonId",
          "type": "uint256"
        },
        {
          "internalType": "string",
          "name": "projectName",
          "type": "string"
        },
        {
          "internalType": "string",
          "name": "projectDescription",
          "type": "string"
        },
        {
          "internalType": "string",
          "name": "githubUrl",
          "type": "string"
        },
        {
          "internalType": "string",
          "name": "demoUrl",
          "type": "string"
        }
      ],
      "name": "submitProject",
      "outputs": [],
      "stateMutability": "payable",
      "type": "function"
    },
    {
      "inputs": [
        {
          "internalType": "uint256",
          "name": "weiAmount",
          "type": "uint256"
        }
      ],
      "name": "weiToHackerCoins",
      "outputs": [
        {
          "internalType": "uint256",
          "name": "",
          "type": "uint256"
        }
      ],
      "stateMutability": "pure",
      "type": "function"
    },
    {
      "inputs": [],
      "name": "withdrawPlatformFees",
      "outputs": [],
      "stateMutability": "nonpayable",
      "type": "function"
    }
  ],
  "bytecode": "0x608060405234801561001057600080fd5b50600580546001600160a01b03191633179055612d23806100326000396000f3fe6080604052600436106101815760003560e01c8063a3966006116100d1578063cc3077951161008a578063d62e08aa11610064578063d62e08aa1461045a578063da3c0aa4146104a0578063dd9b0d80146104cd578063dfbac869146104fa57600080fd5b8063cc30779514610401578063cf2904271461042e578063d0b7830b1461044557600080fd5b8063a396600614610363578063aab18c1614610376578063adcf5b3d14610389578063ba9bf7571461039e578063c1077194146103b3578063cb29bb72146103ec57600080fd5b80634df8ccb11161013e5780637d48536d116101185780637d48536d1461018657806385818e72146102ce57806396ab773914610302578063a25232f51461031857600080fd5b80634df8ccb11461026d57806362a5dbbc146102a557806366e1006e146102bb57600080fd5b80631b77ed241461018657806323fcd3e4146101ae5780632ca34d93146101d05780634657fc6a1461020657806348d0cb571461022657806349df94641461023b575b600080fd5b34801561019257600080fd5b5061019b61051a565b6040519081526020015b60405180910390f35b3480156101ba57600080fd5b506101ce6101c93660046122d4565b61052b565b005b3480156101dc57600080fd5b506101f06101eb366004612397565b610ac8565b6040516101a59a999897969594939291906123f6565b34801561021257600080fd5b5061019b610221366004612397565b610c9f565b34801561023257600080fd5b5061019b601481565b34801561024757600080fd5b5061025b610256366004612469565b610cb4565b6040516101a59695949392919061248b565b34801561027957600080fd5b5060055461028d906001600160a01b031681565b6040516001600160a01b0390911681526020016101a5565b3480156102b157600080fd5b5061019b60045481565b6101ce6102c93660046124f7565b610fa5565b3480156102da57600080fd5b506102ee6102e9366004612469565b611268565b6040516101a5989796959493929190612523565b34801561030e57600080fd5b5061019b60015481565b34801561032457600080fd5b506103536103333660046124f7565b600360209081526000928352604080842090915290825290205460ff1681565b60405190151581526020016101a5565b6101ce610371366004612610565b6114dd565b6101ce610384366004612792565b611768565b34801561039557600080fd5b5061019b605081565b3480156103aa57600080fd5b5060045461019b565b3480156103bf57600080fd5b506103d36103ce366004612397565b611c44565b6040516101a59d9c9b9a9998979695949392919061285a565b3480156103f857600080fd5b5061019b600081565b34801561040d57600080fd5b5061042161041c366004612397565b611dc5565b6040516101a591906128e5565b34801561043a57600080fd5b5061019b620f424081565b34801561045157600080fd5b506101ce611f05565b34801561046657600080fd5b506103536104753660046124f7565b60009182526003602090815260408084206001600160a01b0393909316845291905290205460ff1690565b3480156104ac57600080fd5b506104c06104bb366004612397565b611fe6565b6040516101a591906129aa565b3480156104d957600080fd5b506104ed6104e83660046129c4565b612083565b6040516101a59190612a0f565b34801561050657600080fd5b5061019b610515366004612397565b6121a3565b610528620f42406001612a38565b81565b8260008111801561053e57506001548111155b6105635760405162461bcd60e51b815260040161055a90612a4f565b60405180910390fd5b6000848152602081905260409020600d0154849060ff166105965760405162461bcd60e51b815260040161055a90612a86565b60008581526020819052604090206003015485906001600160a01b031633146105f15760405162461bcd60e51b815260206004820152600d60248201526c2737ba1037b933b0b734bd32b960991b604482015260640161055a565b835185511461063a5760405162461bcd60e51b8152602060048201526015602482015274082e4e4c2f240d8cadccee8d040dad2e6dac2e8c6d605b1b604482015260640161055a565b600085511161068b5760405162461bcd60e51b815260206004820152601c60248201527f4174206c65617374206f6e652077696e6e657220726571756972656400000000604482015260640161055a565b6000868152602081905260408120855190919067ffffffffffffffff8111156106b6576106b66121b2565b6040519080825280602002602001820160405280156106df578160200160208202803683370190505b5090506000805b875181101561076e57620f424088828151811061070557610705612ab4565b60200260200101516107179190612a38565b83828151811061072957610729612ab4565b60200260200101818152505082818151811061074757610747612ab4565b60200260200101518261075a9190612aca565b91508061076681612add565b9150506106e6565b5082600401548111156107c35760405162461bcd60e51b815260206004820152601860248201527f5072697a657320657863656564207072697a6520706f6f6c0000000000000000604482015260640161055a565b60005b88518110156108c15760006001600160a01b03168982815181106107ec576107ec612ab4565b60200260200101516001600160a01b0316036108435760405162461bcd60e51b8152602060048201526016602482015275496e76616c69642077696e6e6572206164647265737360501b604482015260640161055a565b88818151811061085557610855612ab4565b60200260200101516001600160a01b03166108fc84838151811061087b5761087b612ab4565b60200260200101519081150290604051600060405180830381858888f193505050501580156108ae573d6000803e3d6000fd5b50806108b981612add565b9150506107c6565b50808360040160008282546108d69190612af6565b92505081905550887fec92dccf4a03653bc1a3d85019574bf62a659c47575779a889806684783b9e5c898460405161090f929190612b09565b60405180910390a2600083600b015411801561092e5750600983015415155b15610a17576009830154600b84015460009161094991612b37565b905060005b60098501548110156109c25784600901818154811061096f5761096f612ab4565b60009182526020822001546040516001600160a01b039091169184156108fc02918591818181858888f193505050501580156109af573d6000803e3d6000fd5b50806109ba81612add565b91505061094e565b50600b84015460098501546040518c927fd7a5ed460dbf7886fdeb07e60e3ba47bda207ef714efd849b50d0d740d1aa5a492610a0692918252602082015260400190565b60405180910390a2506000600b8401555b600c83015415610ab357600c83018054600091829055600385015460405191926001600160a01b039091169183156108fc0291849190818181858888f19350505050158015610a6a573d6000803e3d6000fd5b5060038401546040518281526001600160a01b03909116908b907f2341587e69938509c4731d6ce2058ff14e7313743097d35b00c03894c37e6f569060200160405180910390a3505b5050600d01805460ff19169055505050505050565b6060806000806000806000806000808a600081118015610aea57506001548111155b610b065760405162461bcd60e51b815260040161055a90612a4f565b60008c815260208190526040902060038101546004820154600e8301546009840154600d850154600686015460078701546008880154600189018054909860028b01986001600160a01b039091169790969095909460ff90911693909290918a90610b7090612b59565b80601f0160208091040260200160405190810160405280929190818152602001828054610b9c90612b59565b8015610be95780601f10610bbe57610100808354040283529160200191610be9565b820191906000526020600020905b815481529060010190602001808311610bcc57829003601f168201915b50505050509950888054610bfc90612b59565b80601f0160208091040260200160405190810160405280929190818152602001828054610c2890612b59565b8015610c755780601f10610c4a57610100808354040283529160200191610c75565b820191906000526020600020905b815481529060010190602001808311610c5857829003601f168201915b505050505098509b509b509b509b509b509b509b509b509b509b5050509193959799509193959799565b6000610cae620f424083612b37565b92915050565b6000828152600260208181526040808420858552909152822090810180546060938493849384938392918391610ce990612b59565b905011610d315760405162461bcd60e51b8152602060048201526016602482015275141c9bda9958dd08191bd95cc81b9bdd08195e1a5cdd60521b604482015260640161055a565b806002018160030182600401836005018460060160009054906101000a90046001600160a01b03168560070154858054610d6a90612b59565b80601f0160208091040260200160405190810160405280929190818152602001828054610d9690612b59565b8015610de35780601f10610db857610100808354040283529160200191610de3565b820191906000526020600020905b815481529060010190602001808311610dc657829003601f168201915b50505050509550848054610df690612b59565b80601f0160208091040260200160405190810160405280929190818152602001828054610e2290612b59565b8015610e6f5780601f10610e4457610100808354040283529160200191610e6f565b820191906000526020600020905b815481529060010190602001808311610e5257829003601f168201915b50505050509450838054610e8290612b59565b80601f0160208091040260200160405190810160405280929190818152602001828054610eae90612b59565b8015610efb5780601f10610ed057610100808354040283529160200191610efb565b820191906000526020600020905b815481529060010190602001808311610ede57829003601f168201915b50505050509350828054610f0e90612b59565b80601f0160208091040260200160405190810160405280929190818152602001828054610f3a90612b59565b8015610f875780601f10610f5c57610100808354040283529160200191610f87565b820191906000526020600020905b815481529060010190602001808311610f6a57829003601f168201915b50505050509250965096509650965096509650509295509295509295565b81600081118015610fb857506001548111155b610fd45760405162461bcd60e51b815260040161055a90612a4f565b6000838152602081905260409020600d0154839060ff166110075760405162461bcd60e51b815260040161055a90612a86565b60008481526020819052604090206003015484906001600160a01b031633146110625760405162461bcd60e51b815260206004820152600d60248201526c2737ba1037b933b0b734bd32b960991b604482015260640161055a565b6001600160a01b0384166110b05760405162461bcd60e51b8152602060048201526015602482015274496e76616c6964206a75646765206164647265737360581b604482015260640161055a565b60008581526003602090815260408083206001600160a01b038816845290915290205460ff16156111155760405162461bcd60e51b815260206004820152600f60248201526e416c72656164792061206a7564676560881b604482015260640161055a565b611123620f42406001612a38565b34101561117d5760405162461bcd60e51b815260206004820152602260248201527f496e73756666696369656e74207061796d656e7420666f72206a756467652066604482015261656560f01b606482015260840161055a565b600085815260208181526040808320600981018054600180820183559186528486200180546001600160a01b0319166001600160a01b038b169081179091558a86526003855283862081875290945291909320805460ff1916821790556108fc906111ec90620f424090612a38565b6040518115909202916000818181858888f19350505050158015611214573d6000803e3d6000fd5b506001600160a01b038516867f2e52a072f9c8b68344176c3c5ab5eb12950f749471dcebaa8b0fdc692857a0c961124f620f42406001612a38565b60405190815260200160405180910390a3505050505050565b600260208181526000938452604080852090915291835291208054600182015492820180549193929161129a90612b59565b80601f01602080910402602001604051908101604052809291908181526020018280546112c690612b59565b80156113135780601f106112e857610100808354040283529160200191611313565b820191906000526020600020905b8154815290600101906020018083116112f657829003601f168201915b50505050509080600301805461132890612b59565b80601f016020809104026020016040519081016040528092919081815260200182805461135490612b59565b80156113a15780601f10611376576101008083540402835291602001916113a1565b820191906000526020600020905b81548152906001019060200180831161138457829003601f168201915b5050505050908060040180546113b690612b59565b80601f01602080910402602001604051908101604052809291908181526020018280546113e290612b59565b801561142f5780601f106114045761010080835404028352916020019161142f565b820191906000526020600020905b81548152906001019060200180831161141257829003601f168201915b50505050509080600501805461144490612b59565b80601f016020809104026020016040519081016040528092919081815260200182805461147090612b59565b80156114bd5780601f10611492576101008083540402835291602001916114bd565b820191906000526020600020905b8154815290600101906020018083116114a057829003601f168201915b50505050600683015460079093015491926001600160a01b031691905088565b846000811180156114f057506001548111155b61150c5760405162461bcd60e51b815260040161055a90612a4f565b6000868152602081905260409020600d0154869060ff1661153f5760405162461bcd60e51b815260040161055a90612a86565b61154d620f42406001612a38565b34101561159c5760405162461bcd60e51b815260206004820152601b60248201527f496e73756666696369656e74207375626d697373696f6e206665650000000000604482015260640161055a565b60008651116115e55760405162461bcd60e51b8152602060048201526015602482015274141c9bda9958dd081b985b59481c995c5d5a5c9959605a1b604482015260640161055a565b6000878152602081905260408120600e81018054919261160483612add565b90915550506000888152600260208181526040808420600e8601548086529252909220918255600182018a9055810161163d8982612bdc565b506003810161164c8882612bdc565b506004810161165b8782612bdc565b506005810161166a8682612bdc565b506006810180546001600160a01b03191633179055426007820155600060646014611699620f42406001612a38565b6116a39190612a38565b6116ad9190612b37565b90506000606460506116c3620f42406001612a38565b6116cd9190612a38565b6116d79190612b37565b90508184600c0160008282546116ed9190612aca565b925050819055508084600b0160008282546117089190612aca565b9091555050600e84015433908c7f86ef949d57e272497938a9a14dffa96f0273668710ef813d2bc69c1587b28bfe8d611745620f42406001612a38565b604051611753929190612c9c565b60405180910390a45050505050505050505050565b60008751116117a95760405162461bcd60e51b815260206004820152600d60248201526c13985b59481c995c5d5a5c9959609a1b604482015260640161055a565b60008551116117fa5760405162461bcd60e51b815260206004820152601b60248201527f4174206c65617374206f6e65206a756467652072657175697265640000000000604482015260640161055a565b6000805b855181101561185157620f424086828151811061181d5761181d612ab4565b6020026020010151602001516118339190612a38565b61183d9083612aca565b91508061184981612add565b9150506117fe565b506000611862620f42406001612a38565b875161186e9190612a38565b905060008161187d8483612aca565b6118879190612aca565b9050803410156118d05760405162461bcd60e51b8152602060048201526014602482015273125b9cdd59999a58da595b9d081c185e5b595b9d60621b604482015260640161055a565b600180549060006118e083612add565b90915550506001805460008181526020819052604090209081559081016119078c82612bdc565b50600281016119168b82612bdc565b506003810180546001600160a01b0319163317905560048101849055426005820155600681018790556007810186905560088101859055600d8101805460ff191660011790556000600b8201819055600c8201819055600e82018190555b88518110156119ee5781600a0189828151811061199357611993612ab4565b602090810291909101810151825460018101845560009384529190922082516003909202019081906119c59082612bdc565b5060208201516001820155604090910151600290910155806119e681612add565b915050611974565b5060005b8951811015611bd05760008a8281518110611a0f57611a0f612ab4565b6020026020010151905060006001600160a01b0316816001600160a01b031603611a735760405162461bcd60e51b8152602060048201526015602482015274496e76616c6964206a75646765206164647265737360581b604482015260640161055a565b60015460009081526003602090815260408083206001600160a01b038516845290915290205460ff1615611adb5760405162461bcd60e51b815260206004820152600f60248201526e4475706c6963617465206a7564676560881b604482015260640161055a565b600983018054600180820183556000928352602080842090920180546001600160a01b0319166001600160a01b0386169081179091558154845260038352604080852082865290935291909220805460ff191683179055906108fc90611b4590620f424090612a38565b6040518115909202916000818181858888f19350505050158015611b6d573d6000803e3d6000fd5b50806001600160a01b03166001547f2e52a072f9c8b68344176c3c5ab5eb12950f749471dcebaa8b0fdc692857a0c9620f42406001611bac9190612a38565b60405190815260200160405180910390a35080611bc881612add565b9150506119f2565b50600060046000828254611be49190612aca565b92505081905550336001600160a01b03166001547fa47aa39d6ac62056016efa5af31b5ed4625d9b3bc0b2421ab17322373d65756b8d8760008e51604051611c2f9493929190612cbe565b60405180910390a35050505050505050505050565b60006020819052908152604090208054600182018054919291611c6690612b59565b80601f0160208091040260200160405190810160405280929190818152602001828054611c9290612b59565b8015611cdf5780601f10611cb457610100808354040283529160200191611cdf565b820191906000526020600020905b815481529060010190602001808311611cc257829003601f168201915b505050505090806002018054611cf490612b59565b80601f0160208091040260200160405190810160405280929190818152602001828054611d2090612b59565b8015611d6d5780601f10611d4257610100808354040283529160200191611d6d565b820191906000526020600020905b815481529060010190602001808311611d5057829003601f168201915b505050600384015460048501546005860154600687015460078801546008890154600b8a0154600c8b0154600d8c0154600e909c01549a9b6001600160a01b039098169a9699509497509295919490939160ff16908d565b606081600081118015611dda57506001548111155b611df65760405162461bcd60e51b815260040161055a90612a4f565b600083815260208181526040808320600a0180548251818502810185019093528083529193909284015b82821015611ef85783829060005260206000209060030201604051806060016040529081600082018054611e5390612b59565b80601f0160208091040260200160405190810160405280929190818152602001828054611e7f90612b59565b8015611ecc5780601f10611ea157610100808354040283529160200191611ecc565b820191906000526020600020905b815481529060010190602001808311611eaf57829003601f168201915b505050505081526020016001820154815260200160028201548152505081526020019060010190611e20565b5050505091505b50919050565b6005546001600160a01b03163314611f555760405162461bcd60e51b815260206004820152601360248201527227b7363c90383630ba3337b9369037bbb732b960691b604482015260640161055a565b600060045411611f9d5760405162461bcd60e51b81526020600482015260136024820152724e6f206665657320746f20776974686472617760681b604482015260640161055a565b6004805460009182905560055460405191926001600160a01b039091169183156108fc0291849190818181858888f19350505050158015611fe2573d6000803e3d6000fd5b5050565b606081600081118015611ffb57506001548111155b6120175760405162461bcd60e51b815260040161055a90612a4f565b600083815260208181526040918290206009018054835181840281018401909452808452909183018282801561207657602002820191906000526020600020905b81546001600160a01b03168152600190910190602001808311612058575b5050505050915050919050565b6060600060015b60015481116120de5760008181526003602090815260408083206001600160a01b038816845290915290205460ff16156120cc57816120c881612add565b9250505b806120d681612add565b91505061208a565b508067ffffffffffffffff8111156120f8576120f86121b2565b604051908082528060200260200182016040528015612121578160200160208202803683370190505b509150600060015b600154811161219b5760008181526003602090815260408083206001600160a01b038916845290915290205460ff1615612189578084838151811061217057612170612ab4565b60209081029190910101528161218581612add565b9250505b8061219381612add565b915050612129565b505050919050565b6000610cae620f424083612a38565b634e487b7160e01b600052604160045260246000fd5b6040516060810167ffffffffffffffff811182821017156121eb576121eb6121b2565b60405290565b604051601f8201601f1916810167ffffffffffffffff8111828210171561221a5761221a6121b2565b604052919050565b600067ffffffffffffffff82111561223c5761223c6121b2565b5060051b60200190565b80356001600160a01b038116811461225d57600080fd5b919050565b600082601f83011261227357600080fd5b8135602061228861228383612222565b6121f1565b82815260059290921b840181019181810190868411156122a757600080fd5b8286015b848110156122c9576122bc81612246565b83529183019183016122ab565b509695505050505050565b6000806000606084860312156122e957600080fd5b8335925060208085013567ffffffffffffffff8082111561230957600080fd5b61231588838901612262565b9450604087013591508082111561232b57600080fd5b508501601f8101871361233d57600080fd5b803561234b61228382612222565b81815260059190911b8201830190838101908983111561236a57600080fd5b928401925b828410156123885783358252928401929084019061236f565b80955050505050509250925092565b6000602082840312156123a957600080fd5b5035919050565b6000815180845260005b818110156123d6576020818501810151868301820152016123ba565b506000602082860101526020601f19601f83011685010191505092915050565b600061014080835261240a8184018e6123b0565b9050828103602084015261241e818d6123b0565b6001600160a01b039b909b16604084015250506060810197909752608087019590955260a086019390935290151560c085015260e08401526101008301526101209091015292915050565b6000806040838503121561247c57600080fd5b50508035926020909101359150565b60c08152600061249e60c08301896123b0565b82810360208401526124b081896123b0565b905082810360408401526124c481886123b0565b905082810360608401526124d881876123b0565b6001600160a01b03959095166080840152505060a00152949350505050565b6000806040838503121561250a57600080fd5b8235915061251a60208401612246565b90509250929050565b60006101008a83528960208401528060408401526125438184018a6123b0565b9050828103606084015261255781896123b0565b9050828103608084015261256b81886123b0565b905082810360a084015261257f81876123b0565b6001600160a01b039590951660c0840152505060e001529695505050505050565b600082601f8301126125b157600080fd5b813567ffffffffffffffff8111156125cb576125cb6121b2565b6125de601f8201601f19166020016121f1565b8181528460208386010111156125f357600080fd5b816020850160208301376000918101602001919091529392505050565b600080600080600060a0868803121561262857600080fd5b85359450602086013567ffffffffffffffff8082111561264757600080fd5b61265389838a016125a0565b9550604088013591508082111561266957600080fd5b61267589838a016125a0565b9450606088013591508082111561268b57600080fd5b61269789838a016125a0565b935060808801359150808211156126ad57600080fd5b506126ba888289016125a0565b9150509295509295909350565b600082601f8301126126d857600080fd5b813560206126e861228383612222565b82815260059290921b8401810191818101908684111561270757600080fd5b8286015b848110156122c957803567ffffffffffffffff8082111561272c5760008081fd5b908801906060828b03601f19018113156127465760008081fd5b61274e6121c8565b87840135838111156127605760008081fd5b61276e8d8a838801016125a0565b8252506040848101358983015291909301359083015250835291830191830161270b565b600080600080600080600060e0888a0312156127ad57600080fd5b873567ffffffffffffffff808211156127c557600080fd5b6127d18b838c016125a0565b985060208a01359150808211156127e757600080fd5b6127f38b838c016125a0565b975060408a013591508082111561280957600080fd5b6128158b838c01612262565b965060608a013591508082111561282b57600080fd5b506128388a828b016126c7565b979a969950949760808101359660a0820135965060c090910135945092505050565b8d81526101a0602082015260006128756101a083018f6123b0565b8281036040840152612887818f6123b0565b6001600160a01b039d909d1660608401525050608081019990995260a089019790975260c088019590955260e08701939093526101008601919091526101208501526101408401521515610160830152610180909101529392505050565b60006020808301818452808551808352604092508286019150828160051b87010184880160005b8381101561295857603f19898403018552815160608151818652612932828701826123b0565b838b0151878c01529289015195890195909552509487019492509086019060010161290c565b509098975050505050505050565b600081518084526020808501945080840160005b8381101561299f5781516001600160a01b03168752958201959082019060010161297a565b509495945050505050565b6020815260006129bd6020830184612966565b9392505050565b6000602082840312156129d657600080fd5b6129bd82612246565b600081518084526020808501945080840160005b8381101561299f578151875295820195908201906001016129f3565b6020815260006129bd60208301846129df565b634e487b7160e01b600052601160045260246000fd5b8082028115828204841417610cae57610cae612a22565b60208082526018908201527f4861636b6174686f6e20646f6573206e6f742065786973740000000000000000604082015260600190565b6020808252601490820152734861636b6174686f6e206e6f742061637469766560601b604082015260600190565b634e487b7160e01b600052603260045260246000fd5b80820180821115610cae57610cae612a22565b600060018201612aef57612aef612a22565b5060010190565b81810381811115610cae57610cae612a22565b604081526000612b1c6040830185612966565b8281036020840152612b2e81856129df565b95945050505050565b600082612b5457634e487b7160e01b600052601260045260246000fd5b500490565b600181811c90821680612b6d57607f821691505b602082108103611eff57634e487b7160e01b600052602260045260246000fd5b601f821115612bd757600081815260208120601f850160051c81016020861015612bb45750805b601f850160051c820191505b81811015612bd357828155600101612bc0565b5050505b505050565b815167ffffffffffffffff811115612bf657612bf66121b2565b612c0a81612c048454612b59565b84612b8d565b602080601f831160018114612c3f5760008415612c275750858301515b600019600386901b1c1916600185901b178555612bd3565b600085815260208120601f198616915b82811015612c6e57888601518255948401946001909101908401612c4f565b5085821015612c8c5787850151600019600388901b60f8161c191681555b5050505050600190811b01905550565b604081526000612caf60408301856123b0565b90508260208301529392505050565b608081526000612cd160808301876123b0565b602083019590955250604081019290925260609091015291905056fea26469706673582212201a0769ba0abce7188bb4c6d94c332bc05bebf125f88b0078e3030649f50afcdb64736f6c63430008140033",
  "linkReferences": {},
  "deployedLinkReferences": {}
}